:020000040800F2
:10000000102800204501000813070008AF0400086D
:1000100011070008A1030008C5080008000000003F
:10002000000000000000000000000000B107000810
:10003000A30300080000000035070008B30700080C
:100040005F0100085F0100085F0100085F01000810
:100050005F0100085F0100085F0100085F01000800
:100060005F0100085F0100085F0100085F010008F0
:100070005F0100085F0100085F0100085F010008E0
:100080005F0100085F0100085F0100085F010008D0
:100090005F0100085F0100085F0100085F010008C0
:1000A0005F0100085F0100085F0100085F010008B0
:1000B0005F0100085F0100085F0100085F010008A0
:1000C0005F0100085F0100085F0100085F01000890
:1000D0005F0100085F0100085F010008590800087F
:1000E0005F0100085F0100085F0100085F01000870
:1000F0005F0100085F0100085F0100085F01000860
:100100005F0100085F0100085F0100085F0100084F
:100110005F0100085F0100085F0100085F0100083F
:100120005F0100085F0100085F0100085F0100082F
:10013000DFF80CD000F06EF800480047851000088A
:10014000102800200648804706480047FEE7FEE7E3
:10015000FEE7FEE7FEE7FEE7FEE7FEE7FEE7FEE777
:10016000B90700083101000840EA01039B0703D0EA
:1001700009E008C9121F08C0042AFAD203E011F8E6
:10018000013B00F8013B521EF9D27047D2B201E0A8
:1001900000F8012B491EFBD270470022F6E710B58C
:1001A00013460A4604461946FFF7F0FF204610BDE5
:1001B0002DE9F05F0546002092469B46884606469C
:1001C000814640241BE0284641464746224600F02F
:1001D00042F853465A46C01A914110D31146184668
:1001E000224600F029F82D1A67EB01084F462246F7
:1001F0000120002100F020F817EB00094E41201EDD
:10020000A4F10104DFDC484631462A464346BDE8F6
:10021000F09F0000064C074D06E0E06840F0010347
:1002200094E8070098471034AC42F6D3FFF784FFF8
:100230002C1600084C160008202A04DB203A00FA8D
:1002400002F1002070479140C2F1200320FA03F32D
:10025000194390407047202A04DB203A21FA02F02B
:100260000021704721FA02F3D040C2F120029140F0
:1002700008431946704700002DE9FC410003202681
:100280008DF80060C0F307458DF80150C0F30724D6
:100290008DF8024000278DF8037000F065F8DFF854
:1002A00040801021404600F02BFE304600F0FEFF5B
:1002B000284600F0FBFF204600F0F8FF384600F02B
:1002C000F5FF1021404600F01DFE322000F07CFCBE
:1002D00000F008F80228FBD00020BDE8FC810000F7
:1002E0000008014038B50BA0006800900A4D1021AD
:1002F000284600F005FE9DF8000000F0D7FF0446F8
:100300001021284600F0FEFDE00701D0022038BD94
:10031000002038BD050000000008014010B500F0C5
:100320000FFA00F005F8BDE81040FFF7DBBF000052
:1003300038B50BA0006800900A4C1021204600F050
:10034000DFFD9DF8000000F0B1FF9DF8010000F016
:10035000ADFF2046BDE83840102100F0D3BD0000BD
:10036000669900000008014038B50BA000680090B5
:100370000A4C1021204600F0C3FD9DF8000000F05B
:1003800095FF1021204600F0BDFDFFF7ABFF0228CE
:10039000FBD0002038BD000006000000000801402E
:1003A000FEE7704770B5044600F0E0FC074D07E03B
:1003B000204600F081FC08B1012070BD04F5006406
:1003C000AC42F5D900F064FC002070BD00000408C8
:1003D00010B500F0CBFC40F2053000F04BFC4FF4C0
:1003E000417000F047FC40F2023000F043FCBDE8F1
:1003F000104000F04DBC00002DE9F84305460C46C6
:100400001646B4F5800F02D30120BDE8F883FFF74C
:10041000ABFF02208DF80000200C8DF80100200AAF
:100420008DF802008DF803400F4F1021384600F080
:1004300067FD0024E84618F8040000F07FF9641C0A
:10044000042CF8DB002403E0285D00F077F9641C3D
:10045000B442F9DB1021384600F054FDFFF742FFAB
:100460000228FBD00020D0E7000801402DE9F04130
:1004700007460E461546F0B2C0F58074A54200D876
:10048000ACB24FF4807806E0274426442D1B444646
:10049000A54200D8ACB2224631463846FFF7ACFF41
:1004A000012000F091FBA542EED1BDE8F081FEE70E
:1004B0002DE9F8430D46164603218DF80010010C76
:1004C0008DF80110010A8DF802108DF80300FFF776
:1004D00009FF0028FBD10E4F1021384600F010FD17
:1004E0000024E84618F8040000F028F9641C042CE5
:1004F000F8DB002403E000F01EF92855641CB44228
:10050000F9DB3846BDE8F843102100F0FBBC0000E1
:10051000000801402DE9F04F81B0ADF5805D8846BF
:100520001546070B3F034FEA1039C0F30B06C6F51B
:100530008054A54200D82C464FF4805B0DF1040A8C
:1005400059465046FFF729FE5A4651463846FFF7AE
:10055000AFFF002009E031181AF80110FF2903D07D
:1005600018F80020914202D1401CA042F3D3A042CF
:100570000FD21FFA89F0FFF77FFE0AEB0600224632
:100580004146FFF7F1FD5A4639465046FFF76EFFE8
:1005900004E0B91922464046FFF768FFA5420CD097
:1005A00007F5805709F101090026A044281B85B2F0
:1005B0005C465D45C8D22C46C6E701B00DF5805DAE
:1005C000BDE8F08F2DE9F04140F2026000F01CFE22
:1005D00040F2036000F018FE40F2046000F014FEE8
:1005E00040F2056000F010FE4FF4C06000F00CFE19
:1005F0000121434800F0DAFC424C4FF440730322DF
:100600001021204600F080FC3F4D1023032248219A
:10061000284600F079FCA31403222821284600F084
:1006200073FC4AF2E30303221021284600F06CFC1D
:10063000364E4FF4927303224821304600F064FC9A
:1006400043F60B0303221021304600F05DFC6715D2
:100650003946204600F056FC012000F0B5FA394634
:10066000204600F04DFC142000F0AEFA394620463A
:1006700000F048FC012000F0A7FA3946204600F0BF
:100680003FFC142000F0A0FA3946204600F03AFC66
:10069000012000F099FA3946204600F031FC142080
:1006A00000F092FA3946204600F02CFC012000F0C0
:1006B0008BFA3946204600F023FCE114304600F066
:1006C00021FC8021284600F01DFCB901284600F0DD
:1006D00017FCA115204600F015FC0121284600F06A
:1006E0000FFC6114284600F00BFC3946204600F050
:1006F00009FC39462046BDE8F04100F001BC00008D
:100700000002300000080140000C014000100140D0
:10071000FEE770470907090E002806DA00F00F000F
:1007200000F1E02080F8141D704700F1E02080F80F
:10073000001470477047FF2000F0B8BD00F0B6BD50
:1007400070B540F2026000F05FFD40F2046000F01E
:100750005BFD154CB02303221021204600F0D4FB92
:10076000402303220421204600F0CEFB0F4D4FF41E
:10077000047303221021284600F0C6FB10212846EE
:1007800000F0C0FB6115284600F0BCFB102120469C
:1007900000F0B8FB2021204600F0B4FB2046BDE865
:1007A0007040802100F0AEBB000801400010014005
:1007B000704700F011BA000008B52348016841F005
:1007C0000101016001688907FCD5416841F08001A1
:1007D00041600022009202E00099491C00910099BA
:1007E0005029F9D3416841F090014160009202E044
:1007F0000099491C009100995029F9D3416821F0D2
:1008000003014160026811490A4002604268104BCE
:100810001A40426002680A400260026822F48022A4
:10082000026042680B4B1A40426002680A40026054
:100830004FF41F01816000F0B1FDBDE808400021C8
:100840004FF0006000F0CABC00100240FFFFF6FE4F
:100850000C00FFE8FFFF00F770B5164D164C294657
:10086000204600F0AFFE30B1204600F08DFE294654
:10087000204600F09EFE114D2046294600F0A2FEC3
:1008800030B12946204600F094FE204600F07CFE60
:100890000B4D2046294600F095FE002808D0294639
:1008A000204600F086FE2046BDE8704000F06CBE99
:1008B00070BD00000503050000480040040304006B
:1008C00005030300FEE700000FB4054B10B503A9B4
:1008D000044A029800F018F810BC5DF814FB000000
:1008E000390E00080800002002E008C8121F08C1E5
:1008F000002AFAD170477047002001E001C1121FA1
:10090000002AFBD1704700002DE9FF4F8DB09B46B8
:100910000F460446002606E025280BD05A460F99BC
:100920009047641C761C20780028F5D111B0304621
:10093000BDE8F08F0025A8460122984900E0054354
:1009400014F8013F203B02FA03F00842F7D1207867
:100950002E2817D114F8010F45F004052A280ED0CF
:100960006FF02F022078A0F1300109290AD808EB96
:10097000880102EB410100EB0108641CF2E757F823
:10098000048B641C20786C280DD004DC4C2812D019
:100990006A2811D104E074280DD07A280CD10AE01D
:1009A00045F4001507E0617845F48015814202D1D5
:1009B000641C05F58015641C2278692A45D008DC82
:1009C000002AB3D0582A69D0632A10D0642A08D1EB
:1009D0003BE0702A67D0732A13D0752A5CD0782A3E
:1009E0005CD010465A460F999047761CD3E017F812
:1009F000040B8DF8000000208DF80100E94601206D
:100A000003E057F8049B4FF0FF3069074FF00005F3
:100A100001D40AE06D1C45450DDA8542FADB19F870
:100A200005100029F6D106E06D1C8542FCDB19F8A3
:100A300005100029F8D12E4404E019F8010B5A469C
:100A40000F9990476D1EF8D2A5E00A200021CDE94C
:100A50000801C5F3025002280DD001CFC117031EB3
:100A600071F100030DDA4FF0000CD0EB0C006CEBD1
:100A700001012D2308E0FF1D27F00707F7E8020119
:100A8000EDE72B0504D52B238DF8283001233BE01F
:100A9000EB0739D02023F7E70A2000E010200021DF
:100AA000CDE9080107E01020002145F00405CDE95B
:100AB00008014FF00808C5F3025002280FD001CFFB
:100AC00000214FF0000A2B071FD5702A0DD0DDE959
:100AD00008C38CF0100C5CEA030C0CD015E0FF1D71
:100AE00027F00707F7E80201EBE740228DF82820FE
:100AF0004FF0010A0BE050EA010306D030238DF8D5
:100B000028308DF8292002239A46582A04D024A29E
:100B10000DF120090B9209E026A2F9E7DDE908238F
:100B2000FFF746FB0B9B9B5C09F8013D50EA010275
:100B3000F4D1ADEB090020300890680701D44FF0E4
:100B400001080899884502DDA8EB010000E00020BB
:100B50008046002506E00AA85A46405D0F99904756
:100B60006D1C761C5545F6DB04E030205A460F9983
:100B70009047761CB8F10001A8F10108F5DC05E00A
:100B800019F8010B5A460F999047761C0899481E90
:100B900008900029F4DC641CC5E600000928010067
:100BA00030313233343536373839616263646566E3
:100BB00000000000303132333435363738394142A5
:100BC00043444546000000000249086008680028C8
:100BD000FCD170470400002003480168002902D0BE
:100BE0000168491E016070470400002000B50346FB
:100BF00000F00AF85B1E012801D1002BF8D1012872
:100C000000D1042000BD000000200849CA68D207B6
:100C100001D001207047CA68D20601D50320704771
:100C2000C9684907FBD50220704700000020024038
:100C300000B5034600F00AF85B1E012801D1002B25
:100C4000F8D1012800D1042000BD0000002008498F
:100C5000CA6CD20701D001207047CA6CD20601D5F8
:100C600003207047C96C4907FBD50220704700007C
:100C700000200240054901EB90110A6800F01F03B3
:100C80000120984002430A607047000000200240A3
:100C90000748016941F08001016106490988B1F501
:100CA000007F03D9016D41F08001016570470000AC
:100CB00000200240E0F7FF1F70B504462848294D88
:100CC0004FF470260088B0F5007F32D92648844260
:100CD00015D23046FFF78AFF00280FD1286940F06F
:100CE000020028616C61286940F0400028613046AC
:100CF000FFF77CFF296921F00201296170BD3046B0
:100D0000FFF796FF0028F9D1286D40F00200286512
:100D10006C65E869800700D56C61286D40F0400083
:100D200028653046FFF784FF296D21F0020129650F
:100D300070BD3046FFF75AFF0028F9D1286940F00E
:100D4000020028616C61286940F04000286130464B
:100D5000FFF74CFF296921F00201296170BD0000F5
:100D6000E0F7FF1F00200240FFFF07080948016964
:100D7000094A0B06094901D542604160084B1B88AE
:100D8000B3F5007F04D9036D1B0601D542644164AD
:100D9000704700000020024023016745AB89EFCD7A
:100DA000E0F7FF1FF0B504460D462048204E4FF4F3
:100DB00070270088B0F5007F26D91E48844211D2E2
:100DC0003846FFF713FF00280BD1306940F00100CF
:100DD000306125603846FFF709FF316921F00101D4
:100DE0003161F0BD3846FFF723FF0028F9D1306D9F
:100DF00040F00100306525603846FFF719FF316D7E
:100E000021F001013165F0BD3846FFF7EFFE002803
:100E1000F9D1306940F00100306125603846FFF7B4
:100E2000E5FE316921F001013161F0BDE0F7FF1FFE
:100E300000200240FFFF070870B50446064DE1B2EE
:100E4000284600F0A5FB0721284600F0A5FB002856
:100E5000F9D0204670BD00000048004010B50023C6
:100E600002E0C45CCC545B1C9342FAD3012010BD59
:100E70002DE9F04705460E4617460024FFF776FF9A
:100E800040F205384FF4417940F2023A21E03159FD
:100E90002819FFF787FF38B1FFF7FAFE10A0FFF718
:100EA00013FD0020BDE8F0874046FFF7E3FE48460B
:100EB000FFF7E0FE5046FFF7DDFE30592959884222
:100EC00006D0FFF7E5FE0AA0FFF7FEFC0020E9E7E9
:100ED000241DBC42DBD3FFF7DBFE0120E2E700006C
:100EE0007772697465206572726F72320D0A000044
:100EF0007772697465206572726F7220310D0A0015
:100F000041617047016170472DE9F04301F00F0422
:100F1000CD0600D5144300224FF00F0C012707FA2D
:100F200002F51D4014D0D0F8008096000CFA06F9A6
:100F300028EA090804FA06F949EA0809282902D02A
:100F4000482902D002E0456100E00561C0F8009048
:100F5000521C92B2082AE2D3082207FA02F51D4079
:100F600016D0D0F80480A2F10806B6000CFA06F9F3
:100F700028EA090804FA06F949EA0809282902D0EA
:100F8000482902D002E0456100E00561C0F8049004
:100F9000521C92B2102AE0D3BDE8F0838068084268
:100FA00001D001207047002070470000F0B5154CBB
:100FB000002801DAE36900E06368C0F30346420DEC
:100FC000120185B2C0F301579540032F07D0C2022A
:100FD0000CD50322B240934343F0706209E023F042
:100FE0007062636823F07063636002E0AB4343F0B8
:100FF000706201B12A43002801DAE261F0BD62604B
:10100000F0BD00000000014008B572B6012181F377
:101010001088104A01681140B1F1005F09D00EA09C
:10102000FFF752FCBDE8084089220E490EA0FFF7E9
:101030004BBC416800910099006880F3088888479C
:101040000CA0FFF741FCBDE808408522054906A039
:10105000FFF73ABC0000FE2F4E6F204A756D7020DE
:101060000D0A00001E1600085B25735D5B25645D9C
:101070000D0A00004A756D70206572726F722E0D38
:101080000A000000002000F0B5F800F089F9FFF731
:1010900099FAFFF79DF9002441F28835FFF73EF9F0
:1010A00018B1641CA4B2AC42F8D31420FFF78CFD35
:1010B00000F0B8F81EA0FFF707FC2022224923A069
:1010C000FFF702FC244C25A02168FFF7FDFB21223D
:1010D0001D491EA0FFF7F8FB616829A0FFF7F4FB8C
:1010E0002222194919A0FFF7EFFB217A2DA0FFF763
:1010F000EBFB2322144915A0FFF7E6FB207A012819
:1011000013D000F0A3F800F0A1F84FF47A7400F0C7
:10111000C1F82DA0FFF7D8FB34220B490BA0FFF735
:10112000D3FB2046FFF750FDF1E700F05FF9EAE757
:101130005468697320697320626F6F746C6F6164A7
:1011400065720D0A00000000081600085B25735D3B
:101150005B25645D0D0A00000C000020675F757060
:101160006772616465706172616D5F646174612E44
:101170007569416464723D307825780D0A0000007D
:10118000675F75706772616465706172616D5F64DD
:101190006174612E75694C656E3D307825780D0A55
:1011A00000000000675F757067726164657061724E
:1011B000616D5F646174612E7563557064617465FF
:1011C0003D307825780D0A00426F6F746C6F616452
:1011D0006572206572726F722E0D0A00034A11400B
:1011E000014303480160BFF34F8F704780FFFF1F2B
:1011F00008ED00E0034A516821F0F001014351601D
:101200007047000000100240054901EB90110A6888
:1012100000F01F030120984002430A60704700005D
:101220000010024010B54FF4807206490020FFF70D
:101230003FF9BDE810404FF4007203490020FFF76A
:1012400037B900000C0000200C01002010B506A0EA
:10125000FFF73AFB90220A490AA0FFF735FBBDE8E9
:1012600010400B48FFF7D0BE0D0A4A756D70206123
:101270007070212121212121212121210D0A00002D
:101280000D1600085B25735D5B25645D0D0A00008B
:101290000040000810B54FF480710348FEF77DFF51
:1012A000BDE8104000F0A8B90C0000202DE9F04185
:1012B000064600240025154F20213846FFF720FE62
:1012C000300604D580213846FFF71CFE03E080215C
:1012D0003846FFF715FE7006060E20213846FFF748
:1012E00011FE6006040E40213846FFF757FE08B194
:1012F000641CE4B26D1CEDB2082DDDD3202138460C
:10130000FFF7FEFD2046BDE8F08100000008014027
:1013100000211F48026842F4803202604FF6FF73DA
:10132000491C026802F400320AB99942F8D10168F6
:10133000890300D4FEE7416841604168416041682B
:1013400041F480614160416821F44031416041686D
:1013500041F44031416041680E4A114041604168AA
:101360000D4A11434160016841F0807101600168DC
:101370008901FCD5416821F003014160416841F0D9
:10138000020141604168C1F381010229FAD170472D
:1013900000100240FFFFC3F700002808FFF7B8BFA6
:1013A00070B511484FF47A710068B0FBF1F1491E35
:1013B0004FF0FF35B1F1807F01D301210BE04FF0F9
:1013C000E02461610F212846FFF7A4F90020A06105
:1013D00007202061002101B1FEE72846BDE87040EA
:1013E0000021FFF797B90000000000202DE9FC471D
:1013F000444F0F21786801EB1025294642A0FFF7E2
:1014000063FA3B224B494CA0FFF75EFA386804228E
:1014100007F54071FFF74CF807F540700178FF2998
:101420006BD04178FF2968D08178FF2965D0C078DA
:10143000FF2862D0DFF80C814046FEF7B3FF04229C
:1014400001A94046FFF70AFD9DF80400FF280BD1D3
:101450009DF80500FF2807D19DF80600FF2803D15D
:101460009DF80700FF2820D037A0FFF72DFA49226A
:10147000304931A0FFF728FA9DF8070000909DF849
:1014800006309DF805209DF8041034A0FFF71CFAE3
:101490004A22284928A0FFF717FA00244FF4807643
:1014A0004FF40079DFF8C4A025E031A0FFF70CFA73
:1014B0004722204920A0FFF707FAEEE731463148DE
:1014C000FEF76BFE3868324600EB04202D49FEF72C
:1014D000EFFF0120FFF778FB08EB04203246294993
:1014E000FFF7C6FC49465046FFF70CFD49465046FB
:1014F000FFF706FD641CAC42E0D3FFF7A7FEBDE892
:10150000FC8700000C000020675F757067726164E3
:1015100065706172616D5F646174612E746F746176
:101520006C5F7061636B6574636F756E743A25648C
:101530000D0A0000111600085B25735D5B25645DD4
:101540000D0A000000400008457261736520457275
:10155000726F7220212121200D0A00002530782091
:10156000253078202530782025307800000801408B
:101570004572617365202020204F4B2021212120BE
:101580000D0A00000C0300204068C0F308007047FB
:10159000C1F308014160704700EB9110006801F051
:1015A0001F0201219140084201D001207047002014
:1015B0007047C1F3044301229A4000EB9150D2439B
:1015C0000260704730B5C1F38912825801F01F04E0
:1015D000012505FA04F31A4000EB91500068C1F3AD
:1015E000044105FA01F31840002802D00AB1012095
:1015F00030BD002030BD00004FF480720149002052
:10160000FEF788BF0C0000206D61696E0072756E78
:10161000007570646174655F6C6F676963006A75FB
:101620006D705F746F5F6170700000004C16000891
:10163000000000200C000000E80800085816000810
:101640000C00002004280000F808000800F36F06D2
:08165000000000000000000092
:0400000508000131BD
:00000001FF
