:020000040800F2
:10000000282E002045010008BF060008C70400088C
:10001000BD060008B1030008D50900080000000073
:100020000000000000000000000000005D07000864
:10003000B303000800000000E10600085F070008A5
:100040005F0100085F0100085F0100085F01000810
:100050005F0100085F0100085F0100085F01000800
:100060005F0100085F0100085F0100085F010008F0
:100070005F0100085F0100085F0100085F010008E0
:100080005F0100085F0100085F0100085F010008D0
:100090005F0100085F0100085F0100085F010008C0
:1000A0005F0100085F0100085F0100085F010008B0
:1000B0005F0100085F0100085F0100085F010008A0
:1000C0005F0100085F0100085F0100085F01000890
:1000D0005F0100085F0100085F01000805080008D3
:1000E0005F0100085F0100085F0100085F01000870
:1000F0005F0100085F0100085F0100085F01000860
:100100005F0100085F0100085F0100085F0100084F
:100110005F0100085F0100085F0100085F0100083F
:100120005F0100085F0100085F0100085F0100082F
:10013000DFF80CD000F06EF800480047E511000829
:10014000282E00200648804706480047FEE7FEE7C5
:10015000FEE7FEE7FEE7FEE7FEE7FEE7FEE7FEE777
:10016000650700083101000840EA01039B0703D03E
:1001700009E008C9121F08C0042AFAD203E011F8E6
:10018000013B00F8013B521EF9D27047D2B201E0A8
:1001900000F8012B491EFBD270470022F6E710B58C
:1001A00013460A4604461946FFF7F0FF204610BDE5
:1001B0002DE9F05F0546002092469B46884606469C
:1001C000814640241BE0284641464746224600F02F
:1001D00042F853465A46C01A914110D31146184668
:1001E000224600F029F82D1A67EB01084F462246F7
:1001F0000120002100F020F817EB00094E41201EDD
:10020000A4F10104DFDC484631462A464346BDE8F6
:10021000F09F0000064C074D06E0E06840F0010347
:1002200094E8070098471034AC42F6D3FFF784FFF8
:10023000141A0008341A0008202A04DB203A00FAB5
:1002400002F1002070479140C2F1200320FA03F32D
:10025000194390407047202A04DB203A21FA02F02B
:100260000021704721FA02F3D040C2F120029140F0
:1002700008431946704700002DE9FC47000320267B
:100280008DF80060C0F307458DF80150C0F30724D6
:100290008DF8024000278DF8037000F06BF8DFF84E
:1002A00044904FF400784146484600F0DAFE30466C
:1002B00001F07EF9284601F07BF9204601F078F93B
:1002C000384601F075F94146484600F0CCFE322030
:1002D00000F002FD00F008F80228FBD00020BDE885
:1002E000FC87000000100140F8B50CA000680090E9
:1002F0000B4E4FF400752946304600F0B2FE9DF8D3
:10030000000001F055F904462946304600F0ABFEE6
:10031000E00701D00220F8BD0020F8BD0500000074
:100320000010014010B500F0E1F900F005F8BDE85B
:100330001040FFF7D9BF000038B50CA0006800904E
:100340000B4D4FF400742146284600F08AFE9DF8BC
:10035000000001F02DF99DF8010001F029F9214676
:100360002846BDE8384000F07EBE000066990000D7
:100370000010014038B50CA0006800900B4D4FF400
:1003800000742146284600F06CFE9DF8000001F044
:100390000FF92146284600F066FEFFF7A5FF022868
:1003A000FBD0002038BD0000060000000010014016
:1003B000FEE7704770B5044600F060FD074D07E0AA
:1003C000204600F001FD08B1012070BD04F5006475
:1003D000AC42F5D900F0E4FC002070BD0000040838
:1003E00010B500F04BFD40F2053000F0CBFC4FF4AF
:1003F000417000F0C7FC40F2023000F0C3FCBDE8E1
:10040000104000F0CDBC00002DE9F84305460C4635
:100410001646B4F5800F02D30120BDE8F883FFF73C
:10042000A9FF02208DF80000200C8DF80100200AA1
:100430008DF802008DF80340DFF844804FF4007718
:100440003946404600F00DFE0024E94619F8040044
:1004500000F04AF9641C042CF8DB002403E0285D5A
:1004600000F042F9641CB442F9DB3946404600F022
:10047000FAFDFFF739FF0228FBD00020CDE700008E
:10048000001001402DE9F04107460E461546F0B236
:10049000C0F58074A54200D8ACB24FF4807806E075
:1004A000274426442D1B4446A54200D8ACB2224620
:1004B00031463846FFF7A8FF012000F00DFCA542A9
:1004C000EED1BDE8F081FEE72DE9F8430D46164672
:1004D00003218DF80010010C8DF80110010A8DF830
:1004E00002108DF80300FFF7FFFE0028FBD1DFF8B4
:1004F0003C804FF400773946404600F0B2FD0024BE
:10050000E94619F8040000F0EFF8641C042CF8DB4D
:10051000002403E000F0E5F82855641CB442F9DB40
:1005200039464046BDE8F84300F09DBD001001404B
:100530002DE9F04F81B0ADF5805D88461546070B7B
:100540003F034FEA1039C0F30B06C6F58054A542AD
:1005500000D82C464FF4805B0DF1040A59465046F2
:10056000FFF71BFE5A4651463846FFF7ADFF002005
:1005700009E031181AF80110FF2903D018F80020FB
:10058000914202D1401CA042F3D3A0420FD21FFAE5
:1005900089F0FFF771FE0AEB060022464146FFF79D
:1005A000E3FD5A4639465046FFF76CFF04E0B9199F
:1005B00022464046FFF766FFA5420CD007F580575C
:1005C00009F101090026A044281B85B25C465D455F
:1005D000C8D22C46C6E701B00DF5805DBDE8F08FAE
:1005E0002DE9F04140F2026000F090FF40F203601C
:1005F00000F08CFF40F2046000F088FF40F20560DC
:1006000000F084FF4FF4C064204600F07FFF01211A
:10061000264800F07BFD264D23460322482128462C
:1006200000F023FDAC15234603221021284600F0DC
:100630001CFD204E102303224821304600F015FDFA
:10064000230103222821304600F00FFD4AF2E30384
:1006500003221021304600F008FD174F4FF492732B
:1006600003224821384600F000FD43F60B03032225
:100670001021384600F0F9FCE100384600F0F3FCA8
:100680008021304600F0EFFCE101304600F0E9FC4B
:100690002146284600F0E7FC0121304600F0E1FC4D
:1006A00061013046BDE8F04100F0DBBC00023000E3
:1006B00000080140000C014000100140FEE77047B7
:1006C0000907090E002806DA00F00F0000F1E0200B
:1006D00080F8141D704700F1E02080F80014704786
:1006E0007047FF2000F064BF00F062BF70B540F2B9
:1006F000026000F00BFF40F2046000F007FF154CB1
:10070000D02303221021204600F0AFFC2023032237
:100710000421204600F0A9FC0F4D4FF4047303227E
:100720001021284600F0A1FC1021284600F09BFC77
:100730008021204600F097FC6115284600F093FCCC
:100740001021204600F08FFC2046BDE8704040217B
:1007500000F089BC0008014000100140704700F023
:10076000C3BA000008B52348016841F001010160E7
:1007700001688907FCD5416841F080014160002291
:10078000009202E00099491C009100995029F9D388
:10079000416841F090014160009202E00099491CDB
:1007A000009100995029F9D3416821F0030141607B
:1007B000026811490A4002604268104B1A404260C8
:1007C00002680A400260026822F4802202604268E5
:1007D0000B4B1A40426002680A4002604FF41F014E
:1007E000816000F05DFFBDE8084000214FF000602F
:1007F00000F000BE00100240FFFFF6FE0C00FFE814
:10080000FFFF00F770B5164D164C2946204601F043
:10081000A2F830B1204601F065F82946204601F0E3
:1008200091F8114D2046294601F095F830B129463E
:10083000204601F087F8204601F054F80B4D204681
:10084000294601F088F8002808D02946204601F002
:1008500079F82046BDE8704001F044B870BD000052
:1008600005030500004800400403040005030300DD
:100870002DE9FF5F04469346504D514F4FF4806879
:1008800040F205394FF4417A002C47D04D4E012CEF
:100890006AD0022C7DD1AF600302032218213046BA
:1008A00000F0E3FB434603220421304600F0DDFB69
:1008B00040F20E6000F02AFE02220321252000F003
:1008C00047FD4946384601F032F855F824000199B1
:1008D00000F0D0FF55F824000E9901F055F855F8B6
:1008E0002400594601F06CF855F82400039901F0F2
:1008F00059F855F82400082101F05CF855F8240057
:1009000000F0F8FF55F82400002101F045F804B08C
:1009100051463846BDE8F05F00F0FEBF2A4E2E601B
:1009200040F2036000F0F2FD4346DFF8A0800322AE
:100930001821404600F099FBF3140322042140469D
:1009400000F093FB40F2127000F0E0FD0022032162
:10095000272000F0FDFC4946304600F0E8FF5146F4
:10096000304600F0E4FFB0E7DFF86480C5F80480AB
:1009700040F2026000F0CAFD042303221821304631
:1009800000F073FB082303220421304600F06DFBC6
:1009900000E011E040F2117000F0B8FD01220321E7
:1009A000262000F0D5FC4946404600F0C0FF5146E5
:1009B000404600F0BCFF88E7BDE8FF9F0C00002028
:1009C000003801400008014000480040000C014090
:1009D00000440040FEE700000FB4054B10B503A92A
:1009E000044A029800F018F810BC5DF814FB0000EF
:1009F000490F00080800002002E008C8121F08C1C3
:100A0000002AFAD170477047002001E001C1121F8F
:100A1000002AFBD1704700002DE9FF4F8DB09B46A7
:100A20000F460446002606E025280BD05A460F99AB
:100A30009047641C761C20780028F5D111B0304610
:100A4000BDE8F08F0025A8460122984900E0054343
:100A500014F8013F203B02FA03F00842F7D1207856
:100A60002E2817D114F8010F45F004052A280ED0BE
:100A70006FF02F022078A0F1300109290AD808EB85
:100A8000880102EB410100EB0108641CF2E757F812
:100A9000048B641C20786C280DD004DC4C2812D008
:100AA0006A2811D104E074280DD07A280CD10AE00C
:100AB00045F4001507E0617845F48015814202D1C4
:100AC000641C05F58015641C2278692A45D008DC71
:100AD000002AB3D0582A69D0632A10D0642A08D1DA
:100AE0003BE0702A67D0732A13D0752A5CD0782A2D
:100AF0005CD010465A460F999047761CD3E017F801
:100B0000040B8DF8000000208DF80100E94601205B
:100B100003E057F8049B4FF0FF3069074FF00005E2
:100B200001D40AE06D1C45450DDA8542FADB19F85F
:100B300005100029F6D106E06D1C8542FCDB19F892
:100B400005100029F8D12E4404E019F8010B5A468B
:100B50000F9990476D1EF8D2A5E00A200021CDE93B
:100B60000801C5F3025002280DD001CFC117031EA2
:100B700071F100030DDA4FF0000CD0EB0C006CEBC0
:100B800001012D2308E0FF1D27F00707F7E8020108
:100B9000EDE72B0504D52B238DF8283001233BE00E
:100BA000EB0739D02023F7E70A2000E010200021CE
:100BB000CDE9080107E01020002145F00405CDE94A
:100BC00008014FF00808C5F3025002280FD001CFEA
:100BD00000214FF0000A2B071FD5702A0DD0DDE948
:100BE00008C38CF0100C5CEA030C0CD015E0FF1D60
:100BF00027F00707F7E80201EBE740228DF82820ED
:100C00004FF0010A0BE050EA010306D030238DF8C3
:100C100028308DF8292002239A46582A04D024A28D
:100C20000DF120090B9209E026A2F9E7DDE908237E
:100C3000FFF7BEFA0B9B9B5C09F8013D50EA0102ED
:100C4000F4D1ADEB090020300890680701D44FF0D3
:100C500001080899884502DDA8EB010000E00020AA
:100C60008046002506E00AA85A46405D0F99904745
:100C70006D1C761C5545F6DB04E030205A460F9972
:100C80009047761CB8F10001A8F10108F5DC05E0F9
:100C900019F8010B5A460F999047761C0899481E7F
:100CA00008900029F4DC641CC5E600000928010056
:100CB00030313233343536373839616263646566D2
:100CC0000000000030313233343536373839414294
:100CD00043444546000000000249086008680028B7
:100CE000FCD170470400002003480168002902D0AD
:100CF0000168491E016070470400002000B50346EA
:100D000000F00AF85B1E012801D1002BF8D1012860
:100D100000D1042000BD000000200849CA68D207A5
:100D200001D001207047CA68D20601D50320704760
:100D3000C9684907FBD50220704700000020024027
:100D400000B5034600F00AF85B1E012801D1002B14
:100D5000F8D1012800D1042000BD0000002008497E
:100D6000CA6CD20701D001207047CA6CD20601D5E7
:100D700003207047C96C4907FBD50220704700006B
:100D800000200240054901EB90110A6800F01F03A2
:100D90000120984002430A60704700000020024092
:100DA0000748016941F08001016106490988B1F5F0
:100DB000007F03D9016D41F080010165704700009B
:100DC00000200240E0F7FF1F70B504462848294D77
:100DD0004FF470260088B0F5007F32D9264884424F
:100DE00015D23046FFF78AFF00280FD1286940F05E
:100DF000020028616C61286940F04000286130469B
:100E0000FFF77CFF296921F00201296170BD30469E
:100E1000FFF796FF0028F9D1286D40F00200286501
:100E20006C65E869800700D56C61286D40F0400072
:100E300028653046FFF784FF296D21F002012965FE
:100E400070BD3046FFF75AFF0028F9D1286940F0FD
:100E5000020028616C61286940F04000286130463A
:100E6000FFF74CFF296921F00201296170BD0000E4
:100E7000E0F7FF1F00200240FFFF07080948016953
:100E8000094A0B06094901D542604160084B1B889D
:100E9000B3F5007F04D9036D1B0601D5426441649C
:100EA000704700000020024023016745AB89EFCD69
:100EB000E0F7FF1FF0B504460D462048204E4FF4E2
:100EC00070270088B0F5007F26D91E48844211D2D1
:100ED0003846FFF713FF00280BD1306940F00100BE
:100EE000306125603846FFF709FF316921F00101C3
:100EF0003161F0BD3846FFF723FF0028F9D1306D8E
:100F000040F00100306525603846FFF719FF316D6C
:100F100021F001013165F0BD3846FFF7EFFE0028F2
:100F2000F9D1306940F00100306125603846FFF7A3
:100F3000E5FE316921F001013161F0BDE0F7FF1FED
:100F400000200240FFFF070870B50446064DE1B2DD
:100F5000284600F0CBFC0721284600F0D0FC0028F2
:100F6000F9D0204670BD00000048004002494AF612
:100F7000AA200860704700000030004001490020AE
:100F80000860704700300040024945F25550086043
:100F9000704700000030004010B5002302E0C45C40
:100FA000CC545B1C9342FAD3012010BD2DE9F047CD
:100FB00005460E4617460024FFF760FF40F205384D
:100FC0004FF4417940F2023A21E031592819FFF7F4
:100FD00071FF38B1FFF7E4FE10A0FFF7FDFC002021
:100FE000BDE8F0874046FFF7CDFE4846FFF7CAFE52
:100FF0005046FFF7C7FE30592959884206D0FFF7FF
:10100000CFFE0AA0FFF7E8FC0020E9E7241DBC4260
:10101000DBD3FFF7C5FE0120E2E7000077726974B9
:1010200065206572726F72320D0A00007772697402
:1010300065206572726F7220310D0A0010B50028AC
:1010400006D001280CD1BDE810407F2000F0C8BCBC
:10105000FFF79AFFFFF78AFFBDE81040FFF78EBF4A
:1010600010BD41617047016170472DE9F04301F007
:101070000F04CD0600D5144300224FF00F0C0127BA
:1010800007FA02F51D4014D0D0F8008096000CFA43
:1010900006F928EA090804FA06F949EA080928299C
:1010A00002D0482902D002E0456100E00561C0F8A5
:1010B0000090521C92B2082AE2D3082207FA02F5E5
:1010C0001D4016D0D0F80480A2F10806B6000CFA34
:1010D00006F928EA090804FA06F949EA080928295C
:1010E00002D0482902D002E0456100E00561C0F865
:1010F0000490521C92B2102AE0D3BDE8F0838068BD
:10110000084201D00120704700207047F0B5154C0F
:10111000002801DAE36900E06368C0F30346420D8A
:10112000120185B2C0F301579540032F07D0C202C8
:101130000CD50322B240934343F0706209E023F0E0
:101140007062636823F07063636002E0AB4343F056
:10115000706201B12A43002801DAE261F0BD6260E9
:10116000F0BD00000000014008B572B6012181F316
:101170001088104A01681140B1F1005F09D00EA03B
:10118000FFF72AFCBDE8084086220E490EA0FFF7B3
:1011900023BC416800910099006880F30888884763
:1011A0000CA0FFF719FCBDE808408222054906A003
:1011B000FFF712BC0000FE2F4E6F204A756D7020A5
:1011C0000D0A0000061A00085B25735D5B25645D4F
:1011D0000D0A00004A756D70206572726F722E0DD7
:1011E0000A00000008B5002000F010F900F05AFADB
:1011F000FFF7F6F90020034602464FF4E131009074
:10120000FFF736FBFFF7ECF8002441F28835FFF7D3
:1012100089F818B1641CA4B2AC42F8D30A20FFF7D5
:101220005BFD00F081F91FA0FFF7D6FB20222349C8
:1012300023A0FFF7D1FB254C25A02168FFF7CCFBAD
:1012400021221E491EA0FFF7C7FB616829A0FFF7F6
:10125000C3FB222219491AA0FFF7BEFB217A2EA058
:10126000FFF7BAFB2322154915A0FFF7B5FB207A3B
:10127000012813D000F06CF900F06AF94FF47A7489
:1012800000F08AF92DA0FFF7A7FB33220B490CA031
:10129000FFF7A2FB2046FFF71FFDF1E700F028FA59
:1012A000EAE700005468697320697320626F6F7405
:1012B0006C6F616465720D0A00000000F01900088F
:1012C0005B25735D5B25645D0D0A0000240600202C
:1012D000675F75706772616465706172616D5F648C
:1012E0006174612E7569416464723D307825780DB2
:1012F0000A000000675F75706772616465706172F3
:10130000616D5F646174612E75694C656E3D307806
:1013100025780D0A00000000675F757067726164D0
:1013200065706172616D5F646174612E7563557083
:10133000646174653D307825780D0A00426F6F74E2
:101340006C6F61646572206572726F722E0D0A0097
:10135000F0B506460F46002300242048006800F43C
:10136000E0654FF4A06085422FD006DCB5F5407FE4
:1013700031D0B5F5806F06D12AE0B5F5C06F21D028
:10138000B5F5E06F1CD000F02BF802230224C3F166
:1013900004008740C4F104010F20C84010403843C6
:1013A000000106F1E02181F8000406F01F01012090
:1013B00088407109890001F1E021C1F80001F0BD08
:1013C0000424E4E701230324E1E702230224DEE707
:1013D00003230124DBE70423D9E700000CED00E040
:1013E0000249084302490860704700000000FA05FE
:1013F0000CED00E0034A1140014303480160BFF3D4
:101400004F8F704780FFFF1F08ED00E0034A5168CF
:1014100021F0F001014351607047000000100240CC
:1014200070B588B00246002031A104AE91E83800C2
:10143000C96838C607912FA10AC9CDE902132DA1A9
:101440000AC9CDE900132E4C6168C1F381012D4B0F
:10145000002923D0012923D0022923D0194663680B
:10146000C3F3031304ADEB5C21FA03F36568C5F322
:10147000022502AE755D23FA05F56468C4F3C22443
:101480001DF8044023FA04F45AB3012A2BD0022A8F
:101490002BD0032A00D1204608B070BD1946DEE7E4
:1014A0001946DCE7616801F48031174DB1F5803FE2
:1014B0000CD02B466168C1F3834165682D0101D5CD
:1014C00041F010010F2909D2891C08E0616801F47C
:1014D0000031B1F5003FEDD12B46EBE7491C5943F4
:1014E000BDE70846D8E71846D6E72846D4E7000007
:1014F00000000000000000000102030406070809C4
:101500000010024000127A0000093D00054901EB7D
:1015100090110A6800F01F030120984002430A60FE
:10152000704700000010024010B54FF48072064969
:101530000020FEF7C9FFBDE810404FF400720349D8
:101540000020FEF7C1BF0000240600202407002071
:1015500010B506A0FFF740FA8D220A490AA0FFF74E
:101560003BFABDE810400B48FFF7FEBD0D0A4A7577
:101570006D702061707021212121212121212121E3
:101580000D0A0000F51900085B25735D5B25645D9D
:101590000D0A00000040000810B54FF480710348A8
:1015A000FEF7FBFDBDE8104000F012BA2406002053
:1015B0002DE9F041064600240025154F102138463C
:1015C000FFF74FFD300604D540213846FFF74BFDAD
:1015D00003E040213846FFF744FD7006060E102157
:1015E0003846FFF740FD6006040E20213846FFF71D
:1015F00086FD08B1641CE4B26D1CEDB2082DDDD38C
:1016000010213846FFF72DFD2046BDE8F08100008F
:101610000008014000211F48026842F48032026045
:101620004FF6FF73491C026802F400320AB999426E
:10163000F8D10168890300D4FEE741684160416840
:101640004160416841F480614160416821F440316A
:101650004160416841F44031416041680E4A1140A7
:10166000416041680D4A11434160016841F0807159
:10167000016001688901FCD5416821F003014160E6
:10168000416841F0020141604168C1F381010229D2
:10169000FAD1704700100240FFFFC3F7000028088E
:1016A000FFF7B8BF70B511484FF47A710068B0FB0E
:1016B000F1F1491E4FF0FF35B1F1807F01D30121D7
:1016C0000BE04FF0E02461610F212846FEF7F8FFA0
:1016D0000020A06107202061002101B1FEE728461B
:1016E000BDE870400021FEF7EBBF000000000020C5
:1016F0002DE9FC413F4E0F21706801EB1025294672
:101700003DA0FFF769F93A22464947A0FFF764F97F
:101710003068042206F54071FEF7D6FE06F54070EB
:101720000178FF2961D04178FF295ED08178FF29B7
:101730005BD0C078FF2858D03E4F3846FEF73AFEBF
:10174000042201A93846FFF727FC9DF80400FF2872
:101750000BD19DF80500FF2807D19DF80600FF2852
:1017600003D19DF80700FF281CD033A0FFF734F900
:1017700048222C492CA0FFF72FF99DF80700009074
:101780009DF806309DF805209DF804102FA0FFF766
:1017900023F94922234924A0FFF71EF900244FF41E
:1017A000807820E02DA0FFF717F946221D491EA0E2
:1017B000FFF712F9F2E741462D48FEF7EEFC3068DC
:1017C000424600EB04202A49FEF77EFE0120FFF787
:1017D00083FA07EB042042462549FFF7E7FB002088
:1017E000FFF72CFC641CAC42E5D3FFF7B1FEBDE86B
:1017F000FC81000024060020675F757067726164D9
:1018000065706172616D5F646174612E746F746183
:101810006C5F7061636B6574636F756E743A256499
:101820000D0A0000F91900085B25735D5B25645DF6
:101830000D0A000000400008457261736520457282
:10184000726F7220212121200D0A0000253078209E
:101850002530782025307820253078004572617356
:1018600065202020204F4B20212121200D0A00003F
:101870002409002070B504460D460020174BE21ADB
:101880001E159C4216D008DC154962180ED0B242D3
:1018900017D10220FFF7C4FD13E0B2420ED0B2F51B
:1018A0006C4F0ED10320FFF7BBFD0AE00220FFF7CB
:1018B000B7FD06E00220FFF7B3FD02E00220FFF7CC
:1018C000AFFD00EB5500B0FBF5F04FF6F0710140B5
:1018D00000F00F021143A16070BD0000004C0040F9
:1018E00000BCFFBF4068C0F308007047C1F30801A7
:1018F00041607047C16841F40051C160704700EB1E
:101900009110006801F01F0201219140084201D0AE
:10191000012070470020704710B5C1F38912835829
:1019200001F01F040121A1408B43835010BD10B56D
:10193000C1F38912835801F01F040121A1400B4318
:10194000835010BDC1F3044301229A4000EB915033
:10195000D2430260704730B5C1F38912825801F05A
:101960001F04012505FA04F31A4000EB91500068AA
:10197000C1F3044105FA01F31840002802D00AB16E
:10198000012030BD002030BDC26822F4C062C260B8
:10199000C2680A43C2607047C26822F004020A4368
:1019A000C2607047026922F44052026102690A4330
:1019B00002617047C26822F008020A43C2607047A1
:1019C000C26822F48052C260C2680A43C260704793
:1019D0004FF4807201490020FEF7AABD24060020C2
:1019E000024900F07F00086070470000002C0040B2
:1019F0006D61696E0072756E007570646174655F0B
:101A00006C6F676963006A756D705F746F5F61709A
:101A100070000000341A0008000000200C000000D4
:101A2000F8090008401A00080C0000201C2E0000D5
:101A3000080A000800F36F06000000000000000024
:0400000508000131BD
:00000001FF
