:020000040800F2
:10000000302B002045010008770400083703000862
:1000100075040008E1020008250700080000000040
:1000200000000000000000000000000015050008AE
:10003000E30200080000000099040008170500080A
:100040005F0100085F0100085F0100085F01000810
:100050005F0100085F0100085F0100085F01000800
:100060005F0100085F0100085F0100085F010008F0
:100070005F0100085F0100085F0100085F010008E0
:100080005F0100085F0100085F0100085F010008D0
:100090005F0100085F0100085F0100085F010008C0
:1000A0005F0100085F0100085F0100085F010008B0
:1000B0005F0100085F0100085F0100085F010008A0
:1000C0005F0100085F0100085F0100085F01000890
:1000D0005F0100085F0100085F0100085F01000880
:1000E0005F0100085F0100085F0100085F01000870
:1000F0005F0100085F0100085F0100085F01000860
:100100005F0100085F0100085F0100085F0100084F
:100110005F0100085F0100085F0100085F0100083F
:100120005F0100085F0100085F0100085F0100082F
:10013000DFF80CD000F05CF800480047C10E000862
:10014000302B00200648804706480047FEE7FEE7C0
:10015000FEE7FEE7FEE7FEE7FEE7FEE7FEE7FEE777
:100160001D05000831010008D2B201E000F8012BA2
:10017000491EFBD270470022F6E710B513460A4627
:1001800004461946FFF7F0FF204610BD2DE9F05F49
:100190000546002092469B468846064681464024F6
:1001A0001BE0284641464746224600F042F85346A7
:1001B0005A46C01A914110D311461846224600F003
:1001C00029F82D1A67EB01084F462246012000212D
:1001D00000F020F817EB00094E41201EA4F10104A5
:1001E000DFDC484631462A464346BDE8F09F000022
:1001F000064C074D06E0E06840F0010394E8070074
:1002000098471034AC42F6D3FFF796FF601500080C
:1002100080150008202A04DB203A00FA02F10020B1
:1002200070479140C2F1200320FA03F31943904034
:100230007047202A04DB203A21FA02F0002170479F
:1002400021FA02F3D040C2F120029140084319463E
:1002500070470000F8B50CA0006800900B4E4FF4FA
:1002600000752946304600F07BFD9DF8000000F047
:10027000BBFF04462946304600F074FDE00701D07C
:100280000220F8BD0020F8BD05000000001001406C
:1002900010B500F007F900F005F8BDE81040FFF7D1
:1002A000D9BF000038B50CA0006800900B4D4FF48A
:1002B00000742146284600F053FD9DF8000000F030
:1002C00093FF9DF8010000F08FFF21462846BDE80E
:1002D000384000F047BD0000669900000010014062
:1002E000FEE7704770B5044600F070FC074D07E06C
:1002F000204600F011FC08B1012070BD04F5006437
:10030000AC42F5D900F0F4FB002070BD00000408F9
:1003100010B500F05BFC40F2053000F0DBFB4FF461
:10032000417000F0D7FB40F2023000F0D3FBBDE893
:10033000104000F0DDBBFEE72DE9F8430D46164600
:1003400003218DF80010010C8DF80110010A8DF8C1
:1003500002108DF80300FFF77DFF0028FBD1DFF8C6
:100360003C804FF400773946404600F0F9FC002409
:10037000E94619F8040000F093F8641C042CF8DB3B
:10038000002403E000F089F82855641CB442F9DB2E
:1003900039464046BDE8F84300F0E4BC0010014097
:1003A0002DE9F0414FF4C064204600F0EFFE01213A
:1003B0002C4800F02BFDA01C00F0E8FEE01C00F033
:1003C000E5FE201D00F0E2FE601D00F0DFFE264D80
:1003D000234603224821284600F0C6FCAC152346DC
:1003E00003221021284600F0BFFC204E10230322D8
:1003F0004821304600F0B8FC230103222821304672
:1004000000F0B2FC4AF2EB0303221021304600F068
:10041000ABFC174F4FF4927303224821384600F08B
:10042000A3FC43F60B0303221021384600F09CFC8A
:10043000E100384600F096FC8021304600F092FC46
:10044000E101304600F08CFC2146284600F08AFC91
:100450000121304600F084FC61013046BDE8F041E6
:1004600000F07EBC0002300000080140000C01409A
:1004700000100140FEE770470907090E002806DA60
:1004800000F00F0000F1E02080F8141D704700F12B
:10049000E02080F8001470477047FF2000F0A4BEF1
:1004A00000F0A2BE70B540F2026000F06FFE40F2B4
:1004B000046000F06BFE154CD0230322102120466F
:1004C00000F052FC202303220421204600F04CFCC3
:1004D0000F4D4FF4047303221021284600F044FC12
:1004E0001021284600F03EFC8021204600F03AFC16
:1004F0006115284600F036FC1021204600F032FC41
:100500002046BDE87040402100F02CBC00080140AE
:1005100000100140704700F08FBA000008B5234872
:10052000016841F00101016001688907FCD541685B
:1005300041F0800141600022009202E00099491CD4
:10054000009100995029F9D3416841F09001416030
:10055000009202E00099491C009100995029F9D3BA
:10056000416821F003014160026811490A400260BC
:100570004268104B1A40426002680A4002600268FA
:1005800022F48022026042680B4B1A4042600268EB
:100590000A4002604FF41F01816000F0ABFEBDE82D
:1005A000084000214FF0006000F064BD00100240E0
:1005B000FFFFF6FE0C00FFE8FFFF00F72DE9FF5FED
:1005C00004461646514D4FF4806840F205394FF409
:1005D000417A002C4AD04E4F012C6DD0022C7DD197
:1005E000DFF830B1C5F808B00302032218213846FD
:1005F00000F0BAFB434603220421384600F0B4FB66
:1006000040F20E6000F0C2FD02220321252000F01E
:10061000DFFC4946584600F073FF5146584600F04B
:100620006FFF55F82400019900F01CFF55F82400D5
:100630000E9900F070FF55F82400314600F087FF56
:1006400055F82400039900F074FF55F824000821A0
:1006500000F077FF55F82400042100F064FF55F8FE
:10066000240004B0BDE8F05F00F038BF2A4F2F60CF
:1006700040F2036000F08AFD4346DFF8A0800322C9
:100680001821404600F070FBFB1403220421404671
:1006900000F06AFB40F2127000F078FD00220321A6
:1006A000272000F095FC4946384600F029FF5146C6
:1006B000384600F025FFB4E7DFF86480C5F8048011
:1006C00040F2026000F062FD042303221821384644
:1006D00000F04AFB08230322042100E014E038461E
:1006E00000F042FB40F2117000F050FD01220321A6
:1006F000262000F06DFC4946404600F001FF5146BF
:10070000404600F0FDFE8CE7BDE8FF9F0C00002096
:10071000000801400038014000480040000C014042
:1007200000440040FEE700000FB4054B10B503A9DC
:10073000044A029800F018F810BC5DF814FB0000A1
:10074000990C00080800002002E008C8121F08C128
:10075000002AFAD170477047002001E001C1121F42
:10076000002AFBD1704700002DE9FF4F8DB09B465A
:100770000F460446002606E025280BD05A460F995E
:100780009047641C761C20780028F5D111B03046C3
:10079000BDE8F08F0025A8460122984900E00543F6
:1007A00014F8013F203B02FA03F00842F7D1207809
:1007B0002E2817D114F8010F45F004052A280ED071
:1007C0006FF02F022078A0F1300109290AD808EB38
:1007D000880102EB410100EB0108641CF2E757F8C5
:1007E000048B641C20786C280DD004DC4C2812D0BB
:1007F0006A2811D104E074280DD07A280CD10AE0BF
:1008000045F4001507E0617845F48015814202D176
:10081000641C05F58015641C2278692A45D008DC23
:10082000002AB3D0582A69D0632A10D0642A08D18C
:100830003BE0702A67D0732A13D0752A5CD0782ADF
:100840005CD010465A460F999047761CD3E017F8B3
:10085000040B8DF8000000208DF80100E94601200E
:1008600003E057F8049B4FF0FF3069074FF0000595
:1008700001D40AE06D1C45450DDA8542FADB19F812
:1008800005100029F6D106E06D1C8542FCDB19F845
:1008900005100029F8D12E4404E019F8010B5A463E
:1008A0000F9990476D1EF8D2A5E00A200021CDE9EE
:1008B0000801C5F3025002280DD001CFC117031E55
:1008C00071F100030DDA4FF0000CD0EB0C006CEB73
:1008D00001012D2308E0FF1D27F00707F7E80201BB
:1008E000EDE72B0504D52B238DF8283001233BE0C1
:1008F000EB0739D02023F7E70A2000E01020002181
:10090000CDE9080107E01020002145F00405CDE9FC
:1009100008014FF00808C5F3025002280FD001CF9C
:1009200000214FF0000A2B071FD5702A0DD0DDE9FA
:1009300008C38CF0100C5CEA030C0CD015E0FF1D12
:1009400027F00707F7E80201EBE740228DF828209F
:100950004FF0010A0BE050EA010306D030238DF876
:1009600028308DF8292002239A46582A04D024A240
:100970000DF120090B9209E026A2F9E7DDE9082331
:10098000FFF704FC0B9B9B5C09F8013D50EA010258
:10099000F4D1ADEB090020300890680701D44FF086
:1009A00001080899884502DDA8EB010000E000205D
:1009B0008046002506E00AA85A46405D0F999047F8
:1009C0006D1C761C5545F6DB04E030205A460F9925
:1009D0009047761CB8F10001A8F10108F5DC05E0AC
:1009E00019F8010B5A460F999047761C0899481E32
:1009F00008900029F4DC641CC5E600000928010009
:100A00003031323334353637383961626364656684
:100A10000000000030313233343536373839414246
:100A20004344454600000000024908600868002869
:100A3000FCD170470400002003480168002902D05F
:100A40000168491E016070470400002000B503469C
:100A500000F00AF85B1E012801D1002BF8D1012813
:100A600000D1042000BD000000200849CA68D20758
:100A700001D001207047CA68D20601D50320704713
:100A8000C9684907FBD502207047000000200240DA
:100A900000B5034600F00AF85B1E012801D1002BC7
:100AA000F8D1012800D1042000BD00000020084931
:100AB000CA6CD20701D001207047CA6CD20601D59A
:100AC00003207047C96C4907FBD50220704700001E
:100AD00000200240054901EB90110A6800F01F0355
:100AE0000120984002430A60704700000020024045
:100AF0000748016941F08001016106490988B1F5A3
:100B0000007F03D9016D41F080010165704700004D
:100B100000200240E0F7FF1F70B504462848294D29
:100B20004FF470260088B0F5007F32D92648844201
:100B300015D23046FFF78AFF00280FD1286940F010
:100B4000020028616C61286940F04000286130464D
:100B5000FFF77CFF296921F00201296170BD304651
:100B6000FFF796FF0028F9D1286D40F002002865B4
:100B70006C65E869800700D56C61286D40F0400025
:100B800028653046FFF784FF296D21F002012965B1
:100B900070BD3046FFF75AFF0028F9D1286940F0B0
:100BA000020028616C61286940F0400028613046ED
:100BB000FFF74CFF296921F00201296170BD000097
:100BC000E0F7FF1F00200240FFFF07080948016906
:100BD000094A0B06094901D542604160084B1B8850
:100BE000B3F5007F04D9036D1B0601D5426441644F
:100BF000704700000020024023016745AB89EFCD1C
:100C0000E0F7FF1FF0B504460D462048204E4FF494
:100C100070270088B0F5007F26D91E48844211D283
:100C20003846FFF713FF00280BD1306940F0010070
:100C3000306125603846FFF709FF316921F0010175
:100C40003161F0BD3846FFF723FF0028F9D1306D40
:100C500040F00100306525603846FFF719FF316D1F
:100C600021F001013165F0BD3846FFF7EFFE0028A5
:100C7000F9D1306940F00100306125603846FFF756
:100C8000E5FE316921F001013161F0BDE0F7FF1FA0
:100C900000200240FFFF070870B50446064DE1B290
:100CA000284600F017FC0721284600F01CFC00280D
:100CB000F9D0204670BD00000048004010B5002368
:100CC00002E0C45CCC545B1C9342FAD3012010BDFB
:100CD0002DE9F04705460E4617460024FFF776FF3C
:100CE00040F205384FF4417940F2023A21E031599F
:100CF0002819FFF787FF38B1FFF7FAFE10A0FFF7BA
:100D000013FD0020BDE8F0874046FFF7E3FE4846AC
:100D1000FFF7E0FE5046FFF7DDFE305929598842C3
:100D200006D0FFF7E5FE0AA0FFF7FEFC0020E9E78A
:100D3000241DBC42DBD3FFF7DBFE0120E2E700000D
:100D40007772697465206572726F72320D0A0000E5
:100D50007772697465206572726F7220310D0A00B6
:100D600041617047016170472DE9F04301F00F04C4
:100D7000CD0600D5144300224FF00F0C012707FACF
:100D800002F51D4014D0D0F8008096000CFA06F948
:100D900028EA090804FA06F949EA0809282902D0CC
:100DA000482902D002E0456100E00561C0F80090EA
:100DB000521C92B2082AE2D3082207FA02F51D401B
:100DC00016D0D0F80480A2F10806B6000CFA06F995
:100DD00028EA090804FA06F949EA0809282902D08C
:100DE000482902D002E0456100E00561C0F80490A6
:100DF000521C92B2102AE0D3BDE8F083806808420A
:100E000001D001207047002070470000F0B5154C5C
:100E1000002801DAE36900E06368C0F30346420D8D
:100E2000120185B2C0F301579540032F07D0C202CB
:100E30000CD50322B240934343F0706209E023F0E3
:100E40007062636823F07063636002E0AB4343F059
:100E5000706201B12A43002801DAE261F0BD6260EC
:100E6000F0BD00000000014008B572B6012181F319
:100E700010880B4A01681140B1F1005F04D0BDE851
:100E8000084008A0FFF750BC416800910099006835
:100E900080F308888847BDE8084005A0FFF744BCF8
:100EA0000000FE2F4E6F204A756D70200D0A000065
:100EB0004A756D70206572726F722E0D0A00000007
:100EC00008B5002000F0E2F800F016FAFFF768FA23
:100ED0000020034602464FF4E1310090FFF76EFB1D
:100EE000FFF716FAFFF7D4F900F05EF911A0FFF74B
:100EF0001BFC164C16A02168FFF716FC61681DA0AC
:100F0000FFF712FC217A24A0FFF70EFC207A0128BB
:100F10000CD000F051F900F04FF94FF47A7427A08B
:100F2000FFF702FC2046FFF77FFDF8E700F00AFA22
:100F3000F1E700005468697320697320626F6F7471
:100F40006C6F616465720D0A0000000024060020C9
:100F5000675F75706772616465706172616D5F640F
:100F60006174612E7569416464723D307825780D35
:100F70000A000000675F7570677261646570617276
:100F8000616D5F646174612E75694C656E3D30788A
:100F900025780D0A00000000675F75706772616454
:100FA00065706172616D5F646174612E7563557007
:100FB000646174653D307825780D0A00426F6F7466
:100FC0006C6F61646572206572726F722E0D0A001B
:100FD000F0B506460F46002300242048006800F4C0
:100FE000E0654FF4A06085422FD006DCB5F5407F68
:100FF00031D0B5F5806F06D12AE0B5F5C06F21D0AC
:10100000B5F5E06F1CD000F02BF802230224C3F1E9
:1010100004008740C4F104010F20C8401040384349
:10102000000106F1E02181F8000406F01F01012013
:1010300088407109890001F1E021C1F80001F0BD8B
:101040000424E4E701230324E1E702230224DEE78A
:1010500003230124DBE70423D9E700000CED00E0C3
:101060000249084302490860704700000000FA0581
:101070000CED00E0034A1140014303480160BFF357
:101080004F8F704780FFFF1F08ED00E0034A516853
:1010900021F0F00101435160704700000010024050
:1010A00070B588B00246002031A104AE91E8380046
:1010B000C96838C607912FA10AC9CDE902132DA12D
:1010C0000AC9CDE900132E4C6168C1F381012D4B93
:1010D000002923D0012923D0022923D0194663688F
:1010E000C3F3031304ADEB5C21FA03F36568C5F3A6
:1010F000022502AE755D23FA05F56468C4F3C224C7
:101100001DF8044023FA04F45AB3012A2BD0022A12
:101110002BD0032A00D1204608B070BD1946DEE767
:101120001946DCE7616801F48031174DB1F5803F65
:101130000CD02B466168C1F3834165682D0101D550
:1011400041F010010F2909D2891C08E0616801F4FF
:101150000031B1F5003FEDD12B46EBE7491C594377
:10116000BDE70846D8E71846D6E72846D4E700008A
:101170000000000000000000010203040607080947
:101180000010024000127A0000093D00054901EB01
:1011900090110A6800F01F030120984002430A6082
:1011A0007047000000100240092202490020FFF7AA
:1011B000C3B800002406002010B504A0FFF7B4FA5D
:1011C000BDE810400748FFF74FBE00000D0A4A7502
:1011D0006D70206170702121212121212121212187
:1011E0000D0A0000004000082DE9F04106460024E9
:1011F00000251C4F0021491CC9B25029FBD33006E1
:1012000004D540213846FFF7ADFD03E040213846C4
:10121000FFF7A6FD7006060E10213846FFF7A2FD67
:101220000021491CC9B23229FBD36006040E2021DB
:101230003846FFF7E3FD08B1641CE4B210213846DC
:10124000FFF78EFD0021491CC9B23229FBD36D1C6A
:10125000EDB2082DCED310213846FFF781FD204690
:10126000BDE8F0810008014000211F48026842F4F7
:10127000803202604FF6FF73491C026802F40032AC
:101280000AB99942F8D10168890300D4FEE74168A0
:10129000416041684160416841F48061416041685A
:1012A00021F440314160416841F44031416041687E
:1012B0000E4A1140416041680D4A11434160016886
:1012C00041F08071016001688901FCD5416821F01D
:1012D00003014160416841F0020141604168C1F38E
:1012E00081010229FAD1704700100240FFFFC3F7C5
:1012F00000002808FFF7B8BF70B511484FF47A71A5
:101300000068B0FBF1F1491E4FF0FF35B1F1807F6D
:1013100001D301210BE04FF0E02461610F21284649
:10132000FFF7AAF80020A06107202061002101B189
:10133000FEE72846BDE870400021FFF79DB8000099
:10134000000000202DE9FC412B4F0F21786801EBB4
:101350001025294629A0FFF7E7F9334E3046FEF75E
:10136000C1FF042201A93046FFF7A8FC9DF8040044
:10137000FF280BD19DF80500FF2807D19DF8060036
:10138000FF2803D19DF80700FF2812D027A0FFF700
:10139000CBF99DF8070000909DF806309DF80520D8
:1013A0009DF8041026A0FFF7BFF900244FF48078C1
:1013B0001BE027A0FFF7B8F9F7E70F4841460930CF
:1013C000FEF7D9FE38680C4900EB0420424609318B
:1013D000FEF7B2FF0A20FFF727FB074906EB0420C0
:1013E00042460931FFF774FC641CAC42E5D3FFF7B9
:1013F000E3FEBDE8FC81000024060020675F7570F5
:101400006772616465706172616D5F646174612EA1
:10141000746F74616C5F7061636B6574636F756E1C
:10142000743A25640D0A000000400008457261739B
:1014300065204572726F7220212121200D0A000063
:101440002530782025307820253078202530780008
:101450004572617365202020204F4B2021212120DF
:101460000D0A000070B504460D460020174BE21A25
:101470001E159C4216D008DC154962180ED0B242E7
:1014800017D10220FFF70CFE13E0B2420ED0B2F5E6
:101490006C4F0ED10320FFF703FE0AE00220FFF796
:1014A000FFFD06E00220FFF7FBFD02E00220FFF750
:1014B000F7FD00EB5500B0FBF5F04FF6F071014081
:1014C00000F00F021143A16070BD0000004C00400D
:1014D00000BCFFBFC1F3080141607047C16841F41F
:1014E0000051C160704700EB9110006801F01F02CD
:1014F00001219140084201D001207047002070472F
:1015000010B5C1F38912835801F01F040121A140D5
:101510000B43835010BDC26822F4C062C260C2682F
:101520000A43C2607047C26822F004020A43C260E4
:101530007047026922F44052026102690A43026163
:101540007047C26822F008020A43C2607047C2684E
:1015500022F48052C260C2680A43C2607047000031
:1015600080150008000000200C000000480700085B
:101570008C1500080C000020242B000058070008E0
:0C15800000F36F060000000000000000F7
:0400000508000131BD
:00000001FF
