:020000040800F2
:100000001028002045010008A7060008AF040008DA
:10001000A5060008A1030008E10800080000000090
:10002000000000000000000000000000450700087C
:10003000A303000800000000C906000847070008E5
:100040005F0100085F0100085F0100085F01000810
:100050005F0100085F0100085F0100085F01000800
:100060005F0100085F0100085F0100085F010008F0
:100070005F0100085F0100085F0100085F010008E0
:100080005F0100085F0100085F0100085F010008D0
:100090005F0100085F0100085F0100085F010008C0
:1000A0005F0100085F0100085F0100085F010008B0
:1000B0005F0100085F0100085F0100085F010008A0
:1000C0005F0100085F0100085F0100085F01000890
:1000D0005F0100085F0100085F0100087508000863
:1000E0005F0100085F0100085F0100085F01000870
:1000F0005F0100085F0100085F0100085F01000860
:100100005F0100085F0100085F0100085F0100084F
:100110005F0100085F0100085F0100085F0100083F
:100120005F0100085F0100085F0100085F0100082F
:10013000DFF80CD000F06EF800480047A11000086E
:10014000102800200648804706480047FEE7FEE7E3
:10015000FEE7FEE7FEE7FEE7FEE7FEE7FEE7FEE777
:100160004D0700083101000840EA01039B0703D056
:1001700009E008C9121F08C0042AFAD203E011F8E6
:10018000013B00F8013B521EF9D27047D2B201E0A8
:1001900000F8012B491EFBD270470022F6E710B58C
:1001A00013460A4604461946FFF7F0FF204610BDE5
:1001B0002DE9F05F0546002092469B46884606469C
:1001C000814640241BE0284641464746224600F02F
:1001D00042F853465A46C01A914110D31146184668
:1001E000224600F029F82D1A67EB01084F462246F7
:1001F0000120002100F020F817EB00094E41201EDD
:10020000A4F10104DFDC484631462A464346BDE8F6
:10021000F09F0000064C074D06E0E06840F0010347
:1002200094E8070098471034AC42F6D3FFF784FFF8
:100230006016000880160008202A04DB203A00FA25
:1002400002F1002070479140C2F1200320FA03F32D
:10025000194390407047202A04DB203A21FA02F02B
:100260000021704721FA02F3D040C2F120029140F0
:1002700008431946704700002DE9FC410003202681
:100280008DF80060C0F307458DF80150C0F30724D6
:100290008DF8024000278DF8037000F065F8DFF854
:1002A00040801021404600F039FE304601F00AF847
:1002B000284601F007F8204601F004F8384601F01E
:1002C00001F81021404600F02BFE322000F08AFC9D
:1002D00000F008F80228FBD00020BDE8FC810000F7
:1002E0000008014038B50BA0006800900A4D1021AD
:1002F000284600F013FE9DF8000000F0E3FF0446DE
:100300001021284600F00CFEE00701D0022038BD85
:10031000002038BD050000000008014010B500F0C5
:10032000D9F900F005F8BDE81040FFF7DBBF000089
:1003300038B50BA0006800900A4C1021204600F050
:10034000EDFD9DF8000000F0BDFF9DF8010000F0FC
:10035000B9FF2046BDE83840102100F0E1BD0000A3
:10036000669900000008014038B50BA000680090B5
:100370000A4C1021204600F0D1FD9DF8000000F04D
:10038000A1FF1021204600F0CBFDFFF7ABFF0228B4
:10039000FBD0002038BD000006000000000801402E
:1003A000FEE7704770B5044600F0EEFC074D07E02D
:1003B000204600F08FFC08B1012070BD04F50064F8
:1003C000AC42F5D900F072FC002070BD00000408BA
:1003D00010B500F0D9FC40F2053000F059FC4FF4A4
:1003E000417000F055FC40F2023000F051FCBDE8D5
:1003F000104000F05BBC00002DE9F84305460C46B8
:100400001646B4F5800F02D30120BDE8F883FFF74C
:10041000ABFF02208DF80000200C8DF80100200AAF
:100420008DF802008DF803400F4F1021384600F080
:1004300075FD0024E84618F8040000F049F9641C32
:10044000042CF8DB002403E0285D00F041F9641C73
:10045000B442F9DB1021384600F062FDFFF742FF9D
:100460000228FBD00020D0E7000801402DE9F04130
:1004700007460E461546F0B2C0F58074A54200D876
:10048000ACB24FF4807806E0274426442D1B444646
:10049000A54200D8ACB2224631463846FFF7ACFF41
:1004A000012000F09FFBA542EED1BDE8F081FEE700
:1004B0002DE9F8430D46164603218DF80010010C76
:1004C0008DF80110010A8DF802108DF80300FFF776
:1004D00009FF0028FBD10E4F1021384600F01EFD09
:1004E0000024E84618F8040000F0F2F8641C042C1C
:1004F000F8DB002403E000F0E8F82855641CB4425F
:10050000F9DB3846BDE8F843102100F009BD0000D2
:10051000000801402DE9F04F81B0ADF5805D8846BF
:100520001546070B3F034FEA1039C0F30B06C6F51B
:100530008054A54200D82C464FF4805B0DF1040A8C
:1005400059465046FFF729FE5A4651463846FFF7AE
:10055000AFFF002009E031181AF80110FF2903D07D
:1005600018F80020914202D1401CA042F3D3A042CF
:100570000FD21FFA89F0FFF77FFE0AEB0600224632
:100580004146FFF7F1FD5A4639465046FFF76EFFE8
:1005900004E0B91922464046FFF768FFA5420CD097
:1005A00007F5805709F101090026A044281B85B2F0
:1005B0005C465D45C8D22C46C6E701B00DF5805DAE
:1005C000BDE8F08F2DE9F04140F2026000F02CFE12
:1005D00040F2036000F028FE40F2046000F024FEC8
:1005E00040F2056000F020FE4FF4C06000F01CFEF9
:1005F0000121284800F0E8FC274C4FF44073032207
:100600001021204600F08EFC244D102303224821A7
:10061000284600F087FCA31403222821284600F076
:1006200081FC4AF2E30303221021284600F07AFC01
:100630001B4E4FF4927303224821304600F072FCA7
:1006400067153946204600F06BFC142000F0CAFA0A
:100650003946204600F062FC0221284600F060FC8A
:10066000E114304600F05CFC8021284600F058FC84
:10067000B901284600F052FCA115204600F050FCBC
:100680000121284600F04AFC61142846BDE8F041EB
:1006900000F044BC0002300000080140000C0140A2
:1006A00000100140FEE770470907090E002806DA2E
:1006B00000F00F0000F1E02080F8141D704700F1F9
:1006C000E02080F8001470477047FF2000F0FABD6A
:1006D00000F0F8BD70B540F2026000F0A5FD40F2F8
:1006E000046000F0A1FD154CB02303221021204628
:1006F00000F018FC402303220421204600F012FCE5
:100700000F4D4FF4047303221021284600F00AFC19
:100710001021284600F004FC6115284600F000FC7A
:100720001021204600F0FCFB2021204600F0F8FBC1
:100730002046BDE87040802100F0F2BB0008014077
:1007400000100140704700F055BA000038B5424C27
:10075000206840F00100206020688007FCD56068B8
:1007600040F0800060600025009502E00098401C89
:10077000009000985028F9D3606840F090006060C5
:10078000009502E00098401C009000985028F9D392
:10079000606820F0030060602168304801402160FB
:1007A00061682F4A11406160216801402160216821
:1007B00021F48021216061682A4A1140616021682A
:1007C000014021604FF41F00A06000F0F9FD2648B1
:1007D0000178D1B3216821F48031216005700020B7
:1007E000216841F0010121604FF4A062401C2168A2
:1007F00001F0020109B99042F8D12068800700D4C5
:10080000FEE76068606060686060606840F4806017
:10081000606060681549084060606068144908437A
:100820006060206840F08070206020688001FCD506
:10083000606820F003006060606840F00200606063
:100840006068C0F381000228FAD1BDE83840002179
:100850004FF0006000F0D2BC00100240FFFFF6FE37
:100860000C00FFE8FFFF00F700000020FFFFC3F7C8
:100870000000280870B5164D164C2946204600F099
:10088000BBFE30B1204600F099FE2946204600F01C
:10089000AAFE114D2046294600F0AEFE30B1294691
:1008A000204600F0A0FE204600F088FE0B4D2046BA
:1008B000294600F0A1FE002808D02946204600F075
:1008C00092FE2046BDE8704000F078BE70BD00008A
:1008D000050305000048004004030400050303006D
:1008E000FEE700000FB4054B10B503A9044A0298B7
:1008F00000F018F810BC5DF814FB0000550E00085D
:100900000C00002002E008C8121F08C1002AFAD11A
:1009100070477047002001E001C1121F002AFBD17F
:10092000704700002DE9FF4F8DB09B460F460446EF
:10093000002606E025280BD05A460F999047641CE4
:10094000761C20780028F5D111B03046BDE8F08F34
:100950000025A8460122984900E0054314F8013F0C
:10096000203B02FA03F00842F7D120782E2817D155
:1009700014F8010F45F004052A280ED06FF02F025D
:100980002078A0F1300109290AD808EB880102EB90
:10099000410100EB0108641CF2E757F8048B641C6A
:1009A00020786C280DD004DC4C2812D06A2811D194
:1009B00004E074280DD07A280CD10AE045F4001523
:1009C00007E0617845F48015814202D1641C05F589
:1009D0008015641C2278692A45D008DC002AB3D02F
:1009E000582A69D0632A10D0642A08D13BE0702AC3
:1009F00067D0732A13D0752A5CD0782A5CD0104651
:100A00005A460F999047761CD3E017F8040B8DF8DF
:100A1000000000208DF80100E946012003E057F8AE
:100A2000049B4FF0FF3069074FF0000501D40AE046
:100A30006D1C45450DDA8542FADB19F805100029D1
:100A4000F6D106E06D1C8542FCDB19F80510002983
:100A5000F8D12E4404E019F8010B5A460F9990473B
:100A60006D1EF8D2A5E00A200021CDE90801C5F3EA
:100A7000025002280DD001CFC117031E71F10003EF
:100A80000DDA4FF0000CD0EB0C006CEB01012D23C4
:100A900008E0FF1D27F00707F7E80201EDE72B0547
:100AA00004D52B238DF8283001233BE0EB0739D008
:100AB0002023F7E70A2000E010200021CDE90801FB
:100AC00007E01020002145F00405CDE908014FF0B2
:100AD0000808C5F3025002280FD001CF00214FF0C3
:100AE000000A2B071FD5702A0DD0DDE908C38CF052
:100AF000100C5CEA030C0CD015E0FF1D27F0070773
:100B0000F7E80201EBE740228DF828204FF0010AB8
:100B10000BE050EA010306D030238DF828308DF821
:100B2000292002239A46582A04D024A20DF1200934
:100B30000B9209E026A2F9E7DDE90823FFF738FB6D
:100B40000B9B9B5C09F8013D50EA0102F4D1ADEB2F
:100B5000090020300890680701D44FF00108089977
:100B6000884502DDA8EB010000E00020804600255A
:100B700006E00AA85A46405D0F9990476D1C761C06
:100B80005545F6DB04E030205A460F999047761C15
:100B9000B8F10001A8F10108F5DC05E019F8010B36
:100BA0005A460F999047761C0899481E08900029CC
:100BB000F4DC641CC5E60000092801003031323342
:100BC0003435363738396162636465660000000089
:100BD0003031323334353637383941424344454673
:100BE000000000000249086008680028FCD1704736
:100BF0000800002003480168002902D00168491E4E
:100C0000016070470800002000B5034600F00AF8B4
:100C10005B1E012801D1002BF8D1012800D104204E
:100C200000BD000000200849CA68D20701D0012099
:100C30007047CA68D20601D503207047C9684907C2
:100C4000FBD50220704700000020024000B503469B
:100C500000F00AF85B1E012801D1002BF8D1012811
:100C600000D1042000BD000000200849CA6CD20752
:100C700001D001207047CA6CD20601D5032070470D
:100C8000C96C4907FBD502207047000000200240D4
:100C9000054901EB90110A6800F01F0301209840FC
:100CA00002430A60704700000020024007480169C3
:100CB00041F08001016106490988B1F5007F03D93F
:100CC000016D41F080010165704700000020024085
:100CD000E0F7FF1F70B504462848294D4FF47026F1
:100CE0000088B0F5007F32D92648844215D23046BC
:100CF000FFF78AFF00280FD1286940F00200286121
:100D00006C61286940F0400028613046FFF77CFFA5
:100D1000296921F00201296170BD3046FFF796FF75
:100D20000028F9D1286D40F0020028656C65E8695B
:100D3000800700D56C61286D40F040002865304682
:100D4000FFF784FF296D21F00201296570BD30464F
:100D5000FFF75AFF0028F9D1286940F00200286106
:100D60006C61286940F0400028613046FFF74CFF75
:100D7000296921F00201296170BD0000E0F7FF1F21
:100D800000200240FFFF070809480169094A0B06D5
:100D9000094901D542604160084B1B88B3F5007FCB
:100DA00004D9036D1B0601D54264416470470000FD
:100DB0000020024023016745AB89EFCDE0F7FF1F1C
:100DC000F0B504460D462048204E4FF470270088A9
:100DD000B0F5007F26D91E48844211D23846FFF76D
:100DE00013FF00280BD1306940F00100306125600D
:100DF0003846FFF709FF316921F001013161F0BD8B
:100E00003846FFF723FF0028F9D1306D40F001008C
:100E1000306525603846FFF719FF316D21F001017B
:100E20003165F0BD3846FFF7EFFE0028F9D1306993
:100E300040F00100306125603846FFF7E5FE31697A
:100E400021F001013161F0BDE0F7FF1F00200240F9
:100E5000FFFF070870B50446064DE1B2284600F0D2
:100E6000B1FB0721284600F0B1FB0028F9D020464D
:100E700070BD00000048004010B5002302E0C45CD3
:100E8000CC545B1C9342FAD3012010BD2DE9F047EE
:100E900005460E4617460024FFF776FF40F2053858
:100EA0004FF4417940F2023A21E031592819FFF715
:100EB00087FF38B1FFF7FAFE10A0FFF713FD0020FF
:100EC000BDE8F0874046FFF7E3FE4846FFF7E0FE47
:100ED0005046FFF7DDFE30592959884206D0FFF70A
:100EE000E5FE0AA0FFF7FEFC0020E9E7241DBC4256
:100EF000DBD3FFF7DBFE0120E2E7000077726974C5
:100F000065206572726F72320D0A00007772697423
:100F100065206572726F7220310D0A004161704761
:100F2000016170472DE9F04301F00F04CD0600D5B3
:100F3000144300224FF00F0C012707FA02F51D4061
:100F400014D0D0F8008096000CFA06F928EA0908B7
:100F500004FA06F949EA0809282902D0482902D0EA
:100F600002E0456100E00561C0F80090521C92B2B9
:100F7000082AE2D3082207FA02F51D4016D0D0F85D
:100F80000480A2F10806B6000CFA06F928EA09085E
:100F900004FA06F949EA0809282902D0482902D0AA
:100FA00002E0456100E00561C0F80490521C92B275
:100FB000102AE0D3BDE8F0838068084201D0012008
:100FC0007047002070470000F0B5154C002801DA8A
:100FD000E36900E06368C0F30346420D120185B285
:100FE000C0F301579540032F07D0C2020CD503224E
:100FF000B240934343F0706209E023F0706263688B
:1010000023F07063636002E0AB4343F0706201B1B0
:101010002A43002801DAE261F0BD6260F0BD000001
:101020000000014008B572B6012181F31088104A12
:1010300001681140B1F1005F09D00EA0FFF752FC2A
:10104000BDE808408C220E490EA0FFF74BBC41685A
:1010500000910099006880F3088888470CA0FFF78A
:1010600041FCBDE808408822054906A0FFF73ABCCC
:101070000000FE2F4E6F204A756D70200D0A000093
:10108000521600085B25735D5B25645D0D0A000048
:101090004A756D70206572726F722E0D0A00000025
:1010A000002000F0B7F800F08DF9FFF78BFAFFF79A
:1010B0008FF9002441F28835FFF730F918B1641C2C
:1010C000A4B2AC42F8D31420FFF78CFD00F0BAF8BC
:1010D0001FA0FFF707FC2022234924A0FFF702FCF2
:1010E000254C26A02168FFF7FDFB21221E491FA0E9
:1010F000FFF7F8FB61682AA0FFF7F4FB22221A49E8
:101100001AA0FFF7EFFB217A2EA0FFF7EBFB2322BB
:10111000154916A0FFF7E6FB207A012815D000F04C
:10112000C9F800F0A3F800F0A1F84FF47A7400F0C9
:10113000C1F82DA0FFF7D6FB31220B490BA0FFF71A
:10114000D1FB2046FFF74EFDF1E700F061F9EAE739
:101150005468697320697320626F6F746C6F616487
:1011600065720D0A000000003C1600085B25735DE7
:101170005B25645D0D0A000010000020675F75703C
:101180006772616465706172616D5F646174612E24
:101190007569416464723D307825780D0A0000005D
:1011A000675F75706772616465706172616D5F64BD
:1011B0006174612E75694C656E3D307825780D0A35
:1011C00000000000675F757067726164657061722E
:1011D000616D5F646174612E7563557064617465DF
:1011E0003D307825780D0A00426F6F746C6F616432
:1011F0006572206572726F722E0D0A00034A1140EB
:10120000014303480160BFF34F8F704780FFFF1F0A
:1012100008ED00E0034A516821F0F00101435160FC
:101220007047000000100240054901EB90110A6868
:1012300000F01F030120984002430A60704700003D
:101240000010024010B54FF4807206490020FFF7ED
:101250002FF9BDE810404FF4007203490020FFF75A
:1012600027B90000100000201001002010B506A0D2
:10127000FFF738FB93220A490AA0FFF733FBBDE8CA
:1012800010400B48FFF7CEBE0D0A4A756D70206105
:101290007070212121212121212121210D0A00000D
:1012A000411600085B25735D5B25645D0D0A000037
:1012B000004000084FF480710148FEF76EBF000047
:1012C000100000202DE9F041064600240025154FAE
:1012D00020213846FFF722FE300604D5802138460B
:1012E000FFF71EFE03E080213846FFF717FE700669
:1012F000060E20213846FFF713FE6006040E40213B
:101300003846FFF759FE08B1641CE4B26D1CEDB21B
:10131000082DDDD320213846FFF700FE2046BDE82A
:10132000F08100000008014000212148026842F4D9
:10133000803202604FF6FF73491C026802F40032EB
:101340000AB99942F8D10168890303D419490120E7
:10135000087070474168416041684160416841F4EC
:1013600080614160416821F440314160416841F44D
:10137000403141604168104A1140416041680F4A64
:1013800011434160016841F0807101600168890189
:10139000FCD5416821F003014160416841F0020140
:1013A00041604168C1F381010229FAD17047000010
:1013B0000010024000000020FFFFC3F700002808D3
:1013C000FFF7B2BF70B511484FF47A710068B0FBF7
:1013D000F1F1491E4FF0FF35B1F1807F01D30121BA
:1013E0000BE04FF0E02461610F212846FFF75CF924
:1013F0000020A06107202061002101B1FEE72846FE
:10140000BDE870400021FFF74FB900000400002044
:101410002DE9FC47484E0F21706801EB1025294645
:1014200046A0FFF75FFA3C224F4950A0FFF75AFA57
:101430003068042206F54071FFF73AF806F540706F
:101440000178FF296DD04178FF296AD08178FF2982
:1014500067D0C078FF2864D0474F3846FEF7A2FF18
:10146000042201A93846FFF707FD9DF80400FF2874
:101470000BD19DF80500FF2807D19DF80600FF2835
:1014800003D19DF80700FF281AD03CA0FFF72AFAE5
:101490004A22354935A0FFF725FA9DF8070000904C
:1014A0009DF806309DF805209DF8041038A0FFF740
:1014B00019FA4B222C492DA0FFF714FA00242EE034
:1014C00037A0FFF70FFA4822274928A0FFF70AFAAA
:1014D000F4E74FF4807841463648FEF75EFE306808
:1014E000424600EB04203349FEF7E2FF0120FFF7FC
:1014F00079FB07EB042042462E49FFF7C7FCDFF8D3
:10150000B8904FF4007841464846FFF709FD0A209D
:10151000FFF768FB41464846FFF700FD641CAC42FC
:10152000D7D300F083F84FF47A70FFF75BFBFFF737
:101530009DFEBDE8FC87000010000020675F75700D
:101540006772616465706172616D5F646174612E60
:10155000746F74616C5F7061636B6574636F756EDB
:10156000743A25640D0A0000451600085B25735D7A
:101570005B25645D0D0A0000004000084572617340
:1015800065204572726F7220212121200D0A000012
:1015900025307820253078202530782025307800B7
:1015A0004572617365202020204F4B20212121208E
:1015B0000D0A000010030020000801404068C0F33D
:1015C00008007047C1F308014160704700EB9110BB
:1015D000006801F01F0201219140084201D0012062
:1015E000704700207047C1F3044301229A4000EB8A
:1015F0009150D2430260704730B5C1F389128258CE
:1016000001F01F04012505FA04F31A4000EB915084
:101610000068C1F3044105FA01F31840002802D024
:101620000AB1012030BD002030BD00004FF48072AF
:1016300001490020FEF76EBF100000206D61696E49
:101640000072756E007570646174655F6C6F6769B8
:1016500063006A756D705F746F5F61707000000089
:101660008016000800000020100000000409000897
:10167000901600081000002000280000140900083F
:101680000000000000F36F060000000000000000F2
:0400000508000131BD
:00000001FF
