:020000040800F2
:10000000102800204501000897060008AF040008EA
:1000100095060008A1030008490800080000000038
:10002000000000000000000000000000350700088C
:10003000A303000800000000B90600083707000805
:100040005F0100085F0100085F0100085F01000810
:100050005F0100085F0100085F0100085F01000800
:100060005F0100085F0100085F0100085F010008F0
:100070005F0100085F0100085F0100085F010008E0
:100080005F0100085F0100085F0100085F010008D0
:100090005F0100085F0100085F0100085F010008C0
:1000A0005F0100085F0100085F0100085F010008B0
:1000B0005F0100085F0100085F0100085F010008A0
:1000C0005F0100085F0100085F0100085F01000890
:1000D0005F0100085F0100085F010008DD070008FC
:1000E0005F0100085F0100085F0100085F01000870
:1000F0005F0100085F0100085F0100085F01000860
:100100005F0100085F0100085F0100085F0100084F
:100110005F0100085F0100085F0100085F0100083F
:100120005F0100085F0100085F0100085F0100082F
:10013000DFF80CD000F06EF8004800470910000806
:10014000102800200648804706480047FEE7FEE7E3
:10015000FEE7FEE7FEE7FEE7FEE7FEE7FEE7FEE777
:100160003D0700083101000840EA01039B0703D066
:1001700009E008C9121F08C0042AFAD203E011F8E6
:10018000013B00F8013B521EF9D27047D2B201E0A8
:1001900000F8012B491EFBD270470022F6E710B58C
:1001A00013460A4604461946FFF7F0FF204610BDE5
:1001B0002DE9F05F0546002092469B46884606469C
:1001C000814640241BE0284641464746224600F02F
:1001D00042F853465A46C01A914110D31146184668
:1001E000224600F029F82D1A67EB01084F462246F7
:1001F0000120002100F020F817EB00094E41201EDD
:10020000A4F10104DFDC484631462A464346BDE8F6
:10021000F09F0000064C074D06E0E06840F0010347
:1002200094E8070098471034AC42F6D3FFF784FFF8
:10023000C0150008E0150008202A04DB203A00FA67
:1002400002F1002070479140C2F1200320FA03F32D
:10025000194390407047202A04DB203A21FA02F02B
:100260000021704721FA02F3D040C2F120029140F0
:1002700008431946704700002DE9FC410003202681
:100280008DF80060C0F307458DF80150C0F30724D6
:100290008DF8024000278DF8037000F065F8DFF854
:1002A00040801021404600F0EDFD304600F0BEFFDA
:1002B000284600F0BBFF204600F0B8FF384600F0AB
:1002C000B5FF1021404600F0DFFD322000F03EFC7B
:1002D00000F008F80228FBD00020BDE8FC810000F7
:1002E0000008014038B50BA0006800900A4D1021AD
:1002F000284600F0C7FD9DF8000000F097FF044677
:100300001021284600F0C0FDE00701D0022038BDD2
:10031000002038BD050000000008014010B500F0C5
:10032000D1F900F005F8BDE81040FFF7DBBF000091
:1003300038B50BA0006800900A4C1021204600F050
:10034000A1FD9DF8000000F071FF9DF8010000F094
:100350006DFF2046BDE83840102100F095BD00003B
:10036000669900000008014038B50BA000680090B5
:100370000A4C1021204600F085FD9DF8000000F099
:1003800055FF1021204600F07FFDFFF7ABFF02284C
:10039000FBD0002038BD000006000000000801402E
:1003A000FEE7704770B5044600F0A2FC074D07E079
:1003B000204600F043FC08B1012070BD04F5006444
:1003C000AC42F5D900F026FC002070BD0000040806
:1003D00010B500F08DFC40F2053000F00DFC4FF43C
:1003E000417000F009FC40F2023000F005FCBDE86D
:1003F000104000F00FBC00002DE9F84305460C4604
:100400001646B4F5800F02D30120BDE8F883FFF74C
:10041000ABFF02208DF80000200C8DF80100200AAF
:100420008DF802008DF803400F4F1021384600F080
:1004300029FD0024E84618F8040000F041F9641C86
:10044000042CF8DB002403E0285D00F039F9641C7B
:10045000B442F9DB1021384600F016FDFFF742FFE9
:100460000228FBD00020D0E7000801402DE9F04130
:1004700007460E461546F0B2C0F58074A54200D876
:10048000ACB24FF4807806E0274426442D1B444646
:10049000A54200D8ACB2224631463846FFF7ACFF41
:1004A000012000F053FBA542EED1BDE8F081FEE74C
:1004B0002DE9F8430D46164603218DF80010010C76
:1004C0008DF80110010A8DF802108DF80300FFF776
:1004D00009FF0028FBD10E4F1021384600F0D2FC56
:1004E0000024E84618F8040000F0EAF8641C042C24
:1004F000F8DB002403E000F0E0F82855641CB44267
:10050000F9DB3846BDE8F843102100F0BDBC00001F
:10051000000801402DE9F04F81B0ADF5805D8846BF
:100520001546070B3F034FEA1039C0F30B06C6F51B
:100530008054A54200D82C464FF4805B0DF1040A8C
:1005400059465046FFF729FE5A4651463846FFF7AE
:10055000AFFF002009E031181AF80110FF2903D07D
:1005600018F80020914202D1401CA042F3D3A042CF
:100570000FD21FFA89F0FFF77FFE0AEB0600224632
:100580004146FFF7F1FD5A4639465046FFF76EFFE8
:1005900004E0B91922464046FFF768FFA5420CD097
:1005A00007F5805709F101090026A044281B85B2F0
:1005B0005C465D45C8D22C46C6E701B00DF5805DAE
:1005C000BDE8F08F70B540F2026000F0E1FD40F24E
:1005D000036000F0DDFD40F2046000F0D9FD40F260
:1005E000056000F0D5FD4FF4C06000F0D1FD0121A1
:1005F000244800F09DFC244C4FF44073032210214A
:10060000204600F043FC214D1023032248212846B8
:1006100000F03CFCA31403222821284600F036FCFD
:100620004AF2E30303221021284600F02FFC184E63
:100630004FF4927303224821304600F027FC43F622
:100640000B0303221021304600F020FCE114304659
:1006500000F01AFC8021284600F016FC4FF40041FF
:10066000284600F00FFCA115204600F00DFC0121EA
:10067000284600F007FC61142846BDE8704000F0F1
:1006800001BC00000002300000080140000C0140E5
:1006900000100140FEE770470907090E002806DA3E
:1006A00000F00F0000F1E02080F8141D704700F109
:1006B000E02080F8001470477047FF2000F0B6BDBE
:1006C00000F0B4BD70B540F2026000F061FD40F290
:1006D000046000F05DFD154CB0230322102120467C
:1006E00000F0D4FB402303220421204600F0CEFB7F
:1006F0000F4D4FF4047303221021284600F0C6FB6F
:100700001021284600F0C0FB6115284600F0BCFB14
:100710001021204600F0B8FB2021204600F0B4FB59
:100720002046BDE87040802100F0AEBB00080140CB
:1007300000100140704700F011BA000008B52348CE
:10074000016841F00101016001688907FCD5416839
:1007500041F0800141600022009202E00099491CB2
:10076000009100995029F9D3416841F0900141600E
:10077000009202E00099491C009100995029F9D398
:10078000416821F003014160026811490A4002609A
:100790004268104B1A40426002680A4002600268D8
:1007A00022F48022026042680B4B1A4042600268C9
:1007B0000A4002604FF41F01816000F0AFFDBDE808
:1007C000084000214FF0006000F0CCBC0010024057
:1007D000FFFFF6FE0C00FFE8FFFF00F770B5164DB7
:1007E000164C2946204600F0B7FE30B1204600F0F6
:1007F00095FE2946204600F0A6FE114D20462946CA
:1008000000F0AAFE30B12946204600F09CFE2046AA
:1008100000F084FE0B4D2046294600F09DFE002886
:1008200008D02946204600F08EFE2046BDE87040E4
:1008300000F074BE70BD00000503050000480040D4
:100840000403040005030300FEE700000FB4054B9A
:1008500010B503A9044A029800F018F810BC5DF81E
:1008600014FB0000BD0D00080800002002E008C8CD
:10087000121F08C1002AFAD170477047002001E01A
:1008800001C1121F002AFBD1704700002DE9FF4F64
:100890008DB09B460F460446002606E025280BD067
:1008A0005A460F999047641C761C20780028F5D191
:1008B00011B03046BDE8F08F0025A84601229849C6
:1008C00000E0054314F8013F203B02FA03F0084220
:1008D000F7D120782E2817D114F8010F45F0040520
:1008E0002A280ED06FF02F022078A0F130010929BC
:1008F0000AD808EB880102EB410100EB0108641CF7
:10090000F2E757F8048B641C20786C280DD004DCC7
:100910004C2812D06A2811D104E074280DD07A280E
:100920000CD10AE045F4001507E0617845F4801524
:10093000814202D1641C05F58015641C2278692A65
:1009400045D008DC002AB3D0582A69D0632A10D0D9
:10095000642A08D13BE0702A67D0732A13D0752A25
:100960005CD0782A5CD010465A460F999047761C86
:10097000D3E017F8040B8DF8000000208DF801007B
:10098000E946012003E057F8049B4FF0FF30690768
:100990004FF0000501D40AE06D1C45450DDA854293
:1009A000FADB19F805100029F6D106E06D1C854226
:1009B000FCDB19F805100029F8D12E4404E019F8E1
:1009C000010B5A460F9990476D1EF8D2A5E00A20F8
:1009D0000021CDE90801C5F3025002280DD001CF56
:1009E000C117031E71F100030DDA4FF0000CD0EBBC
:1009F0000C006CEB01012D2308E0FF1D27F0070719
:100A0000F7E80201EDE72B0504D52B238DF82830FC
:100A100001233BE0EB0739D02023F7E70A2000E071
:100A200010200021CDE9080107E01020002145F049
:100A30000405CDE908014FF00808C5F3025002286B
:100A40000FD001CF00214FF0000A2B071FD5702ACD
:100A50000DD0DDE908C38CF0100C5CEA030C0CD05F
:100A600015E0FF1D27F00707F7E80201EBE740223A
:100A70008DF828204FF0010A0BE050EA010306D060
:100A800030238DF828308DF8292002239A46582AE1
:100A900004D024A20DF120090B9209E026A2F9E767
:100AA000DDE90823FFF784FB0B9B9B5C09F8013D04
:100AB00050EA0102F4D1ADEB09002030089068073C
:100AC00001D44FF001080899884502DDA8EB010028
:100AD00000E000208046002506E00AA85A46405D56
:100AE0000F9990476D1C761C5545F6DB04E03020CD
:100AF0005A460F999047761CB8F10001A8F10108F9
:100B0000F5DC05E019F8010B5A460F999047761C61
:100B10000899481E08900029F4DC641CC5E6000012
:100B200009280100303132333435363738396162C3
:100B30006364656600000000303132333435363787
:100B400038394142434445460000000002490860EC
:100B500008680028FCD170470400002003480168A1
:100B6000002902D00168491E01607047040000207E
:100B700000B5034600F00AF85B1E012801D1002BE6
:100B8000F8D1012800D1042000BD00000020084950
:100B9000CA68D20701D001207047CA68D20601D5C1
:100BA00003207047C9684907FBD502207047000041
:100BB0000020024000B5034600F00AF85B1E012841
:100BC00001D1002BF8D1012800D1042000BD000084
:100BD00000200849CA6CD20701D001207047CA6CB6
:100BE000D20601D503207047C96C4907FBD5022006
:100BF0007047000000200240054901EB90110A688F
:100C000000F01F030120984002430A607047000073
:100C1000002002400748016941F080010161064956
:100C20000988B1F5007F03D9016D41F080010165AC
:100C30007047000000200240E0F7FF1F70B5044637
:100C40002848294D4FF470260088B0F5007F32D92E
:100C50002648844215D23046FFF78AFF00280FD17C
:100C6000286940F0020028616C61286940F040006A
:100C700028613046FFF77CFF296921F002012961D4
:100C800070BD3046FFF796FF0028F9D1286D40F07F
:100C9000020028656C65E869800700D56C61286DE5
:100CA00040F0400028653046FFF784FF296D21F0B1
:100CB0000201296570BD3046FFF75AFF0028F9D1BF
:100CC000286940F0020028616C61286940F040000A
:100CD00028613046FFF74CFF296921F002012961A4
:100CE00070BD0000E0F7FF1F00200240FFFF070873
:100CF00009480169094A0B06094901D5426041606A
:100D0000084B1B88B3F5007F04D9036D1B0601D582
:100D1000426441647047000000200240230167459F
:100D2000AB89EFCDE0F7FF1FF0B504460D46204834
:100D3000204E4FF470270088B0F5007F26D91E485A
:100D4000844211D23846FFF713FF00280BD13069D7
:100D500040F00100306125603846FFF709FF316936
:100D600021F001013161F0BD3846FFF723FF002873
:100D7000F9D1306D40F00100306525603846FFF74D
:100D800019FF316D21F001013165F0BD3846FFF7E3
:100D9000EFFE0028F9D1306940F001003061256094
:100DA0003846FFF7E5FE316921F001013161F0BD00
:100DB000E0F7FF1F00200240FFFF070870B5044660
:100DC000064DE1B2284600F0ADFB0721284600F0B1
:100DD000ADFB0028F9D0204670BD0000004800405F
:100DE00010B5002302E0C45CCC545B1C9342FAD3E0
:100DF000012010BD2DE9F04705460E461746002498
:100E0000FFF776FF40F205384FF4417940F2023A9D
:100E100021E031592819FFF787FF38B1FFF7FAFEB3
:100E200010A0FFF713FD0020BDE8F0874046FFF754
:100E3000E3FE4846FFF7E0FE5046FFF7DDFE30597F
:100E40002959884206D0FFF7E5FE0AA0FFF7FEFC0D
:100E50000020E9E7241DBC42DBD3FFF7DBFE0120C5
:100E6000E2E700007772697465206572726F723212
:100E70000D0A00007772697465206572726F7220C6
:100E8000310D0A0041617047016170472DE9F0435F
:100E900001F00F04CD0600D5144300224FF00F0CD3
:100EA000012707FA02F51D4014D0D0F80080960003
:100EB0000CFA06F928EA090804FA06F949EA0809C9
:100EC000282902D0482902D002E0456100E00561EE
:100ED000C0F80090521C92B2082AE2D3082207FA06
:100EE00002F51D4016D0D0F80480A2F10806B60025
:100EF0000CFA06F928EA090804FA06F949EA080989
:100F0000282902D0482902D002E0456100E00561AD
:100F1000C0F80490521C92B2102AE0D3BDE8F083CE
:100F20008068084201D0012070470020704700000F
:100F3000F0B5154C002801DAE36900E06368C0F3FE
:100F40000346420D120185B2C0F301579540032FAD
:100F500007D0C2020CD50322B240934343F0706223
:100F600009E023F07062636823F07063636002E05D
:100F7000AB4343F0706201B12A43002801DAE26119
:100F8000F0BD6260F0BD00000000014008B572B61F
:100F9000012181F31088104A01681140B1F1005F0E
:100FA00009D00EA0FFF752FCBDE808408A220E4986
:100FB0000EA0FFF74BBC416800910099006880F3D8
:100FC000088888470CA0FFF741FCBDE8084086224E
:100FD000054906A0FFF73ABC0000FE2F4E6F204ADD
:100FE000756D70200D0A0000B21500085B25735D59
:100FF0005B25645D0D0A00004A756D702065727294
:101000006F722E0D0A000000002000F0B7F800F00B
:1010100087F9FFF7D7FAFFF7DBF9002441F28835AB
:10102000FFF77CF918B1641CA4B2AC42F8D31420C9
:10103000FFF78CFD00F0BAF81FA0FFF707FC202295
:10104000234924A0FFF702FC254C26A02168FFF7C6
:10105000FDFB21221E491FA0FFF7F8FB61682AA0B3
:10106000FFF7F4FB22221A491AA0FFF7EFFB217ABF
:101070002EA0FFF7EBFB2322154916A0FFF7E6FB96
:10108000207A012815D000F0C9F800F0A3F800F08C
:10109000A1F84FF47A7400F0C1F82DA0FFF7D6FB49
:1010A00031220B490BA0FFF7D1FB2046FFF74EFD85
:1010B000F1E700F05BF9EAE754686973206973208F
:1010C000626F6F746C6F616465720D0A00000000DE
:1010D0009C1500085B25735D5B25645D0D0A0000AF
:1010E0000C000020675F75706772616465706172E3
:1010F000616D5F646174612E7569416464723D3035
:101100007825780D0A000000675F7570677261646A
:1011100065706172616D5F646174612E75694C65A3
:101120006E3D307825780D0A00000000675F75700D
:101130006772616465706172616D5F646174612E74
:1011400075635570646174653D307825780D0A00CB
:10115000426F6F746C6F61646572206572726F723A
:101160002E0D0A00034A1140014303480160BFF3FA
:101170004F8F704780FFFF1F08ED00E0034A516862
:1011800021F0F0010143516070470000001002405F
:10119000054901EB90110A6800F01F0301209840F7
:1011A00002430A60704700000010024010B54FF47F
:1011B000807206490020FFF77BF9BDE810404FF42C
:1011C000007203490020FFF773B900000C000020F3
:1011D0000C01002010B506A0FFF738FB91220A4948
:1011E0000AA0FFF733FBBDE810400B48FFF7CEBE67
:1011F0000D0A4A756D702061707021212121212115
:10120000212121210D0A0000A11500085B25735D35
:101210005B25645D0D0A0000004000084FF48071FA
:101220000148FEF7BABF00000C0000202DE9F04194
:10123000064600240025154F20213846FFF722FEE0
:10124000300604D580213846FFF71EFE03E08021DA
:101250003846FFF717FE7006060E20213846FFF7C6
:1012600013FE6006040E40213846FFF759FE08B110
:10127000641CE4B26D1CEDB2082DDDD3202138468C
:10128000FFF700FE2046BDE8F081000000080140A5
:1012900000211F48026842F4803202604FF6FF735B
:1012A000491C026802F400320AB99942F8D1016877
:1012B000890300D4FEE741684160416841604168AC
:1012C00041F480614160416821F4403141604168EE
:1012D00041F44031416041680E4A1140416041682B
:1012E0000D4A11434160016841F08071016001685D
:1012F0008901FCD5416821F003014160416841F05A
:10130000020141604168C1F381010229FAD17047AD
:1013100000100240FFFFC3F700002808FFF7B8BF26
:1013200070B511484FF47A710068B0FBF1F1491EB5
:101330004FF0FF35B1F1807F01D301210BE04FF079
:10134000E02461610F212846FFF7A6F90020A06183
:1013500007202061002101B1FEE72846BDE870406A
:101360000021FFF799B90000000000202DE9FC479B
:1013700041F28835294648A0FFF768FA3C225149D6
:1013800051A0FFF763FADFF84CA104220AF540717F
:10139000DAF80000FFF78CF80AF540704FF4807916
:1013A0000178FF2969D04178FF2966D08178FF292B
:1013B00063D0C078FF2860D0DFF81C814046FEF77C
:1013C000F1FF042201A94046FFF70AFD9DF8040041
:1013D000FF280BD19DF80500FF2807D19DF80600D6
:1013E000FF2803D19DF80700FF281DD03BA0FFF781
:1013F0002DFA4A22334934A0FFF728FA9DF8070056
:1014000000909DF806309DF805209DF8041038A046
:10141000FFF71CFA4B222B492BA0FFF717FA0024E9
:101420004FF40076364F26E036A0FFF70FFA482239
:10143000244925A0FFF70AFAF1E749463648FEF7A6
:10144000ACFEDAF800004A4600EB04203249FFF710
:101450002FF80120FFF77AFB08EB04204A462E49BB
:10146000FFF7C8FC31463846FFF70EFD31463846D7
:10147000FFF708FD641CAC42DFD349461548FEF770
:101480008CFE00F083F84FF47A70FFF75FFBFFF7F4
:10149000A1FEBDE8FC870000675F7570677261643C
:1014A00065706172616D5F646174612E746F7461E7
:1014B0006C5F7061636B6574636F756E743A2564FD
:1014C0000D0A0000A51500085B25735D5B25645DB2
:1014D0000D0A00000C0000200040000845726173F6
:1014E00065204572726F7220212121200D0A0000B3
:1014F0002530782025307820253078202530780058
:10150000000801404572617365202020204F4B2068
:10151000212121200D0A00000C0300204068C0F3A7
:1015200008007047C1F308014160704700EB91105B
:10153000006801F01F0201219140084201D0012002
:10154000704700207047C1F3044301229A4000EB2A
:101550009150D2430260704730B5C1F3891282586E
:1015600001F01F04012505FA04F31A4000EB915025
:101570000068C1F3044105FA01F31840002802D0C5
:101580000AB1012030BD002030BD00004FF4807250
:1015900001490020FEF7BEBF0C0000206D61696E9E
:1015A0000072756E007570646174655F6C6F676959
:1015B00063006A756D705F746F5F6170700000002A
:1015C000E0150008000000200C0000006C08000876
:1015D000EC1500080C000020042800007C0800081E
:0C15E00000F36F06000000000000000097
:0400000508000131BD
:00000001FF
