:020000040800F2
:100000001028002045010008A3060008AF040008DE
:10001000A1060008A1030008550800080000000020
:100020000000000000000000000000004107000880
:10003000A303000800000000C506000843070008ED
:100040005F0100085F0100085F0100085F01000810
:100050005F0100085F0100085F0100085F01000800
:100060005F0100085F0100085F0100085F010008F0
:100070005F0100085F0100085F0100085F010008E0
:100080005F0100085F0100085F0100085F010008D0
:100090005F0100085F0100085F0100085F010008C0
:1000A0005F0100085F0100085F0100085F010008B0
:1000B0005F0100085F0100085F0100085F010008A0
:1000C0005F0100085F0100085F0100085F01000890
:1000D0005F0100085F0100085F010008E9070008F0
:1000E0005F0100085F0100085F0100085F01000870
:1000F0005F0100085F0100085F0100085F01000860
:100100005F0100085F0100085F0100085F0100084F
:100110005F0100085F0100085F0100085F0100083F
:100120005F0100085F0100085F0100085F0100082F
:10013000DFF80CD000F06EF80048004765100008AA
:10014000102800200648804706480047FEE7FEE7E3
:10015000FEE7FEE7FEE7FEE7FEE7FEE7FEE7FEE777
:10016000490700083101000840EA01039B0703D05A
:1001700009E008C9121F08C0042AFAD203E011F8E6
:10018000013B00F8013B521EF9D27047D2B201E0A8
:1001900000F8012B491EFBD270470022F6E710B58C
:1001A00013460A4604461946FFF7F0FF204610BDE5
:1001B0002DE9F05F0546002092469B46884606469C
:1001C000814640241BE0284641464746224600F02F
:1001D00042F853465A46C01A914110D31146184668
:1001E000224600F029F82D1A67EB01084F462246F7
:1001F0000120002100F020F817EB00094E41201EDD
:10020000A4F10104DFDC484631462A464346BDE8F6
:10021000F09F0000064C074D06E0E06840F0010347
:1002200094E8070098471034AC42F6D3FFF784FFF8
:100230000416000824160008202A04DB203A00FADD
:1002400002F1002070479140C2F1200320FA03F32D
:10025000194390407047202A04DB203A21FA02F02B
:100260000021704721FA02F3D040C2F120029140F0
:1002700008431946704700002DE9FC410003202681
:100280008DF80060C0F307458DF80150C0F30724D6
:100290008DF8024000278DF8037000F065F8DFF854
:1002A00040801021404600F01CFE304600F0EEFF7A
:1002B000284600F0EBFF204600F0E8FF384600F04B
:1002C000E5FF1021404600F00EFE322000F044FC15
:1002D00000F008F80228FBD00020BDE8FC810000F7
:1002E0000008014038B50BA0006800900A4D1021AD
:1002F000284600F0F6FD9DF8000000F0C7FF044618
:100300001021284600F0EFFDE00701D0022038BDA3
:10031000002038BD050000000008014010B500F0C5
:10032000D7F900F005F8BDE81040FFF7DBBF00008B
:1003300038B50BA0006800900A4C1021204600F050
:10034000D0FD9DF8000000F0A1FF9DF8010000F035
:100350009DFF2046BDE83840102100F0C4BD0000DC
:10036000669900000008014038B50BA000680090B5
:100370000A4C1021204600F0B4FD9DF8000000F06A
:1003800085FF1021204600F0AEFDFFF7ABFF0228ED
:10039000FBD0002038BD000006000000000801402E
:1003A000FEE7704770B5044600F0A8FC074D07E073
:1003B000204600F049FC08B1012070BD04F500643E
:1003C000AC42F5D900F02CFC002070BD0000040800
:1003D00010B500F093FC40F2053000F013FC4FF430
:1003E000417000F00FFC40F2023000F00BFCBDE861
:1003F000104000F015BC00002DE9F84305460C46FE
:100400001646B4F5800F02D30120BDE8F883FFF74C
:10041000ABFF02208DF80000200C8DF80100200AAF
:100420008DF802008DF803400F4F1021384600F080
:1004300058FD0024E84618F8040000F047F9641C51
:10044000042CF8DB002403E0285D00F03FF9641C75
:10045000B442F9DB1021384600F045FDFFF742FFBA
:100460000228FBD00020D0E7000801402DE9F04130
:1004700007460E461546F0B2C0F58074A54200D876
:10048000ACB24FF4807806E0274426442D1B444646
:10049000A54200D8ACB2224631463846FFF7ACFF41
:1004A000012000F059FBA542EED1BDE8F081FEE746
:1004B0002DE9F8430D46164603218DF80010010C76
:1004C0008DF80110010A8DF802108DF80300FFF776
:1004D00009FF0028FBD10E4F1021384600F001FD26
:1004E0000024E84618F8040000F0F0F8641C042C1E
:1004F000F8DB002403E000F0E6F82855641CB44261
:10050000F9DB3846BDE8F843102100F0ECBC0000F0
:10051000000801402DE9F04F81B0ADF5805D8846BF
:100520001546070B3F034FEA1039C0F30B06C6F51B
:100530008054A54200D82C464FF4805B0DF1040A8C
:1005400059465046FFF729FE5A4651463846FFF7AE
:10055000AFFF002009E031181AF80110FF2903D07D
:1005600018F80020914202D1401CA042F3D3A042CF
:100570000FD21FFA89F0FFF77FFE0AEB0600224632
:100580004146FFF7F1FD5A4639465046FFF76EFFE8
:1005900004E0B91922464046FFF768FFA5420CD097
:1005A00007F5805709F101090026A044281B85B2F0
:1005B0005C465D45C8D22C46C6E701B00DF5805DAE
:1005C000BDE8F08F2DE9F04140F2026000F00CFE32
:1005D00040F2036000F008FE40F2046000F004FE08
:1005E00040F2056000F000FE4FF4C064204600F0C9
:1005F000FBFD0121264800F0C9FC264D23460322BD
:100600004821284600F071FCAC1523460322102136
:10061000284600F06AFC204E102303224821304671
:1006200000F063FC230103222821304600F05DFC2A
:100630004AF2E30303221021304600F056FC174F24
:100640004FF4927303224821384600F04EFC43F6E3
:100650000B0303221021384600F047FCE100384626
:1006600000F041FC8021304600F03DFCE1013046C5
:1006700000F037FC2146284600F035FC01213046C9
:1006800000F02FFC61013046BDE8F04100F029BCCC
:100690000002300000080140000C01400010014041
:1006A000FEE770470907090E002806DA00F00F0080
:1006B00000F1E02080F8141D704700F1E02080F880
:1006C000001470477047FF2000F0E0BD00F0DEBD71
:1006D00070B540F2026000F087FD40F2046000F067
:1006E00083FD154CB02303221021204600F0FDFBB2
:1006F000402303220421204600F0F7FB0F4D4FF466
:10070000047303221021284600F0EFFB1021284635
:1007100000F0E9FB6115284600F0E5FB10212046BA
:1007200000F0E1FB2021204600F0DDFB2046BDE883
:100730007040802100F0D7BB00080140001001404C
:10074000704700F011BA000008B52348016841F075
:100750000101016001688907FCD5416841F0800111
:1007600041600022009202E00099491C009100992A
:100770005029F9D3416841F090014160009202E0B4
:100780000099491C009100995029F9D3416821F042
:1007900003014160026811490A4002604268104B3F
:1007A0001A40426002680A400260026822F4802215
:1007B000026042680B4B1A40426002680A400260C5
:1007C0004FF41F01816000F0D9FDBDE80840002111
:1007D0004FF0006000F0F2BC00100240FFFFF6FE98
:1007E0000C00FFE8FFFF00F770B5164D164C2946C8
:1007F000204600F0CBFE30B1204600F0A9FE29468D
:10080000204600F0BAFE114D2046294600F0BEFEFB
:1008100030B12946204600F0B0FE204600F098FE98
:100820000B4D2046294600F0B1FE002808D029468D
:10083000204600F0A2FE2046BDE8704000F088BED1
:1008400070BD0000050305000048004004030400DB
:1008500005030300FEE700000FB4054B10B503A924
:10086000044A029800F018F810BC5DF814FB000070
:10087000C90D00080800002002E008C8121F08C1C6
:10088000002AFAD170477047002001E001C1121F11
:10089000002AFBD1704700002DE9FF4F8DB09B4629
:1008A0000F460446002606E025280BD05A460F992D
:1008B0009047641C761C20780028F5D111B0304692
:1008C000BDE8F08F0025A8460122984900E00543C5
:1008D00014F8013F203B02FA03F00842F7D12078D8
:1008E0002E2817D114F8010F45F004052A280ED040
:1008F0006FF02F022078A0F1300109290AD808EB07
:10090000880102EB410100EB0108641CF2E757F893
:10091000048B641C20786C280DD004DC4C2812D089
:100920006A2811D104E074280DD07A280CD10AE08D
:1009300045F4001507E0617845F48015814202D145
:10094000641C05F58015641C2278692A45D008DCF2
:10095000002AB3D0582A69D0632A10D0642A08D15B
:100960003BE0702A67D0732A13D0752A5CD0782AAE
:100970005CD010465A460F999047761CD3E017F882
:10098000040B8DF8000000208DF80100E9460120DD
:1009900003E057F8049B4FF0FF3069074FF0000564
:1009A00001D40AE06D1C45450DDA8542FADB19F8E1
:1009B00005100029F6D106E06D1C8542FCDB19F814
:1009C00005100029F8D12E4404E019F8010B5A460D
:1009D0000F9990476D1EF8D2A5E00A200021CDE9BD
:1009E0000801C5F3025002280DD001CFC117031E24
:1009F00071F100030DDA4FF0000CD0EB0C006CEB42
:100A000001012D2308E0FF1D27F00707F7E8020189
:100A1000EDE72B0504D52B238DF8283001233BE08F
:100A2000EB0739D02023F7E70A2000E0102000214F
:100A3000CDE9080107E01020002145F00405CDE9CB
:100A400008014FF00808C5F3025002280FD001CF6B
:100A500000214FF0000A2B071FD5702A0DD0DDE9C9
:100A600008C38CF0100C5CEA030C0CD015E0FF1DE1
:100A700027F00707F7E80201EBE740228DF828206E
:100A80004FF0010A0BE050EA010306D030238DF845
:100A900028308DF8292002239A46582A04D024A20F
:100AA0000DF120090B9209E026A2F9E7DDE9082300
:100AB000FFF77EFB0B9B9B5C09F8013D50EA0102AE
:100AC000F4D1ADEB090020300890680701D44FF055
:100AD00001080899884502DDA8EB010000E000202C
:100AE0008046002506E00AA85A46405D0F999047C7
:100AF0006D1C761C5545F6DB04E030205A460F99F4
:100B00009047761CB8F10001A8F10108F5DC05E07A
:100B100019F8010B5A460F999047761C0899481E00
:100B200008900029F4DC641CC5E6000009280100D7
:100B30003031323334353637383961626364656653
:100B40000000000030313233343536373839414215
:100B50004344454600000000024908600868002838
:100B6000FCD170470400002003480168002902D02E
:100B70000168491E016070470400002000B503466B
:100B800000F00AF85B1E012801D1002BF8D10128E2
:100B900000D1042000BD000000200849CA68D20727
:100BA00001D001207047CA68D20601D503207047E2
:100BB000C9684907FBD502207047000000200240A9
:100BC00000B5034600F00AF85B1E012801D1002B96
:100BD000F8D1012800D1042000BD00000020084900
:100BE000CA6CD20701D001207047CA6CD20601D569
:100BF00003207047C96C4907FBD5022070470000ED
:100C000000200240054901EB90110A6800F01F0323
:100C10000120984002430A60704700000020024013
:100C20000748016941F08001016106490988B1F571
:100C3000007F03D9016D41F080010165704700001C
:100C400000200240E0F7FF1F70B504462848294DF8
:100C50004FF470260088B0F5007F32D926488442D0
:100C600015D23046FFF78AFF00280FD1286940F0DF
:100C7000020028616C61286940F04000286130461C
:100C8000FFF77CFF296921F00201296170BD304620
:100C9000FFF796FF0028F9D1286D40F00200286583
:100CA0006C65E869800700D56C61286D40F04000F4
:100CB00028653046FFF784FF296D21F00201296580
:100CC00070BD3046FFF75AFF0028F9D1286940F07F
:100CD000020028616C61286940F0400028613046BC
:100CE000FFF74CFF296921F00201296170BD000066
:100CF000E0F7FF1F00200240FFFF070809480169D5
:100D0000094A0B06094901D542604160084B1B881E
:100D1000B3F5007F04D9036D1B0601D5426441641D
:100D2000704700000020024023016745AB89EFCDEA
:100D3000E0F7FF1FF0B504460D462048204E4FF463
:100D400070270088B0F5007F26D91E48844211D252
:100D50003846FFF713FF00280BD1306940F001003F
:100D6000306125603846FFF709FF316921F0010144
:100D70003161F0BD3846FFF723FF0028F9D1306D0F
:100D800040F00100306525603846FFF719FF316DEE
:100D900021F001013165F0BD3846FFF7EFFE002874
:100DA000F9D1306940F00100306125603846FFF725
:100DB000E5FE316921F001013161F0BDE0F7FF1F6F
:100DC00000200240FFFF070870B50446064DE1B25F
:100DD000284600F0C1FB0721284600F0C1FB00288F
:100DE000F9D0204670BD00000048004002494AF694
:100DF000AA20086070470000003000400149002030
:100E00000860704700300040024945F255500860C4
:100E1000704700000030004010B5002302E0C45CC1
:100E2000CC545B1C9342FAD3012010BD2DE9F0474E
:100E300005460E4617460024FFF760FF40F20538CE
:100E40004FF4417940F2023A21E031592819FFF775
:100E500071FF38B1FFF7E4FE10A0FFF7FDFC0020A2
:100E6000BDE8F0874046FFF7CDFE4846FFF7CAFED3
:100E70005046FFF7C7FE30592959884206D0FFF780
:100E8000CFFE0AA0FFF7E8FC0020E9E7241DBC42E2
:100E9000DBD3FFF7C5FE0120E2E70000777269743B
:100EA00065206572726F72320D0A00007772697484
:100EB00065206572726F7220310D0A0010B500282E
:100EC00006D001280CD1BDE810407F2000F080BB87
:100ED000FFF79AFFFFF78AFFBDE81040FFF78EBFCC
:100EE00010BD41617047016170472DE9F04301F089
:100EF0000F04CD0600D5144300224FF00F0C01273C
:100F000007FA02F51D4014D0D0F8008096000CFAC4
:100F100006F928EA090804FA06F949EA080928291D
:100F200002D0482902D002E0456100E00561C0F826
:100F30000090521C92B2082AE2D3082207FA02F566
:100F40001D4016D0D0F80480A2F10806B6000CFAB5
:100F500006F928EA090804FA06F949EA08092829DD
:100F600002D0482902D002E0456100E00561C0F8E6
:100F70000490521C92B2102AE0D3BDE8F08380683E
:100F8000084201D00120704700207047F0B5154C91
:100F9000002801DAE36900E06368C0F30346420D0C
:100FA000120185B2C0F301579540032F07D0C2024A
:100FB0000CD50322B240934343F0706209E023F062
:100FC0007062636823F07063636002E0AB4343F0D8
:100FD000706201B12A43002801DAE261F0BD62606B
:100FE000F0BD00000000014008B572B6012181F398
:100FF0001088104A01681140B1F1005F09D00EA0BD
:10100000FFF72AFCBDE8084086220E490EA0FFF734
:1010100023BC416800910099006880F308888847E4
:101020000CA0FFF719FCBDE808408222054906A084
:10103000FFF712BC0000FE2F4E6F204A756D702026
:101040000D0A0000F61500085B25735D5B25645DE5
:101050000D0A00004A756D70206572726F722E0D58
:101060000A000000002000F0B5F800F089F9FFF751
:10107000A9FAFFF7ADF9002441F28835FFF74EF9E0
:1010800018B1641CA4B2AC42F8D31420FFF764FD7D
:1010900000F0B8F81EA0FFF7DFFB2022224923A0B2
:1010A000FFF7DAFB244C25A02168FFF7D5FB2122AE
:1010B0001D491EA0FFF7D0FB616829A0FFF7CCFBFC
:1010C0002222194919A0FFF7C7FB217A2DA0FFF7AB
:1010D000C3FB2322144915A0FFF7BEFB207A012889
:1010E00013D000F0A3F800F0A1F84FF47A7400F0E8
:1010F000C1F82DA0FFF7B0FB33220B490BA0FFF77F
:10110000ABFB2046FFF728FDF1E700F05FF9EAE7C7
:101110005468697320697320626F6F746C6F6164C7
:1011200065720D0A00000000E01500085B25735D84
:101130005B25645D0D0A00000C000020675F757080
:101140006772616465706172616D5F646174612E64
:101150007569416464723D307825780D0A0000009D
:10116000675F75706772616465706172616D5F64FD
:101170006174612E75694C656E3D307825780D0A75
:1011800000000000675F757067726164657061726E
:10119000616D5F646174612E75635570646174651F
:1011A0003D307825780D0A00426F6F746C6F616472
:1011B0006572206572726F722E0D0A00034A11402B
:1011C000014303480160BFF34F8F704780FFFF1F4B
:1011D00008ED00E0034A516821F0F001014351603D
:1011E0007047000000100240054901EB90110A68A9
:1011F00000F01F030120984002430A60704700007E
:101200000010024010B54FF4807206490020FFF72D
:101210004FF9BDE810404FF4007203490020FFF77A
:1012200047B900000C0000200C01002010B506A0FA
:10123000FFF712FB8D220A490AA0FFF70DFBBDE85C
:1012400010400B48FFF7D0BE0D0A4A756D70206143
:101250007070212121212121212121210D0A00004D
:10126000E51500085B25735D5B25645D0D0A0000D4
:101270000040000810B54FF480710348FEF78DFF61
:10128000BDE8104000F09CB90C0000202DE9F041B1
:10129000064600240025154F20213846FFF721FE81
:1012A000300604D580213846FFF71DFE03E080217B
:1012B0003846FFF716FE7006060E20213846FFF767
:1012C00012FE6006040E40213846FFF758FE08B1B2
:1012D000641CE4B26D1CEDB2082DDDD3202138462C
:1012E000FFF7FFFD2046BDE8F08100000008014047
:1012F00000211F48026842F4803202604FF6FF73FB
:10130000491C026802F400320AB99942F8D1016816
:10131000890300D4FEE7416841604168416041684B
:1013200041F480614160416821F44031416041688D
:1013300041F44031416041680E4A114041604168CA
:101340000D4A11434160016841F0807101600168FC
:101350008901FCD5416821F003014160416841F0F9
:10136000020141604168C1F381010229FAD170474D
:1013700000100240FFFFC3F700002808FFF7B8BFC6
:1013800070B511484FF47A710068B0FBF1F1491E55
:101390004FF0FF35B1F1807F01D301210BE04FF019
:1013A000E02461610F212846FFF77CF90020A0614D
:1013B00007202061002101B1FEE72846BDE870400A
:1013C0000021FFF76FB90000000000202DE9FC416B
:1013D0003F4E0F21706801EB102529463DA0FFF715
:1013E0003BFA3A22464947A0FFF736FA3068042212
:1013F00006F54071FFF75CF806F540700178FF29AB
:1014000061D04178FF295ED08178FF295BD0C07818
:10141000FF2858D03E4F3846FEF7C4FF042201A9EA
:101420003846FFF7F9FC9DF80400FF280BD19DF822
:101430000500FF2807D19DF80600FF2803D19DF87D
:101440000700FF281CD033A0FFF706FA48222C49DA
:101450002CA0FFF701FA9DF8070000909DF80630D8
:101460009DF805209DF804102FA0FFF7F5F94922FB
:10147000234924A0FFF7F0F900244FF4807820E0FE
:101480002DA0FFF7E9F946221D491EA0FFF7E4F958
:10149000F2E741462D48FEF780FE3068424600EBF9
:1014A00004202A49FFF704F80120FFF755FB07EB5A
:1014B000042042462549FFF7B9FC0020FFF7FEFC57
:1014C000641CAC42E5D3FFF7B1FEBDE8FC8100002F
:1014D0000C000020675F75706772616465706172EF
:1014E000616D5F646174612E746F74616C5F7061B3
:1014F000636B6574636F756E743A25640D0A000042
:10150000E91500085B25735D5B25645D0D0A00002D
:10151000004000084572617365204572726F722049
:10152000212121200D0A0000253078202530782047
:1015300025307820253078004572617365202020A1
:10154000204F4B20212121200D0A00000C030020F8
:101550004068C0F308007047C1F30801416070475C
:1015600000EB9110006801F01F0201219140084238
:1015700001D00120704700207047C1F304430122CD
:101580009A4000EB9150D2430260704730B5C1F3EE
:101590008912825801F01F04012505FA04F31A404C
:1015A00000EB91500068C1F3044105FA01F31840C3
:1015B000002802D00AB1012030BD002030BD00005B
:1015C0004FF4807201490020FEF7A4BF0C000020F8
:1015D000024900F07F00086070470000002C0040C6
:1015E0006D61696E0072756E007570646174655F1F
:1015F0006C6F676963006A756D705F746F5F6170AF
:101600007000000024160008000000200C000000FC
:1016100078080008301600080C000020042800009C
:101620008808000800F36F060000000000000000BA
:0400000508000131BD
:00000001FF
