:020000040800F2
:104000009096002045410008F56200087B5A0008A0
:10401000F162000835550008E9680008000000005A
:10402000000000000000000000000000E165000842
:10403000655800080000000021630008E3650008DF
:104040005F4100085F4100085F4100086D6400089F
:104050005F4100085F410008915800085F41000877
:10406000D95800085F4100085F41000889570008DF
:104070005F4100085F4100085F4100085F410008A0
:104080005F4100085F4100085F4100085F41000890
:104090005F410008655600085F4100081D5900088F
:1040A0005F4100085F4100085F4100085F41000870
:1040B000116700085F4100085F4100085F41000888
:1040C0005F4100085F4100085F4100085F41000850
:1040D0005F4100085F4100085F4100085D6800081B
:1040E0005F4100085F4100085F4100085F41000830
:1040F0005F4100085F4100085F4100085F41000820
:104100005F4100085F4100085F4100085F4100080F
:104110005F4100085F4100085F4100085F410008FF
:104120005F4100085F4100085F4100085F410008EF
:10413000DFF80CD000F006FE0048004709740108C3
:10414000909600200648804706480047FEE7FEE7B5
:10415000FEE7FEE7FEE7FEE7FEE7FEE7FEE7FEE737
:10416000ED6500083141000838B5D0E90221491E4B
:1041700001EB410102EBC1014268C1EB011102EB0D
:1041800081010268C1EB011102EB8102D0E9043127
:1041900001EB410103EB81013023A1F5527191FB49
:1041A000F3F4174D6C4302EBC41291FBF3F403FBE1
:1041B000141100921A2902DB124B1A4400920C22AD
:1041C00091FBF2F3104C6343009C04EBC313009388
:1041D00091FBF2F302FB13110C4A08E0491E40F276
:1041E000A324535C6343009C04EBC3130093002996
:1041F000F4DC0146684600F01FFC009838BD000062
:104200003F0C0F008051010067C20300D8AD0108C8
:1042100040EA01039B0703D009E008C9121F08C048
:10422000042AFAD203E011F8013B00F8013B521EC8
:10423000F9D27047D2B201E000F8012B491EFBD23F
:1042400070470022F6E710B513460A4604461946A1
:10425000FFF7F0FF204610BD30B505462A460B4655
:1042600012F8010B13F8014B08B1A042F8D01CB1B1
:10427000002802D06D1CF1E7284630BDCAB2401EAE
:1042800010F8011F8A4202D00029F9D1002070479E
:10429000421C10F8011B0029FBD1801A704730B571
:1042A00004460020034600E05B1C934203D2E05C1E
:1042B000CD5C401BF8D030BD70B5064602F074FBF3
:1042C000046805460A220021304600F0FBFB2C6002
:1042D00070BDF0B480EA0102D40F4200B2EB410F8E
:1042E00002D20246084611464A0042D0C30DDDB252
:1042F000C1F3C752AD1A202D35DAC1F3160141F4CE
:10430000000204B15242C5F1200602FA06F12A4128
:104310001044B3EBD05F23D0C4B1012DA0EBC35048
:1043200009DCF0BC4FF0004202EAC352DBB200F5F8
:10433000000000F008BC400000F1807000EBC350AA
:10434000A0F1807040EAD170490009E0490841EAD3
:10435000C071A0EBC35000F50000400800EBC35053
:10436000F0BC00F0E7BB6142012202EB4101001BFF
:10437000F6E7F0BC704781F00041AAE780F000400A
:10438000A7E780EA010210B502F00043400022D006
:104390004A001FD0010E01EB1261C0F35600C2F3B8
:1043A000560240F4000042F40002A0FB0220000488
:1043B0007F39140400D0401C50EA124001D4400060
:1043C000491EC2B20C0604EBD010401C4008802AE3
:1043D00002D003E0002010BD20F00100002900DA27
:1043E0000020184310BD30B480EA010202F00045FD
:1043F00030F0004221F0004013D090B1C30DD40D35
:10440000C2F31601C0F31600E41A41F4000140F4AF
:1044100000027D34914201D3641C00E04900002C6D
:1044200002DA30BC002070474FF4000000239142B4
:1044300001D3891A034340084FEA4101F7D151B132
:10444000914202D14FF0004105E002D24FF001014C
:1044500001E06FF0010103EBC450284430BC00F0D0
:1044600069BB2DE9FE4F804681EA0300C00F0C4670
:10447000009021F0004123F00045B8EB0200A94173
:1044800005D24046214690461C460B46024623F084
:104490000040104347D0270DC7F30A00C3F30A5169
:1044A0000290401A019040286BDAC3F3130040F4E5
:1044B000801B0098924620B10023D2EB030A63EBE5
:1044C0000B0B01985946C0F14002504600F07DFAAE
:1044D00006460D4650465946019A00F095FA10EBF3
:1044E00008006141002487EA115284EAE7731A4305
:1044F00040D0009A62B3019A012A4FEA075215DCB4
:10450000001B61EB02014FF0004202EA0752CDE9C5
:104510000042001C41F5801132462B4600F050FB52
:1045200003B0BDE8F08F40462146F9E7001B61EB80
:104530000201001C41F5801300185B412018A2F510
:10454000001747EB030140EAD570B6196D4111E041
:104550006D084FEA360645EAC0754FEA0752001B60
:1045600061EB0201001C41F5801149084FEA30005F
:104570000019514132462B4603B0BDE8F04F00F020
:1045800010BB0098012240000023D0EB020263EB35
:10459000E073009821464FEAE074B8EB000061EB4D
:1045A0000401E9E783F000435BE781F0004158E74D
:1045B0002DE9FE4F81EA030404F0004421F000419C
:1045C00000944FF0000B23F0004350EA01045ED04A
:1045D00052EA03045BD0C3F30A54C1F30A552C44D6
:1045E000A4F2F3340194A0FB0254C1F3130141F48B
:1045F0008011C3F3130343F4801301FB024400FB57
:10460000034E840A970A44EA815447EA8357A4FB7D
:10461000076802958D0A05FB07854FEA932C04FB7A
:104620000C542705029D4FEA065847EA1637B5EBAA
:1046300008056EEB070C870E920E47EA811742EAD7
:104640008312A7FB0201B6EB0B0164EB00042B0DF8
:1046500043EA0C335E1844EB1C50DA465146E7FB44
:104660000201C5F313044FEA0B3343EA14534FEA34
:104670000432019C43EA0603A4F10C040294009C5A
:10468000CDE900B400F09CFA03B0BDE8F08F002043
:104690000146F9E72DE9F04D81EA030404F0004BEF
:1046A00021F0004514464FF0000A23F0004150EA83
:1046B000050220D054EA01021DD0C5F30A57024674
:1046C000C5F31303C1F31300C1F30A5640F4801578
:1046D00043F48013A7EB0608101BD64608F2FD38FA
:1046E00073EB050002D308F1010801E092185B4169
:1046F000B8F1000F03DA00200146BDE8F08D00207C
:104700004FF48011064684460EE0171B73EB050735
:1047100005D3121B63EB050306434CEA010C490861
:104720004FEA300092185B4150EA0107EDD152EA9E
:10473000030012D082EA040083EA0501084305D091
:10474000101BAB4106D20122002306E000224FF0ED
:10475000004302E06FF0010253101AEB06004CEB2D
:10476000085110EB0A0041EB0B01BDE8F04D00F0E1
:1047700018BAC10F80EAE0700844CA0796230021E6
:1047800000F0E1B996230022114600F0DCB90EB525
:10479000C10F80EAE0700844CA07002140F23343A9
:1047A0008DE80E000A460B4600F00AFA03B000BD81
:1047B0000EB540F2334102910021CDE900110A46C5
:1047C0000B4600F0FDF903B000BD00F0004220F000
:1047D0000040C10DC0F3160040F400007F2901DA4B
:1047E00000207047962903DCC1F19601C84001E022
:1047F00096398840002AF4D04042704720F00040AB
:10480000C10DC0F3160040F400007F2901DA00203A
:104810007047962903DCC1F19601C840704796396C
:1048200088407047C1F30A5210B5C1F3130140F23A
:10483000FF3341F480119A4201DA002010BD40F2AA
:1048400033439A42A2F2334203DC524200F0CCF8E6
:1048500010BD904010BD00F0004230F000400AD082
:10486000C10D01F56071C0F3160042EA0151C208A2
:1048700040071143704700200146704730B5041EC1
:1048800071F1000404DB4FF00044404264EB01018D
:10489000141E73F1000405DB1C464FF00043524226
:1048A00063EB04038B4208BF824230BD30B5041E67
:1048B00071F1000404DB4FF00044404264EB01015D
:1048C000141E73F1000405DB1C464FF000435242F6
:1048D00063EB0403994208BF904230BD01F00043EE
:1048E00030B421F0004150EA010206D00A0DA2F5D1
:1048F0006072C1F31301002A02DC30BC0020704753
:10490000440F44EAC104C100E01830BC00EBC250BF
:1049100000F010B9002801DBC0F10040002901DBE4
:10492000C1F1004181427047002801DBC0F1004025
:10493000002901DBC1F100418842704730B50B46C8
:10494000014600202022012409E021FA02F59D42BF
:1049500005D303FA02F5491B04FA02F52844151E93
:10496000A2F10102F1DC30BD2DE9F05F0546002027
:1049700092469B4688460646814640241BE02846D0
:1049800041464746224600F02FF853465A46C01A81
:10499000914110D311461846224600F016F82D1A00
:1049A00067EB01084F4622460120002100F00DF878
:1049B00017EB00094E41201EA4F10104DFDC48463C
:1049C00031462A464346BDE8F09F202A04DB203AC0
:1049D00000FA02F1002070479140C2F1200320FA52
:1049E00003F3194390407047202A04DB203A21FA50
:1049F00002F00021704721FA02F3D040C2F12002F8
:104A00009140084319467047202A06DBCB17203A0D
:104A100041FA02F043EAE07306E041FA02F3D040C3
:104A2000C2F120029140084319467047014900F045
:104A300003B80000606D002010B500683C22B0FB98
:104A4000F2F302FB1303B0FBF2F00B60B0FBF2F3E6
:104A500002FB1303B0FBF2F018224B60B0FBF2F341
:104A600002FB1303B0FBF2F0021D8B600723B2FBC5
:104A7000F3F403FB1422800040F2B55300F66C30CF
:104A80008A61B0FBF3F2B0FBF3F403FB1400443291
:104A900080084A61C8613B2802D3920700D0401CBD
:104AA0000022074C13460A61E25C824203D8801A56
:104AB0005B1C0B61F8E7401CC860084610BD000095
:104AC000F0AD01082DE9F04791460F4680460446B7
:104AD000002614F8015B2DB100F046F90068405D36
:104AE000C007F6D12B2D02D02D2D18D0641E4A46BA
:104AF0003946204600F03CF927B13968A14201D17E
:104B0000C7F8008071054FF002040BD54042002821
:104B100003DD01F049FF0460A007BDE8F08746F41B
:104B20008066E4E70028F8DA01F03EFF04606FF0E9
:104B30000040F2E70029A8BF7047401C490008BFA9
:104B400020F00100704710B4B0FA80FC00FA0CF0BD
:104B500050EA010404BF10BC704749B1CCF12004F5
:104B600021FA04F411FA0CF118BF01212143084382
:104B7000A3EB0C01CB1D4FEA00614FEA102042BFAE
:104B8000002010BC704700EBC35010440029A4BFA4
:104B900010BC7047401C490008BF20F0010010BC49
:104BA000704710B5141E73F1000408DA401C41F17F
:104BB000000192185B411A4301D120F0010010BDA1
:104BC0002DE9F04D92469B4611B1B1FA81F202E017
:104BD000B0FA80F220329046FFF7F7FE04460F4607
:104BE00040EA0A0041EA0B0153465A46084313D0F3
:104BF000114653EA010019D0C8F140025046FFF7B0
:104C0000F3FE05460E46504659464246FFF7DDFE86
:104C1000084305D0012004E020463946BDE8F08D68
:104C20000020054346EAE0762C4337430A986305A3
:104C3000E40AA0EB08000022FD0A44EA47540A30C7
:104C400002D500200146E9E7010510196941DDE9B7
:104C5000084500196941BDE8F04DA2E770B521F0A3
:104C6000004303430CD0C1F30A550024D5EB0405DF
:104C700064EB0403D617AD1AB34102DB00200146F2
:104C800070BD201841EB025170BD00002DE9F041CC
:104C9000054621F000400C46284309D0C4F30A50D1
:104CA00040F23341884205DD28462146BDE8F081C7
:104CB0002846FBE740F2FE31884210DC0CDB4FEA6D
:104CC000043040EA155050EA053105D0104804F090
:104CD000004101430020E9E700200146E6E7A0F299
:104CE00033404642C6F1400228462146FFF76DFE9A
:104CF00007468846284621463246FFF775FE43465A
:104D00003A46FFF74EFF3246BDE8F041FFF75DBE81
:104D10000000F03FC1F30A52C1F3130140F2FF3328
:104D200041F480119A4202DA00200146704740F2B5
:104D300033439A42A2F2334202DC5242FFF754BE9E
:104D4000FFF743BE064C074D06E0E06840F0010364
:104D500094E8070098471034AC42F6D3FFF7ECF91B
:104D600014AF010834AF01080048704780AE010855
:104D70002DE9F05F82460078002715468B460AF140
:104D80000104B946302801D09DB113E014F8010B9D
:104D90000127782803D0582801D045B10AE00DB189
:104DA000102D07D10027102514F8010B02E008256B
:104DB00000E00A250026B0460EE005FB080005FBD2
:104DC00006F1012701EB10461FFA80F8B6F5803F87
:104DD00000D3B94614F8010B294600F018F8002852
:104DE000EBDABBF1000F05D00FB1641E00E05446B2
:104DF000CBF80040B9F1000F06D001F0D5FD02213B
:104E00000160C81EBDE8F09F48EA0640FAE73A286C
:104E100000D2303820F02002412A01D3A2F137001D
:104E2000884201D34FF0FF30704770B58C1810F8EE
:104E3000015B15F0070301D110F8013B2A1106D1DF
:104E400010F8012B03E010F8016B01F8016B5B1EF9
:104E5000F9D12B0705D40023521E0DD401F8013BD4
:104E6000FAE710F8013BCB1A921C03E013F8015B40
:104E700001F8015B521EF9D5A142D8D3002070BDC4
:104E80002DE9F04F97B00446DFF80C914348159098
:104E90004348149043481390C4F30B042046FFF793
:104EA00071FC83464FF08B41FFF79DFA8246FFF776
:104EB000D2FC07464FF066323B4BFFF779FB0546C5
:104EC000FFF70CFD10904846FFF7C5FCCDE90A013D
:104ED0001098FFF7C0FC07464FF06632324BFFF7E1
:104EE00064FB0546DDE90A23FFF7D4FBCDE90E019B
:104EF0001098FFF7B0FCCDE90C01DDE90E23FFF7B8
:104F0000C9FB8246FFF7EAFC12901398FFF7A3FC57
:104F1000CDE90A011498FFF79EFC074688464946EA
:104F20001298FFF760FA0190FFF795FC054612F022
:104F3000BDF882463A464346FFF7ACFBCDE9040193
:104F40004FF07E501599FFF74EFA0546FFF783FCA8
:104F5000CDE90201DDE90423FFF783FA02460B469F
:104F6000CDE9060100201149FFF794FBCDE90801C6
:104F7000DDE90A23FFF716FB00220D4BCDE90C01FA
:104F8000FFF710FBCDE90E01FFF7A8FC1190119877
:104F900017B0BDE8F08F000000401C463313954366
:104FA00000B056453393884366660A400000F03FE0
:104FB0000000E03F10B501F0B1F801F0C9F801F0D0
:104FC00063F810BD10B5002400BF0BE04FF4007172
:104FD0005B480BF0BFFA00B106E00A2000F043FC8A
:104FE000601CC4B2642CF1DB00BF642C19DB554893
:104FF000006842F21071884205D25248006800F5FC
:105000007A705049086008214F480BF04BFA00BFF6
:105010004EA001F0A5FCAB22544955A001F0A0FC24
:1050200000BF4848006842F22831884224D84FF433
:10503000007143480BF08EFA48B950480078642854
:1050400008DA4E480078401C4C49087002E0002005
:105050004A49087049480078642812DB08213A4818
:105060000BF01EFA00BF46A001F07AFCB8223F49BF
:105070003FA001F075FC04E032480068401E314951
:10508000086000240BE04FF480712F480BF062FAA7
:1050900000B106E00A2000F0E6FB601CC4B2642CFC
:1050A000F1DB00BF642C19DB3C48006842F2107150
:1050B000884205D23948006800F57A70374908609F
:1050C000082137480BF0EEF900BF36A001F048FC8C
:1050D000C922264926A001F043FC00BF2F480068E2
:1050E00042F22831884224D84FF4807116480BF0E0
:1050F00031FA48B933480078642808DA3148007832
:10510000401C3049087002E000202E4908702D48EC
:105110000078642812DB082121480BF0C1F900BF98
:1051200029A001F01DFCD622104911A001F018FCA5
:1051300004E01A480068401E1849086010BD0000CD
:10514000000801400C0000200010014035565F317E
:10515000412063697263756974206973206F766595
:1051600072776F726B696E670D0A000072AC01088E
:105170005B25735D5B25645D0D0A00001400002053
:1051800035565F31412063697263756974206973B4
:10519000206F70656E65640D0A000000100000202D
:1051A000000C014035565F344120636972637569B4
:1051B00074206973206F766572776F726B696E67A2
:1051C0000D0A00001500002035565F344120636948
:1051D0007263756974206973206F70656E65640D04
:1051E0000A00000010B5064800680649086008215A
:1051F00005480BF055F9082104480BF051F910BD92
:10520000780A00201C00002000100140000C014022
:1052100010B5002014F0E4FE15F03EFB00F0D4FFC2
:1052200000231A4619464FF4E13001F0ADFAFA2096
:1052300000F0A0F9FFF7BEFE01F076FA01F021F9C7
:1052400000F072FD00F074F8FFF7CCFF4FF08040E3
:1052500015F0C3FB10BD000010B54FF0804015F0F5
:10526000B7FB044802F0C2F80021034808F05AF8DE
:1052700010BD000000240140000002407CB505463E
:105280002C0320208DF80000200C8DF80100200A4E
:105290008DF80200E0B28DF8030000BF00F02AF89C
:1052A0000028FBD100F068F84FF4007110480BF0B3
:1052B000F7F89DF8000015F049FA9DF8010015F087
:1052C00045FA9DF8020015F041FA9DF8030015F02B
:1052D0003DFA4FF4007106480BF0E4F83C2007F06B
:1052E000D9FF00BF00F006F80028FBD17CBD00000C
:1052F0000010014038B50CA0006800904FF4007118
:105300000A480BF0CDF89DF8000015F01FFA04468E
:105310004FF4007105480BF0C5F804F0010008B126
:10532000022038BD0020FCE705000000001001400D
:1053300010B501F01FF900F003F8FFF7DBFF10BD17
:1053400008B50BA0006800904FF4007109480BF0FD
:10535000A7F89DF8000015F0F9F99DF8010015F087
:10536000F5F94FF4007103480BF09CF808BD0000FC
:10537000669900000010014008B50EA0006800907A
:1053800000BFFFF7B7FF0028FBD14FF400710A48B8
:105390000BF086F89DF8000015F0D8F94FF4007175
:1053A00005480BF07FF800BFFFF7A4FF0028FBD1F2
:1053B00008BD0000060000000010014070B5002488
:1053C0000025042151480BF0C5F800287ED120218A
:1053D0004E480BF0BFF8A8B9002611E020214B4839
:1053E0000BF0B8F858B9681CC5B2632D07DD00256D
:1053F00002204749087001204649A1F80001761CA7
:10540000642EEBDB4FF4805140480BF0A3F80128E9
:1054100017D1002613E04FF480513C480BF09AF866
:1054200001280BD1601CC4B2632C07DD00240720C7
:105430003749087001203749A1F80001761C642E15
:10544000E9DB4FF4004134480BF084F8012817D110
:10545000002613E04FF400412F480BF07BF80128A1
:105460000BD1601CC4B2632C07DD0024072028493F
:10547000087001202749A1F80001761C642EE9DBA1
:10548000012125480BF066F8012816D1002612E00C
:10549000012121480BF05EF801280BD1601CC4B239
:1054A000092C07DD0024062019490870012019493C
:1054B000A1F80001761C0A2EEADB1648B0F80001BC
:1054C000012821D1322007F0E5FE00E00CE040F297
:1054D000FB521049002000F0A3FC01200D49A1F867
:1054E000000107F053FC0FE000BF0CA001F038FAF8
:1054F00074220C490CA001F033FA00BF01F0FCF853
:105500004FF47A7007F0C6FE70BD00000010014035
:10551000080000207D0B002000080140B9D8BBFA2C
:105520000D0A000052AC01085B25735D5B25645DCC
:105530000D0A000000BFFEE710B540F2197014F02C
:1055400093FE40F2026014F08FFE4FF4C06014F03E
:105550008BFE4FF400630322482105480AF0A4FFA4
:105560004FF480530322182101480AF09DFF10BD1B
:105570000008014010B50446FFF7DEFF00F06AF8AE
:10558000204600F007F81021014807F084F910BD0B
:105590000064004010B588B0044605A9002007F05B
:1055A00099FA6946012007F095FA294807F04AF868
:1055B00000208DF8180001208DF8190000208DF8CA
:1055C0001A008DF81B008DF81C008DF81D008DF859
:1055D00014008DF8150003208DF816008DF81700C3
:1055E0007D2C03D13020ADF81E0012E0FA2C03D13F
:1055F0001820ADF81E000CE0B4F5FA7F03D10C20A2
:10560000ADF81E0005E0B4F57A7F02D10620ADF8B2
:105610001E0005A90E4807F0ADF80020ADF80A00FD
:10562000ADF80C000120ADF80E000020ADF8000030
:10563000ADF80200ADF80400ADF806000120ADF8A9
:1056400008008DF81000684607F00CF808B010BD8F
:105650000064004010B500221146152011F0A4FF8F
:1056600010BD000010B598B04C2105A8FEF7E9FD6B
:1056700005AA0121174807F012F9069810B90598F4
:10568000019001E0069801909DF81E008DF8080039
:105690009DF808200DF11F010DF10900FEF7B8FD7E
:1056A0000D48B0F800040C4901EB001001A91EC917
:1056B0001EC00948B0F80004401C0749A1F80004C6
:1056C0000846B0F80004402802DB0020A1F80004DE
:1056D00018B010BD00640040A40500202DE9F04181
:1056E000054688461646002400201D494872B5F537
:1056F000006F03D208720846056004E004201849D0
:1057000008720846456016488672002406E018F8BC
:10571000041013480B300155601C84B2B442F6DB10
:105720000F49104807F02EF90746002401E0601CDD
:1057300084B239460B4807F01DFA18B940F6FF70DD
:105740008442F4DB40F6FF70844205D100BF00BF05
:1057500000BF0020BDE8F08100BF0120FAE7000093
:10576000A80900200064004010B50246002006E0B1
:1057700013784340034CE05C521C4B1ED9B2002905
:10578000F6DC10BD3800002010B5A2B002220021C6
:10579000214807F0B7FE00283BD0842101A8FEF77E
:1057A00050FD00201BE000EB40011C4A52F8211084
:1057B00001AA42F8201000EB4001184A02EB8101D7
:1057C0004A680CA941F8202000EB4001134A02EB83
:1057D00081018A6817A941F82020411CC8B20B2812
:1057E000E1DB00240DE004EB440101EBC40101AA5C
:1057F00002EB81000AF01EFE094941F82400601CFA
:10580000C4B2032CEFDB02220021034807F072FE32
:1058100000BF22B010BD000000000240F4090020CB
:10582000780A002000B58BB00D488088A0F26C701B
:1058300005900B488079401E04900948C079039078
:105840000748007802900648407801900448807824
:1058500000906846FEF788FCA0F5E1400BB000BD63
:105860002C000020704705E01A2100E0491E0029A5
:10587000FCD1401E0028F7D1704705E01E2100E052
:10588000491E0029FCD1401E0028F7D170470000B6
:1058900070B50025002413E001210C480AF05AFEDF
:1058A00001280BD1681C85B2022D07DD00250620DA
:1058B0000749087001200749A1F80001601C84B263
:1058C000642CE9DB01200AF0AFFD70BD0008014047
:1058D000080000207D0B002070B50025002411E099
:1058E00004210B480AF036FE50B9681C85B2022D1F
:1058F00006DD00250120074908700749A1F80001CD
:10590000601C84B2642CEBDB04200AF08DFD70BDBA
:1059100000100140080000207D0B002070B500251C
:10592000002424E0202116480AF014FEE8B9681C7F
:1059300085B2B5F57A7F18DB002512480078401C47
:105940001049087000BF084601780FA001F008F860
:105950007022134913A001F003F800BF0948007832
:10596000032802DD002007490870601C84B2B4F5EA
:105970007A7FD7DB4FF480600AF056FD70BD0000DF
:1059800000100140180000205357323A675F7563DA
:105990005357325469636B3D25640D0A00000000C3
:1059A00089AC01085B25735D5B25645D0D0A000011
:1059B000F8B506460C461746B4F5800F01D3012012
:1059C000F8BD00BFFFF796FC0028FBD1FFF7D4FC21
:1059D00002208DF80000200C8DF80100200A8DF8BF
:1059E0000200E0B28DF803004FF400710F480AF096
:1059F00057FD002504E01DF8050000F0B4FD6D1C06
:105A0000042DF8DB002503E0705D00F0ACFD6D1C9B
:105A1000BD42F9DB4FF4007104480AF043FD00BFBA
:105A2000FFF768FC0028FBD100BFC9E70010014068
:105A30002DE9F04107460E461446F0B2C0F58075D8
:105A4000AC4200D8A5B214E02A4631463846FFF7EA
:105A5000AFFF022007F01EFCAC4200D10AE02F4449
:105A60002E44641BB4F5807F02D94FF4807500E0AA
:105A7000A5B2E9E700BFBDE8F08100BFFEE7000086
:105A80002DE9F0438FB005460E4617461C4677B900
:105A900000BF00BF5CA000F063FF51225E495FA021
:105AA00000F05EFF00BF00200FB0BDE8F083332C94
:105AB0000CDD00BF00BF54A000F052FF5422564935
:105AC00056A000F04DFF00BF0020EDE7002C7DDD6B
:105AD0000BF04AF96906080E0BF0E8F870B90BF004
:105AE00065F900BF00BF48A000F03AFF5A224A49BA
:105AF0004AA000F035FF00BF0020D5E730460BF08C
:105B0000D5F870B90BF052F900BF00BF3EA000F00D
:105B100027FF5E22404941A000F022FF00BF002085
:105B2000C2E720460BF0C2F870B90BF03FF900BF96
:105B300000BF35A000F014FF6222374937A000F003
:105B40000FFF00BF0020AFE70BF00EF9012101EBC2
:105B50004501C8B20BF0AAF870B90BF027F900BFE5
:105B600000BF29A000F0FCFE67222B492BA000F00B
:105B7000F7FE00BF002097E76806000E8DF80400CE
:105B80008DF805608DF80640012000EB4500C0B29D
:105B90008DF807004FF000080BE00BF057F808F104
:105BA000040101AA50540BF037F808F1010000F08D
:105BB000FF08A045F1DB0BF049F881460BF0F6F841
:105BC000201DC1B201A8FFF7CFFD00E019E0484554
:105BD0000CD000BF00BF0CA000F0C2FE75220E4921
:105BE0000EA000F0BDFE00BF00205DE7002005E034
:105BF000011D01AA515C3954411CC8B2A042F7DB17
:105C000000BF00BF01204FE752657475726E2066B9
:105C100061696C6564000000B8AC01085B25735DC8
:105C20005B25645D0D0A0000F8B505460C46164676
:105C30000BF09AF86906080E0BF038F870B90BF003
:105C4000B5F800BF00BF30A000F08AFE8C223249B8
:105C500032A000F085FE00BF0020F8BD20460BF00A
:105C600025F870B90BF0A2F800BF00BF26A000F025
:105C700077FE9022284929A000F072FE00BF002084
:105C8000EBE730460BF012F870B90BF08FF800BF5D
:105C900000BF1DA000F064FE94221F491FA000F069
:105CA0005FFE00BF0020D8E76806000E8DF80000F8
:105CB0008DF801408DF8026003216846FFF754FD1E
:105CC0008DF803009DF803000AF0F0FF70B90BF0A7
:105CD0006DF800BF00BF0CA000F042FE9D220E49EF
:105CE0000EA000F03DFE00BF0020B6E70BF05EF80E
:105CF000182C03DD012001F0E5FD02E0232001F076
:105D0000E1FD00BF0120A8E752657475726E206640
:105D100061696C6564000000C8AC01085B25735DB7
:105D20005B25645D0D0A000010B540F2036014F0BD
:105D30009BFA4FF48073032210210A480AF0B4FB47
:105D40004FF400730322142106480AF0ADFB4FF410
:105D5000007104480AF0A6FB4FF4807101480AF074
:105D6000A1FB10BD000C014010B540F2026014F020
:105D70007BFA40F2036014F077FA40F2046014F00A
:105D800073FA40F2056014F06FFA4FF6FF730322C6
:105D9000002110480AF088FB4FF6FF730322002110
:105DA0000D480AF081FB4FF6FF73032200210B48D8
:105DB0000AF07AFB4FF6FF730322002108480AF02D
:105DC00073FB40F21C7014F04FFA11F095FC11F0C7
:105DD00061FC10BD00080140000C014000100140B2
:105DE000001401400146CA1701EB92729210A1EB18
:105DF000820292B9642091FBF0F200FB121050B9BC
:105E00004FF4C87091FBF0F200FB121008B90120AA
:105E100070470020FCE70120FAE70020F8E70000C7
:105E2000F8B504460E46174603208DF80000200CF6
:105E30008DF80100200A8DF80200E0B28DF8030011
:105E400000BFFFF757FA0028FBD14FF400710D484F
:105E50000AF026FB002504E01DF8050000F083FB96
:105E60006D1C042DF8DB002503E000F077FB705576
:105E70006D1CBD42F9DB4FF4007102480AF012FBC1
:105E8000F8BD0000001001402DE9F04F81B0ADF5E4
:105E9000805D8046894614464FEA18304FEA003A42
:105EA0004FEA183BC8F30B07C7F58055AC4200D842
:105EB00025464FF4805101A8FEF7C3F941E04FF4A5
:105EC000805201A95046FFF7ABFF00260CE0B8193D
:105ED00001A9085CFF2806D0B819085C19F806105B
:105EE000884200D002E0761CAE42F0D300BFAE4242
:105EF00010D21FFA8BF0FFF7C1F901A9C8192A4681
:105F00004946FEF785F94FF48052514601A8FFF744
:105F10008FFD05E00AEB07012A464846FFF788FD9A
:105F2000AC4200D10EE00AF5805A0BF1010B0027BC
:105F3000A944601B84B24FF48055B4F5805F00DA49
:105F40002546BCE700BF01B00DF5805DBDE8F08FD0
:105F50002DE9F04104460D4616461F46DDF818802F
:105F60000DE03B46324629462046FFF789FD18B131
:105F700000BF0120BDE8F081012001F0A3FCB8F1D1
:105F80000000A8F1010101F0FF08EAD100BF00BF45
:105F900005A000F0E5FCD522074908A000F0E0FCD0
:105FA00000BF0020E6E7000052657475726E20663F
:105FB00061696C6564000000E6AC01085B25735DF7
:105FC0005B25645D0D0A00001CB504469CB94021A8
:105FD0000E480AF065FAC0200190FA2001F072FC28
:105FE0000520012301AAEA2100901A2000F010F8F0
:105FF00000BF01201CBD402104480AF053FA0A20CA
:1060000001F060FC00BF0120F4E70000000C01403B
:106010002DE9F0478046894615461E46089F002414
:106020001DE02A5D49464046FFF7FEFDA0B9781EF7
:10603000C7B26FB900BF00BF0BA000F091FCB9223E
:106040000D490EA000F08CFC00BF0020BDE8F087D9
:10605000012001F037FC00E000BF601CC4B2B44274
:10606000DFDB00BF0120F1E752657475726E2066B8
:1060700061696C6564000000D9AC01085B25735D43
:106080005B25645D0D0A000010B5234801F0AEF9F0
:10609000002001F01DFA012202211F4801F08BFAB5
:1060A000012211021C4801F086FA00211A4801F071
:1060B00091F903220121184801F069F9072301220F
:1060C0000021154801F012FA07230222012112488B
:1060D00001F00CFA0723032202210F4801F006FA0F
:1060E0004FF4602201210C4801F0D9F90122114638
:1060F000094801F0B5F9084801F0A9F9012007F0B5
:10610000C9F8054801F02EF9034801F09BF9012177
:10611000014801F041FA10BD0024014010B540F2E1
:10612000026014F0A1F80E230322002107480AF0B0
:10613000BBF940F2096014F097F84FF4A06014F036
:1061400093F8032013F028FF10BD00000008014061
:1061500000B587B00021194807F0E4F8184800900E
:1061600000208DF818001748029001208DF81900C2
:10617000400201908000039000208DF81A00212039
:1061800004904FF4005005906A4600210B4807F038
:1061900001F90021094807F0ACF80021074807F091
:1061A0008FF802220021054807F08BF901221146E1
:1061B0000B2011F0F9F907B000BD0000000002400B
:1061C0004C240140F409002010B54FF4C06014F0D5
:1061D0004BF8012141480AF0C5F940F2026014F081
:1061E00043F840F2036014F03FF840F2046014F00A
:1061F0003BF840F2056014F037F84FF4C063032217
:10620000482137480AF050F948F2010303222821B7
:1062100033480AF049F94FF48073032210213048C3
:106220000AF042F91023032248212E480AF03CF9D3
:106230004FF48053032228212A480AF035F94AF204
:10624000EB030322102127480AF02EF94FF4927332
:106250000322482124480AF027F94FF480530322EF
:10626000282121480AF020F942F60B0303221021CD
:106270001D480AF019F90423032210211B480AF0D3
:1062800013F94FF4006118480AF00CF98021154801
:106290000AF008F94FF4004112480AF001F92021F0
:1062A00010480AF0FFF801210F480AF0FBF84FF4FC
:1062B00080710B480AF0F6F801210A480AF0F0F85C
:1062C0004FF4005107480AF0EBF8082106480AF09D
:1062D000E9F8082103480AF0E5F810BD0002300093
:1062E00000080140000C0140001001400014014072
:1062F00000BFFEE77047000010B5002807DA0A0764
:10630000140E054A00F00F031B1FD45403E00A07C4
:10631000130E024A135410BD18ED00E000E400E033
:10632000704710B540F21B7013F09EFF40F21C70D6
:1063300013F09AFF11F0A4F9012006F061F94AF276
:10634000A551884201D006F077F94FF4006013F0B0
:106350000BFF4FF4006013F017FF4FF4807013F041
:10636000B3FF40F60F0013F07FFF14F0DFF914F0D5
:10637000C3F9012014F0B8F914F0BEF947F6FF7024
:1063800014F0C4F914F0B8F910BD00002DE9F04183
:1063900014F07CF931490860084600683049B0FBC8
:1063A000F1F440F2B277002C32D00EE03846FFF71D
:1063B00019FD30B1B4F5B77F02D3A4F5B77402E08C
:1063C00006E0A4F26D14781C87B2B4F5B67FEDD860
:1063D00000BF24488780012517E022498888FFF7FD
:1063E00001FD30B1022D04D11D2C01D31D3C0AE06A
:1063F0000DE0681E1C49085CA04203D8681E085CBA
:10640000241A00E003E0681C85B21C2CE5D200BF12
:1064100014498D71601CC871104800681049B0FBA8
:10642000F1F201FB12064FF46160B6FBF0F00D498A
:1064300008704FF46160B6FBF0F100FB11603C2185
:10644000B0FBF1F0074948703C20B6FBF0F100FBCF
:10645000116004498870BDE8F0810000340000201C
:10646000805101002C0000209CAC010810B50120D7
:1064700014F02EF920B1012014F022F9FFF786FF65
:1064800010BD10B5FFF74DFF00F002F8002010BD61
:1064900010B500220121032011F086F810BD000084
:1064A0002DE9F05F06460F4691469A46DDF828B082
:1064B000002440F2B2784046864203DB40F63300C7
:1064C000864202DD0120BDE8F09F0CE04046FFF768
:1064D00089FC10B11D48044401E01D48044408F142
:1064E00001001FFA80F8B045F0DB781EC7B2002526
:1064F00010E01848405D40F2A321484304EBC0146B
:106500003046FFF76FFC18B1012D01D11248044449
:10651000681CC5B2BD42ECDBA9F1010040F2A32129
:10652000484304EBC014CAEB4A10C0EB0A2004EB4A
:106530000014CBEB0B1004EB80040B98044414F014
:10654000DBF8204614F0ACF80020BCE70085E2013F
:106550008033E1019CAC01088051010010B5FF209F
:1065600014F0F4F810BD10B50446204614F0EEF80F
:1065700010BD000010B540F2026013F075FE40F24D
:10658000046013F071FED02303221021124809F099
:106590008BFF2023032204210F4809F085FF4FF4CD
:1065A0000473032210210D4809F07EFF10210B48CF
:1065B00009F078FF8021084809F074FF4FF400715A
:1065C000064809F06FFF1021034809F06BFF4021D6
:1065D000014809F067FF10BD0008014000100140AC
:1065E000704710B506F060FE10BD000008B53048D9
:1065F000006840F001002E49086000BF2C48006888
:1066000000F002000028F9D000BF2948406840F09F
:106610008000274948600020009002E00098401C5C
:10662000009000985028F9D32148406840F090002D
:106630001F4948600020009002E00098401C009034
:1066400000985028F9D300BF1948406820F0030093
:106650001749486008460068164908401449086010
:1066600008464068144908401149486008460068D7
:10667000104908400E4908600846006820F4802050
:106680000860084640680D490840094948600846C6
:10669000006808490840064908604FF41F008860F8
:1066A00014F0F6F800214FF0006010F0DDFF08BD97
:1066B00000100240FFFFF6FE0C00FFE8FFFF00F7AE
:1066C0000A2006F0E7FD012080F3108800BF00BF1C
:1066D000BFF34F8F0648006800F4E06005490843A7
:1066E000001D03490860BFF34F8F00BF00BFFEE7E6
:1066F0000CED00E00000FA0510B54FF4006103480E
:1067000009F0CEFEFFF730FB10BD00000010014085
:1067100010B50121880714F065F9012001490870BE
:1067200010BD0000160000201FB54FF4E06013F00C
:106730009BFD4FF0804014F0DDF86B20ADF80000B9
:106740000020ADF80200ADF804004CF24F3002908A
:106750000020ADF80C008DF80E0069464FF0804027
:1067600014F044F94FF4C06010F074FF01220021CE
:106770001C2010F019FF0121880714F0A7F94FF031
:10678000804014F0B1F81FBD2DE9F04104460F46DA
:1067900015461E4640F2036013F066FD4FF4806319
:1067A000032218211C4809F07FFE4FF400630322E6
:1067B0000421194809F078FE40F2127013F054FDDC
:1067C00000221146272010F0EFFE40F20531134859
:1067D00014F0E5F94FF44171104814F0E0F9214646
:1067E0000E4814F077F931460C4814F00AFA39468D
:1067F0000A4814F026FA2946084814F012FA08212B
:10680000064814F016FA0421044814F002FA03486A
:1068100014F0B1F9BDE8F081000C014000480040DF
:1068200070B505460E46002404E0285D00F006F829
:10683000601C84B2B442F8DB70BD000010B50446A1
:106840002146054814F093F900BF0721024814F0CF
:1068500097F90028F9D010BD0048004010B51C4938
:106860001C4814F0B2F9B0B11A4814F07BF9C1B267
:1068700019480288801C8154801E0088401C1649DB
:10688000088008460088FF2801DD002008801049A4
:10689000104814F091F911490E4814F096F948B1D6
:1068A0000E490C4814F088F90A4814F05BF90120ED
:1068B0000B4908700B49074814F087F930B10949B2
:1068C000044814F079F9034814F04CF910BD0000A5
:1068D0000503050000480040A00400200403040054
:1068E000770400200503030000BFFEE710B5322047
:1068F00006F0D0FC40F2FB5211490020FFF790FA5D
:106900000F48B0F80001A8B901200D49A1F8000115
:1069100006F03CFA00BF0BA000F022F882220B49DF
:106920000BA000F01DF800BFFFF7E6FE4FF47A70F1
:1069300006F0B0FC4FF40051084809F0B3FD10BD5B
:106940007D0B0020B9D8BBFA0D0A000063AC01082A
:106950005B25735D5B25645D0D0A0000001001403E
:106960000FB4054B10B503A9044A029800F05EF974
:1069700010BC5DF814FB00007D04010898040020A1
:106980000FB4084B10B504A902AA039800F04EF901
:10699000044602A9002000F0E0FC204610BC5DF88F
:1069A00014FB00005B730008004870479C04002043
:1069B0002DE9F0414F1E00EBC7010446D1E900016B
:1069C00015461E4637F006020DD02A463346FDF71F
:1069D000EFFD7F1E04EBC703D3E90023FDF741FD64
:1069E00037F00602F1D1022F25D0042F13D0062F45
:1069F00018BFBDE8F0812A463346FDF7D9FDD4E93A
:106A00000A23FDF72EFD2A463346FDF7D1FDD4E9D2
:106A10000823FDF726FD2A463346FDF7C9FDD4E9D4
:106A20000623FDF71EFD2A463346FDF7C1FDD4E9D6
:106A30000423FDF716FD2A463346FDF7B9FDD4E9D8
:106A40000223FDF70EFD2A463346FDF7B1FDD4E9DA
:106A50000023BDE8F041FDF704BD0000002213460D
:106A600010460149FDF716BE0000F03F0122FEF777
:106A7000F5B80022134610461146FDF70BBE02E0A2
:106A800008C8121F08C1002AFAD1704770470020B9
:106A900001E001C1121F002AFBD1704701490860C3
:106AA000704700009C0400202DE9FF5F82B00021A8
:106AB000DDE90430020DDDF840B0034318D044F6A0
:106AC0001050A2F2FF3242431514119801281FD032
:106AD000A5EB0B00401C5FEA000A4FF000064E4F8A
:106AE000DFF83891B046504615D5CAF1000413E0DE
:106AF000119801244AA3012801D16FEA0B010298E1
:106B0000119AC0E90031C0E9024206B0BDE8F09F29
:106B1000CBF10000DFE704460021404A491842EB70
:106B20000450CDE9001012E0E00707D032463B46A2
:106B300040464946FDF73CFD8046894632463B4685
:106B400010461946FDF734FD06460F466410002C2A
:106B5000EAD1DDE90401DDE90023BAF1000F06DA2C
:106B6000FDF726FD42464B46FDF722FD05E0FDF709
:106B700091FD42464B46FDF78DFD04460E46002230
:106B8000284BFDF793FE03D84FF0FF30014607E096
:106B90000022254B20463146FDF763FCFEF7BAF88C
:106BA000102409E0002C0ADB0A220023FDF7DCFE9A
:106BB000039B30321A55641E50EA0102F2D1641C64
:106BC000039AC4F111031444119A012A03D001223B
:106BD00008430DD10AE0084304D000204FF0110B08
:106BE000119072E7A3EB0B056D1E0DE05B4504DD14
:106BF0004FF0000205F1010504E003DA4FF0000256
:106C0000A5F10105002AECD002981199C0E90231E2
:106C1000C0E9004579E70000000014400000F03FA3
:106C2000300000000000F0430000E03F2DE9FF4F7E
:106C300095B09B468946064600250FE2252877D168
:106C400000242746F84A0121059400E0044316F881
:106C5000013F203B01FA03F01042F7D130782A2897
:106C600011D06FF02F033078A0F13002092A16D826
:106C7000059A44F0020402EB820203EB4202104444
:106C8000761C0590EFE759F8042B0592002A03DAE9
:106C9000504244F40054059044F00204761C3078CD
:106CA0002E2816D116F8010F44F004042A280DD01E
:106CB0006FF02F023078A0F13003092B09D807EBD1
:106CC000870302EB4303C718761CF3E759F8047BEC
:106CD000761C30786C280FD006DC4C2817D068283A
:106CE0000DD06A2814D104E0742810D07A280FD16E
:106CF0000DE044F400140AE044F4801401E044F48C
:106D000040147278824202D104F58014761C761CFD
:106D1000307866280BD013DC582877D009DC00289F
:106D200075D04528F6D04628F4D047281AD19DE1E1
:106D300018E0632835D0642879D0652812D195E110
:106D4000702873D008DC6728F1D069286FD06E28CE
:106D50000DD06F2806D1B5E073282CD0752875D0DA
:106D6000782874D05A46179990476D1C75E1C4F382
:106D70000250022809D003280DD0D9F800100428A9
:106D80000DD00D6009F1040967E1D9F80010EA1788
:106D9000C1E90052F6E7D9F800100D80F2E70D7056
:106DA000F0E719F8041B8DF8001000208DF80100A1
:106DB000EA46012003E059F804AB4FF0FF306107C9
:106DC0004FF0000102D40DE008F101018846B942FC
:106DD0000FDA8045F8DB1AF808100029F4D108E032
:106DE00008F1010188468142FADB1AF808100029EF
:106DF000F6D105985B46A0EB080721463846179A5E
:106E000000F094FA284400EB080507E04DE029E182
:106E10000DE01AF8010B5A4617999047B8F101088E
:106E2000F7D25B4621463846179A13E142E00A2220
:106E30000092C4F302524FF0000A022A08D059F817
:106E400004CB032A4FEAEC710AD00DE029E02AE0D6
:106E500009F1070121F00702F2E802C1914609E0B9
:106E60000FFA8CFC4FEAEC71042A03D14FFA8CFC28
:106E70004FEAEC71002907DA0A460021DCF1000C28
:106E800061EB02012D2202E0220504D52B228DF8B0
:106E90000420012203E0E20701D02022F7E7904618
:106EA00059E00A2102E010220DE010214FF0000A03
:106EB00000910BE010224FF0000A44F00404082770
:106EC000009203E008224FF0000A0092C4F302523D
:106ED000022A05D059F804CB0021032A08D009E082
:106EE00009F1070121F00702F2E802C1914605E02D
:106EF0001FFA8CFC042A01D10CF0FF0C4FF00008A3
:106F0000220728D5702806D0009B83F0100353EA8F
:106F10000A0305D00EE040228DF80420012208E08B
:106F20005CEA010206D030228DF804208DF80500BD
:106F300002229046009B83F0080353EA0A030AD119
:106F40005CEA010201D1620705D530228DF80420E8
:106F50004FF001087F1E582804D034A003900EA8DB
:106F600002900DE036A0F9E753466046009AFDF71F
:106F7000FBFC84460398825C0298401E02900270DB
:106F80005CEA0100F0D1029806A9081A00F1200A73
:106F9000600702D524F4803400E00127574502DD64
:106FA000A7EB0A0000E0002000EB0A010090059822
:106FB0004144401A0590E00306D45B462146179AE7
:106FC000059800F0B3F90544002706E001A85A46E9
:106FD000C05D179990476D1C7F1C4745F6DBE003A9
:106FE0000CD55B462146179A059800F09FF9054499
:106FF00004E030205A46179990476D1C0099481EAE
:1070000000900029F5DC08E0029802995A460078C1
:10701000491C0291179990476D1CBAF10001AAF121
:10702000010AF1DC65E1000009280100303132334A
:1070300034353637383961626364656600000000B4
:10704000303132333435363738394142434445469E
:107050000000000000F058F90544761C3078002844
:107060007FF4ECAD19B02846BDE8F08F620700D47C
:10707000062709F1070222F0070CFCE80223E1468B
:1070800003F000485FEA080C02D00FF2702C0DE00C
:107090005FEA045C02D50FF2682C07E05FEAC47C6B
:1070A00002D00FF2602C01E0AFF2700C4FF0FF380D
:1070B00023F00043CDF850C065280CD006DC4528ED
:1070C00009D046281DD047283DD13DE0662818D07C
:1070D00067287ED138E00021112F01DB112000E06C
:1070E000781CCDE9000106A90EA8FFF7DDFCDDE95B
:1070F0000F010E9A03910021009207F1010A0491F9
:107100004DE04FF000400097CDE9011006A90EA810
:10711000FFF7CAFCDDE90F0203920E9B11990022D2
:10712000DDF80CA00093049211B9791C00EB010A60
:10713000B7EB0A0004D4C0F1FF3007F1010A049054
:10714000AAEB0700019044E0012F00DA012700219B
:10715000112F01DD112000E03846CDE9000106A91C
:107160000EA8FFF7A1FCDDE90F010E9A03910021A3
:1071700004910092BA4621070CD40399514500DAD4
:107180008A46BAF1010F05DD009AAAF10101515CAE
:10719000302908D0B84202DA10F1040F06DA0121D2
:1071A000CDE9011015E0AAF10101E9E7002805DCAD
:1071B000049901440491AAEB000102E0411C5145ED
:1071C00000DD8A460499401A401C01904FF00040AF
:1071D0000290200704D40198504501DBCDF80480CB
:1071E00000208DF84F0002980DF14F07B0F1004FCD
:1071F00025D02B200E9002984FF0020800280CDAC0
:10720000404202902D200E9007E00A210298FDF7DF
:1072100095FB3031029007F8011DB8F10001A8F18B
:107220000108F2DC02980028EFD1791E0E98087050
:10723000307800F0200040F0450007F8020D12A859
:10724000C01B00F107081498007800B1012000EB82
:107250000A01019801EBE07105984144401A401E73
:107260000590E00306D45B462146179A059800F086
:107270005DF805441498007818B15A46179990475C
:107280006D1CE00324D55B462146179A059800F053
:107290004DF805441CE00498002807DBDDE90301F4
:1072A000884203DD0098405C179901E0179930206F
:1072B0005A469047049805F10105401C0490019836
:1072C000401E019004D12E205A46179990476D1CFC
:1072D000BAF10001AAF1010ADDDC05E017F8010BA3
:1072E0005A46179990476D1CB8F10001A8F10108A2
:1072F000F4DC5B462146179A0598ABE62D000000AA
:107300002B000000200000002DE9F041044600257C
:107310001E461746880404D405E039462020B047AD
:107320006D1C641EF9D52846BDE8F0812DE9F041B9
:10733000044600251E469046C80301D5302700E0CC
:107340002027880404D505E041463846B0476D1C27
:10735000641EF9D52846BDE8F0810A68531C0B600D
:1073600010707047816841F00801816000BF81683A
:1073700001F008010029FAD1816841F0040181601F
:1073800000BF816801F004010029FAD1704730B5CF
:10739000012902D002291AD10CE0C36A23F4700338
:1073A000C362C36A541E4FF4700505EA04542343B4
:1073B000C3620DE0836B23F440138363836B541E1D
:1073C0004FF4401505EA04542343836300E000BFF3
:1073D00000BF30BD21B1826842F40062826003E0E8
:1073E000826822F4006282607047000010B5044693
:1073F0001348204430B1B0F5806F0CD0B0F5C05FB9
:107400001BD111E040F2093012F04EFF40F209307A
:1074100012F03AFF12E040F20A3012F045FF40F25B
:107420000A3012F031FF09E040F20F3012F03CFF59
:1074300040F20F3012F028FF00E000BF00BF10BD87
:1074400000DCFEBF816841F4807181607047816813
:1074500001F0010119B9816841F0010181607047B3
:1074600072B101F001031BB1836843F480138360A0
:1074700001F0020393B1836843F4004383600DE09D
:1074800001F001031BB1836823F48013836001F0D2
:1074900002031BB1836823F4004383607047012912
:1074A00002D0022910D107E0836823F460238360AF
:1074B00083681343836008E0836823F4E0438360B8
:1074C00083681343836000E000BF00BF7047000083
:1074D0000549096821F47021034A116011460968C1
:1074E000014311607047000004240140F0B51D46BF
:1074F00006290CDA436B01EB81071F26BE40B3431C
:1075000001EB810602FA06F63343436322E00C29BD
:107510000EDA036B8E1F06EB86071F26BE40B343B1
:107520008E1F06EB860602FA06F63343036311E06C
:1075300010290FDAC36AA1F10C0606EB86071F2695
:10754000BE40B343A1F10C0606EB860602FA06F62E
:107550003343C3620A2A0CDA046902EB42070726A6
:10756000BE40B44302EB420605FA06F6344304611A
:1075700011E0122A0FDAC468A2F10A0606EB4607E8
:107580000726BE40B443A2F10A0606EB460605FAFA
:1075900006F63443C460F0BD01F001021AB18268FE
:1075A00042F48002826001F002021AB1826842F461
:1075B000001282607047AAB101F480731BB1436866
:1075C00043F48073436001F480631BB1436843F468
:1075D0008063436001F00203CBB1836843F0020390
:1075E000836014E001F480731BB1436823F480735B
:1075F000436001F480631BB1436823F480634360FC
:1076000001F002031BB1836823F00203836070471B
:107610002DE9F04F8BB082460AF0010000284AD0D5
:10762000002427E0994901EB840108689849FDF797
:1076300071F907D3954901EB840108689549FDF775
:1076400073F900D214E0914800EB8400016892487D
:10765000FCF791FE0546914800EB8400016828463E
:10766000FCF737FE01468D4800EB8400016000BF47
:10767000601CC4B2032CD5DB00218948C0F8261455
:1076800000240DE0854A02EB84021168844AD2F896
:107690002604FCF71EFE8249C1F82604601CC4B211
:1076A000032CEFDB7E49D1F826047E49FCF79BFED4
:1076B0007B49C1F826040AF0020058B1734AA33A84
:1076C000D2F8AF10764AD2F82E04FCF754FE744973
:1076D000C1F82E040AF00400002851D07048D0F8F8
:1076E0002A140020FDF716F904D14FF07E516C48A2
:1076F000C0F82A146C49497840F29F1251436B4AF2
:107700001144D1F860016449FCF735FE8346FDF76A
:10771000A2F8674A674BCDE90001FCF749FF002258
:10772000654BCDE90201FCF79CFE5D4ACDE9040101
:10773000D2F82E14554AA33AD2F8AF00FCF71BFE3C
:107740008346FDF788F88046DDE90423FCF7A2FFB5
:1077500006460022594BFCF79DFFCDE90801504930
:10776000D1F82A04FDF777F8CDE90601DDE9082311
:10777000FCF790FF0446FDF7B1F84949C1F82A0427
:107780000AF0080058B1414AA33AD2F8F310444A2B
:10779000D2F83204FCF7EFFD4149C1F832040AF097
:1077A000200080B3002428E03C481C3000EB84001B
:1077B00001680020FDF7AEF806D14FF07E51374842
:1077C0001C3000EB840001603049103101EB840172
:1077D00008683B49FCF707FE054630491C3101EBC0
:1077E000840108682946FCF7FEFD01462B481C3041
:1077F00000EB84000160601CC4B22448A338B0F8D8
:107800004F00A042D0DC0AF04000C8B3002500249D
:107810000AE01E48103000EB840001682846FCF79F
:1078200058FD0546601CC4B21848A338B0F84F0094
:10783000A042EEDC1A48D0F87E140020FDF76AF86A
:1078400004D14FF07E511648C0F87E140F49A33979
:10785000B1F84F00FCF796FF064619492846FCF799
:10786000C2FD07463146FCF7BEFD04460C49D1F87F
:107870007E042146FCF7B7FD0949C1F87E0400BF2C
:1078800005F084FA0BB0BDE8F08F0000270B002054
:1078900000002041000020420000C841970F002056
:1078A0007D0B0020000040403C5F00208043002012
:1078B0002D431CEBE2360A3F0000F03F006AF8401F
:1078C00000806D4541F2883200FB02F106E000BF06
:1078D00000BF00BF00BF00BF00BF00BF0A1EA1F174
:1078E0000101F4D1704700002DE9F04F9FB0032053
:1078F000332312AA402100901A20FEF729FB78B901
:1079000000BF00BFFBA0FFF72BF840F2B922FD49F2
:10791000FDA0FFF725F800BF00201FB0BDE8F08FE5
:10792000002011E0012101EB400112AA525CF9494B
:1079300001F8102012A911F81020012101EB4003D9
:10794000F449CA54411CC8B21928EBDBF14C04F1CC
:107950008909DFF8C4A300252CE0A11D01EB450136
:10796000098847F6FF72501AFCF703FF8346A11DF2
:1079700001EB45010888FCF705FF1190E5481A382E
:10798000D0F89F101198FCF7FCFC06465946FCF70E
:107990002AFD07460AF11A0000EB85000168384607
:1079A000FCF797FC804601F02FFA09EB850108608F
:1079B000681CC5B2032DD0DBDAF82E00FCF74BFFB4
:1079C000CDE90E01D549497840F29F125143D44A7E
:1079D0001144D1F86001D349FCF7CDFC8346FCF794
:1079E0003AFF0746D04AD14BFCF7E2FD054600229C
:1079F000CF4BFCF736FDCDE90A01DAF82A00FCF797
:107A00002AFF05460E46B4F90C00FCF7B2FEC94940
:107A10000490FCF7B6FC8346C749FCF7E4FC0590EC
:107A2000FCF719FF0746C54AC54BFCF733FE2A464B
:107A30003346CDE90601FCF7BBFDCDE90801DDE9E0
:107A40000A23FCF727FECDE90C01DDE90E23FCF744
:107A500008FDCDE91001FCF741FFC9F80C00002535
:107A600043E0AD49363101EB850108680021FCF7A0
:107A700051FF08D0A849363101EB85010868B149AA
:107A8000FCF748FF13D104F10E0000EB4500B0F9FC
:107A9000000000EB8006F11706EBD1614811FCF7FE
:107AA00068FE09F1100101EB850108601BE004F19B
:107AB0000E0000EB4500B0F9000000EB8006F11766
:107AC00006EBD1614811FCF754FE07469248363068
:107AD00000EB850001683846FCF753FC09F1100102
:107AE00001EB85010860681CC5B2102DB9DB964911
:107AF000D1F876040021FCF70DFF06D09249D1F8A9
:107B000076049049FCF706FF04D14FF07E518E4871
:107B1000C0F876148C49D1F87A040021FCF7FAFEFB
:107B200006D08949D1F87A048649FCF7F3FE04D1DE
:107B30004FF07E518448C0F87A148349D1F87A0412
:107B40004FF07E51FCF7E6FE04D17F48D0F8761462
:107B5000C0F87A14B4F92E00002864DD7A49D1F80F
:107B60003204FCF778FECDE90E016C49497840F209
:107B70009F1251436A4A1144D1F860016949FCF7E8
:107B8000FAFB8346FCF767FE0746674A674BFCF73C
:107B90000FFD05460022664BFCF763FCCDE90A01A8
:107BA0006949B1F94705FCF7F2FD07468846B4F983
:107BB0002E00FCF7DEFD5F490090FCF7E2FB019030
:107BC0006148D0F876140198FCF7DBFB8346FCF79C
:107BD00042FE5A4A5A4BCDE90201FCF75BFD0546CD
:107BE00000225A4BFCF756FD3A464346CDE90401C4
:107BF000FCF7DEFC564A574BCDE90601FCF7D8FCF2
:107C0000CDE90801DDE90A23FCF744FDCDE90C01CB
:107C1000DDE90E23FCF725FCCDE91001FCF75EFE43
:107C2000C9F8500063E04849D1F83204FCF713FE6C
:107C3000CDE90E013949497840F29F125143384A43
:107C40001144D1F860013749FCF795FB8346FCF7F6
:107C500002FE0746344A354BFCF7AAFC05460022D3
:107C6000334BFCF7FEFBCDE90A013749B1F9490571
:107C7000FCF78DFD05460E46B4F92E00FCF779FDA4
:107C80002C490090FCF77DFB01902F48D0F87A1426
:107C90000198FCF776FB8346FCF7DDFD274A284B6D
:107CA000CDE90201FCF7F6FC0022284BCDE90401E6
:107CB000FCF7F0FC07462A463346FCF779FC244AD9
:107CC000244BCDE90601FCF773FCCDE90801DDE9A1
:107CD0000A23FCF7DFFCCDE90C01DDE90E23FCF7FC
:107CE000C0FBCDE91001FCF7F9FDC9F8500000BF59
:107CF000012012E652657475726E206661696C65CA
:107D0000640000000AAD01085B25735D5B25645DBE
:107D10000D0A00009E0A00207D0F00203C5F00201D
:107D2000804300200000C8412D431CEBE2360A3F8F
:107D30000000F03F0000484300AAD146A5E2ECC392
:107D400067D8153F00FF7F477D0B002080F7D440A8
:107D50007B14AE47E17A843F00B5A5B003201A2317
:107D60001EAA002100901846FEF7F2F870B900BF75
:107D700000BFF5A0FEF7F4FD40F26D12F649F7A042
:107D8000FEF7EEFD00BF002025B000BD00201A90D8
:107D900016E001211A9801EB40001EA9095CF24A85
:107DA0001A9802F810101EA91A9811F81010012242
:107DB00002EB4000EC4A11541A98401CC0B21A90D1
:107DC0001A980D28E5DB00BFE8A0FEF7C9FD40F2D8
:107DD0007512E149E1A0FEF7C3FD00BF00BF9DF8A9
:107DE00091009DF890109DF88F209DF88E30CDE980
:107DF0001332CDE915109DF88D009DF88C109DF87B
:107E00008B209DF88A30CDE90F32CDE911109DF815
:107E100089109DF888009DF887209DF88630CDE96F
:107E20000B32CDE90D019DF885009DF884109DF879
:107E300083209DF88230CDE90732CDE909109DF805
:107E400081109DF880009DF87F209DF87E30CDE95F
:107E50000332CDE905019DF87D009DF87C109DF869
:107E60007B20CDE9002102909DF87A001A909DF8C0
:107E7000790019909DF8780018900146CB48DDE90B
:107E80001923FEF76DFD4FF4BB72B349B3A0FEF7A3
:107E900067FD00BFB4481D904D301C90C4481B9036
:107EA0001D980078C0F381011C9801801D984078CE
:107EB00000F00F00052803DA10211C98418005E02E
:107EC0001D98407800F00F011C9841801D98C078E3
:107ED000C0F3810030B1012808D002280BD003285C
:107EE00013D10DE064211C98818013E04FF4FA71E6
:107EF0001C9881800EE04FF47A711C98818009E013
:107F00004FF4FA611C98818004E04FF6FF711C98D1
:107F1000818000BF00BF1C9840881690FCF732FC9F
:107F200017901B98D0F87E0016901799FCF75BFA13
:107F300019901D984088C0F3090000EB800017904D
:107F4000FCF717FC18901999FCF7C3F91A90FCF785
:107F500055FC81B21C98C1801D98C078000910287A
:107F600057D2DFE800F0080C10151A1F24292E3311
:107F7000383D42474C5164211C9801814EE0C82194
:107F80001C9801814AE04FF496711C98018145E0EC
:107F90004FF4C8711C98018140E04FF416711C9891
:107FA00001813BE04FF448711C98018136E04FF4A9
:107FB0007A711C98018131E04FF4FA611C980181BB
:107FC0002CE040F6B8311C98018127E04FF47A612B
:107FD0001C98018122E041F270711C9801811DE022
:107FE0004FF4FA511C98018118E042F210711C986C
:107FF000018113E044F620611C9801810EE047F2F4
:1080000030511C98018109E049F640411C980181DA
:1080100004E04FF6FF711C98018100BF00BF1C985F
:1080200040881690FCF7AEFB17901B98D0F87E00A6
:1080300016901799FCF7D7F919901D988088C0F30E
:10804000090000EB80001790FCF793FB189019993A
:10805000FCF73FF91A90FCF7D1FB81B21C984181E3
:108060001C9840881690FCF78DFB17901B98D0F851
:108070007E0016901799FCF7B6F919901D98C079F3
:1080800000EB800080001790FCF773FB18901999A3
:10809000FCF71FF91A90FCF7B1FB81B21C988181A3
:1080A0001D984079000910284DD2DFE800F0080C37
:1080B00010151A1F24292E33383D42478388642126
:1080C0001C98C18185E0C8211C98C18181E04FF4D2
:1080D00096711C98C1817CE04FF4C8711C98C181D5
:1080E00077E04FF416711C98C18172E04FF448712B
:1080F0001C98C1816DE04FF47A711C98C18168E0D1
:108100004FF4FA611C98C18163E040F6B8311C98C5
:10811000C1815EE04FF47A611C98C18159E041F25F
:1081200070711C98C18154E04FF4FA511C98C181C0
:108130004FE042F210711C98C1814AE044F6206180
:108140001C98C18145E03FE052657475726E2066EF
:1081500061696C6564000000F2AC01085B25735D29
:108160005B25645D0D0A0000840A00200D0AA1BE93
:108170002A2A2A2A2A2A2A2A2A2A2A2A2A2A2A2A5F
:108180004146452D524F4DBCC4B4E6C6F7B2CECAE7
:10819000FD2A2A2A2A2A2A2A2A2A2A2A2A2A2A2A6C
:1081A0002A2A2A2A2A2AA1BF0D0A000084AE010821
:1081B0007D0F002047F230511C98C18109E049F63B
:1081C00040411C98C18104E04FF6FF711C98C181A9
:1081D00000BF00BF1C9840881690FCF7D3FA179098
:1081E0001B98D0F87E0016901799FCF7FCF81990B0
:1081F0001D98807900EB800080001790FCF7B9FA99
:1082000018901999FCF765F81A90FCF7F7FA81B203
:108210001C9801821D98407A00EB800081001C9818
:1082200041821D98007A00EB800081001C988182B9
:108230001C9840881690FCF7A5FA17901B98D0F868
:108240007E0016901799FCF7CEF819901D98C07A09
:1082500000F07F0000EB800080001790FCF789FAA7
:1082600018901999FCF735F81A90FCF7C7FA81B203
:108270001C98C1821C9840881690FCF783FA1790CE
:108280001B98D0F87E0016901799FCF7ACF819905F
:108290001D98807A00EB800080001790FCF769FA47
:1082A00018901999FCF715F81A90FCF7A7FA81B203
:1082B0001C9801831D98407B00F00F00102856D2B7
:1082C000DFE800F0080C1014191E23282D32373C6B
:1082D00041464B5032211C9841834DE064211C984B
:1082E000418349E0C8211C98418345E04FF4C8719F
:1082F0001C98418340E04FF416711C9841833BE089
:108300004FF448711C98418336E04FF47A711C9801
:10831000418331E04FF4FA611C9841832CE04FF423
:108320007A611C98418327E041F270711C98418367
:1083300022E04FF4FA511C9841831DE042F2107183
:108340001C98418318E043F698211C98418313E060
:1083500044F620611C9841830EE047F230511C988E
:10836000418309E049F640411C98418304E04FF6FF
:10837000FF711C98418300BF00BF1D98407B00091E
:10838000102849D2DFE800F0080C1014181C202433
:10839000282C3034383C404414211C98818340E020
:1083A0001E211C9881833CE028211C98818338E0A1
:1083B00032211C98818334E03C211C98818330E079
:1083C00046211C9881832CE050211C98818328E051
:1083D0005A211C98818324E064211C98818320E029
:1083E0006E211C9881831CE078211C98818318E001
:1083F00082211C98818314E08C211C98818310E0D9
:10840000A0211C9881830CE0B4211C98818308E092
:10841000C8211C98818304E04FF6FF711C9881836A
:1084200000BF00BF1D98007B00F00F00102852D243
:10843000DFE800F0080C1014181C2024292E333813
:108440003D42474C0A211C98C18349E014211C98E5
:10845000C18345E028211C98C18341E03C211C9840
:10846000C1833DE050211C98C18339E064211C98F0
:10847000C18335E0C8211C98C18331E04FF4C87135
:108480001C98C1832CE04FF416711C98C18327E01F
:108490004FF448711C98C18322E04FF47A711C9804
:1084A000C1831DE04FF4FA611C98C18318E04FF4BA
:1084B0007A611C98C18313E04FF4FA511C98C18370
:1084C0000EE042F210711C98C18309E044F620616D
:1084D0001C98C18304E04FF6FF711C98C18300BF54
:1084E00000BF1D98007B000910284CD2DFE800F087
:1084F000080C1014181C2024282C3034383C414619
:108500001E211C98018443E028211C9801843FE02F
:1085100032211C9801843BE03C211C98018437E007
:1085200046211C98018433E050211C9801842FE0DF
:108530005A211C9801842BE064211C98018427E0B7
:1085400078211C98018423E08C211C9801841FE071
:10855000A0211C9801841BE0B4211C98018417E021
:10856000C8211C98018413E04FF496711C98018473
:108570000EE04FF4C8711C98018409E04FF4FA71C1
:108580001C98018404E04FF6FF711C98018400BF21
:1085900000BF1D98C07B00F00F00102855D2DFE807
:1085A00000F0080C1014181D22272C31363B4045D2
:1085B0004A4F00211C9841844CE040211C98418482
:1085C00048E080211C98418444E0C0211C984184EB
:1085D00040E04FF480711C9841843BE04FF4A0715F
:1085E0001C98418436E04FF4C0711C98418431E0FE
:1085F0004FF4E0711C9841842CE04FF400711C98FA
:10860000418427E04FF410711C98418422E04FF41C
:1086100020711C9841841DE04FF430711C984184F6
:1086200018E04FF440711C98418413E04FF45071EE
:108630001C9841840EE04FF460711C98418409E05D
:108640004FF470711C98418404E04FF6FF711C9840
:10865000418400BF00BF1D98C07B0009102852D282
:10866000DFE800F0080C1014181C2024292E3338E1
:108670003D42474C32211C98818449E050211C988E
:10868000818445E06E211C98818441E08C211C98F6
:1086900081843DE0AA211C98818439E0C8211C987E
:1086A000818435E0E6211C98818431E04FF48271A9
:1086B0001C9881842CE04FF491711C98818427E0F0
:1086C0004FF4A0711C98818422E04FF4AF711C9884
:1086D00081841DE04FF4C8711C98818418E04FF428
:1086E000FA711C98818413E04FF416711C988184F0
:1086F0000EE04FF448711C98818409E04FF47A71C0
:108700001C98818404E04FF6FF711C98818400BF9F
:1087100000BF1D98807B00F00F00102852D2DFE8C8
:1087200000F0080C1014181C2024292E33383D4268
:10873000474C0A211C98C18449E014211C98C1842B
:1087400045E028211C98C18441E03C211C98C1844B
:108750003DE050211C98C18439E064211C98C184FB
:1087600035E0C8211C98C18431E04FF4C8711C98D1
:10877000C1842CE04FF416711C98C18427E04FF49B
:1087800048711C98C18422E04FF47A711C98C1840E
:108790001DE04FF4FA611C98C18418E04FF47A612F
:1087A0001C98C18413E04FF4FA511C98C1840EE068
:1087B00042F210711C98C18409E044F620611C98B3
:1087C000C18404E04FF6FF711C98C18400BF00BF54
:1087D0001D98807B0009102849D2DFE800F0080CC2
:1087E0001014181C2024282C3034383C4044142108
:1087F0001C98018540E01E211C9801853CE0282141
:108800001C98018538E032211C98018534E03C2118
:108810001C98018530E046211C9801852CE05021F0
:108820001C98018528E05A211C98018524E06421C8
:108830001C98018520E06E211C9801851CE07821A0
:108840001C98018518E082211C98018514E08C2178
:108850001C98018510E0A0211C9801850CE0B42132
:108860001C98018508E0C8211C98018504E04FF69A
:10887000FF711C98018500BF00BF1D98407C00F06F
:10888000030030B1012808D002280AD0032810D1F3
:108890000BE008211C98418510E010211C984185AF
:1088A0000CE020211C98418508E040211C9841855E
:1088B00004E04FF6FF711C98418500BF00BF1D9872
:1088C000407CC0F3810030B1012808D002280AD0D2
:1088D000032810D10BE008211C98818510E010219D
:1088E0001C9881850CE020211C98818508E040219E
:1088F0001C98818504E04FF6FF711C98818500BFAC
:1089000000BF1D98407CC0F3011030B1012808D091
:1089100002280AD0032812D10CE040211C98C185FE
:1089200012E080211C98C1850EE04FF480711C98E4
:10893000C18509E04FF400711C98C18504E04FF631
:10894000FF711C98C18500BF00BF1D98407C800945
:1089500030B1012808D002280BD0032813D10DE034
:10896000C8211C98018613E04FF4FA711C98018607
:108970000EE04FF47A711C98018609E04FF4FA6119
:108980001C98018604E04FF6FF711C98018600BF19
:1089900000BF1D98007E00F07F001390FBF708FFDA
:1089A000B34AB44BCDE91401FBF702FE4FF033326A
:1089B000B14BCDE91601FBF754FDCDE91801FBF7EA
:1089C0008DFF1C99C1F852001D98007CC0F5007005
:1089D0001690FBF7CEFE18901D98007C1590FBF7C3
:1089E000D1FE16901C98D0F85200014615901698AA
:1089F000FBF7C7FC17901899FBF7F5FC199000F0EE
:108A000003FA1A901B98D0F82600014619901A987C
:108A1000FBF75FFC1C99C1F832001D98C07CC0F5C3
:108A200000701690FBF7A5FE18901D98C07C15905D
:108A3000FBF7A8FE16901C98D0F85200014615903E
:108A40001698FBF79EFC17901899FBF7CCFC199031
:108A500000F0DAF91A901B98D0F826000146199018
:108A60001A98FBF736FC1C99C1F836001D98807CDB
:108A7000C0F580701690FBF77CFE18901D98807CE6
:108A800000F580701590FBF774FE16901C98D0F8D6
:108A90005200014615901698FBF773FC1790189931
:108AA000FBF7A1FC199000F0AFF91A901B98D0F8D1
:108AB0002600014619901A98FBF70BFC1C99C1F887
:108AC0003A001D98407DC0F580701690FBF751FE6E
:108AD00018901D98407D00F580701590FBF749FEB9
:108AE00016901C98D0F85200014615901698FBF786
:108AF00048FC17901899FBF776FC199000F084F960
:108B00001A901B98D0F82600014619901A98FBF786
:108B1000E0FB1C99C1F83E001D98007DC0F5007077
:108B20001690FBF726FE18901D98007D1590FBF718
:108B300029FE16901C98D0F8520001461590169800
:108B4000FBF71FFC17901899FBF74DFC199000F0EC
:108B50005BF91A901B98D0F82600014619901A98D4
:108B6000FBF7B7FB1C99C1F842001D98C07DC0F50A
:108B700000701690FBF7FDFD18901D98C07D1590B4
:108B8000FBF700FE16901C98D0F852000146159095
:108B90001698FBF7F6FB17901899FBF724FC199031
:108BA00000F032F91A901B98D0F82600014619906F
:108BB0001A98FBF78EFB1C99C1F846001D98807D22
:108BC000C0F580701690FBF7D4FD18901D98807D3D
:108BD00000F580701590FBF7CCFD16901C98D0F82E
:108BE0005200014615901698FBF7CBFB1790189989
:108BF000FBF7F9FB199000F007F91A901B98D0F8D1
:108C00002600014619901A98FBF763FB1C99C1F8DE
:108C10004A001D98407EC0F580701690FBF7A9FDB4
:108C200018901D98407E00F580701590FBF7A1FD0F
:108C300016901C98D0F85200014615901698FBF734
:108C4000A0FB17901899FBF7CEFB199000F0DCF809
:108C50001A901B98D0F82600014619901A98FBF735
:108C600038FB1C99C1F84E0000BF0120FFF78CB8FB
:108C70009A9999999999A93F33331B4008B5402196
:108C8000574880F801140E20554981F800046B21E3
:108C9000534880F803140C2180F80214622180F8F4
:108CA0000514D02180F80414782180F8071482215B
:108CB00080F80614AA2180F809147D2180F8081490
:108CC000642180F80B14BC2180F80A14422180F83A
:108CD0000D1480F80C14102180F80F14422180F834
:108CE0000E14002180F8111480F8101480F8131469
:108CF000FF2180F8121480F81514002180F8141454
:108D000080F81714FF2180F8161480F81914002138
:108D100080F818141A2200F580613248FBF778FABF
:108D200003F064FB68B900BF00BF2FA0FDF718FE79
:108D300040F2F952304931A0FDF712FE00BF002089
:108D400008BD4FF07E5000906A460121C32000F01C
:108D5000EFF8FA2004F09EFA002000906A46012104
:108D6000C62000F0E5F86A460121C42000F0E0F8D2
:108D70006A460121C52000F0DBF8FEF7EDFF68B977
:108D800000BF00BF18A0FDF7EBFD40F203621A49D7
:108D90001AA0FDF7E5FD00BF0020D1E7FEF7A4FD16
:108DA00068B900BF00BF10A0FDF7DAFD40F206620F
:108DB000114912A0FDF7D4FD00BF0020C0E7094A09
:108DC000D2F8F310064AD2F83204FBF7D4FA044979
:108DD000C1F8320403F0DAFF00BF0120B0E7000061
:108DE0007D0B0020840A002052657475726E206627
:108DF00061696C65640000004EAD01085B25735D20
:108E00005B25645D0D0A00002DE9F0470546254805
:108E100001682846FBF788FD02D82348BDE8F087A3
:108E20002048D0F880122846FBF774FD01D81F486F
:108E3000F4E7002431E01B4850F824102846FBF7E3
:108E400069FD28D8174A601C52F820102846FBF705
:108E50006BFD20D8134B621C53F822101A4652F8AF
:108E60002400FBF788FA81460E4850F82410284663
:108E7000FBF784FA82464946FBF7B5FA07462046D7
:108E8000FBF780FC80463946FBF723FA0646084983
:108E9000FBF771FAC2E7601CC4B2A02CCBDB05481B
:108EA000BCE7000038010020000048C20000DC429E
:108EB00000004842008088C310B513480068401C79
:108EC000114908601148B0F83D0509684843FA287F
:108ED00002D200BF012010BD00200B490860FEF740
:108EE00003FD68B900BF00BF09A0FDF739FD40F2DE
:108EF0001D620B490BA0FDF733FD00BF0020EAE720
:108F000000BF0120E7E70000BC0300207D0B00202C
:108F100052657475726E206661696C65640000004C
:108F200057AD01085B25735D5B25645D0D0A00008C
:108F300007B590B0129870B900BF00BFF7A0FDF759
:108F40000FFD4FF48162F949F9A0FDF709FD00BF5B
:108F5000002013B000BD10980E9003F0C2B90E9817
:108F6000182819DC10990E98411A129850F821000F
:108F70000C90FBF743FCC2B20E980D9000EBD07042
:108F800041100D98A0EB41010E98401CA0EB410050
:108F9000EA490A5403F0A1B90E9840281CDB0E9848
:108FA000722819DC10990E98411A129850F8210075
:108FB0000C90FBF723FCC2B20E980D9000EBD07022
:108FC00041100D98A0EB41010E983F38A0EB4101F4
:108FD000DA481A304254DDE70E9880287DDB0E987F
:108FE000AA287ADC0E9880382A2877D2DFE800F0A9
:108FF000152535455565778797A7B7C7F5F3F2F17E
:10900000F0EFEEEDECEBEAE9E8E7E6E5E4E3E2E1D8
:10901000E0DFDEDDDCDBDAD9D8D710990E98411A13
:10902000129850F821000D90FBF7E8FBC3494978EE
:1090300060F30301C1484170D2E210990E98411AC1
:10904000129850F821000D90FBF7D8FBBB494978E6
:1090500060F30411B9484170C2E210990E98411AA8
:10906000129850F821000D90FBF7C8FBB3494978DE
:1090700060F30411B1484170B2E210990E98411AA0
:10908000129850F821000D90FBF7B8FBAB494978D6
:1090900060F30411A9484170A2E210990E98411A98
:1090A000129850F821000D90FBF7A8FBA3494978CE
:1090B00060F30411A148417092E210990E98411A90
:1090C000129850F821000D90FBF798FB9B494978C6
:1090D00060F304119948417082E282E270E21099D3
:1090E0000E98411A129850F821000D90FBF786FB5C
:1090F0009249497860F304119048417070E21099E8
:109100000E98411A129850F821000D90FBF776FB4B
:109110008A49497860F304118848417060E21099E7
:109120000E98411A129850F821000D90FBF766FB3B
:109130008249497860F304118048417050E21099E7
:109140000E98411A129850F821000D90FBF756FB2B
:109150007A49497860F304117848417040E21099E7
:109160000E98411A129850F821000D90FBF746FB1B
:109170007249497860F304117048417030E21099E7
:109180000E98411A129850F821000D90FBF736FB0B
:109190006A49497860F304116848417020E2FFE1B0
:1091A000EEE1DDE1CCE1BBE1AAE199E188E177E123
:1091B00066E155E144E133E122E111E100E1EFE054
:1091C000DEE0CDE0BCE098E087E076E065E054E0EA
:1091D00043E032E021E010E0FFE710990E98411AD9
:1091E000129850F821000D90FBF708FB534949787D
:1091F00060F3041151484170F2E110990E98411A40
:10920000129850F821000D90FBF7F8FA4B49497875
:1092100060F3041149484170E2E110990E98411A37
:10922000129850F821000D90FBF7E8FA434949786D
:1092300060F3041141484170D2E110990E98411A2F
:10924000129850F821000D90FBF7D8FA3B49497865
:1092500060F3041139484170C2E110990E98411A27
:10926000129850F821000D90FBF7C8FA334949785D
:1092700060F3041131484170B2E110990E98411A1F
:10928000129850F821000D90FBF7B8FA2B49497855
:1092900060F3041129484170A2E110990E98411A17
:1092A000129850F821000D90FBF7A8FA234949784D
:1092B00060F304112148417092E110990E98411A0F
:1092C000129850F821000D90FBF798FA1B49497845
:1092D00060F304111948417082E110990E98411A07
:1092E000129850F821000D90FBF788FA134949783D
:1092F00060F304111148417072E110990E98411AFF
:10930000129850F821000D90FBF778FA0B49497834
:1093100060F304110948417062E100005265747500
:10932000726E206661696C65640000002DAD0108F5
:109330005B25735D5B25645D0D0A0000840A0020D7
:1093400010990E98411A129850F821000D90FBF7D1
:1093500055FAFC49497860F30411FA4841703FE13D
:1093600010990E98411A129850F821000D90FBF7B1
:1093700045FAF449497860F30411F24841702FE14D
:1093800010990E98411A129850F821000D90FBF791
:1093900035FAEC49497860F30411EA4841701FE15D
:1093A00010990E98411A129850F821000D90FBF771
:1093B00025FAE449497860F30411E24841700FE16D
:1093C00010990E98411A129850F821000D90FBF751
:1093D00015FADC49497860F30411DA484170FFE07E
:1093E00010990E98411A129850F821000D90FBF731
:1093F00005FAD449497860F30411D2484170EFE08E
:1094000010990E98411A129850F821000D90FBF710
:10941000F5F9CC49497860F30411CA484170DFE09E
:1094200010990E98411A129850F821000D90FBF7F0
:10943000E5F9C449497860F30411C2484170CFE0AE
:1094400010990E98411A129850F821000D90FBF7D0
:10945000D5F9BC49497860F30411BA484170BFE0BE
:1094600010990E98411A129850F821000D90FBF7B0
:10947000C5F9B449497860F30411B2484170AFE0CE
:1094800010990E98411A129850F821000D90FBF790
:10949000B5F9AC49497860F30411AA4841709FE0DE
:1094A00010990E98411A129850F821000D90FBF770
:1094B000A5F9A449497860F30411A24841708FE0EE
:1094C00010990E98411A129850F821000D90FBF750
:1094D00095F99C49497860F304119A4841707FE0FE
:1094E00010990E98411A129850F821000D90FBF730
:1094F00085F99449497860F30411924841706FE00E
:1095000010990E98411A129850F821000D90FBF70F
:1095100075F98C49497860F304118A4841705FE01D
:1095200010990E98411A129850F821000D90FBF7EF
:1095300065F98449497860F30411824841704FE02D
:1095400010990E98411A129850F821000D90FBF7CF
:1095500055F97C49497860F304117A4841703FE03D
:1095600010990E98411A129850F821000D90FBF7AF
:1095700045F97449497860F30411724841702FE04D
:1095800010990E98411A129850F821000D90FBF78F
:1095900035F96C49497860F304116A4841701FE05D
:1095A00010990E98411A129850F821000D90FBF76F
:1095B00025F96449497860F30411624841700FE06D
:1095C00000BF00BFAFF2AC20FDF7CAF940F23B424A
:1095D0005D49AFF2A420FDF7C3F900BF0020B8E455
:1095E000D8E40E98C0287ADB0E98B0F5817F76DA41
:1095F0000E98C038412873D2DFE800F02131415184
:1096000061738393A87272727272727272727272E2
:109610007272727272727272C1F0FDEDECEBEAE975
:10962000E8E7E6E5E4E3E2E1E0DFDEDDDCDBDAD932
:10963000D8D7D6D5D4D3D2D1D07272CFCE0010998C
:109640000E98411A129850F821000D90FBF7D6F8A9
:109650003C49C97E60F300013A48C176D6E21099D0
:109660000E98411A129850F821000D90FBF7C6F899
:109670003449C97E60F341013248C176C6E210998F
:109680000E98411A129850F821000D90FBF7B6F889
:109690002C49C97E60F382012A48C176B6E210994E
:1096A0000E98411A129850F821000D90FBF7A6F879
:1096B0002449C97E60F3C3012248C176A6E210990D
:1096C0000E98411A129850F821000D90FBF796F869
:1096D0001C49C97E60F304111A48C17696E296E2ED
:1096E00084E210990E98411A129850F821000D90BA
:1096F000FBF784F81349C97E60F345111148C17620
:1097000084E210990E98411A129850F821000D9099
:10971000FBF774F80B49C97E60F386110948C176DE
:1097200074E210990E98411A129850F821000D9089
:10973000FBF764F80349C97E60F3C7110148C1769D
:1097400064E20000840A00202DAD010810990E98F3
:10975000411A129850F821000D90FBF74FF8000ABB
:10976000FD49887610990E98411A129850F82100F8
:109770000D90FBF743F8C1B2F748417746E21099E4
:109780000E98411A129850F821000D90FBF736F808
:1097900081B2F148018439E216E203E2F0E1DDE151
:1097A000C7E1B4E1A1E18EE17BE168E155E142E18D
:1097B0002FE11CE10DE1FEE0EFE0E0E0D1E0C3E0ED
:1097C000B5E0A7E099E08BE07DE06FE061E053E079
:1097D00045E037E029E01BE00DE0FFE710990E9827
:1097E000411A129850F821000D90FBF707F881B24A
:1097F000D94841840AE210990E98411A129850F8FB
:1098000021000D90FAF7FAFF81B2D3488184FDE17F
:1098100010990E98411A129850F821000D90FAF7FD
:10982000EDFF01B2CC48C184F0E110990E98411AC5
:10983000129850F821000D90FAF7C7FF01B2C64800
:109840000185E3E110990E98411A129850F8210011
:109850000D90FAF7BAFF01B2BF484185D6E11099E1
:109860000E98411A129850F821000D90FAF7ADFFAA
:1098700001B2B9488185C9E110990E98411A129830
:1098800050F821000D90FAF7A0FF01B2B248C1854F
:10989000BCE110990E98411A129850F821000D90D1
:1098A000FAF793FF01B2AC480186AFE110990E9828
:1098B000411A129850F821000D90FAF786FF01B274
:1098C000A5484186A2E110990E98411A129850F8C5
:1098D00021000D90FAF779FF01B29F48818695E14A
:1098E00010990E98411A129850F821000D90FAF72D
:1098F0006CFF01B29848C18688E110990E98411A10
:10990000129850F821000D90FAF75FFF01B29248CB
:1099100001877BE110990E98411A129850F82100A6
:109920000D90FAF752FF01B28B4841876EE1109912
:109930000E98411A129850F821000D90FAF745FF41
:1099400001B28548818761E110990E98411A1298F9
:1099500050F821000D90FAF738FF01B27E48C18718
:1099600054E110990E98411A129850F821000D9068
:10997000FAF72BFF01B27848A0F8401046E11099A1
:109980000E98411A129850F821000D90FAF71DFF19
:1099900001B27148A0F8421038E110990E98411AAE
:1099A000129850F821000D90FAF70FFF01B26A48A3
:1099B000A0F844102AE110990E98411A129850F814
:1099C00021000D90FAF701FF01B26348A0F846109C
:1099D0001CE110990E98411A129850F821000D9030
:1099E000FAF7F3FE01B25C48A0F848100EE11099B6
:1099F0000E98411A129850F821000D90FAF7FEFEC9
:109A0000554991F84B1060F30001534880F84B1012
:109A1000FCE010990E98411A129850F821000D9010
:109A2000FAF7ECFE4C4991F84B1060F341014A48BB
:109A300080F84B10EAE010990E98411A129850F8ED
:109A400021000D90FAF7DAFE434991F84B1060F3CC
:109A50008201414880F84B10D8E010990E98411AC5
:109A6000129850F821000D90FAF7C8FE3A4991F883
:109A70004B1060F3C301384880F84B10C6E01099D2
:109A80000E98411A129850F821000D90FAF7B6FE80
:109A9000314991F84B1060F304112F4880F84B10B6
:109AA000B4E010990E98411A129850F821000D90C8
:109AB000FAF7A4FE284991F84B1060F345112648A7
:109AC00080F84B10A2E010990E98411A129850F8A5
:109AD00021000D90FAF792FE1F4991F84B1060F3A8
