:020000040800F2
:10400000F8B2002045410008356500088B5C0008C7
:104010003165000813560008256F000800000000F5
:10402000000000000000000000000000E969000836
:10403000015B00080000000089650008EB690008CA
:104040005F4100085F4100085F410008D566000835
:104050005F4100085F4100082D5B00085F410008D8
:10406000755B00085F4100085F410008115A0008B5
:104070005F4100085F4100085F4100085F410008A0
:104080005F4100085F4100085F4100085F41000890
:104090005F410008595700085F410008B95B0008FC
:1040A0005F4100085F4100085F4100085F41000870
:1040B0005D6B00085F4100085F4100085F41000838
:1040C0005F4100085F4100085F4100085F41000850
:1040D0005F4100085F4100085F4100085D6E000815
:1040E0005F4100085F4100085F4100085F41000830
:1040F0005F4100085F4100085F4100085F41000820
:104100005F4100085F4100085F4100085F4100080F
:104110005F4100085F4100085F4100085F410008FF
:104120005F4100085F4100085F4100085F410008EF
:10413000DFF80CD000F016FE0048004719E7010830
:10414000F8B200200648804706480047FEE7FEE731
:10415000FEE7FEE7FEE7FEE7FEE7FEE7FEE7FEE737
:10416000F569000831410008202A04DB203A00FAF2
:1041700002F1002070479140C2F1200320FA03F3BE
:10418000194390407047202A04DB203A21FA02F0BC
:104190000021704721FA02F3D040C2F12002914081
:1041A000084319467047000038B5D0E90221491E7E
:1041B00001EB410102EBC1014268C1EB011102EBCD
:1041C00081010268C1EB011102EB8102D0E90431E7
:1041D00001EB410103EB81013023A1F5527191FB09
:1041E000F3F4174D6C4302EBC41291FBF3F403FBA1
:1041F000141100921A2902DB124B1A4400920C226D
:1042000091FBF2F3104C6343009C04EBC313009347
:1042100091FBF2F302FB13110C4A08E0491E40F235
:10422000A324535C6343009C04EBC3130093002955
:10423000F4DC0146684600F027FC009838BD000019
:104240003F0C0F008051010067C20300E89B020889
:1042500040EA01039B0703D009E008C9121F08C008
:10426000042AFAD203E011F8013B00F8013B521E88
:10427000F9D27047D2B201E000F8012B491EFBD2FF
:1042800070470022F6E710B513460A460446194661
:10429000FFF7F0FF204610BD30B505462A460B4615
:1042A00012F8010B13F8014B08B1A042F8D01CB171
:1042B000002802D06D1CF1E7284630BDCAB2401E6E
:1042C00010F8011F8A4202D00029F9D1002070475E
:1042D000421C10F8011B0029FBD1801A704710B551
:1042E000002200E0521C835C8C5CA34201D1002BB5
:1042F000F8D1D8B2E1B2401A10BD30B50446002062
:10430000034600E05B1C934203D2E05CCD5C401BA3
:10431000F8D030BD70B5064602F03EFE0468054692
:104320000A220021304600F0F5FB2C6070BDF0B48D
:1043300080EA0102D40F4200B2EB410F02D20246E2
:10434000084611464A0042D0C30DDDB2C1F3C75240
:10435000AD1A202D35DAC1F3160141F4000204B183
:104360005242C5F1200602FA06F12A411044B3EB8D
:10437000D05F23D0C4B1012DA0EBC35009DCF0BC49
:104380004FF0004202EAC352DBB200F5000000F039
:1043900002BC400000F1807000EBC350A0F18070BF
:1043A00040EAD170490009E0490841EAC071A0EB38
:1043B000C35000F50000400800EBC350F0BC00F013
:1043C000E1BB6142012202EB4101001BF6E7F0BCB8
:1043D000704781F00041AAE780F00040A7E780EA3B
:1043E000010210B502F00043400022D04A001FD065
:1043F000010E01EB1261C0F35600C2F3560240F405
:10440000000042F40002A0FB022000047F391404E3
:1044100000D0401C50EA124001D44000491EC2B2F4
:104420000C0604EBD010401C4008802A02D003E0A8
:10443000002010BD20F00100002900DA0020184300
:1044400010BD30B480EA010202F0004530F00042B5
:1044500021F0004013D090B1C30DD40DC2F316016A
:10446000C0F31600E41A41F4000140F400027D3468
:10447000914201D3641C00E04900002C02DA30BCF8
:10448000002070474FF400000023914201D3891AA5
:10449000034340084FEA4101F7D151B1914202D1A3
:1044A0004FF0004105E002D24FF0010101E06FF052
:1044B000010103EBC450284430BC00F063BB2DE97C
:1044C000FE4F804681EA0300C00F0C46009021F0A9
:1044D000004123F00045B8EB0200A94105D2404657
:1044E000214690461C460B46024623F000401043EE
:1044F00047D0270DC7F30A00C3F30A510290401AB0
:10450000019040286BDAC3F3130040F4801B00983D
:10451000924620B10023D2EB030A63EB0B0B019808
:104520005946C0F140025046FFF71EFE06460D46B2
:1045300050465946019A00F08EFA10EB080061418E
:10454000002487EA115284EAE7731A4340D0009AA4
:1045500062B3019A012A4FEA075215DC001B61EB96
:1045600002014FF0004202EA0752CDE90042001C6E
:1045700041F5801132462B4600F04AFB03B0BDE8FE
:10458000F08F40462146F9E7001B61EB0201001C59
:1045900041F5801300185B412018A2F5001747EB86
:1045A000030140EAD570B6196D4111E06D084FEA7C
:1045B000360645EAC0754FEA0752001B61EB02015F
:1045C000001C41F5801149084FEA300000195141A3
:1045D00032462B4603B0BDE8F04F00F00ABB00980E
:1045E000012240000023D0EB020263EBE07300984D
:1045F00021464FEAE074B8EB000061EB0401E9E703
:1046000083F000435BE781F0004158E72DE9FE4F5E
:1046100081EA030404F0004421F0004100944FF0CB
:10462000000B23F0004350EA01045ED052EA030479
:104630005BD0C3F30A54C1F30A552C44A4F2F334FB
:104640000194A0FB0254C1F3130141F48011C3F3A0
:10465000130343F4801301FB024400FB034E840A5E
:10466000970A44EA815447EA8357A4FB07680295F6
:104670008D0A05FB07854FEA932C04FB0C54270594
:10468000029D4FEA065847EA1637B5EB08056EEB70
:10469000070C870E920E47EA811742EA8312A7FBA6
:1046A0000201B6EB0B0164EB00042B0D43EA0C3363
:1046B0005E1844EB1C50DA465146E7FB0201C5F395
:1046C00013044FEA0B3343EA14534FEA0432019CBC
:1046D00043EA0603A4F10C040294009CCDE900B463
:1046E00000F096FA03B0BDE8F08F00200146F9E72C
:1046F0002DE9F04D81EA030404F0004B21F0004560
:1047000014464FF0000A23F0004150EA050220D081
:1047100054EA01021DD0C5F30A570246C5F313033C
:10472000C1F31300C1F30A5640F4801543F480131B
:10473000A7EB0608101BD64608F2FD3873EB050000
:1047400002D308F1010801E092185B41B8F1000FB3
:1047500003DA00200146BDE8F08D00204FF48011FF
:10476000064684460EE0171B73EB050705D3121BA4
:1047700063EB050306434CEA010C49084FEA30009D
:1047800092185B4150EA0107EDD152EA030012D0C2
:1047900082EA040083EA0501084305D0101BAB41FF
:1047A00006D20122002306E000224FF0004302E07F
:1047B0006FF0010253101AEB06004CEB085110EB9E
:1047C0000A0041EB0B01BDE8F04D00F012BAC10F39
:1047D00080EAE0700844CA079623002100F0DBB9A4
:1047E00096230022114600F0D6B90EB5C10F80EA1B
:1047F000E0700844CA07002140F233438DE80E0000
:104800000A460B4600F004FA03B000BD0EB540F2B4
:10481000334102910021CDE900110A460B4600F018
:10482000F7F903B000BD00F0004220F00040C10DD8
:10483000C0F3160040F400007F2901DA0020704721
:10484000962903DCC1F19601C84001E09639884001
:10485000002AF4D04042704720F00040C10DC0F360
:10486000160040F400007F2901DA002070479629E5
:1048700003DCC1F19601C840704796398840704703
:10488000C1F30A5210B5C1F3130140F2FF3341F4F2
:1048900080119A4201DA002010BD40F233439A425F
:1048A000A2F2334203DC5242FFF76DFC10BD904090
:1048B00010BDC1F30A52C1F3130140F2FF3341F4BA
:1048C00080119A4202DA00200146704740F23343D9
:1048D0009A42A2F2334202DC5242FFF754BCFFF785
:1048E00043BC00F0004230F000400AD0C10D01F599
:1048F0006071C0F3160042EA0151C208400711433B
:10490000704700200146704730B5041E71F1000465
:1049100004DB4FF00044404264EB0101141E73F1CC
:10492000000405DB1C464FF00043524263EB0403D6
:104930008B4208BF824230BD30B5041E71F10004C5
:1049400004DB4FF00044404264EB0101141E73F19C
:10495000000405DB1C464FF00043524263EB0403A6
:10496000994208BF904230BD01F0004330B421F0BD
:10497000004150EA010206D00A0DA2F56072C1F3AF
:104980001301002A02DC30BC00207047440F44EAC7
:10499000C104C100E01830BC00EBC25000F0F2B816
:1049A000002801DBC0F10040002901DBC1F100411A
:1049B00081427047002801DBC0F10040002901DB83
:1049C000C1F100418842704730B50B4601460020D6
:1049D0002022012409E021FA02F59D4205D303FAC1
:1049E00002F5491B04FA02F52844151EA2F1010242
:1049F000F1DC30BD2DE9F05F0546002092469B4674
:104A000088460646814640241BE0284641464746E4
:104A10002246FFF7B8FB53465A46C01A914110D3BD
:104A2000114618462246FFF79FFB2D1A67EB010837
:104A30004F46224601200021FFF796FB17EB0009A5
:104A40004E41201EA4F10104DFDC484631462A46CF
:104A50004346BDE8F09F202A06DBCB17203A41FAF7
:104A600002F043EAE07306E041FA02F3D040C2F1FB
:104A7000200291400843194670470000014900F0A8
:104A800003B80000C882002010B500683C22B0FBCB
:104A9000F2F302FB1303B0FBF2F00B60B0FBF2F396
:104AA00002FB1303B0FBF2F018224B60B0FBF2F3F1
:104AB00002FB1303B0FBF2F0021D8B600723B2FB75
:104AC000F3F403FB1422800040F2B55300F66C307F
:104AD0008A61B0FBF3F2B0FBF3F403FB1400443241
:104AE00080084A61C8613B2802D3920700D0401C6D
:104AF0000022074C13460A61E25C824203D8801A06
:104B00005B1C0B61F8E7401CC860084610BD000044
:104B1000009C02082DE9F04791460F468046044666
:104B2000002614F8015B2DB100F02EF90068405DFD
:104B3000C007F6D12B2D02D02D2D18D0641E4A4669
:104B40003946204600F024F927B13968A14201D145
:104B5000C7F8008071054FF002040BD540420028D1
:104B600003DD02F019FA0460A007BDE8F08746F4FF
:104B70008066E4E70028F8DA02F00EFA04606FF0CD
:104B80000040F2E70029A8BF7047401C490008BF59
:104B900020F00100704710B4B0FA80FC00FA0CF06D
:104BA00050EA010404BF10BC704749B1CCF12004A5
:104BB00021FA04F411FA0CF118BF01212143084332
:104BC000A3EB0C01CB1D4FEA00614FEA102042BF5E
:104BD000002010BC704700EBC35010440029A4BF54
:104BE00010BC7047401C490008BF20F0010010BCF9
:104BF000704710B5141E73F1000408DA401C41F12F
:104C0000000192185B411A4301D120F0010010BD50
:104C10002DE9F04D92469B4611B1B1FA81F202E0C6
:104C2000B0FA80F220329046FFF79EFA04460F4613
:104C300040EA0A0041EA0B0153465A46084313D0A2
:104C4000114653EA010019D0C8F140025046FFF75F
:104C50009AFA05460E46504659464246FFF784FAF0
:104C6000084305D0012004E020463946BDE8F08D18
:104C70000020054346EAE0762C4337430A98630553
:104C8000E40AA0EB08000022FD0A44EA47540A3077
:104C900002D500200146E9E7010510196941DDE967
:104CA000084500196941BDE8F04DA2E770B521F053
:104CB000004303430CD0C1F30A550024D5EB04058F
:104CC00064EB0403D617AD1AB34102DB00200146A2
:104CD00070BD201841EB025170BD00002DE9F0417C
:104CE000054621F000400C46284309D0C4F30A5081
:104CF00040F23341884205DD28462146BDE8F08177
:104D00002846FBE740F2FE31884210DC0CDB4FEA1C
:104D1000043040EA155050EA053105D0104804F03F
:104D2000004101430020E9E700200146E6E7A0F248
:104D300033404642C6F1400228462146FFF714FAA6
:104D400007468846284621463246FFF71CFA434666
:104D50003A46FFF74EFF3246BDE8F041FFF704BA8E
:104D60000000F03F064C074D06E0E06840F001030C
:104D700094E8070098471034AC42F6D3FFF7DCF90B
:104D8000709D0208909D020800487047909C0208A0
:104D90002DE9F05F82460078002715468B460AF120
:104DA0000104B946302801D09DB113E014F8010B7D
:104DB0000127782803D0582801D045B10AE00DB169
:104DC000102D07D10027102514F8010B02E008254B
:104DD00000E00A250026B0460EE005FB080005FBB2
:104DE00006F1012701EB10461FFA80F8B6F5803F67
:104DF00000D3B94614F8010B294600F069F80028E1
:104E0000EBDABBF1000F05D00FB1641E00E0544691
:104E1000CBF80040B9F1000F06D002F0BDF8022136
:104E20000160C81EBDE8F09F48EA0640FAE72DE998
:104E3000F04D00231A461B1A8A4103DB002001466D
:104E4000BDE8F08DC1F30A52C1F3130141F480159E
:104E50004FF0000BD10702D100186D41521E002700
:104E6000044640F2FF11384601EB620A3E46804696
:104E7000024600204FF48011FFF785F9C2197141F5
:104E8000BB1846EB0100B4EB030C75EB000C04D32C
:104E9000E41A65EB000517460E46241908F10100D7
:104EA0006D4180463428E3DDF91946EB0600091B05
:104EB000A84103D24FF0FF32134601E0002213460F
:104EC0001BEB070046EB0A51BDE8F04DFFF791BE22
:104ED0003A2800D2303820F02002412A01D3A2F132
:104EE0003700884201D34FF0FF30704770B58C18FF
:104EF00010F8015B15F0070301D110F8013B2A11EE
:104F000006D110F8012B03E010F8016B01F8016BDA
:104F10005B1EF9D12B0705D40023521E0DD401F8D6
:104F2000013BFAE710F8013BCB1A921C03E013F89F
:104F3000015B01F8015B521EF9D5A142D8D30020D4
:104F400070BD00002DE9F04F97B00446DFF80C91DA
:104F5000434815904348149043481390C4F30B04FE
:104F60002046FFF73DFC83464FF08B41FFF769FA7F
:104F70008246FFF7B6FC07464FF066323B4BFFF721
:104F800045FB0546FFF7F0FC10904846FFF7A9FCEB
:104F9000CDE90A011098FFF7A4FC07464FF06632EE
:104FA000324BFFF730FB0546DDE90A23FFF7A0FB94
:104FB000CDE90E011098FFF794FCCDE90C01DDE975
:104FC0000E23FFF795FB8246FFF7CEFC1290139855
:104FD000FFF787FCCDE90A011498FFF782FC07462A
:104FE000884649461298FFF72CFA0190FFF779FCA2
:104FF000054619F0E3F982463A464346FFF778FB47
:10500000CDE904014FF07E501599FFF71AFA0546D5
:10501000FFF767FCCDE90201DDE90423FFF74FFA52
:1050200002460B46CDE9060100201149FFF760FB5F
:10503000CDE90801DDE90A23FFF7E2FA00220D4B72
:10504000CDE90C01FFF7DCFACDE90E01FFF78CFC8E
:105050001190119817B0BDE8F08F000000401C4679
:105060003313954300B056453393884366660A4030
:105070000000F03F0000E03F10B501F057F901F0EB
:105080006FF901F009F910BD10B5002400BF0BE065
:105090004FF4807131480EF0E1F900B106E00A20CA
:1050A00000F02FFD601CC4B2642CF1DB00BF642C47
:1050B0001EDB2B48006842F21071884205D2284856
:1050C000006800F57A70264908604FF48061254831
:1050D0000EF06CF9082124480EF068F900BF23A0F7
:1050E00001F022FF7A22294929A001F01DFF00BF0B
:1050F0001B48006842F22831884229D84FF4807159
:1051000016480EF0ABF948B924480078642808DA4C
:1051100022480078401C2149087002E000201F4905
:1051200008701E480078642817DB4FF480610D4832
:105130000EF03AF908210C480EF036F900BF18A01D
:1051400001F0F2FE8822114911A001F0EDFE04E009
:1051500003480068401E0249086010BD001001406D
:105160001000002000080140000C014035565F345B
:10517000412063697263756974206973206F766575
:1051800072776F726B696E670D0A000031770208E3
:105190005B25735D5B25645D0D0A00001400002033
:1051A00035565F3441206369726375697420697391
:1051B000206F70656E65640D0A00000010B5074829
:1051C0000068074908604FF4806106480EF0ECF86B
:1051D000082105480EF0E8F810BD0000980E0020E8
:1051E0002400002000080140000C014010B5002000
:1051F00021F06AFD22F062F801F0EEF800231A4671
:1052000019464FF4E13001F079FD01F0C7FDFFF7D9
:1052100033FF01F043FD01F068FA00F08FFE002437
:1052200005E000F093F800B905E0601C84B241F29B
:1052300088308442F5DB00BFFFF7C0FF4FF08040AD
:1052400022F0D8F801F0BEFA10BD000008B54021E8
:105250000F480EF0A9F80F4802F0D2FB00210E48CB
:1052600008F0A2FE002000906A460121C42004F04C
:105270009BF9022109480EF097F86A460121C520E2
:1052800004F092F9022102480EF090F808BD0000E7
:10529000000C0140002401400000024000100140C9
:1052A0007CB505462C0320208DF80000200C8DF8DD
:1052B0000100200A8DF80200E0B28DF8030000BF63
:1052C00000F028F80028FBD100F062F81021104807
:1052D0000EF06AF89DF8000021F034FF9DF80100FF
:1052E00021F030FF9DF8020021F02CFF9DF8030013
:1052F00021F028FF102106480EF058F8642008F02D
:10530000D9FD00BF00F006F80028FBD17CBD0000ED
:105310000008014038B50BA00068009010210A4831
:105320000EF042F89DF8000021F00CFF0446102119
:1053300005480EF03BF804F0010008B1022038BD2A
:105340000020FCE7050000000008014010B501F056
:1053500015FB00F003F8FFF7DDFF10BD08B50AA04C
:1053600000680090102109480EF01EF89DF800001A
:1053700021F0E8FE9DF8010021F0E4FE1021034831
:105380000EF014F808BD0000669900000008014006
:1053900008B50DA00068009000BFFFF7BBFF002814
:1053A000FBD1102109480DF0FFFF9DF8000021F00E
:1053B000C9FE102105480DF0F9FF00BFFFF7AAFF55
:1053C0000028FBD108BD00000600000000080140D5
:1053D00010B54FF4C4624B49002000F02BFE494841
:1053E000B0F8000120B14748B0F8000102281AD1F6
:1053F00003204449A1F8000108F088FA00BF42A048
:1054000001F092FD3822434943A001F08DFD00BF19
:105410004FF47A7008F04EFD01F092FB4FF47A7071
:1054200008F048FD10BD3748B0F8000101280BD145
:1054300003203449A1F8000108F068FA4FF4005144
:1054400038480DF0B3FFEDE74FF4005135480DF04B
:10545000ADFF00240BE0601CC4B2632C07DD01200B
:105460003149087003202749A1F8000105E0042113
:105470002C480DF0F3FF0028EDD000BF00240BE016
:10548000601CC4B2632C07DD082027490870032084
:105490001C49A1F8000106E04FF4805121480DF0AD
:1054A000DDFF0128ECD000BF00240BE0601CC4B27B
:1054B000632C07DD07201C49087003201149A1F85F
:1054C000000106E04FF4004118480DF0C7FF012825
:1054D000ECD000BF00240BE0601CC4B2632C07DDDD
:1054E00006201149087003200649A1F8000105E0D3
:1054F00001210E480DF0B2FF0128EDD000BF00BF22
:1055000090E700009D0F002073687574646F776EDC
:105510000D0A0000207702085B25735D5B25645D42
:105520000D0A0000001001400C000020000801409E
:1055300010B50446102C69D2DFE804F0080E141AE6
:1055400020262C32383E444A50565C6201214FF4EA
:10555000047007F03BFA5AE0012140F2112007F0F5
:1055600035FA54E0012140F2122007F02FFA4EE004
:10557000012140F2132007F029FA48E001214FF4FD
:10558000057007F023FA42E0012140F2152007F0F0
:105590001DFA3CE0012140F2162007F017FA36E030
:1055A000012140F2172007F011FA30E001214FF4F9
:1055B000027007F00BFA2AE0012140F2092007F0FF
:1055C00005FA24E0012140F20A2007F0FFF91EE06D
:1055D000012140F20B2007F0F9F918E001214FF406
:1055E000037007F0F3F912E0012140F20D2007F0FB
:1055F000EDF90CE0012140F20E2007F0E7F906E09A
:10560000012140F20F2007F0E1F900E000BF00BFE8
:1056100010BD00BFFEE7000010B540F2197021F088
:1056200097FC40F2026021F093FC4FF4C06021F03F
:105630008FFC4FF400630322482105480DF0B8FEAB
:105640004FF480530322182101480DF0B1FE10BD24
:105650000008014010B50446FFF7DEFF00F074F8C3
:10566000204600F007F81021014807F08EFD10BD1C
:105670000064004010B588B0044605A9002007F07A
:10568000A3FE6946012007F09FFE2E4807F054FC58
:1056900000208DF8180001208DF8190000208DF8E9
:1056A0001A0001208DF81B0000208DF81C008DF8D9
:1056B0001D008DF814008DF8150005208DF81600DA
:1056C00000208DF817007D2C03D13020ADF81E008E
:1056D00018E0FA2C03D11B20ADF81E0012E0B4F53F
:1056E000FA7F09D106208DF8160000208DF81700EA
:1056F0000C20ADF81E0005E0B4F57A7F02D106203B
:10570000ADF81E0005A90F4807F0AEFC0020ADF86B
:105710000A00ADF80C000120ADF80E000020ADF835
:105720000000ADF80200ADF80400ADF8060001205D
:10573000ADF808008DF81000684607F00DFC08B0C1
:1057400010BD00000064004010B500221146152075
:1057500019F02AF910BD0000F0B597B04C2104A84B
:10576000FEF78FFD04AA0121784807F012FD059885
:1057700010B90498009001E0059800909DF81A0077
:105780008DF804009DF804200DF11B010DF10500BA
:10579000FEF75EFD0098C0F31400B0F5606F19D0FD
:1057A0006B48B0F800046A4901EB00109DE88E00D8
:1057B0008EC06748B0F80004401C6549A1F8000499
:1057C0000846B0F80004402802DB0020A1F80004DD
:1057D00017B0F0BD012039E00DF10501095C302959
:1057E0000DDB0DF10501095C392908DC0DF105011E
:1057F000095C3039CAB20DF105010A5424E00DF1FB
:105800000501095C61290DDB0DF10501095C6629C3
:1058100008DC0DF10501095C5739CAB20DF105012B
:105820000A5411E00DF10501095C41290CDB0DF171
:105830000501095C462907DC0DF10501095C3739D2
:10584000CAB20DF105010A54411CC8B20828C3DBD5
:105850009DF8060004069DF8070004EB00549DF82F
:10586000080004EB00449DF8090004EB00349DF8A7
:105870000A0004EB00249DF80B0004EB00149DF8D3
:105880000C000444002011E0324951F82010A142DC
:1058900000D10DE02F4951F8201029B92D4941F8C8
:1058A00020402D49087003E0411CC8B20428EBDBFE
:1058B00000BF00250126002024E084B9264909788C
:1058C00088420CD12549D1F80510224A52F82020EF
:1058D000914215D9691CCDB2711CCEB210E01D49A0
:1058E00051F8201001B90FE01C49D1F80510194AF0
:1058F00052F82020914201D9691CCDB2711CCEB260
:10590000411CC8B20428D8DB00BF14484078A84224
:1059100010D0124A527840F2A3135A43104BD118B8
:1059200040F2A3126A43D01840F2A312FEF790FC93
:105930000A484570022E04DD0120094981F8E1067C
:1059400046E70648067000BF42E7000000640040DA
:10595000C4090020D86C0020C1040020CC6C0020B9
:10596000F85300202DE9F0410546884616460024EC
:1059700000201D494872B5F5006F03D20872084631
:10598000056004E00420184908720846456016487E
:105990008672002406E018F8041013480B300155F5
:1059A000601C84B2B442F6DB0F49104807F064FC77
:1059B0000746002401E0601C84B239460B4807F01A
:1059C00053FD18B940F6FF708442F4DB40F6FF70D7
:1059D000844205D100BF00BF00BF0020BDE8F081B8
:1059E00000BF0120FAE70000C80D0020006400405D
:1059F00010B50246002006E013784340034CE05CFB
:105A0000521C4B1ED9B20029F6DC10BD3400002018
:105A100010B5A2B002220021214808F0BDFB0028E9
:105A20003BD0842101A8FEF72CFC00201BE000EBFA
:105A300040011C4A52F8211001AA42F8201000EB44
:105A40004001184A02EB81014A680CA941F8202064
:105A500000EB4001134A02EB81018A6817A941F863
:105A60002020411CC8B20B28E1DB00240DE004EB30
:105A7000440101EBC40101AA02EB81000DF038FCE6
:105A8000094941F82400601CC4B2032CEFDB022258
:105A90000021034808F078FB00BF22B010BD0000D1
:105AA00000000240140E0020980E002000B58BB0BC
:105AB0001248808840F26C71884203DA40F2E47048
:105AC0000E4988800D488088A0F26C7005900B48C4
:105AD0008079401E04900948C079039007480078F7
:105AE000029006484078019004488078009068460B
:105AF000FEF75AFBA0F5E1400BB000BDBC0300204F
:105B0000704705E01A2100E0491E0029FCD1401E23
:105B10000028F7D1704705E01E2100E0491E00294A
:105B2000FCD1401E0028F7D17047000070B5002559
:105B3000002413E001210C480DF090FC01280BD14A
:105B4000681C85B2022D07DD002506200749087074
:105B500001200749A1F80001601C84B2642CE9DB34
:105B600001200DF0BFFB70BD000801400C000020BB
:105B70009D0F002070B50025002411E004210B4882
:105B80000DF06CFC50B9681C85B2022D06DD0025B5
:105B90000120074908700749A1F80001601C84B280
:105BA000642CEBDB04200DF09DFB70BD0010014068
:105BB0000C0000209D0F002010B54FF480600DF008
:105BC00091FB10BDF8B506460C461746B4F5800F9C
:105BD00001D30120F8BD00BFFFF79CFB0028FBD1DB
:105BE000FFF7D6FB02208DF80000200C8DF8010095
:105BF000200A8DF80200E0B28DF8030010210F4852
:105C00000DF0D2FB002504E01DF8050000F0AFFE0A
:105C10006D1C042DF8DB002503E0705D00F0A7FE8D
:105C20006D1CBD42F9DB102104480DF0BFFB00BF25
:105C3000FFF770FB0028FBD100BFCBE70008014055
:105C40002DE9F04107460E461446F0B2C0F58075C6
:105C5000AC4200D8A5B214E02A4631463846FFF7D8
:105C6000B1FF022008F026F9AC4200D10AE02F442F
:105C70002E44641BB4F5807F02D94FF4807500E098
:105C8000A5B2E9E700BFBDE8F08100BFFEE7000074
:105C90002DE9F0438FB005460E4617461C4677B9EE
:105CA00000BF00BF5DA001F03FF951225F4960A035
:105CB00001F03AF900BF00200FB0BDE8F083332CAB
:105CC0000CDD00BF00BF55A001F02EF9542257494A
:105CD00057A001F029F900BF0020EDE7002C7DDD81
:105CE0000EF0A0F86906080E0EF03EF870B90EF03E
:105CF000BBF800BF00BF49A001F016F95A224B497A
:105D00004BA001F011F900BF0020D5E730460EF09E
:105D10002BF870B90EF0A8F800BF00BF3FA001F04B
:105D200003F95E22414942A001F0FEF800BF0020C5
:105D3000C2E720460EF018F870B90EF095F800BFD3
:105D400000BF36A001F0F0F86222384938A001F017
:105D5000EBF800BF0020AFE70EF064F8012101EB83
:105D60004501C8B20EF000F870B90EF07DF800BF22
:105D700000BF2AA001F0D8F867222C492CA001F01E
:105D8000D3F800BF002097E76806000E8DF80400E6
:105D90008DF805608DF80640012000EB4500C0B28B
:105DA0008DF807004FF000080BE00DF0ADFF08F193
:105DB000040101AA50540DF071FF08F1010000F038
:105DC000FF08A045F1DB0DF09FFF81460DF080FF3D
:105DD0000EF04AF8201DC1B201A800E01BE0FFF759
:105DE00007FE48450CD000BF00BF0CA001F09CF896
:105DF00076220E490EA001F097F800BF00205BE765
:105E0000002005E0011D01AA515C3954411CC8B2B3
:105E1000A042F7DB00BF00BF01204DE7526574755B
:105E2000726E206661696C65640000004877020844
:105E30005B25735D5B25645D0D0A0000F8B50546C2
:105E40000C4616460DF0EEFF6906080E0DF08CFFAD
:105E500070B90EF009F800BF00BF30A001F064F87F
:105E60008D22324932A001F05FF800BF0020F8BD5A
:105E700020460DF079FF70B90DF0F6FF00BF00BFAE
:105E800026A001F051F89122284929A001F04CF8F0
:105E900000BF0020EBE730460DF066FF70B90DF053
:105EA000E3FF00BF00BF1DA001F03EF895221F498F
:105EB0001FA001F039F800BF0020D8E76806000EE7
:105EC0008DF800008DF801408DF8026003216846CE
:105ED000FFF78EFD8DF803009DF803000DF044FFE1
:105EE00070B90DF0C1FF00BF00BF0CA001F01CF89D
:105EF0009E220E490EA001F017F800BF0020B6E761
:105F00000DF0B2FF182C03DD012001F0E5FF02E0E7
:105F1000232001F0E1FF00BF0120A8E7526574755E
:105F2000726E206661696C65640000005877020833
:105F30005B25735D5B25645D0D0A000010B540F2C2
:105F4000036021F005F84FF48073032210210A4802
:105F50000DF02EFA4FF400730322142106480DF0C1
:105F600027FA4FF4007104480DF020FA4FF48071C5
:105F700001480DF01BFA10BD000C014010B540F2B5
:105F8000026020F0E5FF40F2036020F0E1FF40F204
:105F9000046020F0DDFF40F2056020F0D9FF4FF6ED
:105FA000FF730322002110480DF002FA4FF6FF7331
:105FB000032200210D480DF0FBF94FF6FF73032279
:105FC00000210B480DF0F4F94FF6FF730322002176
:105FD00008480DF0EDF940F21C7020F0B9FF18F000
:105FE00095FD18F061FD10BD00080140000C014056
:105FF00000100140001401400146CA1701EB9272E3
:106000009210A1EB820292B9642091FBF0F200FBA6
:10601000121050B94FF4C87091FBF0F200FB12104F
:1060200008B9012070470020FCE70120FAE70020B2
:10603000F8E70000F8B504460E46174603208DF831
:106040000000200C8DF80100200A8DF80200E0B25B
:106050008DF8030000BFFFF75DF90028FBD1102188
:106060000C480DF0A1F9002504E01DF8050000F032
:106070007EFC6D1C042DF8DB002503E000F072FCB3
:1060800070556D1CBD42F9DB102102480DF08EF9F0
:10609000F8BD0000000801402DE9F04F81B0ADF5DA
:1060A000805D8046894614464FEA18304FEA003A30
:1060B0004FEA183BC8F30B07C7F58055AC4200D830
:1060C00025464FF4805101A8FEF7DBF841E04FF47C
:1060D000805201A95046FFF7ADFF00260CE0B81929
:1060E00001A9085CFF2806D0B819085C19F8061049
:1060F000884200D002E0761CAE42F0D300BFAE4230
:1061000010D21FFA8BF0FFF7CBF801A9C8192A4665
:106110004946FEF79DF84FF48052514601A8FFF71B
:106120008FFD05E00AEB07012A464846FFF788FD88
:10613000AC4200D10EE00AF5805A0BF1010B0027AA
:10614000A944601B84B24FF48055B4F5805F00DA37
:106150002546BCE700BF01B00DF5805DBDE8F08FBE
:106160002DE9F04104460D4616461F46DDF818801D
:106170000DE03B46324629462046FFF789FD18B11F
:1061800000BF0120BDE8F081012001F0A5FEB8F1BB
:106190000000A8F1010101F0FF08EAD100BF00BF33
:1061A00005A000F0C1FED622074908A000F0BCFE01
:1061B00000BF0020E6E7000052657475726E20662D
:1061C00061696C6564000000767702085B25735D89
:1061D0005B25645D0D0A00001CB504469CB9402196
:1061E0000E480DF0E1F8C0200190FA2001F074FE95
:1061F0000520012301AAEA2100901A2000F010F8DE
:1062000000BF01201CBD402104480DF0CFF80A203A
:1062100001F062FE00BF0120F4E70000000C014025
:106220002DE9F0478046894615461E46089F002402
:106230001DE02A5D49464046FFF700FEA0B9781EE2
:10624000C7B26FB900BF00BF0BA000F06DFEBA224D
:106250000D490EA000F068FE00BF0020BDE8F087E9
:10626000012001F039FE00E000BF601CC4B2B4425E
:10627000DFDB00BF0120F1E752657475726E2066A6
:1062800061696C6564000000697702085B25735DD5
:106290005B25645D0D0A000010B5234801F0B0FBDA
:1062A000002001F01FFC012202211F4801F08DFC9B
:1062B000012211021C4801F088FC00211A4801F05B
:1062C00093FB03220121184801F06BFB07230122F5
:1062D0000021154801F014FC072302220121124875
:1062E00001F00EFC0723032202210F4801F008FCF5
:1062F0004FF4602201210C4801F0DBFB0122114622
:10630000094801F0B7FB084801F0ABFB012007F09A
:10631000D1FD054801F030FB034801F09DFB012150
:10632000014801F043FC10BD0024014010B540F2CB
:10633000026020F00DFE0E230322002107480DF01D
:1063400037F840F2096020F003FE4FF4A06020F01F
:10635000FFFD032020F094FC10BD00000008014068
:1063600000B587B00021194807F01EFE18480090BC
:1063700000208DF818001748029001208DF81900B0
:10638000400201908000039000208DF81A00212027
:1063900004904FF4005005906A4600210B4807F026
:1063A00043FE0021094807F0E6FD0021074807F0F9
:1063B000B0FD02220021054807F0CDFE0122114662
:1063C0000B2018F0F1FA07B000BD000000000240F9
:1063D0004C240140140E002010B540F2026020F061
:1063E000B7FD40F2036020F0B3FD40F2046020F0FE
:1063F000AFFD40F2056020F0ABFD4FF4C06020F02F
:10640000A7FD012144480DF031F848F201030322B1
:10641000282142480CF0CCFF4FF4E0630322102106
:106420003E480CF0C5FF1023032248213C480CF0E5
:10643000BFFF4FF480530322282139480CF0B8FFE6
:106440004AF2EB030322102135480CF0B1FF4FF460
:1064500092730322482133480CF0AAFF4FF4805373
:10646000032228212F480CF0A3FF42F60B0303223E
:1064700010212C480CF09CFF0423032210212A48F1
:106480000CF096FF4FF4006126480CF08FFF80213E
:1064900023480CF08BFF4FF4004121480CF084FF9F
:1064A00020211F480CF082FF01211E480CF07EFFC6
:1064B0004FF4807119480CF079FF012118480CF055
:1064C00073FF4FF4005116480CF06EFF0821154879
:1064D0000CF06CFF4FF4806110480CF067FF08214E
:1064E0000F480CF063FF4FF4C46210490020FFF71F
:1064F000A1FD0E48B0F8000120B10C48B0F8000131
:10650000022804D1022106480CF050FF03E00221CA
:1065100003480CF049FF10BD0002300000080140A4
:10652000000C014000100140001401409D0F0020AC
:1065300000BFFEE77047000010B5002807DA0A0721
:10654000140E054A00F00F031B1FD45403E00A0782
:10655000130E024A135410BD18ED00E000E400E0F1
:10656000BFF34F8F0648006800F4E0600549084318
:10657000001D03490860BFF34F8F00BFFEE7000016
:106580000CED00E00000FA05704710B540F21B70FA
:1065900020F0DEFC40F21C7020F0DAFC18F07AFAF1
:1065A000012006F08DFC4AF2A551884201D006F088
:1065B000BDFC4FF4006020F04BFC4FF4006020F075
:1065C00057FC4FF4807020F0F3FC40F60F0020F0F1
:1065D000BFFC20F0A7FD20F08BFD012020F080FD06
:1065E00020F086FD47F6FF7020F08CFD20F080FD46
:1065F00010BD00002DE9F04120F044FD3149086054
:10660000084600683049B0FBF1F440F2B277002C44
:1066100032D00EE03846FFF7EFFC30B1B4F5B77F6B
:1066200002D3A4F5B77402E006E0A4F26D14781C5E
:1066300087B2B4F5B67FEDD800BF24488780012526
:1066400017E022498888FFF7D7FC30B1022D04D12A
:106650001D2C01D31D3C0AE00DE0681E1C49085C9E
:10666000A04203D8681E085C241A00E003E0681CFE
:1066700085B21C2CE5D200BF14498D71601CC87115
:10668000104800681049B0FBF1F201FB12064FF40C
:106690006160B6FBF0F00D4908704FF46160B6FB25
:1066A000F0F100FB11603C21B0FBF1F007494870AC
:1066B0003C20B6FBF0F100FB116004498870BDE896
:1066C000F0810000C403002080510100BC030020C1
:1066D000F077020810B5012020F0F6FC20B101206F
:1066E00020F0EAFCFFF786FF10BD10B5FFF74DFF65
:1066F00000F002F8002010BD10B500220121032097
:1067000018F052F910BD00002DE9F05F06460F4663
:1067100091469A46DDF828B0002440F2B27840460F
:10672000864203DB40F63300864202DD0120BDE8ED
:10673000F09F0CE04046FFF75FFC10B11D48044499
:1067400001E01D48044408F101001FFA80F8B0453B
:10675000F0DB781EC7B2002510E01848405D40F21B
:10676000A321484304EBC0143046FFF745FC18B1A1
:10677000012D01D112480444681CC5B2BD42ECDBB6
:10678000A9F1010040F2A321484304EBC014CAEB75
:106790004A10C0EB0A2004EB0014CBEB0B1004EB07
:1067A00080040B98044420F0A3FC204620F074FCE5
:1067B0000020BCE70085E2018033E101F0770208A8
:1067C000805101001CB5012006F07AFB4AF2A55168
:1067D00088421ED001200F490870009003460246EF
:1067E0000146019040F2E770FFF78EFF18F052F972
:1067F0004AF2A551012006F07FFB18F041F900BFD5
:1068000005A000F091FBA2220C490DA000F08CFB2A
:1068100000BF1CBDC80300200D0A2054696D65200F
:10682000696E697469616C697A6174696F6E2063FD
:106830006F6D706C65746564200D0A00FC7702084A
:106840005B25735D5B25645D0D0A00001CB5C020EF
:1068500001902949D1F8A3002849FEF7A1F80DD0ED
:106860002549D1F8A7002549FEF79AF806D0224914
:10687000D1F8AB002149FEF793F80DD10520012393
:1068800001AAEA2100901A20FFF7CAFC012080F338
:10689000108800BFFFF764FE002429E01649D1F8F4
:1068A000F3001749FEF786F806D31349D1F8F30031
:1068B0001449FEF775F80DD20520012301AAEA213B
:1068C00000901A20FFF7ACFCFA2007F0F3FA01F071
:1068D00015FB0BE0084AD2F8F3100B4AD2F8320449
:1068E000FDF777FD0849C1F8320403E0601CC4B22B
:1068F0000A2CD3DB00BF1CBDA40E00200000DC422C
:106900000050C3470050C3C79D0F00201CB5C020D6
:1069100001901249D1F8A3001149FEF741F80DD0BA
:106920000E49D1F8A7000E49FEF73AF806D00B49F8
:10693000D1F8AB000A49FEF733F80DD10520012349
:1069400001AAEA2100901A20FFF76AFC012080F3D7
:10695000108800BFFFF704FE1CBD0000A40E00203D
:106960000000DC4210B5FF2020F0ECFB10BD10B59C
:106970000446204620F0E6FB10BD000010B540F2B2
:10698000026020F0E5FA40F2046020F0E1FAB02362
:106990000322102112480CF00BFD40230322042196
:1069A0000F480CF005FD4FF40473032210210D482D
:1069B0000CF0FEFC10210B480CF0F8FC4FF40071B9
:1069C00008480CF0F3FC102105480CF0EFFC2021E6
:1069D00003480CF0EBFC802101480CF0E7FC10BDF3
:1069E0000008014000100140704710B507F06CFA34
:1069F00010BD000008B53048006840F001002E4985
:106A0000086000BF2C48006800F002000028F9D0A0
:106A100000BF2948406840F08000274948600020B6
:106A2000009002E00098401C009000985028F9D394
:106A30002148406840F090001F49486000200090C5
:106A400002E00098401C009000985028F9D300BF45
:106A50001948406820F0030017494860084600685C
:106A6000164908401449086008464068144908401F
:106A70001149486008460068104908400E490860FE
:106A80000846006820F480200860084640680D49E8
:106A90000840094948600846006808490840064916
:106AA00008604FF41F00886020F004FC00214FF0C4
:106AB000006017F0D9FF08BD00100240FFFFF6FE8E
:106AC0000C00FFE8FFFF00F70EB500200290022146
:106AD00016480CF069FC02AA0121C42002F064FDF2
:106AE00002AA0121C52002F05FFD11A103C9CDE971
:106AF00000010621684600F093F94FF4FA7007F0A0
:106B0000D9F9012080F3108800BF00BFBFF34F8F79
:106B10000948006800F4E06008490843001D064980
:106B20000860BFF34F8F00BF00BFFEE700100140B9
:106B30000A0B0C0D0E0F00000CED00E00000FA0532
:106B400010B54FF4006104480CF02EFC642007F0EF
:106B5000B1F9FFF713FA10BD0010014010B5012183
:106B6000880720F04CFC012044490870444890F804
:106B7000E10606287DD14348008843490880022168
:106B8000424807F08DFBC0F596603E4908803E48BC
:106B900000880988884212D13A48008800280EDD12
:106BA0003B480088401C3A49088008460088642811
:106BB00008DD0020088001203649087002E000202E
:106BC000334908802F480088AA2828DA30484088AE
:106BD000401C2F49488008464088C82822DD0020F4
:106BE000488088800320264981F8E10600202A4950
:106BF0000870284908700221244807F071F9022220
:106C00001146224807F008FA4FF4966202211F4805
:106C100007F033FB02211D4807F07BF902E000205A
:106C20001B4948801A488088401C194988800846BA
:106C30008088B0F5166F1FDD002088800320104982
:106C400081F8E106002014490870124908700221F9
:106C50000E4807F045F9022211460C4807F0DCF90E
:106C60004FF496620221094807F007FB022107480A
:106C700000E001E007F04DF910BD00001600002013
:106C8000F8530020200000201E00002000000240D9
:106C900018000020BD040020BE0400201FB54FF4E2
:106CA000E06020F055F94FF0804020F035FB6B207C
:106CB000ADF800000020ADF80200ADF804004CF281
:106CC0004F3002900020ADF80C008DF80E006946A0
:106CD0004FF0804020F096FB4FF4C06017F0BAFEF2
:106CE000012200211C2017F05FFE0121880720F0FF
:106CF000F9FB4FF0804020F009FB1FBD2DE9F0416A
:106D000004460F4615461E46224820F041FC40F23C
:106D1000036020F01DF94FF48063032218211E4800
:106D20000CF046FB4FF40063032204211A480CF0D8
:106D30003FFB40F2127020F00BF900221146272091
:106D400017F032FE40F20531124820F087FC4FF474
:106D50004171104820F082FC21460E4820F0C6FB0D
:106D600031460C4820F0ACFC39460A4820F0C8FCFB
:106D70002946084820F0B4FC0821064820F0B8FC59
:106D80000421044820F0A4FC024820F053FCBDE894
:106D9000F081000000480040000C014000B587B0C1
:106DA0004FF4A06020F0D4F802211A4807F0FCF854
:106DB000684607F057FA00208DF81A00164802902E
:106DC00001208DF81900002003904FF49660049084
:106DD0001248009000208DF8180003904FF44050A6
:106DE00005906A4602210B4807F01EF90221094866
:106DF00007F0A8F80221074807F00FFA40210748DA
:106E0000001F20F00DFC0221024807F082F807B0B5
:106E100000BD0000000002401205002004480040B0
:106E200070B505460E46002404E0285D00F006F823
:106E3000601C84B2B442F8DB70BD000010B504469B
:106E40002146054820F09FFB00BF0721024820F0A3
:106E5000F6FB0028F9D010BD0048004010B52949C4
:106E6000294820F011FC18B12649274820F003FCDE
:106E70002649254820F008FCB8B32449224820F0D0
:106E8000FAFB214820F07AFB2148007818B901204C
:106E90002049087029E000201E49087002211E4880
:106EA00007F0FEF9C0F596601C4908800846008886
:106EB000B0F57F7F07DD08460088B0F5966F02DAEF
:106EC0000120144908701548807804280DD1134812
:106ED000C078012809D11148007930B90F484079AC
:106EE000FF2802D101200B4908700D49064820F007
:106EF000CBFB30B10A49044820F0BDFB024820F02A
:106F00003DFB10BD050305000048004004030400DC
:106F1000BE040020BD040020000002401005002037
:106F20000503030000BFFEE70FB4054B10B503A92E
:106F3000044A029800F084F910BC5DF814FB0000CC
:106F400039330108080500200FB4084B10B504A917
:106F500002AA039800F074F9044602A9002000F088
:106F600006FD204610BC5DF814FB00006F79000898
:106F7000490050EAC12018BF04204A0D18BF40F054
:106F8000010040F2FF72B2EB515F08BF40F0020017
:106F9000012808BF05207047004870470C050020F5
:106FA0002DE9F0414F1E00EBC7010446D1E9000175
:106FB00015461E4637F006020DD02A463346FDF729
:106FC00025FB7F1E04EBC703D3E90023FDF777FA07
:106FD00037F00602F1D1022F25D0042F13D0062F4F
:106FE00018BFBDE8F0812A463346FDF70FFBD4E910
:106FF0000A23FDF764FA2A463346FDF707FBD4E976
:107000000823FDF75CFA2A463346FDF7FFFAD4E978
:107010000623FDF754FA2A463346FDF7F7FAD4E97A
:107020000423FDF74CFA2A463346FDF7EFFAD4E97C
:107030000223FDF744FA2A463346FDF7E7FAD4E97E
:107040000023BDE8F041FDF73ABA000000221346E4
:1070500010460149FDF74CBB0000F03F0122FDF74F
:1070600025BEFDF72CBA0022134610461146FDF747
:107070003FBB40F2013200204FF0E041FDF716BE69
:10708000024A00201107FDF711BE000001FDFFFFBD
:1070900002E008C8121F08C1002AFAD170477047E1
:1070A000002001E001C1121F002AFBD1704700003F
:1070B00001490860704700000C0500202DE9FF5FC2
:1070C00082B00021DDE90430020DDDF840B0034359
:1070D00018D044F61050A2F2FF3242431514119812
:1070E00001281FD0A5EB0B00401C5FEA000A4FF0FF
:1070F00000064E4FDFF83891B046504615D5CAF11C
:10710000000413E0119801244AA3012801D16FEA79
:107110000B010298119AC0E90031C0E9024206B0A1
:10712000BDE8F09FCBF10000DFE704460021404AB4
:10713000491842EB0450CDE9001012E0E00707D0F7
:1071400032463B4640464946FDF760FA804689464E
:1071500032463B4610461946FDF758FA06460F469A
:107160006410002CEAD1DDE90401DDE90023BAF165
:10717000000F06DAFDF74AFA42464B46FDF746FA9B
:1071800005E0FDF7B5FA42464B46FDF7B1FA044675
:107190000E460022284BFDF7CFFB03D84FF0FF30FF
:1071A000014607E00022254B20463146FDF787F9CE
:1071B000FDF77FFB102409E0002C0ADB0A220023E4
:1071C000FDF718FC039B30321A55641E50EA010289
:1071D000F2D1641C039AC4F111031444119A012AD8
:1071E00003D0012208430DD10AE0084304D0002057
:1071F0004FF0110B119072E7A3EB0B056D1E0DE024
:107200005B4504DD4FF0000205F1010504E003DAFF
:107210004FF00002A5F10105002AECD00298119967
:10722000C0E90231C0E9004579E7000000001440E0
:107230000000F03F300000000000F0430000E03F9D
:107240002DE9FF4F95B09B468946064600250FE283
:10725000252877D100242746F84A0121059400E02B
:10726000044316F8013F203B01FA03F01042F7D126
:1072700030782A2811D06FF02F033078A0F1300237
:10728000092A16D8059A44F0020402EB820203EBA5
:1072900042021044761C0590EFE759F8042B059242
:1072A000002A03DA504244F40054059044F00204EA
:1072B000761C30782E2816D116F8010F44F00404FD
:1072C0002A280DD06FF02F023078A0F13003092B5F
:1072D00009D807EB870302EB4303C718761CF3E7D3
:1072E00059F8047B761C30786C280FD006DC4C28CB
:1072F00017D068280DD06A2814D104E0742810D063
:107300007A280FD10DE044F400140AE044F480140C
:1073100001E044F440147278824202D104F58014F2
:10732000761C761C307866280BD013DC582877D072
:1073300009DC002875D04528F6D04628F4D0472827
:107340001AD19DE118E0632835D0642879D06528EA
:1073500012D195E1702873D008DC6728F1D0692834
:107360006FD06E280DD06F2806D1B5E073282CD0D1
:10737000752875D0782874D05A46179990476D1C97
:1073800075E1C4F30250022809D003280DD0D9F8C2
:10739000001004280DD00D6009F1040967E1D9F847
:1073A0000010EA17C1E90052F6E7D9F800100D8085
:1073B000F2E70D70F0E719F8041B8DF800100020BB
:1073C0008DF80100EA46012003E059F804AB4FF0C4
:1073D000FF3061074FF0000102D40DE008F1010118
:1073E0008846B9420FDA8045F8DB1AF80810002900
:1073F000F4D108E008F1010188468142FADB1AF86D
:1074000008100029F6D105985B46A0EB0807214635
:107410003846179A00F094FA284400EB080507E074
:107420004DE029E10DE01AF8010B5A4617999047F3
:10743000B8F10108F7D25B4621463846179A13E1A6
:1074400042E00A220092C4F302524FF0000A022ADC
:1074500008D059F804CB032A4FEAEC710AD00DE0AA
:1074600029E02AE009F1070121F00702F2E802C150
:10747000914609E00FFA8CFC4FEAEC71042A03D123
:107480004FFA8CFC4FEAEC71002907DA0A4600211A
:10749000DCF1000C61EB02012D2202E0220504D593
:1074A0002B228DF80420012203E0E20701D02022E4
:1074B000F7E7904659E00A2102E010220DE0102182
:1074C0004FF0000A00910BE010224FF0000A44F048
:1074D00004040827009203E008224FF0000A0092FB
:1074E000C4F30252022A05D059F804CB0021032A22
:1074F00008D009E009F1070121F00702F2E802C112
:10750000914605E01FFA8CFC042A01D10CF0FF0C17
:107510004FF00008220728D5702806D0009B83F082
:10752000100353EA0A0305D00EE040228DF8042030
:10753000012208E05CEA010206D030228DF8042026
:107540008DF8050002229046009B83F0080353EA61
:107550000A030AD15CEA010201D1620705D5302293
:107560008DF804204FF001087F1E582804D034A065
:1075700003900EA802900DE036A0F9E7534660464E
:10758000009AFDF737FA84460398825C0298401E01
:10759000029002705CEA0100F0D1029806A9081A74
:1075A00000F1200A600702D524F4803400E00127AE
:1075B000574502DDA7EB0A0000E0002000EB0A01BE
:1075C000009005984144401A0590E00306D45B46BC
:1075D0002146179A059800F0B3F90544002706E004
:1075E00001A85A46C05D179990476D1C7F1C4745FE
:1075F000F6DBE0030CD55B462146179A059800F0B0
:107600009FF9054404E030205A46179990476D1CB5
:107610000099481E00900029F5DC08E002980299C4
:107620005A460078491C0291179990476D1CBAF18F
:107630000001AAF1010AF1DC65E10000092801005E
:1076400030313233343536373839616263646566D8
:10765000000000003031323334353637383941429A
:10766000434445460000000000F058F90544761CEC
:10767000307800287FF4ECAD19B02846BDE8F08FD3
:10768000620700D4062709F1070222F0070CFCE884
:107690000223E14603F000485FEA080C02D00FF233
:1076A000702C0DE05FEA045C02D50FF2682C07E055
:1076B0005FEAC47C02D00FF2602C01E0AFF2700CE4
:1076C0004FF0FF3823F00043CDF850C065280CD0B0
:1076D00006DC452809D046281DD047283DD13DE08D
:1076E000662818D067287ED138E00021112F01DBF1
:1076F000112000E0781CCDE9000106A90EA8FFF7D3
:10770000DDFCDDE90F010E9A03910021009207F1E3
:10771000010A04914DE04FF000400097CDE90110BF
:1077200006A90EA8FFF7CAFCDDE90F0203920E9B23
:1077300011990022DDF80CA00093049211B9791C74
:1077400000EB010AB7EB0A0004D4C0F1FF3007F1E7
:10775000010A0490AAEB0700019044E0012F00DA2F
:1077600001270021112F01DD112000E03846CDE96D
:10777000000106A90EA8FFF7A1FCDDE90F010E9A92
:107780000391002104910092BA4621070CD4039979
:10779000514500DA8A46BAF1010F05DD009AAAF1D7
:1077A0000101515C302908D0B84202DA10F1040F0F
:1077B00006DA0121CDE9011015E0AAF10101E9E79E
:1077C000002805DC049901440491AAEB000102E0C1
:1077D000411C514500DD8A460499401A401C019025
:1077E0004FF000400290200704D40198504501DB7F
:1077F000CDF8048000208DF84F0002980DF14F075E
:10780000B0F1004F25D02B200E9002984FF00208C7
:1078100000280CDA404202902D200E9007E00A2149
:107820000298FDF7D1F83031029007F8011DB8F148
:107830000001A8F10108F2DC02980028EFD1791EBE
:107840000E980870307800F0200040F0450007F8EE
:10785000020D12A8C01B00F107081498007800B1AF
:10786000012000EB0A01019801EBE0710598414409
:10787000401A401E0590E00306D45B462146179A45
:10788000059800F05DF805441498007818B15A4640
:10789000179990476D1CE00324D55B462146179A43
:1078A000059800F04DF805441CE00498002807DB1B
:1078B000DDE90301884203DD0098405C179901E08F
:1078C000179930205A469047049805F10105401C4D
:1078D00004900198401E019004D12E205A46179919
:1078E00090476D1CBAF10001AAF1010ADDDC05E048
:1078F00017F8010B5A46179990476D1CB8F1000113
:10790000A8F10108F4DC5B462146179A0598ABE61E
:107910002D0000002B000000200000002DE9F041A8
:10792000044600251E461746880404D405E039465F
:107930002020B0476D1C641EF9D52846BDE8F081B3
:107940002DE9F041044600251E469046C80301D5A6
:10795000302700E02027880404D505E0414638465A
:10796000B0476D1C641EF9D52846BDE8F0810A6851
:10797000531C0B6010707047816841F008018160F2
:1079800000BF816801F008010029FAD1816841F047
:107990000401816000BF816801F004010029FAD16F
:1079A000704730B5012902D002291AD10CE0C36A10
:1079B00023F47003C362C36A541E4FF4700505EAD2
:1079C00004542343C3620DE0836B23F440138363A9
:1079D000836B541E4FF4401505EA0454234383631C
:1079E00000E000BF00BF30BD21B1826842F40062F8
:1079F000826003E0826822F40062826070470000C7
:107A000010B504461348204430B1B0F5806F0CD057
:107A1000B0F5C05F1BD111E040F209301FF0B8FA99
:107A200040F209301FF0A4FA12E040F20A301FF0D1
:107A3000AFFA40F20A301FF09BFA09E040F20F3033
:107A40001FF0A6FA40F20F301FF092FA00E000BFDC
:107A500000BF10BD00DCFEBF816841F48071816011
:107A60007047816801F0010119B9816841F0010195
:107A70008160704772B101F001031BB1836843F468
:107A80008013836001F0020393B1836843F40043E1
:107A900083600DE001F001031BB1836823F48013C0
:107AA000836001F002031BB1836823F40043836009
:107AB0007047012902D0022910D107E0836823F41E
:107AC0006023836083681343836008E0836823F442
:107AD000E043836083681343836000E000BF00BF1E
:107AE000704700000549096821F47021034A1160BC
:107AF00011460968014311607047000004240140E9
:107B0000F0B51D4606290CDA436B01EB81071F26F1
:107B1000BE40B34301EB810602FA06F633434363EA
:107B200022E00C290EDA036B8E1F06EB86071F2658
:107B3000BE40B3438E1F06EB860602FA06F63343B9
:107B4000036311E010290FDAC36AA1F10C0606EBFA
:107B500086071F26BE40B343A1F10C0606EB86063E
:107B600002FA06F63343C3620A2A0CDA046902EB0E
:107B700042070726BE40B44302EB420605FA06F66A
:107B80003443046111E0122A0FDAC468A2F10A0634
:107B900006EB46070726BE40B443A2F10A0606EBF1
:107BA000460605FA06F63443C460F0BD01F0010252
:107BB0001AB1826842F48002826001F002021AB1B6
:107BC000826842F4001282607047AAB101F48073A7
:107BD0001BB1436843F48073436001F480631BB1BD
:107BE000436843F48063436001F00203CBB18368D0
:107BF00043F00203836014E001F480731BB1436817
:107C000023F48073436001F480631BB1436823F461
:107C10008063436001F002031BB1836823F0020319
:107C2000836070472DE9F04F8BB082460AF0010067
:107C300000284AD0002427E0994901EB8401086814
:107C40009849FCF7ADFE07D3954901EB840108681C
:107C50009549FCF7AFFE00D214E0914800EB840098
:107C600001689248FCF7B5FB0546914800EB84009B
:107C700001682846FCF75BFB01468D4800EB840059
:107C8000016000BF601CC4B2032CD5DB0021894811
:107C9000C0F8261400240DE0854A02EB8402116826
:107CA000844AD2F82604FCF742FB8249C1F8260434
:107CB000601CC4B2032CEFDB7E49D1F826047E4958
:107CC000FCF7BFFB7B49C1F826040AF0020058B15B
:107CD000734AA33AD2F8AF10764AD2F82E04FCF7D2
:107CE00078FB7449C1F82E040AF00400002851D032
:107CF0007048D0F82A140020FCF752FE04D14FF04F
:107D00007E516C48C0F82A146C49497840F2A3129D
:107D100051436B4A1144D1F860016449FCF759FBA7
:107D20008346FCF7DEFD674A674BCDE90001FCF7AF
:107D30006DFC0022654BCDE90201FCF7C0FB5D4AFA
:107D4000CDE90401D2F82E14554AA33AD2F8AF0077
:107D5000FCF73FFB8346FCF7C4FD8046DDE90423C6
:107D6000FCF7C6FC06460022594BFCF7C1FCCDE9E6
:107D700008015049D1F82A04FCF7B3FDCDE906010A
:107D8000DDE90823FCF7B4FC0446FCF7EDFD4949A6
:107D9000C1F82A040AF0080058B1414AA33AD2F8BF
:107DA000F310444AD2F83204FCF713FB4149C1F8FE
:107DB00032040AF0200080B3002428E03C481C3044
:107DC00000EB840001680020FCF7EAFD06D14FF0CB
:107DD0007E5137481C3000EB84000160304910317F
:107DE00001EB840108683B49FCF72BFB0546304951
:107DF0001C3101EB840108682946FCF722FB01468F
:107E00002B481C3000EB84000160601CC4B2244885
:107E1000A338B0F84F00A042D0DC0AF04000C8B34D
:107E2000002500240AE01E48103000EB84000168A1
:107E30002846FCF77CFA0546601CC4B21848A338F3
:107E4000B0F84F00A042EEDC1A48D0F87E140020B3
:107E5000FCF7A6FD04D14FF07E511648C0F87E1401
:107E60000F49A339B1F84F00FCF7BAFC064619498F
:107E70002846FCF7E6FA07463146FCF7E2FA0446E4
:107E80000C49D1F87E042146FCF7DBFA0949C1F818
:107E90007E0400BF05F03AFD0BB0BDE8F08F000096
:107EA000470F002000002041000020420000C84190
:107EB000B71300209D0F002000004040CC6C002034
:107EC000F85300202D431CEBE2360A3F0000F03F40
:107ED000006AF84000806D4541F2883200FB02F1F3
:107EE00006E000BF00BF00BF00BF00BF00BF00BF73
:107EF0000A1EA1F10101F4D1704700002DE9F04FF5
:107F00009FB00320332312AA402100901A20FEF7CD
:107F100027F978B900BF00BFFCA0FFF705F840F2D1
:107F2000BB22FE49FEA0FEF7FFFF00BF00201FB0EE
:107F3000BDE8F08F002011E0012101EB400112AA01
:107F4000525CFA4901F8102012A911F81020012101
:107F500001EB4003F549CA54411CC8B21928EBDBB8
:107F6000F24C04F18909DFF8C8A3002533E0A11D14
:107F700001EB4501098847F6FF72501AFCF727FC10
:107F8000A11D01EB450110900888FCF729FC0F901A
:107F9000E6481A38D0F89F100F98FCF720FA83466D
:107FA0001099FCF74EFA80460AF11A0000EB8500A2
:107FB00001684046FCF7BBF9119001F061FA0746F1
:107FC000FCF731FC06B23046FCF701FC09EB8501F9
:107FD0000860681CC5B2032DC9DBDAF82E00FCF777
:107FE00080FCCDE90E01D349497840F2A3125143F8
:107FF000D14A1144D1F86001D049FCF7EAF983462F
:10800000FCF76FFC0746CE4ACE4BFCF7FFFA05465D
:108010000022CD4BFCF753FACDE90A01DAF82A0029
:10802000FCF75FFC05460E46B4F90C00FCF7CFFBED
:10803000C6490490FCF7D3F9C5490590FCF701FA4D
:108040008346FCF74EFCC34AC34BCDE90601FCF75F
:108050004FFB07462A463346FCF7D8FACDE908011C
:10806000DDE90A23FCF744FBCDE90C01DDE90E2331
:10807000FCF725FACDE91001FCF776FCC9F80C00F5
:10808000002757E0AA49363101EB87010868FCF761
:1080900028FC0546B14AB24BFCF736FC11D3A44983
:1080A000363101EB87010868AE49FCF779FC08D04E
:1080B0009F49363101EB87010868AB49FCF77AFC30
:1080C0001AD24FF07E519A48363000EB870001609B
:1080D00004F10E0000EB4700B0F9000000EB800552
:1080E000E91705EBD1614811FCF771FB09F11001AB
:1080F00001EB870108601BE004F10E0000EB470074
:10810000B0F9000000EB8005E91705EBD1614811DB
:10811000FCF75DFB06468648363000EB87000168B9
:108120003046FCF75CF909F1100101EB87010860AA
:10813000781CC7B2102FA5DB8C49D1F87604FCF768
:10814000D0FB0546854A864BFCF7DEFB0DD38749FD
:10815000D1F876048349FCF723FC06D08349D1F893
:1081600076048149FCF726FC04D24FF07E517F480B
:10817000C0F876147D49D1F87A04FCF7B2FB0546C5
:10818000764A774BFCF7C0FB0DD37849D1F87A04D7
:108190007449FCF705FC06D07449D1F8760472499D
:1081A000FCF708FC04D24FF07E517048C0F87A14F6
:1081B0006E49D1F87A044FF07E51FCF7F1FB04D1FF
:1081C0006A48D0F87614C0F87A146849D1F83204B5
:1081D0006749FCF7EFFB06D36449D1F832046549DF
:1081E000FCF7DEFB03D200216048C0F83214B4F97A
:1081F0002E00002864DD5D49D1F83204FCF771FBE4
:10820000CDE90E014B49497840F2A31251434A4A45
:108210001144D1F860014949FCF7DBF88346FCF7CB
:1082200060FB0746464A474BFCF7F0F9054600223B
:10823000454BFCF744F9CDE90A014C49B1F9470532
:10824000FCF7D3FA05460E46B4F92E00FCF7BFFA48
:108250003E490090FCF7C3F801904448D0F87614EA
:108260000198FCF7BCF88346FCF73BFB394A3A4BD4
:10827000CDE90201FCF73CFA074600223E4BFCF731
:1082800037FA2A463346CDE90401FCF7BFF9334AF1
:10829000334BCDE90601FCF7B9F9CDE90801DDE979
:1082A0000A23FCF725FACDE90C01DDE90E23FCF7E2
:1082B00006F9CDE91001FCF757FBC9F850009BE027
:1082C0002A49D1F83204FCF70CFBCDE90E0119491B
:1082D000497840F2A3125143174A1144D1F8600182
:1082E0001649FCF776F88346FCF7FBFA0746144A72
:1082F000144BFCF78BF905460022134BFCF7DFF813
:10830000CDE90A011949B1F9490537E0526574759B
:10831000726E206661696C65640000009A770208DD
:108320005B25735D5B25645D0D0A0000BE0E0020B9
:108330009D130020CC6C0020F85300200000C841A1
:108340002D431CEBE2360A3F0000F03F000048439B
:1083500000AAD146A5E2ECC367D8153F7B14AE470F
:10836000E17A843F00FF7F4700007F439D0F00209C
:10837000007C9248007C92C880F7D440FCF735FA24
:10838000CDE90601B4F92E00FCF721FA1C49009052
:10839000FCF725F883461B48D0F87A145846FCF7BA
:1083A0001EF80190FCF79DFA174A184BCDE902011F
:1083B000FCF79EF905460022154BFCF799F9CDE92B
:1083C0000401DDE90623FCF721F90746114A124BA7
:1083D000FCF71CF9CDE90801DDE90A23FCF788F96F
:1083E000CDE90C01DDE90E23FCF769F8CDE91001B8
:1083F000FCF7BAFAC9F8500000BF012097E5000069
:10840000000048439D0F0020A5E2ECC367D8153F4C
:1084100080F7D4407B14AE47E17A843F00B5A5B025
:1084200003201A231EAA002100901846FDF798FE8B
:1084300070B900BF00BFF5A0FEF776FD40F26F12E5
:10844000F649F7A0FEF770FD00BF002025B000BD83
:1084500000201A9016E001211A9801EB40001EA995
:10846000095CF24A1A9802F810101EA91A9811F81D
:108470001010012202EB4000EC4A11541A98401CE3
:10848000C0B21A901A980D28E5DB00BFE848FEF745
:108490004BFD40F27712E149E1A0FEF745FD00BF38
:1084A00000BF9DF891009DF890109DF88F209DF8D9
:1084B0008E30CDE91332CDE915109DF88D009DF871
:1084C0008C109DF88B209DF88A30CDE90F32CDE9D4
:1084D00011109DF889109DF888009DF887209DF85F
:1084E0008630CDE90B32CDE90D019DF885009DF870
:1084F00084109DF883209DF88230CDE90732CDE9C4
:1085000009109DF881109DF880009DF87F209DF84E
:108510007E30CDE90332CDE905019DF87D009DF85F
:108520007C109DF87B20CDE9002102909DF87A0017
:108530001A909DF8790019909DF8780018900146DE
:10854000BC48DDE91923FEF7EFFC4FF4BC72B349D8
:10855000B3A0FEF7E9FC00BFB4481D904D301C905D
:10856000B5481B901D980078C0F381011C980180CC
:108570001D98407800F00F00052803DA10211C98A0
:10858000418005E01D98407800F00F011C98418063
:108590001D98C078C0F3810030B1012808D00228AE
:1085A0000BD0032813D10DE064211C98818013E0C7
:1085B0004FF4FA711C9881800EE04FF47A711C9888
:1085C000818009E04FF4FA611C98818004E04FF645
:1085D000FF711C98818000BF00BF1C9840881690D6
:1085E000FCF7FEF817901B98D0F87E0016901799AC
:1085F000FBF727FF19901D984088C0F3090000EB96
:1086000080001790FCF7E3F818901999FBF78FFE9C
:108610001A90FCF721F981B21C98C1801D98C0788E
:108620000009102857D2DFE800F0080C10151A1FB7
:1086300024292E33383D42474C5164211C98018136
:108640004EE0C8211C9801814AE04FF496711C98B5
:10865000018145E04FF4C8711C98018140E04FF45E
:1086600016711C9801813BE04FF448711C98018100
:1086700036E04FF47A711C98018131E04FF4FA61D1
:108680001C9801812CE040F6B8311C98018127E04C
:108690004FF47A611C98018122E041F270711C98BC
:1086A00001811DE04FF4FA511C98018118E042F25B
:1086B00010711C98018113E044F620611C9801811F
:1086C0000EE047F230511C98018109E049F6404123
:1086D0001C98018104E04FF6FF711C98018100BFD6
:1086E00000BF1C9840881690FCF77AF817901B98EA
:1086F000D0F87E0016901799FBF7A3FE19901D98ED
:108700008088C0F3090000EB80001790FCF75FF849
:1087100018901999FBF70BFE1A90FCF79DF881B29F
:108720001C9841811C9840881690FCF759F81790C6
:108730001B98D0F87E0016901799FBF782FE1990CF
:108740001D98C07900EB800080001790FCF73FF87F
:1087500018901999FBF7EBFD1A90FCF77DF881B2A0
:108760001C9881811D9840790009102870D2DFE89B
:1087700000F0080C10151A1F24292E33383D4247EB
:10878000656A64211C98C18167E0C8211C98C18179
:1087900063E04FF496711C98C1815EE04FF4C8719C
:1087A0001C98C18159E04FF416711C98C18154E0A6
:1087B0004FF448711C98C1814FE04FF47A711C98B6
:1087C000C1814AE04FF4FA611C98C18145E040F64E
:1087D000B8311C98C18140E04FF47A611C98C18186
:1087E0003BE041F270711C98C18136E04FF4FA51C0
:1087F0001C98C18131E042F210711C98C1812CE0BB
:1088000044F620611C98C18127E021E0526574750F
:10881000726E206661696C656400000082770208F0
:108820005B25735D5B25645D0D0A0000A40E0020CE
:10883000949C0208E09C02089D13002047F23051EE
:108840001C98C18109E049F640411C98C18104E0AF
:108850004FF6FF711C98C18100BF00BF1C98408873
:108860001690FBF7BDFF17901B98D0F87E0016906E
:108870001799FBF7E6FD19901D98807900EB8000B1
:1088800080001790FBF7A3FF18901999FBF74FFD95
:108890001A90FBF7E1FF81B21C9801821D98407A83
:1088A00000EB800081001C9841821D98007A00EB4B
:1088B000800081001C9881821C9840881690FBF7EC
:1088C0008FFF17901B98D0F87E0016901799FBF732
:1088D000B8FD19901D98C07A00F07F0000EB800071
:1088E00080001790FBF773FF18901999FBF71FFD95
:1088F0001A90FBF7B1FF81B21C98C1821C98408886
:108900001690FBF76DFF17901B98D0F87E0016901D
:108910001799FBF796FD19901D98807A00EB80005F
:1089200080001790FBF753FF18901999FBF7FFFC95
:108930001A90FBF791FF81B21C9801831D98407B30
:1089400000F00F00102856D2DFE800F0080C1014D9
:10895000191E23282D32373C41464B5032211C989A
:1089600041834DE064211C98418349E0C8211C9853
:10897000418345E04FF4C8711C98418340E04FF4B7
:1089800016711C9841833BE04FF448711C98418359
:1089900036E04FF47A711C98418331E04FF4FA616C
:1089A0001C9841832CE04FF47A611C98418327E0A6
:1089B00041F270711C98418322E04FF4FA511C98E7
:1089C00041831DE042F210711C98418318E043F688
:1089D00098211C98418313E044F620611C98418340
:1089E0000EE047F230511C98418309E049F64041BE
:1089F0001C98418304E04FF6FF711C98418300BF2F
:108A000000BF1D98407B0009102849D2DFE800F024
:108A1000080C1014181C2024282C3034383C4044F6
:108A200014211C98818340E01E211C9881833CE026
:108A300028211C98818338E032211C98818334E0FE
:108A40003C211C98818330E046211C9881832CE0D6
:108A500050211C98818328E05A211C98818324E0AE
:108A600064211C98818320E06E211C9881831CE086
:108A700078211C98818318E082211C98818314E05E
:108A80008C211C98818310E0A0211C9881830CE02C
:108A9000B4211C98818308E0C8211C98818304E0DC
:108AA0004FF6FF711C98818300BF00BF1D98007BAB
:108AB00000F00F00102852D2DFE800F0080C10146C
:108AC000181C2024292E33383D42474C0A211C987B
:108AD000C18349E014211C98C18345E028211C98DA
:108AE000C18341E03C211C98C1833DE050211C988A
:108AF000C18339E064211C98C18335E0C8211C98EA
:108B0000C18331E04FF4C8711C98C1832CE04FF44D
:108B100016711C98C18327E04FF448711C98C183DB
:108B200022E04FF47A711C98C1831DE04FF4FA6182
:108B30001C98C18318E04FF47A611C98C18313E03C
:108B40004FF4FA511C98C1830EE042F210711C9848
:108B5000C18309E044F620611C98C18304E04FF60C
:108B6000FF711C98C18300BF00BF1D98007B0009E6
:108B700010284CD2DFE800F0080C1014181C202438
:108B8000282C3034383C41461E211C98018443E097
:108B900028211C9801843FE032211C9801843BE08D
:108BA0003C211C98018437E046211C98018433E065
:108BB00050211C9801842FE05A211C9801842BE03D
:108BC00064211C98018427E078211C98018423E00B
:108BD0008C211C9801841FE0A0211C9801841BE0BB
:108BE000B4211C98018417E0C8211C98018413E06B
:108BF0004FF496711C9801840EE04FF4C8711C98D4
:108C0000018409E04FF4FA711C98018404E04FF6E6
:108C1000FF711C98018400BF00BF1D98C07B00F04D
:108C20000F00102855D2DFE800F0080C1014181DB2
:108C300022272C31363B40454A4F00211C98418465
:108C40004CE040211C98418448E080211C984184DC
:108C500044E0C0211C98418440E04FF480711C988E
:108C600041843BE04FF4A0711C98418436E04FF4FE
:108C7000C0711C98418431E04FF4E0711C9841842C
:108C80002CE04FF400711C98418427E04FF41071E0
:108C90001C98418422E04FF420711C9841841DE00F
:108CA0004FF430711C98418418E04FF440711C98C7
:108CB000418413E04FF450711C9841840EE04FF44E
:108CC00060711C98418409E04FF470711C984184D4
:108CD00004E04FF6FF711C98418400BF00BF1D984F
:108CE000C07B0009102852D2DFE800F0080C1014F5
:108CF000181C2024292E33383D42474C32211C9821
:108D0000818449E050211C98818445E06E211C98A3
:108D1000818441E08C211C9881843DE0AA211C982B
:108D2000818439E0C8211C98818435E0E6211C98B3
:108D3000818431E04FF482711C9881842CE04FF4DF
:108D400091711C98818427E04FF4A0711C98818454
:108D500022E04FF4AF711C9881841DE04FF4C8717C
:108D60001C98818418E04FF4FA711C98818413E0F8
:108D70004FF416711C9881840EE04FF448711C98D2
:108D8000818409E04FF47A711C98818404E04FF6E5
:108D9000FF711C98818400BF00BF1D98807B00F08C
:108DA0000F00102852D2DFE800F0080C1014181C35
:108DB0002024292E33383D42474C0A211C98C18477
:108DC00049E014211C98C18445E028211C98C184E5
:108DD00041E03C211C98C1843DE050211C98C18495
:108DE00039E064211C98C18435E0C8211C98C184F5
:108DF00031E04FF4C8711C98C1842CE04FF4167117
:108E00001C98C18427E04FF448711C98C18422E06B
:108E10004FF47A711C98C1841DE04FF4FA611C98DC
:108E2000C18418E04FF47A611C98C18413E04FF4B8
:108E3000FA511C98C1840EE042F210711C98C18452
:108E400009E044F620611C98C18404E04FF6FF71EC
:108E50001C98C18400BF00BF1D98807B00091028AA
:108E600049D2DFE800F0080C1014181C2024282C2C
:108E70003034383C404414211C98018540E01E21C8
:108E80001C9801853CE028211C98018538E032219E
:108E90001C98018534E03C211C98018530E0462176
:108EA0001C9801852CE050211C98018528E05A214E
:108EB0001C98018524E064211C98018520E06E2126
:108EC0001C9801851CE078211C98018518E08221FE
:108ED0001C98018514E08C211C98018510E0A021CC
:108EE0001C9801850CE0B4211C98018508E0C8217C
:108EF0001C98018504E04FF6FF711C98018500BFA6
:108F000000BF1D98407C00F0030030B1012808D05C
:108F100002280AD0032810D10BE008211C984185B3
:108F200010E010211C9841850CE020211C984185FF
:108F300008E040211C98418504E04FF6FF711C9821
:108F4000418500BF00BF1D98407CC0F3810030B157
:108F5000012808D002280AD0032810D10BE00821EC
:108F60001C98818510E010211C9881850CE020213F
:108F70001C98818508E040211C98818504E04FF60B
:108F8000FF711C98818500BF00BF1D98407CC0F315
:108F9000011030B1012808D002280AD0032812D1CC
:108FA0000CE040211C98C18512E080211C98C185ED
:108FB0000EE04FF480711C98C18509E04FF40071F8
:108FC0001C98C18504E04FF6FF711C98C18500BF55
:108FD00000BF1D98407C800930B1012808D00228CC
:108FE0000BD0032813D10DE0C8211C98018613E093
:108FF0004FF4FA711C9801860EE04FF47A711C98B8
:10900000018609E04FF4FA611C98018604E04FF6EE
:10901000FF711C98018600BF00BF1D98007E00F004
:109020007F001390FBF7F2FBB34AB44BCDE9140178
:10903000FBF7ECFA4FF03332B14BCDE91601FBF7F9
:109040003EFACDE91801FBF78FFC1C99C1F85200DC
:109050001D98007CC0F500701690FBF7B8FB1890C7
:109060001D98007C1590FBF7BBFB16901C98D0F860
:109070005200014615901698FBF7B1F91790189910
:10908000FBF7DFF9199000F0FBF91A901B98D0F864
:109090002600014619901A98FBF749F91C99C1F866
:1090A00032001D98C07CC0F500701690FBF78FFB56
:1090B00018901D98C07C1590FBF792FB16901C9899
:1090C000D0F85200014615901698FBF788F91790D2
:1090D0001899FBF7B6F9199000F0D2F91A901B987D
:1090E000D0F82600014619901A98FBF720F91C9930
:1090F000C1F836001D98807CC0F580701690FBF793
:1091000066FB18901D98807C00F580701590FBF729
:109110005EFB16901C98D0F85200014615901698E8
:10912000FBF75DF917901899FBF78BF9199000F090
:10913000A7F91A901B98D0F82600014619901A98A2
:10914000FBF7F5F81C99C1F83A001D98407DC0F571
:1091500080701690FBF73BFB18901D98407D00F542
:1091600080701590FBF733FB16901C98D0F85200D6
:10917000014615901698FBF732F917901899FBF7EE
:1091800060F9199000F07CF91A901B98D0F826002D
:10919000014619901A98FBF7CAF81C99C1F83E00CD
:1091A0001D98007DC0F500701690FBF710FB18901D
:1091B0001D98007D1590FBF713FB16901C98D0F8B6
:1091C0005200014615901698FBF709F91790189967
:1091D000FBF737F9199000F053F91A901B98D0F863
:1091E0002600014619901A98FBF7A1F81C99C1F8BE
:1091F00042001D98C07DC0F500701690FBF7E7FA9D
:1092000018901D98C07D1590FBF7EAFA16901C98EF
:10921000D0F85200014615901698FBF7E0F8179029
:109220001899FBF70EF9199000F02AF91A901B987B
:10923000D0F82600014619901A98FBF778F81C9987
:10924000C1F846001D98807DC0F580701690FBF730
:10925000BEFA18901D98807D00F580701590FBF780
:10926000B6FA16901C98D0F8520001461590169840
:10927000FBF7B5F817901899FBF7E3F8199000F091
:10928000FFF81A901B98D0F82600014619901A98FA
:10929000FBF74DF81C99C1F84A001D98407EC0F5B7
:1092A00080701690FBF793FA18901D98407E00F599
:1092B00080701590FBF78BFA16901C98D0F852002E
:1092C000014615901698FBF78AF817901899FBF746
:1092D000B8F8199000F0D4F81A901B98D0F826002E
:1092E000014619901A98FBF722F81C99C1F84E0014
:1092F00000BF0120FFF7AAB89A9999999999A93FB7
:1093000033331B4008B54021534880F801140E2028
:10931000514981F800046B214F4880F803147021F3
:1093200080F80214632180F80514482180F80414A1
:10933000322180F807143C2180F80614A52180F81A
:1093400009147D2180F80814642180F80B14E121B0
:1093500080F80A14F22180F80D14C22180F80C1450
:10936000BF2180F80F14422180F80E14002180F8EC
:10937000111480F8101480F81314EC2180F81214E2
:1093800080F81514002180F8141480F81714EC21CB
:1093900080F8161480F81914002180F818141A2285
:1093A00000F580612D48FAF753FF03F07FFC68B9A0
:1093B00000BF00BF2AA0FDF7B7FD40F2FF522C49C5
:1093C0002CA0FDF7B1FD00BF002008BD4FF07E507E
:1093D00000906A460121C32000F0E6F8FA2004F06C
:1093E00069FD002000906A460121C62000F0DCF8EB
:1093F0006A460121C42000F0D7F86A460121C52041
:1094000000F0D2F8FFF70AF868B900BF00BF14A057
:10941000FDF78AFD40F20962154916A0FDF784FDAB
:1094200000BF0020D1E7FEF769FD68B900BF00BFAB
:109430000BA0FDF779FD40F20C620D490DA0FDF780
:1094400073FD00BF0020C0E7FDF700FA04F05EFAEC
:1094500000BF0120B9E700009D0F0020A40E0020EE
:1094600052657475726E206661696C6564000000F7
:10947000DE7702085B25735D5B25645D0D0A0000E5
:109480002DE9F0470546254801682846FBF792FA82
:1094900002D82348BDE8F0872048D0F8801228463B
:1094A000FBF77EFA01D81F48F4E7002431E01B489F
:1094B00050F824102846FBF773FA28D8174A601C86
:1094C00052F820102846FBF775FA20D8134B621C7F
:1094D00053F822101A4652F82400FAF77AFF814610
:1094E0000E4850F824102846FAF776FF824649467F
:1094F000FAF7A7FF07462046FBF772F98046394680
:10950000FAF715FF06460849FAF763FFC2E7601C41
:10951000C4B2A02CCBDB0548BCE70000340100201E
:10952000000048C20000DC4200004842008088C3BE
:1095300010B513480068401C114908601148B0F884
:109540003D0509684843FA2802D200BF012010BD3A
:1095500000200B490860FEF7D1FC68B900BF00BFCE
:1095600009A0FDF7E1FC40F222620B490BA0FDF7D8
:10957000DBFC00BF0020EAE700BF0120E7E70000B6
:10958000B80300209D0F002052657475726E20662E
:1095900061696C6564000000E77702085B25735D14
:1095A0005B25645D0D0A000007B590B0129870B994
:1095B00000BF00BFF7A0FDF7B7FC40F20E42F9492B
:1095C000F9A0FDF7B1FC00BF002013B000BD10985A
:1095D0000E9003F0C2B90E98182819DC10990E9855
:1095E000411A129850F821000C90FBF735F9C2B2DD
:1095F0000E980D9000EBD07041100D98A0EB41013A
:109600000E98401CA0EB4100EA490A5403F0A1B9AE
:109610000E9840281CDB0E98722819DC10990E98C1
:10962000411A129850F821000C90FBF715F9C2B2BC
:109630000E980D9000EBD07041100D98A0EB4101F9
:109640000E983F38A0EB4101DA481A304254DDE76A
:109650000E9880287DDB0E98AA287ADC0E98803838
:109660002A2877D2DFE800F015253545556577873C
:1096700097A7B7C7F5F3F2F1F0EFEEEDECEBEAE9FF
:10968000E8E7E6E5E4E3E2E1E0DFDEDDDCDBDAD9D2
:10969000D8D710990E98411A129850F821000D90C1
:1096A000FBF7DAF8C349497860F30301C148417018
:1096B000D2E210990E98411A129850F821000D909C
:1096C000FBF7CAF8BB49497860F30411B948417007
:1096D000C2E210990E98411A129850F821000D908C
:1096E000FBF7BAF8B349497860F30411B148417007
:1096F000B2E210990E98411A129850F821000D907C
:10970000FBF7AAF8AB49497860F30411A948417006
:10971000A2E210990E98411A129850F821000D906B
:10972000FBF79AF8A349497860F30411A148417006
:1097300092E210990E98411A129850F821000D905B
:10974000FBF78AF89B49497860F304119948417006
:1097500082E282E270E210990E98411A129850F853
:1097600021000D90FBF778F89249497860F30411D5
:109770009048417070E210990E98411A129850F872
:1097800021000D90FBF768F88A49497860F30411CD
:109790008848417060E210990E98411A129850F86A
:1097A00021000D90FBF758F88249497860F30411C5
:1097B0008048417050E210990E98411A129850F862
:1097C00021000D90FBF748F87A49497860F30411BD
:1097D0007848417040E210990E98411A129850F85A
:1097E00021000D90FBF738F87249497860F30411B5
:1097F0007048417030E210990E98411A129850F852
:1098000021000D90FBF728F86A49497860F30411AC
:109810006848417020E2FFE1EEE1DDE1CCE1BBE12F
:10982000AAE199E188E177E166E155E144E133E1BC
:1098300022E111E100E1EFE0DEE0CDE0BCE098E004
:1098400087E076E065E054E043E032E021E010E0BC
:10985000FFE710990E98411A129850F821000D90C8
:10986000FAF7FAFF5349497860F3041151484170FF
:10987000F2E110990E98411A129850F821000D90BB
:10988000FAF7EAFF4B49497860F3041149484170FF
:10989000E2E110990E98411A129850F821000D90AB
:1098A000FAF7DAFF4349497860F3041141484170FF
:1098B000D2E110990E98411A129850F821000D909B
:1098C000FAF7CAFF3B49497860F3041139484170FF
:1098D000C2E110990E98411A129850F821000D908B
:1098E000FAF7BAFF3349497860F3041131484170FF
:1098F000B2E110990E98411A129850F821000D907B
:10990000FAF7AAFF2B49497860F3041129484170FE
:10991000A2E110990E98411A129850F821000D906A
:10992000FAF79AFF2349497860F3041121484170FE
:1099300092E110990E98411A129850F821000D905A
:10994000FAF78AFF1B49497860F3041119484170FE
:1099500082E110990E98411A129850F821000D904A
:10996000FAF77AFF1349497860F3041111484170FE
:1099700072E110990E98411A129850F821000D903A
:10998000FAF76AFF0B49497860F3041109484170FE
:1099900062E1000052657475726E206661696C65E3
:1099A00064000000BD7702085B25735D5B25645D84
:1099B0000D0A0000A40E002010990E98411A12986A
:1099C00050F821000D90FAF747FFFC49497860F301
:1099D0000411FA4841703FE110990E98411A12980B
:1099E00050F821000D90FAF737FFF449497860F3F9
:1099F0000411F24841702FE110990E98411A129803
:109A000050F821000D90FAF727FFEC49497860F3F0
:109A10000411EA4841701FE110990E98411A1298FA
:109A200050F821000D90FAF717FFE449497860F3E8
:109A30000411E24841700FE110990E98411A1298F2
:109A400050F821000D90FAF707FFDC49497860F3E0
:109A50000411DA484170FFE010990E98411A1298EB
:109A600050F821000D90FAF7F7FED449497860F3D9
:109A70000411D2484170EFE010990E98411A1298E3
:109A800050F821000D90FAF7E7FECC49497860F3D1
:109A90000411CA484170DFE010990E98411A1298DB
:109AA00050F821000D90FAF7D7FEC449497860F3C9
:109AB0000411C2484170CFE010990E98411A1298D3
:109AC00050F821000D90FAF7C7FEBC49497860F3C1
:109AD0000411BA484170BFE010990E98411A1298CB
