:020000040800F2
:10400000E85A002045410008655E00085F55000839
:10401000615E0008854F0008376A00080000000054
:10402000000000000000000000000000D96100084E
:10403000B153000800000000915E0008DB61000839
:104040005F4100085F4100085F410008DD5F000834
:104050005F4100085F410008C95300085F41000844
:10406000055400085F4100085F410008C152000884
:104070005F4100085F4100085F4100085F410008A0
:104080005F4100085F4100085F4100085F41000890
:104090005F410008C95000085F4100084154000812
:1040A0005F4100085F4100085F4100085F41000870
:1040B000D56200085F4100085F4100085F410008C9
:1040C0005F4100085F4100085F4100085F41000850
:1040D0005F4100085F4100085F4100085967000820
:1040E0005F4100085F4100085F4100085F41000830
:1040F0005F4100085F4100085F4100085F41000820
:104100005F4100085F4100085F4100085F4100080F
:10411000696400085F4100085F4100085F410008D2
:104120005F4100085F4100085F4100085F410008EF
:10413000DFF80CD000F070FD00480047F1D2000815
:10414000E85A00200648804706480047FEE7FEE799
:10415000FEE7FEE7FEE7FEE7FEE7FEE7FEE7FEE737
:10416000E56100083141000838B5D0E90221491E57
:1041700001EB410102EBC1014268C1EB011102EB0D
:1041800081010268C1EB011102EB8102D0E9043127
:1041900001EB410103EB81013023A1F5527191FB49
:1041A000F3F4174D6C4302EBC41291FBF3F403FBE1
:1041B000141100921A2902DB124B1A4400920C22AD
:1041C00091FBF2F3104C6343009C04EBC313009388
:1041D00091FBF2F302FB13110C4A08E0491E40F276
:1041E000A324535C6343009C04EBC3130093002996
:1041F000F4DC0146684600F005FC009838BD00007C
:104200003F0C0F008051010067C2030028E800083E
:1042100040EA01039B0703D009E008C9121F08C048
:10422000042AFAD203E011F8013B00F8013B521EC8
:10423000F9D27047D2B201E000F8012B491EFBD23F
:1042400070470022F6E710B513460A4604461946A1
:10425000FFF7F0FF204610BD034611F8012B00F8D0
:10426000012B002AF9D118467047F0B480EA010208
:10427000D40F4200B2EB410F02D20246084611466B
:104280004A0042D0C30DDDB2C1F3C752AD1A202D92
:1042900035DAC1F3160141F4000204B15242C5F10E
:1042A000200602FA06F12A411044B3EBD05F23D076
:1042B000C4B1012DA0EBC35009DCF0BC4FF00042AB
:1042C00002EAC352DBB200F5000000F0EABB400096
:1042D00000F1807000EBC350A0F1807040EAD17013
:1042E000490009E0490841EAC071A0EBC35000F55C
:1042F0000000400800EBC350F0BC00F0C9BB6142B5
:10430000012202EB4101001BF6E7F0BC704781F08F
:104310000041AAE780F00040A7E780EA010210B55B
:1043200002F00043400022D04A001FD0010E01EBF2
:104330001261C0F35600C2F3560240F4000042F48A
:104340000002A0FB022000047F39140400D0401CAE
:1043500050EA124001D44000491EC2B20C0604EBE0
:10436000D010401C4008802A02D003E0002010BD7D
:1043700020F00100002900DA0020184310BD30B4FD
:1043800080EA010202F0004530F0004221F00040D6
:1043900013D090B1C30DD40DC2F31601C0F31600B3
:1043A000E41A41F4000140F400027D34914201D34B
:1043B000641C00E04900002C02DA30BC0020704789
:1043C0004FF400000023914201D3891A03434008AF
:1043D0004FEA4101F7D151B1914202D14FF0004172
:1043E00005E002D24FF0010101E06FF0010103EBA3
:1043F000C450284430BC00F04BBB2DE9FE4F804632
:1044000081EA0300C00F0C46009021F0004123F028
:104410000045B8EB0200A94105D24046214690462E
:104420001C460B46024623F00040104347D0270DA0
:10443000C7F30A00C3F30A510290401A01904028C2
:104440006BDAC3F3130040F4801B0098924620B14E
:104450000023D2EB030A63EB0B0B01985946C0F122
:104460004002504600F09DFA06460D465046594619
:10447000019A00F0B5FA10EB08006141002487EAC8
:10448000115284EAE7731A4340D0009A62B3019A4A
:10449000012A4FEA075215DC001B61EB02014FF0C5
:1044A000004202EA0752CDE90042001C41F58011AA
:1044B00032462B4600F032FB03B0BDE8F08F404699
:1044C0002146F9E7001B61EB0201001C41F5801356
:1044D00000185B412018A2F5001747EB030140EAE2
:1044E000D570B6196D4111E06D084FEA360645EA00
:1044F000C0754FEA0752001B61EB0201001C41F539
:10450000801149084FEA30000019514132462B46CC
:1045100003B0BDE8F04F00F0F2BA0098012240006D
:104520000023D0EB020263EBE073009821464FEAD0
:10453000E074B8EB000061EB0401E9E783F00043AD
:104540005BE781F0004158E72DE9FE4F81EA030463
:1045500004F0004421F0004100944FF0000B23F0E0
:10456000004350EA01045ED052EA03045BD0C3F377
:104570000A54C1F30A552C44A4F2F3340194A0FB6D
:104580000254C1F3130141F48011C3F3130343F444
:10459000801301FB024400FB034E840A970A44EA9D
:1045A000815447EA8357A4FB076802958D0A05FBEF
:1045B00007854FEA932C04FB0C542705029D4FEA14
:1045C000065847EA1637B5EB08056EEB070C870E61
:1045D000920E47EA811742EA8312A7FB0201B6EB6B
:1045E0000B0164EB00042B0D43EA0C335E1844EB23
:1045F0001C50DA465146E7FB0201C5F313044FEAAB
:104600000B3343EA14534FEA0432019C43EA060396
:10461000A4F10C040294009CCDE900B400F07EFAF1
:1046200003B0BDE8F08F00200146F9E72DE9F04D19
:1046300081EA030404F0004B21F0004514464FF0DA
:10464000000A23F0004150EA050220D054EA01029A
:104650001DD0C5F30A570246C5F31303C1F3130077
:10466000C1F30A5640F4801543F48013A7EB060803
:10467000101BD64608F2FD3873EB050002D308F193
:10468000010801E092185B41B8F1000F03DA002045
:104690000146BDE8F08D00204FF4801106468446A7
:1046A0000EE0171B73EB050705D3121B63EB050325
:1046B00006434CEA010C49084FEA300092185B416E
:1046C00050EA0107EDD152EA030012D082EA040059
:1046D00083EA0501084305D0101BAB4106D2012235
:1046E000002306E000224FF0004302E06FF00102D9
:1046F00053101AEB06004CEB085110EB0A0041EB8B
:104700000B01BDE8F04D00F0FAB9C10F80EAE0708E
:104710000844CA079623002100F0C3B9962300225B
:10472000114600F0BEB90EB5C10F80EAE070084432
:10473000CA07002140F233438DE80E000A460B46BB
:1047400000F0ECF903B000BD0EB540F23341029128
:104750000021CDE900110A460B4600F0DFF903B055
:1047600000BD00F0004220F00040C10DC0F3160073
:1047700040F400007F2901DA00207047962903DC0D
:10478000C1F19601C84001E096398840002AF4D072
:104790004042704720F00040C10DC0F3160040F4C5
:1047A00000007F2901DA00207047962903DCC1F15F
:1047B0009601C840704796398840704770B5C1F37C
:1047C0000A5201F000450024C1F3130140F2FF3307
:1047D00041F480119A4201DA002070BD40F2334367
:1047E0009A42A2F2334203DC524200F0E9F800E0C0
:1047F00090402C43F1D0404270BDC1F30A5210B535
:10480000C1F3130140F2FF3341F480119A4201DAFF
:10481000002010BD40F233439A42A2F2334203DC3F
:10482000524200F0CDF810BD904010BD00F00042A3
:1048300030F000400AD0C10D01F56071C0F31600E0
:1048400042EA0151C2084007114370470020014667
:104850007047000030B5041E71F1000404DB4FF016
:104860000044404264EB0101141E73F1000405DBB7
:104870001C464FF00043524263EB04038B4208BFD7
:10488000824230BD30B5041E71F1000404DB4FF0EC
:104890000044404264EB0101141E73F1000405DB87
:1048A0001C464FF00043524263EB0403994208BF99
:1048B000904230BD01F0004330B421F0004150EA95
:1048C000010206D00A0DA2F56072C1F31301002A9D
:1048D00002DC30BC00207047440F44EAC104C10030
:1048E000E01830BC00EBC25000F0D2B8002801DB69
:1048F000C0F10040002901DBC1F100418142704755
:10490000002801DBC0F10040002901DBC1F10041BA
:104910008842704730B50B46014600202022012412
:1049200009E021FA02F59D4205D303FA02F5491B7D
:1049300004FA02F52844151EA2F10102F1DC30BD93
:104940002DE9F05F0546002092469B4688460646C4
:10495000814640241BE0284641464746224600F057
:104960002FF853465A46C01A914110D311461846A3
:10497000224600F016F82D1A67EB01084F46224632
:104980000120002100F00DF817EB00094E41201E18
:10499000A4F10104DFDC484631462A464346BDE81F
:1049A000F09F202A04DB203A00FA02F10020704731
:1049B0009140C2F1200320FA03F31943904070475D
:1049C000202A04DB203A21FA02F00021704721FA64
:1049D00002F3D040C2F120029140084319467047CB
:1049E000202A06DBCB17203A41FA02F043EAE073B3
:1049F00006E041FA02F3D040C2F1200291400843A0
:104A00001946704710B500683C22B0FBF2F302FB78
:104A10001303B0FBF2F00B60B0FBF2F302FB1303E5
:104A2000B0FBF2F018224B60B0FBF2F302FB130371
:104A3000B0FBF2F0021D8B600723B2FBF3F403FB23
:104A40001422800040F2B55300F66C308A61B0FB4E
:104A5000F3F2B0FBF3F403FB1400443280084A6124
:104A6000C8613B2802D3920700D0401C0022074CAB
:104A700013460A61E25C824203D8801A5B1C0B6118
:104A8000F8E7401CC860084610BD000040E8000878
:104A90000029A8BF7047401C490008BF20F0010052
:104AA000704710B4B0FA80FC00FA0CF050EA010430
:104AB00004BF10BC704749B1CCF1200421FA04F4C2
:104AC00011FA0CF118BF012121430843A3EB0C019B
:104AD000CB1D4FEA00614FEA102042BF002010BCFE
:104AE000704700EBC35010440029A4BF10BC7047AE
:104AF000401C490008BF20F0010010BC704710B5F1
:104B0000141E73F1000408DA401C41F100019218F0
:104B10005B411A4301D120F0010010BD2DE9F04D99
:104B200092469B4611B1B1FA81F202E0B0FA80F2EE
:104B300020329046FFF735FF04460F4640EA0A0050
:104B400041EA0B0153465A46084313D0114653EA33
:104B5000010019D0C8F140025046FFF731FF054669
:104B60000E46504659464246FFF71BFF084305D004
:104B7000012004E020463946BDE8F08D00200543C1
:104B800046EAE0762C4337430A986305E40AA0EB33
:104B900008000022FD0A44EA47540A3002D50020EA
:104BA0000146E9E7010510196941DDE908450019E9
:104BB0006941BDE8F04DA2E770B521F00043034321
:104BC0000CD0C1F30A550024D5EB040564EB0403B3
:104BD000D617AD1AB34102DB0020014670BD201884
:104BE00041EB025170BDC1F30A52C1F3130140F20F
:104BF000FF3341F480119A4202DA002001467047E7
:104C000040F233439A42A2F2334202DC5242FFF7AF
:104C1000D7BEFFF7C6BE0000064C074D06E0E068B1
:104C200040F0010394E8070098471034AC42F6D3F3
:104C3000FFF782FA4CE800086CE8000870B58C18A1
:104C400010F8015B15F0070301D110F8013B2A11A0
:104C500006D110F8012B03E010F8016B01F8016B8D
:104C60005B1EF9D12B0705D40023521E0DD401F889
:104C7000013BFAE710F8013BCB1A921C03E013F852
:104C8000015B01F8015B521EF9D5A142D8D3002087
:104C900070BD00002DE9F04F97B00446DFF80C918D
:104CA000434815904348149043481390C4F30B04B1
:104CB0002046FFF733FD83464FF08B41FFF75FFB44
:104CC0008246FFF7B3FD07464FF066323B4BFFF7D6
:104CD0003BFC0546FFF7EEFD10904846FFF7A6FDAA
:104CE000CDE90A011098FFF7A1FD07464FF06632A3
:104CF000324BFFF726FC0546DDE90A23FFF796FC59
:104D0000CDE90E011098FFF791FDCDE90C01DDE929
:104D10000E23FFF78BFC8246FFF7CCFD1290139811
:104D2000FFF784FDCDE90A011498FFF77FFD0746E0
:104D3000884649461298FFF722FB0190FFF776FD5F
:104D4000054608F027F982463A464346FFF76EFCCF
:104D5000CDE904014FF07E501599FFF710FB054691
:104D6000FFF764FDCDE90201DDE90423FFF745FB10
:104D700002460B46CDE9060100201149FFF756FC1B
:104D8000CDE90801DDE90A23FFF7D8FB00220D4B2E
:104D9000CDE90C01FFF7D2FBCDE90E01FFF78AFD4B
:104DA0001190119817B0BDE8F08F000000401C462C
:104DB0003313954300B056453393884366660A40E3
:104DC0000000F03F0000E03F10B500F04BFF00F0A6
:104DD0006FFF00F0F7FE10BD02480068024908604E
:104DE00070470000301C00201C00002038B5002057
:104DF00008F07EFE09F006F900F096FF0020034659
:104E000002464FF4E131009001F088FB01F024FCF0
:104E1000FA2000F0D7F8FFF7D7FF01F0F5FA01F01C
:104E2000E8F800F0CBFC002405E000F069F800B9D8
:104E300005E0601C84B241F288308442F5DB00BF9B
:104E4000FFF7CAFF4FF0804009F078F901F03EF912
:104E500038BD00007CB505462C0320208DF80000ED
:104E6000200C8DF80100200A8DF80200E0B28DF8C8
:104E7000030000BF00F028F80028FBD100F062F822
:104E80001021104804F0FCFF9DF8000009F024F800
:104E90009DF8010009F020F89DF8020009F01CF8C7
:104EA0009DF8030009F018F81021064804F0EAFF05
:104EB000642004F095FD00BF00F006F80028FBD147
:104EC0007CBD00000008014038B50BA000680090D0
:104ED00010210A4804F0D4FF9DF8000008F0FCFF00
:104EE00004461021054804F0CDFF04F0010008B18C
:104EF000022038BD0020FCE705000000000801404A
:104F000010B501F033F900F003F8FFF7DDFF10BD35
:104F100008B50AA0006800901021094804F0B0FF0D
:104F20009DF8000008F0D8FF9DF8010008F0D4FFBC
:104F30001021034804F0A6FF08BD00006699000098
:104F40000008014008B50DA00068009000BFFFF701
:104F5000BBFF0028FBD11021094804F091FF9DF808
:104F6000000008F0B9FF1021054804F08BFF00BFD6
:104F7000FFF7AAFF0028FBD108BD000006000000D3
:104F80000008014000BFFEE710B540F2197008F0BC
:104F9000F3FE40F2026008F0EFFE4FF4C06008F04C
:104FA000EBFE4FF4006303224821054804F06CFF38
:104FB0004FF4805303221821014804F065FF10BD0F
:104FC0000008014010B50446FFF7DEFF00F074F85A
:104FD000204600F007F81021014803F060FF10BDE3
:104FE0000064004010B588B0044605A9002004F014
:104FF00075F86946012004F071F82E4803F026FE8A
:1050000000208DF8180001208DF8190000208DF87F
:105010001A0001208DF81B0000208DF81C008DF86F
:105020001D008DF814008DF8150005208DF8160070
:1050300000208DF817007D2C03D13020ADF81E0024
:1050400018E0FA2C03D11B20ADF81E0012E0B4F5D5
:10505000FA7F09D106208DF8160000208DF8170080
:105060000C20ADF81E0005E0B4F57A7F02D10620D1
:10507000ADF81E0005A90F4803F080FE0020ADF832
:105080000A00ADF80C000120ADF80E000020ADF8CC
:105090000000ADF80200ADF80400ADF806000120F4
:1050A000ADF808008DF81000684603F0DFFD08B089
:1050B00010BD00000064004010B50022114615200C
:1050C00008F0E8FA10BD0000F0B597B04C2104A834
:1050D000FFF7B7F804AA01214B4803F0E4FE059856
:1050E00010B90498009001E0059800909DF81A000E
:1050F0008DF804009DF804200DF11B010DF1050051
:10510000FFF786F80098C0F314004049884219D090
:105110003F48B0F800043E4901EB00109DE88E00C6
:105120008EC03B48B0F80004401C3949A1F8000487
:105130000846B0F80004402802DB0020A1F8000473
:1051400017B0F0BD012039E00DF10501095C3029EF
:105150000DDB0DF10501095C392908DC0DF10501B4
:10516000095C3039CAB20DF105010A5424E00DF191
:105170000501095C61290DDB0DF10501095C66295A
:1051800008DC0DF10501095C5739CAB20DF10501C2
:105190000A5411E00DF10501095C41290CDB0DF108
:1051A0000501095C462907DC0DF10501095C373969
:1051B000CAB20DF105010A54411CC8B20828C3DB6C
:1051C0009DF8060004069DF8070004EB00549DF8C6
:1051D000080004EB00449DF8090004EB00349DF83E
:1051E0000A0004EB00249DF80B0004EB00149DF86A
:1051F0000C000444002001E0411CC8B20428FBDB81
:105200000025012600BF9BE700640040000E1F0040
:10521000301700202DE9F041054688461646002447
:1052200000201D494872B5F5006F03D20872084688
:10523000056004E0042018490872084645601648D5
:105240008672002406E018F8041013480B3001554C
:10525000601C84B2B442F6DB0F49104803F096FE9E
:105260000746002401E0601C84B239460B4803F075
:1052700085FF18B940F6FF708442F4DB40F6FF70FA
:10528000844205D100BF00BF00BF0020BDE8F0810F
:1052900000BF0120FAE70000341B0020006400403A
:1052A00010B50246002006E013784340034CE05C52
:1052B000521C4B1ED9B20029F6DC10BD3C00002068
:1052C00010B5ACB002220021214804F0FBFC0028FC
:1052D0003CD0B0216846FEF7B4FF00201CE01D4919
:1052E00001EB001109684DF820101A4901EB00117B
:1052F0004A680BA941F82020164901EB00118A6881
:1053000016A941F82020134901EB0011CA6821A910
:1053100041F82020411CC8B20B28E0DB00240DE03E
:1053200004EB440101EBC4016A4602EB810004F086
:1053300071FD094941F82400601CC4B2042CEFDB64
:1053400002220021024804F0B5FC00BF2CB010BDC1
:1053500000000240801B0020301C002000B58BB0F4
:105360001248808840F26C71884203DA40F2E4709F
:105370000E4988800D488088A0F26C7005900B481B
:105380008079401E04900948C0790390074800784E
:105390000290064840780190044880780090684662
:1053A000FEF7E2FEA0F5E1400BB000BD2C000020AE
:1053B000704705E01E2100E0491E0029FCD1401E77
:1053C0000028F7D17047000070B5002500240FE0D9
:1053D00001210A4804F0AEFD012807D1681C85B2FE
:1053E000022D03DD0025062005490870601C84B2EB
:1053F000642CEDDB012004F0FBFC70BD00080140D3
:105400000C00002070B5002500240FE004210A489C
:1054100004F090FD40B9681C85B2022D04DD002522
:105420000821064804F02EFD601C84B2642CEDDBDC
:10543000042004F0DDFC70BD00100140000C0140B0
:1054400070B54FF4806004F0D9FCC8B10025002489
:105450000FE020210E4804F06DFD40B9681C85B2B4
:10546000022D04DD002508210A4804F00BFD601C14
:1054700084B2642CEDDB4FF4806004F0B9FC00BF13
:10548000402004F0BBFC10B1402004F0B1FC70BD22
:1054900000100140000C0140F8B506460C461746C6
:1054A000B4F5800F01D30120F8BD00BFFFF70CFD5C
:1054B0000028FBD1FFF746FD02208DF80000200CEC
:1054C0008DF80100200A8DF80200E0B28DF803008B
:1054D00010210F4804F0D4FC002504E01DF805005D
:1054E00000F03DFE6D1C042DF8DB002503E0705D2F
:1054F00000F035FE6D1CBD42F9DB1021044804F0BC
:10550000C1FC00BFFFF7E0FC0028FBD100BFCBE7E8
:10551000000801402DE9F04107460E461446F0B25E
:10552000C0F58075AC4200D8A5B214E02A463146D9
:105530003846FFF7B1FF022004F052FAAC4200D126
:105540000AE02F442E44641BB4F5807F02D94FF447
:10555000807500E0A5B2E9E700BFBDE8F08100BFBB
:10556000FEE700002DE9FC4104460D4616466EB9E3
:1055700000BF00BF4BA001F061FA51224D494EA07F
:1055800001F05CFA00BF0020BDE8FC8140214D48DD
:1055900004F076FC80214B4804F072FC012004F0FA
:1055A0001FFA05F0AFF8362005F058F870B905F08D
:1055B000C7F800BF00BF3BA001F040FA5A223D49A6
:1055C0003DA001F03BFA00BF0020DDE7284605F0D2
:1055D00045F870B905F0B4F800BF00BF31A001F084
:1055E0002DFA5E22334934A001F028FA00BF0020D2
:1055F000CAE705F087F8012101EB4401C8B205F0C4
:105600002DF870B905F09CF800BF00BF25A001F08F
:1056100015FA6422274928A001F010FA00BF0020E3
:10562000B2E76006000E8DF800008DF801500120F1
:1056300000EB4400C0B28DF80200002708E004F03F
:10564000E1FFF91C0DF8010004F0ACFF781CC7B2B3
:10565000022FF4DB04F0D6FF804604F0B9FF05F01A
:105660006FF805216846FFF71BFE40450CD000BFD0
:1056700000BF0CA001F0E2F973220E490EA001F068
:10568000DDF900BF00207FE7002005E0C11C1DF808
:1056900001103154411CC8B20228F7DB00BF0120C1
:1056A00072E7000052657475726E206661696C6500
:1056B00064000000C8E400085B25735D5B25645D41
:1056C0000D0A0000000C0140F8B504460D461646D0
:1056D00005F018F86106080E04F0C0FF70B905F077
:1056E0002FF800BF00BF2DA001F0A8F98B222F4991
:1056F0002FA001F0A3F900BF0020F8BD284604F058
:10570000ADFF70B905F01CF800BF00BF23A001F089
:1057100095F98F22254926A001F090F900BF0020BD
:10572000EBE7304604F09AFF70B905F009F800BFC6
:1057300000BF1AA001F082F993221C491CA001F0BD
:105740007DF900BF0020D8E76006000E8DF800004C
:105750008DF801508DF8026003216846FFF7A0FD27
:105760008DF803009DF8030004F078FF70B904F091
:10577000E7FF00BF00BF09A001F060F99C220B49C0
:105780000BA001F05BF900BF0020B6E704F0D8FFE2
:10579000012001F08DFF00BF0120AEE75265747556
:1057A000726E206661696C6564000000D8E40008D0
:1057B0005B25735D5B25645D0D0A000010B540F24A
:1057C000036008F0D9FA402303221021084804F0AE
:1057D0005BFB802303221421054804F055FB802144
:1057E000034804F04FFB4021014804F04BFB10BD7F
:1057F000000C014010B540F2026008F0BDFA40F222
:10580000036008F0B9FA40F2046008F0B5FA40F21B
:10581000056008F0B1FA4FF6FF730322002110482B
:1058200004F032FB4FF6FF73032200210D4804F011
:105830002BFB4FF6FF73032200210B4804F024FBDF
:105840004FF6FF7303220021084804F01DFB40F2CD
:105850001C7008F091FA07F0CFFF07F09BFF10BD16
:1058600000080140000C01400010014000140140FC
:105870000146CA1701EB92729210A1EB820292B913
:10588000642091FBF0F200FB121050B94FF4C87085
:1058900091FBF0F200FB121008B9012070470020C4
:1058A000FCE70120FAE70020F8E770470FB583B066
:1058B0000D490398884214D100F024F8022004F026
:1058C0008FF80A4903C9CDE90101082201A94FF067
:1058D0009A50FFF79FFC322004F082F8012007B0B5
:1058E00000BD0020FBE7000003E3FF18E4E7000829
:1058F00070B504460D461646324629462046FFF747
:1059000089FC70BD1CB500200090019000241A494C
:105910000A8C498C0A441849898C0A441649C98C56
:105920005018C11700EB9171C1F38F0420128DF84C
:105930000200E0B28DF803000F48C08E0A2190FBF0
:10594000F1F0000A8DF804000B48C08E90FBF1F0D6
:10595000C0B28DF805000848808E000A8DF8060058
:10596000054890F834008DF807000822694603487E
:10597000FFF7BEFF1CBD000029250020F0E0FF1846
:10598000F8B504460E46174603208DF80000200C9B
:105990008DF80100200A8DF80200E0B28DF80300B6
:1059A00000BFFFF791FA0028FBD110210C4804F04A
:1059B00067FA002504E01DF8050000F0D0FB6D1C1F
:1059C000042DF8DB002503E000F0C4FB70556D1CCE
:1059D000BD42F9DB1021024804F054FAF8BD000082
:1059E000000801402DE9F04F81B0ADF5805D8046A3
:1059F000894614464FEA18304FEA003A4FEA183BFE
:105A0000C8F30B07C7F58055AC4200D825464FF4C4
:105A1000805101A8FEF715FC41E04FF4805201A926
:105A20005046FFF7ADFF00260CE0B81901A9085C4D
:105A3000FF2806D0B819085C19F80610884200D073
:105A400002E0761CAE42F0D300BFAE4210D21FFA85
:105A50008BF0FFF7FFF901A9C8192A464946FEF75E
:105A6000D7FB4FF48052514601A8FFF753FD05E0E4
:105A70000AEB07012A464846FFF74CFDAC4200D12D
:105A80000EE00AF5805A0BF1010B0027A944601BB8
:105A900084B24FF48055B4F5805F00DA2546BCE748
:105AA00000BF01B00DF5805DBDE8F08F2DE9F84332
:105AB00081460E4615461F46DDF8208000242CE066
:105AC00006EB4400C1B26A464846FFF74BFDC0B939
:105AD000A8F1010000F0FF08B8F1000F0DD100BFE0
:105AE00000BF12A000F0AAFFD622144914A000F0B3
:105AF000A5FF00BF0020BDE8F883012001F0D8FD1C
:105B000009E09DF8000005F814009DF80110600000
:105B1000401C295400BF601CC4B2781C00EBD0713B
:105B2000B4EB610FCCDB00BF0120E4E75265747574
:105B3000726E206661696C6564000000F6E400081E
:105B40005B25735D5B25645D0D0A00002DE9F04760
:105B50008046894615461E46089F00241DE02A5DA2
:105B600049464046FFF7B0FDA0B9781EC7B26FB9ED
:105B700000BF00BF0BA000F061FFB4220D490EA0D2
:105B800000F05CFF00BF0020BDE8F087012001F0BD
:105B90008FFD00E000BF601CC4B2B442DFDB00BF79
:105BA0000120F1E752657475726E206661696C655B
:105BB00064000000E9E400085B25735D5B25645D1B
:105BC0000D0A000010B5264801F060FC002001F02D
:105BD000CFFC01220221224801F03DFD01221102E9
:105BE0001F4801F038FD00211D4801F044FC04224B
:105BF00001211B4801F01CFC072301220021184849
:105C000001F0C4FC072302220121154801F0BEFC6B
:105C1000072303220221124801F0B8FC07230D22BA
:105C200003210F4801F0B2FC4FF4602201210C481F
:105C300001F085FC01221146094801F061FC084889
:105C400001F055FC012003F0CBFE054801F0DBFB21
:105C5000034801F047FC0121014801F0EDFC10BDB3
:105C60000024014010B540F2026008F085F840F2CF
:105C7000046008F081F80E23032200210A4804F092
:105C800003F9082303220021084804F0FDF840F23C
:105C9000096008F071F84FF4A06008F06DF8032077
:105CA00007F002FF10BD0000000801400010014095
:105CB00000B587B00021194803F00CFF1848009088
:105CC00000208DF818001748029001208DF8190067
:105CD000400201908000039000208DF81A002C20D3
:105CE00004904FF4005005906A4600210B4803F0E1
:105CF00031FF0021094803F0D4FE0021074803F0DA
:105D00009EFE02220021054803F0BBFF012211463E
:105D10000B2007F0BFFC07B000BD000000000240F0
:105D20004C240140801B002010B540F2026008F0B6
:105D300023F840F2036008F01FF840F2046008F016
:105D40001BF840F2056008F017F84FF4C06008F047
:105D500013F801213D4804F0F5F848F2010303224D
:105D600028213B4804F090F84FF4E063032210210F
:105D7000374804F089F8102303224821354804F0FD
:105D800083F84FF4805303222821324804F07CF832
:105D90004AF22B03032210212E4804F075F8242325
:105DA000032248212C4804F06FF84FF4805303225B
:105DB0002821294804F068F842F203130322102135
:105DC000254804F061F8042303221021234804F03D
:105DD0005BF808211F4804F055F84FF480711E4805
:105DE00004F04EF84FF400411A4804F049F820211D
:105DF000184804F047F84FF48071154804F042F851
:105E00000121144804F03CF84FF40051114804F00B
:105E100037F802210F4804F033F84FF480610C4842
:105E200004F02EF84FF40071094804F02BF801211A
:105E3000094804F025F84FF4FA6003F0D1FD4FF45F
:105E40008071054804F01EF810BD0000000230000B
:105E500000080140000C0140001001400014014006
:105E600000BFFEE77047000010B5002807DA0A07F8
:105E7000140E054A00F00F031B1FD45403E00A0759
:105E8000130E024A135410BD18ED00E000E400E0C8
:105E9000704710B540F21B7007F06EFF40F21C70A7
:105EA00007F06AFF07F06CFC012002F093FE4AF253
:105EB000A551884201D002F0C3FE4FF4006007F004
:105EC000DBFE4FF4006007F0E7FE4FF4807007F050
:105ED00083FF40F60F0007F04FFF07F0EDFF07F0DC
:105EE000D1FF012007F0C6FF07F0CCFF47F6FF7097
:105EF00007F0D2FF07F0C6FF10BD00002DE9F0410A
:105F000007F08AFF31490860084600683049B0FB55
:105F1000F1F440F2B277002C32D00EE03846FFF7B1
:105F2000A7FC30B1B4F5B77F02D3A4F5B77402E093
:105F300006E0A4F26D14781C87B2B4F5B67FEDD8F4
:105F400000BF24488780012517E022498888FFF791
:105F50008FFC30B1022D04D11D2C01D31D3C0AE071
:105F60000DE0681E1C49085CA04203D8681E085C4E
:105F7000241A00E003E0681C85B21C2CE5D200BFA7
:105F800014498D71601CC871104800681049B0FB3D
:105F9000F1F201FB12064FF46160B6FBF0F00D491F
:105FA00008704FF46160B6FBF0F100FB11603C211A
:105FB000B0FBF1F0074948703C20B6FBF0F100FB64
:105FC000116004498870BDE8F081000034000020B1
:105FD000805101002C000020ACE4000810B5012025
:105FE00007F03CFF20B1012007F030FFFFF786FFEC
:105FF00010BD10B5FFF74DFF00F002F8002010BDF6
:1060000010B500220121032007F044FB10BD000061
:106010002DE9F05F06460F4691469A46DDF828B016
:10602000002440F2B2784046864203DB40F633005B
:10603000864202DD0120BDE8F09F0CE04046FFF7FC
:1060400017FC10B11D48044401E01D48044408F148
:1060500001001FFA80F8B045F0DB781EC7B20025BA
:1060600010E01848405D40F2A321484304EBC014FF
:106070003046FFF7FDFB18B1012D01D11248044451
:10608000681CC5B2BD42ECDBA9F1010040F2A321BE
:10609000484304EBC014CAEB4A10C0EB0A2004EBDF
:1060A0000014CBEB0B1004EB80040B98044407F0B6
:1060B000E9FE204607F0BAFE0020BCE70085E201B9
:1060C0008033E101ACE40008805101001CB50120DF
:1060D00002F080FD4AF2A55188421ED001200F49EE
:1060E00008700090034602460146019040F2E770B6
:1060F000FFF78EFF07F044FB4AF2A551012002F0A2
:1061000085FD07F033FB00BF05A000F097FCA2223D
:106110000C490DA000F092FC00BF1CBD380000200F
:106120000D0A2054696D6520696E697469616C6936
:106130007A6174696F6E20636F6D706C65746564ED
:10614000200D0A00B8E400085B25735D5B25645DE3
:106150000D0A000010B5FF2007F0BEFE10BD10B5FF
:106160000446204607F0B8FE10BD000010B540F20E
:10617000026007F001FE40F2046007F0FDFDB0236D
:1061800003221021124803F07FFE40230322042142
:106190000F4803F079FE4FF40473032210210D48D9
:1061A00003F072FE10210B4803F06CFE4FF40071F7
:1061B000084803F067FE1021054803F063FE202124
:1061C000034803F05FFE8021014803F05BFE10BD31
:1061D0000008014000100140704710B503F00AFCB0
:1061E00010BD000008B53048006840F001002E499D
:1061F000086000BF2C48006800F002000028F9D0B9
:1062000000BF2948406840F08000274948600020CE
:10621000009002E00098401C009000985028F9D3AC
:106220002148406840F090001F49486000200090DD
:1062300002E00098401C009000985028F9D300BF5D
:106240001948406820F00300174948600846006874
:106250001649084014490860084640681449084037
:106260001149486008460068104908400E49086016
:106270000846006820F480200860084640680D4900
:10628000084009494860084600680849084006492E
:1062900008604FF41F00886007F0B0FE00214FF047
:1062A000006007F057FA08BD00100240FFFFF6FE3D
:1062B0000C00FFE8FFFF00F710B50821044803F0C9
:1062C000DFFD642003F08CFBFFF794FA10BD0000A3
:1062D000000C014010B50121880707F034FF0120B0
:1062E000414908704148007807287CD1404800881F
:1062F000404908800221404803F068FDC0F516605F
:106300003B4908803B4800880988884212D13848B8
:10631000008800280EDD39480088401C3749088075
:1063200008460088642808DD0020088001203449E0
:10633000087002E00020314908802D480088AA2812
:1063400027DA2E484088401C2C494880084640885F
:10635000C82821DD00204880888004202349087057
:10636000002028490870264908700221224803F0BD
:106370004DFB02221146204803F0E4FB4FF4166265
:1063800002211D4803F00FFD02211B4803F057FBBB
:1063900002E000201949488018488088401C1749AD
:1063A000888008468088B0F5166F1CDD0020888044
:1063B00004200E4908700020124908701049087026
:1063C00002210D4803F022FB022211460A4803F085
:1063D000B9FB4FF416620221074803F0E4FC0221E6
:1063E000054803F02CFB10BD0E000020DC0300204C
:1063F00018000020160000200000024010000020BD
:1064000034040020360400201FB54FF4E06007F08C
:10641000B3FC4FF0804007F023FE6B20ADF8000086
:106420000020ADF80200ADF804004CF24F300290AD
:106430000020ADF80C008DF80E0069464FF080404A
:1064400007F084FE4FF4C06007F07AF901220021C2
:106450001C2007F01FF90121880707F0E7FE4FF025
:10646000804007F0F7FD1FBD10B52749274807F00A
:10647000D9FFC0B1254807F04FFFC1B224480288B8
:106480002448815422480088401C2149088000206B
:1064900020490C3908811E480088B0F5966F02DB50
:1064A00000201B4908801C49184807F0BBFF48B36F
:1064B0001949164807F0ADFF144807F02DFF14489E
:1064C000008814490C3908810020114908801148BE
:1064D0000C38018900F66C131A1D0C3007F032F8E5
:1064E00040B10C480C38B0F86C2900F51761002059
:1064F00000F0F4F84FF496610648FDF7A2FE002084
:106500000349088010BD000005030500004C004051
:106510003A0400206C040020040304002DE9F0413B
:1065200004460F4615461E46DDF8188014B1012CAE
:106530005AD12CE0434807F0F9FE4248424941F85D
:10654000240040F2046007F017FC40F2137007F0DB
:1065500013FC4FF48063032218213C4803F094FCA1
:106560004FF4006303220421384803F08DFC00221D
:106570001146342007F08EF840F20531314807F01B
:106580003BFF4FF441712F4807F036FF2EE03048B3
:1065900007F0CCFE2E482C4941F8240040F203605D
:1065A00007F0EAFB40F2127007F0E6FB4FF480635D
:1065B00003221821274803F067FC4FF400630322ED
:1065C0000421244803F060FC00221146272007F034
:1065D00061F840F205311E4807F00EFF4FF441719B
:1065E0001B4807F009FF01E0BDE8F08100BF164934
:1065F00051F82400394607F047FE134951F82400AA
:10660000414607F02BFF104951F82400294607F0B6
:1066100045FF0D4951F82400314607F02FFF0A4984
:1066200051F82400082107F031FF074951F82400F0
:10663000042107F01BFF044951F8240007F0C8FEAD
:1066400000BFD1E7004C0040600400200010014072
:1066500000480040000C014000B587B04FF4A06036
:1066600007F08AFB02211A4803F034FA684603F067
:106670008FFB00208DF81A001648029001208DF83B
:106680001900002003904FF4166004901248009007
:1066900000208DF8180003904FF4405005906A4692
:1066A00002210B4803F056FA0221094803F0E0F9F1
:1066B0000221074803F047FB40210748001F07F06D
:1066C0007DFE0221024803F0BAF907B000BD0000C8
:1066D000000002406C040020044800402DE9F04115
:1066E00004460D4616460DB9BDE8F08106B9FBE734
:1066F00024B94FF480610B4803F0C4FB002707E086
:10670000E95D094A12F8240000F010F8781C87B2FD
:10671000B742F5DB24B94FF48061024803F0B0FBC7
:1067200000BFE1E7000801406004002070B50446A6
:106730000D46084951F82400294607F0F2FD00BF34
:10674000044951F82400072107F047FE0028F7D03C
:1067500070BD00006004002010B52B492B4807F0E5
:1067600061FE18B12849294807F053FE28492748F7
:1067700007F058FED8B32649244807F04AFE2348BC
:1067800007F0CAFD2348007818B901202249087093
:106790002DE00020204908700221204803F016FB5C
:1067A000C0F5166081B21E4841814089B0F57F7FF7
:1067B00007DD1B484089B0F5966F02DA01201649C3
:1067C0000870174890F8BC04042810D1144890F8B9
:1067D000BD0401280BD1124890F8BE0438B9104806
:1067E00090F8BF04FF2802D101200B4908700D4921
:1067F000064807F017FE30B10A49044807F009FEC1
:10680000024807F089FD10BD05030500004800405F
:106810000403040036040020340400200000024079
:1068200060040020050303002DE9F0430546884677
:10683000144699464FF6FF773E46E878A97800EB74
:10684000012087B20A480088874202D00020A07049
:1068500001E00120A07032460321204607F0EAFC47
:106860000646300AE070267100BF0120BDE8F083C3
:106870004C0400202DE9F05F04468A4615469B46ED
:106880000027B8464FF6FF794E46E078A17800EB36
:10689000012087B26079217900EB01201FFA80F88E
:1068A00023480088234909780844B84202D00020D0
:1068B000BDE8F09F607B217B00EB01201FFA80F98F
:1068C0004FF48062E11D1C48FDF7A2FC324640F205
:1068D0000641204607F0AEFC06461848028840F202
:1068E0000641204607F0A6FC14490880B14502D0B5
:1068F0000020A87010E00120A8700D490988104AF6
:10690000126802EB812042460B49FFF76BF80848FA
:106910000088401C0649088032460321284607F0BB
:1069200089FC0646300AE8702E7100BF0120BFE7DF
:106930004E04002050040020E42600204C040020D7
:10694000540400202DE9F043044688461546994634
:106950004FF6FF773E4614B90020BDE8F083207A59
:10696000E17940EA0120A17940EA0140617940EAF9
:10697000016018490860E07AA17A00EB0120617A91
:1069800000EB0140144908604FF47010134908608F
:10699000607B217B00EB012087B232460C21204630
:1069A00007F048FC06462078287050206870B742EF
:1069B00002D00020A87001E00120A8703246032117
:1069C000284607F037FC0646300AE8702E7100BFF3
:1069D0000120C2E7440400204804002054040020A1
:1069E0002DE9F04104460D4616461F4694F80180F5
:1069F000B8F1500F06D0B8F1510F0BD0B8F1520FCB
:106A000016D10EE03B46324629462046FFF79AFF54
:106A1000BDE8F0813B46324629462046FFF72AFF73
:106A2000F6E73B46324629462046FFF7FDFEEFE7F4
:106A300000BF0120ECE700BFFEE700000FB4054BEC
:106A400010B503A9044A029800F046F910BC5DF89D
:106A500014FB00005D9E0008580400202DE9F04161
:106A60004F1E00EBC7010446D1E9000115461E4642
:106A700037F006020DD02A463346FDF765FD7F1E2E
:106A800004EBC703D3E90023FDF7B7FC37F0060298
:106A9000F1D1022F25D0042F13D0062F18BFBDE847
:106AA000F0812A463346FDF74FFDD4E90A23FDF76E
:106AB000A4FC2A463346FDF747FDD4E90823FDF739
:106AC0009CFC2A463346FDF73FFDD4E90623FDF73B
:106AD00094FC2A463346FDF737FDD4E90423FDF73D
:106AE0008CFC2A463346FDF72FFDD4E90223FDF73F
:106AF00084FC2A463346FDF727FDD4E90023BDE890
:106B0000F041FDF77ABC000000221346104601490F
:106B1000FDF78CBD0000F03F0122FEF74DB80022CA
:106B2000134610461146FDF781BD02E008C8121F4A
:106B300008C1002AFAD170477047002001E001C166
:106B4000121F002AFBD170470149086070470000FE
:106B50005C0400202DE9FF5F82B00021DDE90430F4
:106B6000020DDDF840B0034318D044F61050A2F2F5
:106B7000FF3242431514119801281FD0A5EB0B00DA
:106B8000401C5FEA000A4FF000064E4FDFF83891D4
:106B9000B046504615D5CAF1000413E011980124FF
:106BA0004AA3012801D16FEA0B010298119AC0E9AA
:106BB0000031C0E9024206B0BDE8F09FCBF1000011
:106BC000DFE704460021404A491842EB0450CDE972
:106BD000001012E0E00707D032463B4640464946E7
:106BE000FDF7B2FC8046894632463B4610461946C0
:106BF000FDF7AAFC06460F466410002CEAD1DDE939
:106C00000401DDE90023BAF1000F06DAFDF79CFC70
:106C100042464B46FDF798FC05E0FDF707FD42466E
:106C20004B46FDF703FD04460E460022284BFDF7B8
:106C300029FE03D84FF0FF30014607E00022254B24
:106C400020463146FDF7D9FBFDF7CDFF102409E0C2
:106C5000002C0ADB0A220023FDF772FE039B303270
:106C60001A55641E50EA0102F2D1641C039AC4F161
:106C700011031444119A012A03D0012208430DD1B3
:106C80000AE0084304D000204FF0110B119072E786
:106C9000A3EB0B056D1E0DE05B4504DD4FF000021C
:106CA00005F1010504E003DA4FF00002A5F101054A
:106CB000002AECD002981199C0E90231C0E90045E0
:106CC00079E70000000014400000F03F30000000B1
:106CD0000000F0430000E03F2DE9FF4F95B09B46D8
:106CE0008946064600250FE2252877D1002427464D
:106CF000F84A0121059400E0044316F8013F203BC7
:106D000001FA03F01042F7D130782A2811D06FF041
:106D10002F033078A0F13002092A16D8059A44F0E2
:106D2000020402EB820203EB42021044761C05903F
:106D3000EFE759F8042B0592002A03DA504244F495
:106D40000054059044F00204761C30782E2816D1A9
:106D500016F8010F44F004042A280DD06FF02F021A
:106D60003078A0F13003092B09D807EB870302EB39
:106D70004303C718761CF3E759F8047B761C307878
:106D80006C280FD006DC4C2817D068280DD06A2854
:106D900014D104E0742810D07A280FD10DE044F407
:106DA00000140AE044F4801401E044F440147278C2
:106DB000824202D104F58014761C761C3078662855
:106DC0000BD013DC582877D009DC002875D0452873
:106DD000F6D04628F4D047281AD19DE118E0632860
:106DE00035D0642879D0652812D195E1702873D008
:106DF00008DC6728F1D069286FD06E280DD06F2885
:106E000006D1B5E073282CD0752875D0782874D0B9
:106E10005A46179990476D1C75E1C4F30250022839
:106E200009D003280DD0D9F8001004280DD00D602A
:106E300009F1040967E1D9F80010EA17C1E9005225
:106E4000F6E7D9F800100D80F2E70D70F0E719F8B9
:106E5000041B8DF8001000208DF80100EA46012087
:106E600003E059F804AB4FF0FF3061074FF0000129
:106E700002D40DE008F101018846B9420FDA8045DD
:106E8000F8DB1AF808100029F4D108E008F1010134
:106E900088468142FADB1AF808100029F6D10598D5
:106EA0005B46A0EB080721463846179A00F094FA93
:106EB000284400EB080507E04DE029E10DE01AF851
:106EC000010B5A4617999047B8F10108F7D25B4673
:106ED00021463846179A13E142E00A220092C4F391
:106EE00002524FF0000A022A08D059F804CB032AB4
:106EF0004FEAEC710AD00DE029E02AE009F1070120
:106F000021F00702F2E802C1914609E00FFA8CFC79
:106F10004FEAEC71042A03D14FFA8CFC4FEAEC7172
:106F2000002907DA0A460021DCF1000C61EB0201BE
:106F30002D2202E0220504D52B228DF80420012207
:106F400003E0E20701D02022F7E7904659E00A214A
:106F500002E010220DE010214FF0000A00910BE03A
:106F600010224FF0000A44F004040827009203E0C6
:106F700008224FF0000A0092C4F30252022A05D000
:106F800059F804CB0021032A08D009E009F10701D0
:106F900021F00702F2E802C1914605E01FFA8CFCDD
:106FA000042A01D10CF0FF0C4FF00008220728D56D
:106FB000702806D0009B83F0100353EA0A0305D023
:106FC0000EE040228DF80420012208E05CEA010274
:106FD00006D030228DF804208DF80500022290465C
:106FE000009B83F0080353EA0A030AD15CEA01021A
:106FF00001D1620705D530228DF804204FF0010839
:107000007F1E582804D034A003900EA802900DE0F3
:1070100036A0F9E753466046009AFDF791FC844696
:107020000398825C0298401E029002705CEA0100A4
:10703000F0D1029806A9081A00F1200A600702D5CB
:1070400024F4803400E00127574502DDA7EB0A0055
:1070500000E0002000EB0A01009005984144401A2E
:107060000590E00306D45B462146179A059800F088
:10707000B3F90544002706E001A85A46C05D1799F8
:1070800090476D1C7F1C4745F6DBE0030CD55B4643
:107090002146179A059800F09FF9054404E0302036
:1070A0005A46179990476D1C0099481E0090002978
:1070B000F5DC08E0029802995A460078491C0291D2
:1070C000179990476D1CBAF10001AAF1010AF1DC91
:1070D00065E100000928010030313233343536379C
:1070E0003839616263646566000000003031323314
:1070F00034353637383941424344454600000000B4
:1071000000F058F90544761C307800287FF4ECAD87
:1071100019B02846BDE8F08F620700D4062709F1B0
:10712000070222F0070CFCE80223E14603F00048C6
:107130005FEA080C02D00FF2702C0DE05FEA045CED
:1071400002D50FF2682C07E05FEAC47C02D00FF290
:10715000602C01E0AFF2700C4FF0FF3823F00043D9
:10716000CDF850C065280CD006DC452809D046284B
:107170001DD047283DD13DE0662818D067287ED134
:1071800038E00021112F01DB112000E0781CCDE94F
:10719000000106A90EA8FFF7DDFCDDE90F010E9A3C
:1071A00003910021009207F1010A04914DE04FF094
:1071B00000400097CDE9011006A90EA8FFF7CAFC10
:1071C000DDE90F0203920E9B11990022DDF80CA05D
:1071D0000093049211B9791C00EB010AB7EB0A0085
:1071E00004D4C0F1FF3007F1010A0490AAEB0700B4
:1071F000019044E0012F00DA01270021112F01DD69
:10720000112000E03846CDE9000106A90EA8FFF7DD
:10721000A1FCDDE90F010E9A039100210491009277
:10722000BA4621070CD40399514500DA8A46BAF1CF
:10723000010F05DD009AAAF10101515C302908D047
:10724000B84202DA10F1040F06DA0121CDE901108B
:1072500015E0AAF10101E9E7002805DC04990144E1
:107260000491AAEB000102E0411C514500DD8A4671
:107270000499401A401C01904FF0004002902007F2
:1072800004D40198504501DBCDF8048000208DF82E
:107290004F0002980DF14F07B0F1004F25D02B2081
:1072A0000E9002984FF0020800280CDA404202903B
:1072B0002D200E9007E00A210298FDF72BFB3031BC
:1072C000029007F8011DB8F10001A8F10108F2DCF5
:1072D00002980028EFD1791E0E980870307800F0DF
:1072E000200040F0450007F8020D12A8C01B00F175
:1072F00007081498007800B1012000EB0A010198FA
:1073000001EBE07105984144401A401E0590E003EE
:1073100006D45B462146179A059800F05DF80544AF
:107320001498007818B15A46179990476D1CE003DD
:1073300024D55B462146179A059800F04DF8054480
:107340001CE00498002807DBDDE90301884203DD27
:107350000098405C179901E0179930205A469047F1
:10736000049805F10105401C04900198401E01900D
:1073700004D12E205A46179990476D1CBAF100018E
:10738000AAF1010ADDDC05E017F8010B5A4617994E
:1073900090476D1CB8F10001A8F10108F4DC5B46D0
:1073A0002146179A0598ABE62D0000002B0000003F
:1073B000200000002DE9F041044600251E46174636
:1073C000880404D405E039462020B0476D1C641EB3
:1073D000F9D52846BDE8F0812DE9F04104460025A5
:1073E0001E469046C80301D5302700E020278804B8
:1073F00004D505E041463846B0476D1C641EF9D5FA
:107400002846BDE8F081816841F00801816000BF35
:10741000816801F008010029FAD1816841F0040176
:10742000816000BF816801F004010029FAD1704732
:1074300030B5012902D002291AD10CE0C36A23F425
:107440007003C362C36A541E4FF4700505EA045406
:107450002343C3620DE0836B23F440138363836B88
:10746000541E4FF4401505EA04542343836300E09F
:1074700000BF00BF30BD21B1826842F4006282606B
:1074800003E0826822F400628260704710B504460F
:107490001348204430B1B0F5806F0CD0B0F5C05F18
:1074A0001BD111E040F2093006F086FC40F20930B1
:1074B00006F072FC12E040F20A3006F07DFC40F269
:1074C0000A3006F069FC09E040F20F3006F074FC67
:1074D00040F20F3006F060FC00E000BF00BF10BDBE
:1074E00000DCFEBF816841F4807181607047816873
:1074F00001F0010119B9816841F001018160704713
:1075000072B101F001031BB1836843F480138360FF
:1075100001F0020393B1836843F4004383600DE0FC
:1075200001F001031BB1836823F48013836001F031
:1075300002031BB1836823F4004383607047012971
:1075400002D0022910D107E0836823F4602383600E
:1075500083681343836008E0836823F4E043836017
:1075600083681343836000E000BF00BF70470000E2
:107570000549096821F47021034A11601146096820
:10758000014311607047000004240140F0B51D461E
:1075900006290CDA436B01EB81071F26BE40B3437B
:1075A00001EB810602FA06F63343436322E00C291D
:1075B0000EDA036B8E1F06EB86071F26BE40B34311
:1075C0008E1F06EB860602FA06F63343036311E0CC
:1075D00010290FDAC36AA1F10C0606EB86071F26F5
:1075E000BE40B343A1F10C0606EB860602FA06F68E
:1075F0003343C3620A2A0CDA046902EB4207072606
:10760000BE40B44302EB420605FA06F63443046179
:1076100011E0122A0FDAC468A2F10A0606EB460747
:107620000726BE40B443A2F10A0606EB460605FA59
:1076300006F63443C460F0BD01F001021AB182685D
:1076400042F48002826001F002021AB1826842F4C0
:10765000001282607047AAB101F480731BB14368C5
:1076600043F48073436001F480631BB1436843F4C7
:107670008063436001F00203CBB1836843F00203EF
:10768000836014E001F480731BB1436823F48073BA
:10769000436001F480631BB1436823F4806343605B
:1076A00001F002031BB1836823F00203836070477B
:1076B00041F2883200FB02F106E000BF00BF00BFCC
:1076C00000BF00BF00BF00BF0A1EA1F10101F4D13D
:1076D000704700002DE9F04F8BB003201F2302AA52
:1076E0000E2100901B20FEF7E1F978B900BF00BF22
:1076F000A0A0FFF7A3F94FF40A72A249A2A0FFF7D6
:107700009DF900BF00200BB0BDE8F08F002011E014
:10771000012101EB400102AA525C9E4901F81020B0
:1077200002A911F81020012101EB40039949CA5424
:10773000411CC8B20F28EBDBDFF8589209F1330483
:10774000DFF854A200253EE093492E3101EB85017C
:1077500008680021FDF7CAF815D1681C09EB400044
:10776000B0F9000000EB400040004FF47A7100FBDC
:1077700001F6F11706EB11510813FCF7C6FF04EBF5
:10778000850108601DE0681C09EB4000B0F90000AD
:1077900000EB400040004FF47A7100FB01F6F11756
:1077A00006EB11510813FCF7B0FF07467A482E305C
:1077B00000EB850001683846FCF7AFFD04EB85015E
:1077C0000860681CC5B2042DBEDB002526E009F167
:1077D000140000EB4500008800EB8000410009F137
:1077E000140000EB45000088C0F5805091FBF0F8D4
:1077F0004046FCF78AFF07460AF10E0000EB8500C1
:1078000001683846FCF731FD064600F0E7FA04F15E
:10781000100101EB85010860681CC5B2022DD6DBA2
:10782000B9F81800FCF790FF05465C4A5C4BFCF782
:107830008BFE00225B4BCDE90001FCF77FFE074683
:10784000FDF738F8A061B9F91C000121B1EB203F28
:1078500006D1B9F81C0040F4604000B2A9F81C0041
:107860004C480E38B0F83300322807D064283CD09A
:10787000C8284FD0B0F5C87F77D160E0B9F91C00B7
:10788000FCF743FF48490190FCF747FD8346FCF7AE
:10789000CDFF0746454A464BFCF7C8FE0546FDF7B7
:1078A00009F8E061E0690021FDF72AF80ED2414AAB
:1078B000D2F8E613E069FCF730FD05463D48D0F804
:1078C000EA132846FCF7D1FCE0610DE0394AD2F812
:1078D000EE13E069FCF721FD05463648D0F8EA13BF
:1078E0002846FCF7C2FCE06140E0B9F91C00FCF757
:1078F0000CFF2D490190FCF710FD8346FCF796FF25
:1079000007462D4A2D4BFCF791FE0546FCF7D2FFAA
:10791000E0612BE0B9F91C00FCF7F7FE2249019069
:10792000FCF7FBFC8346FCF781FF0546224A244B0B
:10793000FCF77CFE0746FCF7BDFFE06116E0B9F9F5
:107940001C00FCF7E2FE18490190FCF7E6FC8346B8
:10795000FCF76CFF0546184A1A4BFCF767FE074612
:10796000FCF7A8FFE06101E0FFE700BF00BF00BF38
:107970000120C8E652657475726E206661696C6597
:10798000640000001AE500085B25735D5B25645DFB
:107990000D0A00004E1C002069200020C3F5285C61
:1079A0008FC2C53F00E0704000007A4455674B75B8
:1079B000B6D40740A11C00206FB1194ACED4F73FBE
:1079C000CED4E73FCED4D73F2DE9F04385B0032096
:1079D0000E2301AA002100901B20FEF767F878B95A
:1079E00000BF00BFA1A0FFF729F840F2AB12A349E6
:1079F000A3A0FFF723F800BF002005B0BDE8F08387
:107A0000002005E001A9095CA04A1154411CC8B23C
:107A10000E28F7DB00BF9EA0FFF710F840F2B5126A
:107A2000964997A0FFF70AF800BF00250FE000BFB6
:107A300001A8425D2946A6A0FFF700F840F2B71260
:107A40008E498FA0FEF7FAFF00BF681CC5B20E2D4D
:107A5000EDDB00BF8CA0FEF7F1FF40F2B9128749C1
:107A600087A0FEF7EBFF00BFDFF8209209F12D049D
:107A700099F8090000F0030030B1012807D002286E
:107A800008D003280ED109E0322020800EE06420C7
:107A900020800BE04FF49670208007E04FF4FA70DE
:107AA000208003E04FF6FF70208000BF00BF99F8F0
:107AB0000900C0F3810030B1012807D0022808D0A6
:107AC00003280ED109E0642060800EE0C8206080A9
:107AD0000BE04FF49670608007E04FF4C870608050
:107AE00003E04FF6FF70608000BF00BF99F8090007
:107AF000C0F3011030B1012807D0022808D00328B4
:107B00000DD108E01020A0800DE02020A0800AE028
:107B10008020A08007E04FF47A70A08003E04FF649
:107B2000FF70A08000BF00BF99F80900800930B144
:107B3000012808D0022809D003280DD109E04FF40C
:107B4000C870E0800CE0C820E08009E06420E0809C
:107B500006E03220E08003E04FF6FF70E08000BFD7
:107B600000BF99F80A0000F0030030B1012808D0E6
:107B700002280AD0032810D10BE040F6B83020814B
:107B80000FE04FF47A7020810BE04FF4FA6020810F
:107B900007E04FF4FA70208103E04FF6FF70208178
:107BA00000BF00BF99F80A00C0F3810030B101287E
:107BB00008D002280AD0032810D10BE04FF4AF60A0
:107BC00060810FE040F6B83060810BE041F27070E8
:107BD000608107E042F6E060608103E04FF6FF70ED
:107BE000608100BF00BF99F80A00C0F302100828A6
:107BF0001DD2DFE800F004070A0D1013161901204A
:107C0000A08118E00220A08115E00420A08112E0EC
:107C10000820A0810FE01020A0810CE02020A0818E
:107C200009E04020A08106E08020A08103E04FF61B
:107C3000FF70A08100BF00BF99F80C1099F80B20CD
:107C400002F0030201EB0220FCF76DFD0746234A18
:107C5000234BFCF779FC0546FCF72CFEC4F80E001C
:107C600099F80D00608200BF0120C6E65265747568
:107C7000726E206661696C656400000002E50008B0
:107C80005B25735D5B25645D0D0A0000401C0020D0
:107C90000D0AA1BE2A2A2A2A2A2A2A2A2A2A2A2A76
:107CA0002A2A2A2A4146452D524F4DBCC4B4E6C665
:107CB000F7B2CECAFD2A2A2A2A2A2A2A2A2A2A2AB8
:107CC0002A2A2A2A2A2A2A2A2A2AA1BF0D0A000099
:107CD0005B253032785D253032780900713D0AD756
:107CE000A370174010B50021324880F8C913002056
:107CF000304981F8C80300212E4880F8CA13632157
:107D000080F8CB13002180F8CC1380F8CD13D82154
:107D100080F8CE13002180F8CF1380F8D013FF2114
:107D200080F8D113012180F8D213032180F8D313F6
:107D3000FF2180F8D413002180F8D5130E2200F51E
:107D400072711D48FCF764FA00F0EEFE68B900BFDE
:107D500000BF1AA0FEF772FE4FF47B721B491CA0F5
:107D6000FEF76CFE00BF002010BDFFF72DFE68B9C6
:107D700000BF00BF11A0FEF761FE40F2214213498F
:107D800013A0FEF75BFE00BF0020EDE7FFF7A2FCAB
:107D900068B900BF00BF09A0FEF750FE40F22442C0
:107DA0000A490BA0FEF74AFE00BF0020DCE700BF37
:107DB0000120D9E7A11C0020401C002052657475E9
:107DC000726E206661696C656400000052E500080F
:107DD0005B25735D5B25645D0D0A00002DE9F047AE
:107DE0000546254801682846FCF78AFD02D8234845
:107DF000BDE8F0872048D0F880122846FCF776FDD1
:107E000001D81F48F4E7002431E01B4850F8241043
:107E10002846FCF76BFD28D8174A601C52F8201042
:107E20002846FCF76DFD20D8134B621C53F8221036
:107E30001A4652F82400FCF76AFA81460E4850F8B8
:107E400024102846FCF766FA82464946FCF797FA62
:107E500007462046FCF762FC80463946FCF705FAE7
:107E600006460849FCF753FAC2E7601CC4B2A02CCE
:107E7000CBDB0548BCE700003C010020000048C205
:107E80000000DC4200004842008088C310B51B4857
:107E90000068401C194908600846006801280BD199
:107EA00017491848C0F8E6131749C0F8EE131749E8
:107EB000C0F8EA1301F056FA1248B0F812060F495A
:107EC00009684843FA2802D200BF012010BD0020F3
:107ED0000A490860FFF7FEFB68B900BF00BF0CA0AD
:107EE000FEF7ACFD40F242420D490EA0FEF7A6FDA2
:107EF00000BF0020EAE700BF0120E7E7C003002041
:107F0000C4B16E3FA11C00205839843F0026F946B9
:107F100052657475726E206661696C65640000005C
:107F20005BE500085B25735D5B25645D0D0A000061
:107F30002DE9FC4705460F46164600BF3068FCF7A2
:107F400075FC3A46CDE900012946F1A0FEF776FD21
:107F500040F20132F649F7A0FEF770FD00BF76B996
:107F600000BF00BFF6A0FEF769FD40F20332F04902
:107F7000F0A0FEF763FD00BF0020BDE8FC872C46A3
:107F8000DDE30C2C08DC611B56F82100FCF702FC39
:107F90002146EF4A50540DE30E2C0DDB2C2C0BDC4C
:107FA000611B56F82100FCF7F5FBC2B2A4F10E00EC
:107FB000E7490E310A54EEE7302C77DB662C75DC8E
:107FC000A4F13000372828D2DFE800F01C28344024
:107FD0004C5864717D8995A1ADB9C5F9F7F6F5F4F2
:107FE000F3F2F1F0EFEEEDECEBEAE9E8E7E6E5E4D9
:107FF000E3E2E1E0DFDEDDDCDBDAD9D8D7D6D5D4C9
:10800000D3D2D100611B56F82100FCF7C3FBD04945
:10801000097860F30001CE480170CBE2611B56F88D
:108020002100FCF7B7FBCA49097860F34101C84851
:108030000170BFE2611B56F82100FCF7ABFBC4499D
:10804000097860F38201C2480170B3E2611B56F8FF
:108050002100FCF79FFBBE49097860F3C301BC48CF
:108060000170A7E2611B56F82100FCF793FBB849A9
:10807000897860F30001B64881709BE2611B56F875
:108080002100FCF787FBB249897860F34101B048D1
:1080900081708FE2611B56F82100FCF77BFBAC4935
:1080A000897860F38201AA48817083E283E2611BD0
:1080B00056F82100FCF76EFBA549897860F3C301EF
:1080C000A348817076E2611B56F82100FCF762FB41
:1080D0009F49897860F304119D4881706AE2611BB1
:1080E00056F82100FCF756FB9949897860F3451151
:1080F000974881705EE2611B56F82100FCF74AFB4D
:108100009349C97860F300019148C17052E2611B44
:1081100056F82100FCF73EFB8D49C97860F3410118
:108120008B48C17046E2611B56F82100FCF732FB18
:108130008749C97860F382018548C1703AE2611BC2
:1081400056F82100FCF726FB8149C97860F3C3018A
:108150007F48C1702EE2611B56F82100FCF71AFB24
:108160007B49C97860F304117948C17022E219E2B1
:1081700010E203E2F6E1E9E1DCE1CFE1C2E1B5E1E1
:10818000A8E19BE18EE181E174E167E15AE14DE113
:1081900040E133E126E119E10CE1FFE0F2E0E5E046
:1081A000D8E0A8E09BE08EE081E074E067E05AE070
:1081B0004DE040E033E026E019E00CE0FFE7611B12
:1081C00056F82100FCF7E6FA6149C97860F34511D9
:1081D0005F48C170EEE1611B56F82100FCF7DAFA46
:1081E0005B49C97860F386115948C170E2E1611BAF
:1081F00056F82100FCF7CEFA5549097960F30001E1
:1082000053480171D6E1611B56F82100FCF7C2FA10
:108210004F49097960F341014D480171CAE1611B81
:1082200056F82100FCF7B6FA4949097960F3820152
:1082300047480171BEE1611B56F82100FCF7AAFA1C
:108240004349097960F3C30141480171B2E1611BFF
:1082500056F82100FCF79EFA3D49097960F30411B4
:108260003B480171A6E1611B56F82100FCF792FA28
:108270003749097960F34511354801719AE1611B6D
:1082800056F82100FCF786FA3149097960F3861126
:108290002F4801718EE1611B56F82100FCF77AFA34
:1082A0002B49097960F3C7112948017182E1611BEB
:1082B00056F82100FCF76EFA2549497960F3000170
:1082C0002348417176E1611B56F82100FCF762FA00
:1082D0001F49497960F341011D4841716AE1611B01
:1082E00056F82100FCF756FA1949497960F38201E2
:1082F000174841715EE1611B56F82100FCF74AFA0C
:108300001349497960F3C3011148417152E10000FA
:108310007573416464723D25642C7563436E743DCE
:1083200025642C2A706656616C3D256600000000AD
:1083300031E500085B25735D5B25645D0D0A000077
:1083400052657475726E206661696C656400000028
:10835000401C0020611B56F82100FCF71BFAF8496D
:10836000897960F30201F648817123E1611B56F8B7
:108370002100FCF70FFAF249897960F3C301F04854
:10838000817117E1611B56F82100FCF703FAEC49F3
:10839000897960F30411EA4881710BE1611B56F899
:1083A0002100FCF7F7F9E649897960F34511E448C3
:1083B0008171FFE0611B56F82100FCF7EBF9E04901
:1083C000897960F38611DE488171F3E0611B56F80C
:1083D0002100FCF7DFF9DA49897960F3C711D84841
:1083E0008171E7E0611B56F82100FCF7D3F9D4490D
:1083F000C97960F30001D248C171DBE0611B56F816
:108400002100FCF7C7F9CE49C97960F34101CC4896
:10841000C171CFE0611B56F82100FCF7BBF9C849D8
:10842000C97960F38201C648C171C3E0611B56F887
:108430002100FCF7AFF9C249C97960F3C301C04814
:10844000C171B7E0611B56F82100FCF7A3F9BC49E4
:10845000C97960F30411BA48C171ABE0611B56F8E9
:108460002100FCF797F9B649097A60F30001B44896
:1084700001729FE0611B56F82100FCF78BF9B049AF
:10848000097A60F34101AE48017293E0611B56F82E
:108490002100FCF77FF9AA49097A60F38201A84814
:1084A000017287E0611B56F82100FCF773F9A449BB
:1084B000097A60F3C301A24801727BE0611B56F8A0
:1084C0002100FCF767F99E49097A60F304119C4882
:1084D00001726FE0611B56F82100FCF75BF99849C7
:1084E000497A60F301019648417263E0611B56F8D6
:1084F0002100FCF74FF99249497A60F383019048D3
:10850000417257E0611B56F82100FCF743F98C4992
:10851000497A60F305118A4841724BE0611B56F8B5
:108520002100FCF737F98649497A60F387118448BE
:1085300041723FE0611B56F82100FCF72BF980499E
:10854000897A60F301017E48817233E0611B56F83D
:108550002100FCF71FF97A49897A60F38301784892
:10856000817227E0611B56F82100FCF713F974496A
:10857000897A60F30611724881721BE0611B56F81C
:108580002100FCF707F96E49C97A60F301016C48D4
:10859000C1720FE0611B56F82100FCF7FBF8684937
:1085A000087307E0611B56F82100FCF7F3F86449F3
:1085B000487300BF6DE2802C7EDB882C7CDCA4F14C
:1085C0008000092879D2DFE800F005478BCFF3F26D
:1085D000F1F0EF00611B56F82100FCF7DBF880B2E8
:1085E000322806D15648407A20F003005449487298
:1085F0003AE2611B56F82100FCF7CCF880B26428FF
:1086000007D14F48407A20F00300401C4C49487283
:108610002AE2611B56F82100FCF7BCF880B2B0F5E5
:10862000967F07D14648407A20F00300801C4449D9
:10863000487219E2611B56F82100FCF7ABF880B2D2
:10864000B0F5FA7F07D13E48407A20F00300C01C05
:108650003B49487208E200BF611B56F82100FCF755
:1086600099F880B2642806D13548407A20F00C0091
:1086700033494872F8E1611B56F82100FCF78AF88B
:1086800080B2C82807D12E48407A20F00C00001D87
:108690002B494872E8E1611B56F82100FCF77AF893
:1086A00080B2B0F5967F09D12548407A20F00C00C1
:1086B000083023494872D7E1D7E1C4E1611B56F87D
:1086C0002100FCF767F880B2B0F5C87F07D11C48DD
:1086D000407A20F00C000C3019494872C4E100BF08
:1086E000611B56F82100FCF755F880B2102806D11E
:1086F0001348407A20F0300011494872B4E1611B00
:1087000056F82100FCF746F880B2202807D10C4823
:10871000407A20F03000103009494872A4E1611B12
:1087200056F82100FCF736F880B280280AD10448B8
:10873000407A20F0300020300149487294E1AAE1EB
:10874000401C0020611B56F82100FCF723F880B282
:10875000B0F57A7F07D1F048407A20F03000303011
:10876000ED49487280E100BF611B56F82100FCF71B
:1087700011F880B2B0F5C87F06D1E748407A20F002
:10878000C000E54948726FE1611B56F82100FCF713
:1087900001F880B2C8280CD1DF48407A20F0C00030
:1087A0004030DD4948725FE145E130E1AFE067E02C
:1087B00020E0611B56F82100FBF7ECFF80B2642833
:1087C00007D1D548407A20F0C0008030D2494872A5
:1087D0004AE1611B56F82100FBF7DCFF80B232282A
:1087E00007D1CD48407A20F0C000C030CA49487255
:1087F0003AE100BF611B56F82100FBF7CBFF80B2C6
:1088000047F23051884206D1C348407A20F0C00078
:10881000C149487228E1611B56F82100FBF7BAFFF5
:1088200080B242F21071884207D1BB48407A20F0F2
:10883000C0004030B849487216E1611B56F821006B
:10884000FBF7A8FF80B2B0F5FA6F07D1B248407AC3
:1088500020F0C0008030B049487205E1611B56F835
:108860002100FBF797FF80B2B0F5FA7F07D1AA4845
:10887000407A20F0C000C030A7494872F4E000BF41
:10888000611B56F82100FBF785FF80B2B0F5AF6F92
:1088900006D1A148407A20F0C0009F494872E3E029
:1088A000611B56F82100FBF775FF80B240F6B83126
:1088B000884207D19848407A20F0C000403096495D
:1088C0004872D1E0611B56F82100FBF763FF80B2CC
:1088D00041F27071884207D18F48407A20F0C00081
:1088E00080308D494872BFE0611B56F82100FBF7CC
:1088F00051FF80B242F6E061884207D18648407A53
:1089000020F0C000C03084494872ADE000BF611B58
:1089100056F82100FBF73EFF80B2012806D17E48C1
:10892000807A20F070007C4988729DE0611B56F8C7
:108930002100FBF72FFF80B2022807D17648807A0A
:1089400020F070001030744988728DE0611B56F879
:108950002100FBF71FFF80B2042807D16E48807A00
:1089600020F0700020306C4988727DE0611B56F861
:108970002100FBF70FFF80B2082807D16648807AF4
:1089800020F070003030644988726DE0611B56F849
:108990002100FBF7FFFE80B2102807D15E48807AE5
:1089A00020F0700040305C4988725DE0611B56F831
:1089B0002100FBF7EFFE80B2202807D15648807ACD
:1089C00020F070005030544988724DE0611B56F819
:1089D0002100FBF7DFFE80B2402807D14E48807AA5
:1089E00020F0700060304C4988723DE0611B56F801
:1089F0002100FBF7CFFE80B2802807D14648807A5D
:108A000020F070007030444988722DE000BF611B77
:108A100056F82100FBF7BEFE000B3F49C97A60F310
:108A200001013D48C172611B56F82100FBF7B2FEFF
:108A30003949087300BF611B56F82100FBF7AAFEF5
:108A40003549487300BF00BF00BFAFF20C70FDF79F
:108A5000F5FF4FF45D723149AFF22870FDF7EEFF7C
:108A600000BF0020FFF789BA13E0902C01DB972CA0
:108A70000FDD00BF00BFAFF23870FDF7DFFF40F23F
:108A800079322649AFF25470FDF7D8FF00BF0020BD
:108A9000E8E7601C84B2E819A0423FF772AA00F030
:108AA00043F878B900BF00BFAFF26C70FDF7C6FFA6
:108AB00040F27D321949AFF28470FDF7BFFF00BF6D
:108AC0000020CFE700F02CF878B900BF00BFAFF26C
:108AD0009070FDF7B3FF4FF460721049AFF2AC70C5
:108AE000FDF7ACFF00BF0020BCE7FEF76DFF78B9D3
:108AF00000BF00BFAFF2B870FDF7A0FF4FF4617286
:108B00000649AFF2D070FDF799FF00BF0020A9E73A
:108B100000BF0120A6E70000401C002031E500084E
:108B200000BF0120704700001FB505200B2301AADC
:108B3000032100901B20FCF7B9FF70B900BF00BFF4
:108B40001BA0FDF77BFF40F209221D491DA0FDF788
:108B500075FF00BF002004B010BD002422E0E01C1F
:108B60001B49085C01A9095D884219D005200090C5
:108B70001748C01C0219E01CC1B201231B20FCF7DE
:108B8000E5FF68B900BF00BF09A0FDF757FF40F23D
:108B90000E220B490BA0FDF751FF00BF0020DAE7C2
:108BA000601CC4B20B2CDADB00BF0120D3E700004D
:108BB00052657475726E206661696C6564000000B0
:108BC0000EE500085B25735D5B25645D0D0A000002
:108BD000401C0020014600200B2909DB2A2907DC64
:108BE000A1F10B02084B03EB8202B2F8400C09E042
:108BF000012907DB0A2905DC4A1E034B03EB82022D
:108C0000B2F8040C70470000006000400B2809DB3C
:108C10002A2807DCA0F10B02084B03EB8202A2F822
:108C2000401C09E0012807DB0A2805DC421E034B33
:108C300003EB8202A2F8041C7047000000600040B1
:108C400010B504F06BFF04F05FFF10BD10B50446D3
:108C50000548844207D140F2194005F0ADF840F2D2
:108C6000194005F099F810BD0064004010B50021CE
:108C7000837A012202FA03F13E4A126842F00102AD
:108C80003C4B1A603B4A1C3212688A43394B1C33F6
:108C90001A60C289DAB9374A0C3212688A43354BF6
:108CA0000C331A60C288344B03EA024243881A43E9
:108CB0004389304C403444F8332082882E4B03EAF9
:108CC000024203881A43438904EBC3035A60C289F2
:108CD000012A1BD1274A0C3212680A43254B0C3358
:108CE0001A600288244B03EA024243881A434389EC
:108CF000204C403444F8332082881F4B03EA024260
:108D0000C3881A43438904EBC3035A6082893AB982
:108D1000184A121D12688A43164B1B1D1A6006E082
:108D2000144A121D12680A43124B1B1D1A60028955
:108D30003AB9104A143212688A430E4B14331A603F
:108D400006E00C4A143212680A430A4B14331A60C4
:108D5000027C012A06D1074A1C3212680A43054BDD
:108D60001C331A60034A126822F00102014B1A6098
:108D700010BD0000006600400000FFFF70B5024615
:108D80004FF6FF730020146824F002041460146886
:108D900044F00104146000E05B1E546804F0010418
:108DA0000CB9002BF8D1546804F001040CB9002070
:108DB00074E00C784FF0404505EA84744D784FF02C
:108DC000407606EA05652C438D784FF4702606EA56
:108DD00005452C43CD784FF4E00606EA05552C43B3
:108DE0004D896D1EC5F309052C43D4610C79012C06
:108DF00004D1146844F08004146003E0146824F083
:108E0000800414604C79012C04D1146844F04004AF
:108E1000146003E0146824F0400414608C79012C81
:108E200004D1146844F02004146003E0146824F0B2
:108E300020041460CC79012C04D1146824F01004AF
:108E4000146003E0146844F0100414600C7A012CE0
:108E500004D1146824F00804146003E0146844F09A
:108E6000080414604C7A012C04D1146844F0040402
:108E7000146003E0146824F004041460146824F0FF
:108E8000010414604FF6FF7300E05B1E546804F0A9
:108E900001040CB1002BF8D103B1012070BD42696F
:108EA0000A434261704710B500F5D87303EB011314
:108EB0001B6803F004031372137A3BB900F5D873EF
:108EC00003EB01131B685B0D136006E000F5D8731C
:108ED00003EB01131B68DB08536000F5D87303EB49
:108EE00001131B6803F00203537200F5DA7303EBFE
:108EF00001131B681B0A82F84B3000F5DA7303EB91
:108F000001131B6803F00F03937200F5DC7303EB8E
:108F100001131B68D37200F5DC7303EB01131B68AC
:108F20001C0A147300F5DC7303EB01131B681C0CA3
:108F3000547300F5DC7303EB01131B681C0E947370
:108F400000F5DE7303EB01131B68D37300F5DE73CA
:108F500003EB01131B681C0A147400F5DE7303EBAA
:108F600001131B681C0C547400F5DE7303EB011332
:108F70001B681C0E947421B9C36843F02003C360BE
:108F800003E0036943F02003036110BD30B50246DE
:108F90000B460021906800F08060B0F1806F00D136
:108FA00010E0906800F00060B0F1006F01D1012185
:108FB00008E0906800F08050B0F1805F01D102219C
:108FC00000E00321032901D1032030BD02F5C07068
:108FD00000EB0110006800F0010402F5C07000EB26
:108FE00001100460187A88B918883B4C04EA405094
:108FF0005C7A204302F5C07404EB0114246820431A
:1090000002F5C07404EB0114206013E06FF0070454
:10901000586804EAC0001C7A20435C7A204302F5B9
:10902000C07404EB01142468204302F5C07404EBFF
:109030000114206002F5C27000EB0110006820F0FE
:109040000F0402F5C27000EB0110046002F5C2705B
:1090500000EB011000689C7A204302F5C27404EB17
:1090600001142060987B4FF07F4404EA00605C7B31
:109070004FF47F0505EA044420431C7B2D1205EACA
:1090800004242043DC7A204302F5C47404EB011469
:109090002060987C2C0404EA00605C7C2D0205EAC8
:1090A000044420431C7C2D1205EA04242043DC7B6D
:1090B000204302F5C67404EB0114206002F5C07071
:1090C00000EB0110006840F0010402F5C07000EBF5
:1090D00001100460084678E70000E0FF10B5024682
:1090E00032B1012A16D0022A20D0032A42D12EE022
:1090F00000234B71CB718B7140F2FF334B81002306
:109100000B724B7002238B700023CB700B714B7270
:109110000B7031E00123CB8100230B740B810B809A
:109120004B808B80CB808B814B8125E0002005E03C
:10913000002401F10B031C54431CD8B20828F7D3B8
:1091400000238B724B600B724B720B6014E000209B
:1091500005E0002401F10B031C54431CD8B208287D
:10916000F7D300238B724B600B7281F84B304B723C
:109170000B6001E000BFFEE700BF10BD30B5024646
:109180000020002321B1012907D002290FD109E0D5
:109190009468144D04EA05030BE09468124D04EA48
:1091A000050306E09468114D04EA050301E000237D
:1091B00000BF00BF53B1A3F18064E41E44B10C4D65
:1091C0002C443CB10B4D2C4444B905E0022007E08F
:1091D000012005E0012003E0012001E0002000BFA4
:1091E00000BF30BD030000040003000800000310AE
:1091F00003FDFFFB0003FDF710B500F071F878B92F
:1092000000F0C0F800BF00BF20A0FDF717FC40F23F
:109210007F12224922A0FDF711FC00BF002010BDE3
:109220000120224981F88C040121204880F88E1405
:10923000002180F88D14012180F88F14002180F81E
:109240009014012180F89114052180F8921490F86F
:1092500040080A2803DD0A21144880F84018134802
:10926000007A80B11148007AFF280CD000BF0F4867
:1092700041680FA0FDF7E2FB40F28D12074908A0FC
:10928000FDF7DCFB00BF00BF0120C8E75265747525
:10929000726E206661696C656400000068E7000812
:1092A0005B25735D5B25645D0D0A0000A11C002039
:1092B0004F5441C5E4D6C3B4A6D3DAB4FDC9FDBC4E
:1092C000B6D7B4CCAC2C20B9CCBCFEB3A4B6C83A4B
:1092D0002025642C204F5441D2ECB3A300000000A1
:1092E00010B540F688020F490020FCF749FB0D48F5
:1092F000D0F83001FA2805D00A48D0F83001B0F58E
:10930000FA7F02D100BF012010BD00BF00BF06A040
:10931000FDF794FB3E22084908A0FDF78FFB00BF34
:109320000020F1E7A11C002052657475726E206662
:1093300061696C656400000064E500085B25735D8D
:109340005B25645D0D0A000010B54FF4807204497E
:109350004FF4E470FCF746FB00BF012010BD000095
:10936000691E002010B540F6880205490020FCF770
:1093700039FB642000F034FB00BF012010BD000069
:10938000A11C002000B5FFB04FF48071FE48FAF731
:1093900058FF002014E04FF4E132FC4901EB0011CA
:1093A0000A600022F94901EB00114A60F74901EB1C
:1093B00000118A60F54901EB0011CA60411CC8B276
:1093C0000328E8DBFA21F048C0F83011942100F5B9
:1093D0009A70FAF736FF0020EB49C1F8C801012165
:1093E000E94880F8CC11FB2100F2CD10FAF729FFF3
:1093F000E54890F8C80220F00100401CE24981F8DD
:10940000C802084690F8C80220F00200801C81F8CB
:10941000C802084690F8C80220F00400001D81F838
:10942000C802084690F8C80220F0F80081F8C80287
:109430003C21D548A0F8C9121E21A0F8CB12FB216F
:1094400000F2CD20FAF7FDFE5021CF4880F8C91375
:109450000E20CD4981F8C8036B21CB4880F8CB138F
:10946000002180F8CA1380F8CD1380F8CC13D821DE
:1094700080F8CF13002180F8CE1380F8D113FF219C
:1094800080F8D013012180F8D313E12180F8D213A2
:10949000422180F8D413002006E00022BC4901EBF1
:1094A00080010A60411CC8B20328F6DB4FF07C51F2
:1094B000B548C0F8E2134FF07E51C0F8E613002122
:1094C000C0F8EA13B349C0F8EE130021C0F8F21354
:1094D000002008E04FF07E52AD49203101EB8001C1
:1094E0000A60411CC8B20428F4DB0021A648C0F879
:1094F0000614822100F20A40FAF7A3FE2021A448B4
:10950000BE30FAF79EFEA4A1A148DE30FAF7A4FE11
:10951000A6A19F48F230FAF79FFEA9A1AC48FAF73E
:109520009BFE04219848A0F8EC14A0F8EE14A94979
:10953000C0F8F0146421A0F8F4140021A0F8F61487
:10954000A549C0F8F814032180F8FC14A349C0F819
:10955000FD14032180F80115A149C0F8021503216B
:1095600080F806159C49C0F80715032180F80B15F3
:109570009C49C0F80C15032180F810159A49C0F8D1
:109580001115032180F815159849C0F81615032107
:1095900080F81A159649C0F81B15032180F81F158D
:1095A0008C49C0F82015032180F824158949C0F89A
:1095B0002515032180F829158E49C0F82A150321A5
:1095C00080F82E158B49C0F82F15032180F833152C
:1095D0008949C0F83415032180F838158649C0F848
:1095E0003915032180F83D158449C0F83E15032143
:1095F00080F842158149C0F84315032180F84715CA
:109600007F49C0F84815032180F84C157C49C0F803
:109610004D15032180F851157A49C0F852150321E0
:1096200080F85B157749C0F85715032180F85B1562
:109630004FF08041C0F85C15032180F860154FF0B1
:109640008041C0F86115032180F865150021C0F83C
:109650006615032180F86A150021C0F86B150321F7
:1096600080F86F156649C0F87015032180F87415ED
:109670006349C0F87515032180F879156249C0F86F
:109680007A15032180F87E155F49C0F87F15032104
:1096900080F883155D49C0F88415032180F888158A
:1096A0005A49C0F88915032180F88D155849C0F82A
:1096B0008E15032180F892155549C0F893150321A2
:1096C00080F897154E49C0F8C015032180F8C415DD
:1096D0004B49C0F8C515032180F8C9154949C0F8A0
:1096E000CA15032180F8CE154649C0F8CF150321CD
:1096F00080F8D3154549C0F8D415032180F8D81552
:109700004249C0F8D915032180F8DD154049C0F859
:10971000DE15032180F8E2153D49C0F8E315032169
:1097200080F8E7153B49C0F89815032180F89C158F
:109730003849C0F89D15032180F8A1153649C0F8B5
:10974000A215032180F8A6153349C0F8A7150321F7
:1097500080F8AB153149C0F8AC15032180F8B0157D
:109760002E49C0F8B115032180F8B5152C49C0F871
:10977000B615032180F8BA152949C0F8BB15032195
:1097800080F8BF1527494FE0A11C0020A11D002033
:1097900077200020CDCCCC3D456D70747920424DB2
:1097A00053206D6E6620696E666F0000456D7074A3
:1097B00079205041434B206D6E6620696E666F00C4
:1097C00048796272696420546563682E0000000065
:1097D0007D210020666666416666664033336340DD
:1097E000CDCC6C40333333406666364066662640E7
:1097F00000003040CDCC6C413333334166662641A6
:10980000000020420000704200008242000020C19F
:109810000000A0C1000096430000AF43008009C4CF
:10982000000016C400008C42C0F8E815032180F83F
:10983000EC155B49C0F8ED15032180F8F115594985
:10984000C0F8F215032180F8F6155749C0F8F7154E
:10985000032180F8FB15012180F8FC15002180F818
:10986000FD15012180F8FE1580F8FF1540F6B8318E
:10987000A0F8001640F65431A0F802163221A0F8E4
:10988000041640F67A51A0F8061640F6AC51A0F83E
:10989000081640F6BE21A0F80A1640F62821A0F8C6
:1098A0000C164249C0F80E164FF4FA71A0F81216C1
:1098B0004FF40B7100F21460FAF7C3FC32213C48FC
:1098C000A0F814162D21A0F82216A0F816162821AB
:1098D000A0F82416A0F818160A21A0F82616A0F859
:1098E0001A160C21A0F828160221A0F81C16052132
:1098F000A0F82A166FF00901A0F81E16891CA0F81E
:109900002C166FF01301A0F82016891CA0F82E1653
:1099100041F28831A0F8301640F6B151A0F83C165B
:1099200040F6A751A0F8321640F69D51A0F83E1619
:1099300040F69351A0F8341640F68451A0F8401632
:109940004FF45761A0F8361640F6C231A0F842161F
:1099500040F6AE31A0F8381640F65E31A0F8441655
:1099600040F64A31A0F83A160021A0F846164FF406
:10997000FC72104901A8FAF74BFC4FF4FC7201A9E4
:109980000D48FAF745FC0321094880F8401840F6D5
:109990004851A0F84118FFF7E5FC7FB000BD00007A
:1099A00000008C420000B4420000AA4280F4030090
:1099B000A11C002070E50008E9220020074800688B
:1099C000401C06490860084600680A2800D2704713
:1099D00000200249086000BFF9E7000040040020B1
:1099E0000349086000BF024909680029FBD170479C
:1099F000080000200448006820B103480068401EA9
:109A000001490860704700000800002070B5054655
:109A10000C462146284600F0AFF908B900BFFEE722
:109A200004EB8400810005F10800405820F001019A
:109A300004EB8400820005F10800815070BD70B510
:109A400005460C462146284600F096F908B900BFA5
:109A5000FEE704EB8400810005F10800405840F067
:109A6000010104EB8400820005F10800815070BD03
:109A700070B505460C462146284600F07DF908B928
:109A800000BFFEE704EB8400810005F108004058A8
:109A900020F0200104EB8400820005F108008150D1
:109AA00070BD70B505460C462146284600F064F9A5
:109AB00008B900BFFEE704EB8400810005F108004F
:109AC000405840F0200104EB8400820005F10800BA
:109AD000815070BD70B504460D462946204600F001
