:020000040800F2
:1040000008B3002045410008F1630008875C000800
:10401000ED63000897550008CD6D00080000000012
:104020000000000000000000000000008D68000893
:10403000995A000800000000456400088F680008D5
:104040005F4100085F4100085F410008916500087A
:104050005F4100085F410008C55A00085F41000841
:10406000715B00085F4100085F410008A959000822
:104070005F4100085F4100085F4100085F410008A0
:104080005F4100085F4100085F4100085F41000890
:104090005F410008E95600085F410008B55B000871
:1040A0005F4100085F4100085F4100085F41000870
:1040B000056A00085F4100085F4100085F41000891
:1040C0005F4100085F4100085F4100085F41000850
:1040D0005F4100085F4100085F410008056D00086E
:1040E0000D5B00085F4100085F4100085F41000868
:1040F0005F4100085F4100085F4100085F41000820
:104100005F4100085F4100085F4100085F4100080F
:104110005F4100085F4100085F4100085F410008FF
:104120005F4100085F4100085F4100085F410008EF
:10413000DFF80CD000F016FE0048004799E00108B7
:1041400008B300200648804706480047FEE7FEE720
:10415000FEE7FEE7FEE7FEE7FEE7FEE7FEE7FEE737
:104160009968000831410008202A04DB203A00FA4F
:1041700002F1002070479140C2F1200320FA03F3BE
:10418000194390407047202A04DB203A21FA02F0BC
:104190000021704721FA02F3D040C2F12002914081
:1041A000084319467047000038B5D0E90221491E7E
:1041B00001EB410102EBC1014268C1EB011102EBCD
:1041C00081010268C1EB011102EB8102D0E90431E7
:1041D00001EB410103EB81013023A1F5527191FB09
:1041E000F3F4174D6C4302EBC41291FBF3F403FBA1
:1041F000141100921A2902DB124B1A4400920C226D
:1042000091FBF2F3104C6343009C04EBC313009347
:1042100091FBF2F302FB13110C4A08E0491E40F235
:10422000A324535C6343009C04EBC3130093002955
:10423000F4DC0146684600F027FC009838BD000019
:104240003F0C0F008051010067C203000894020870
:1042500040EA01039B0703D009E008C9121F08C008
:10426000042AFAD203E011F8013B00F8013B521E88
:10427000F9D27047D2B201E000F8012B491EFBD2FF
:1042800070470022F6E710B513460A460446194661
:10429000FFF7F0FF204610BD30B505462A460B4615
:1042A00012F8010B13F8014B08B1A042F8D01CB171
:1042B000002802D06D1CF1E7284630BDCAB2401E6E
:1042C00010F8011F8A4202D00029F9D1002070475E
:1042D000421C10F8011B0029FBD1801A704710B551
:1042E000002200E0521C835C8C5CA34201D1002BB5
:1042F000F8D1D8B2E1B2401A10BD30B50446002062
:10430000034600E05B1C934203D2E05CCD5C401BA3
:10431000F8D030BD70B5064602F092FD046805463F
:104320000A220021304600F0F5FB2C6070BDF0B48D
:1043300080EA0102D40F4200B2EB410F02D20246E2
:10434000084611464A0042D0C30DDDB2C1F3C75240
:10435000AD1A202D35DAC1F3160141F4000204B183
:104360005242C5F1200602FA06F12A411044B3EB8D
:10437000D05F23D0C4B1012DA0EBC35009DCF0BC49
:104380004FF0004202EAC352DBB200F5000000F039
:1043900002BC400000F1807000EBC350A0F18070BF
:1043A00040EAD170490009E0490841EAC071A0EB38
:1043B000C35000F50000400800EBC350F0BC00F013
:1043C000E1BB6142012202EB4101001BF6E7F0BCB8
:1043D000704781F00041AAE780F00040A7E780EA3B
:1043E000010210B502F00043400022D04A001FD065
:1043F000010E01EB1261C0F35600C2F3560240F405
:10440000000042F40002A0FB022000047F391404E3
:1044100000D0401C50EA124001D44000491EC2B2F4
:104420000C0604EBD010401C4008802A02D003E0A8
:10443000002010BD20F00100002900DA0020184300
:1044400010BD30B480EA010202F0004530F00042B5
:1044500021F0004013D090B1C30DD40DC2F316016A
:10446000C0F31600E41A41F4000140F400027D3468
:10447000914201D3641C00E04900002C02DA30BCF8
:10448000002070474FF400000023914201D3891AA5
:10449000034340084FEA4101F7D151B1914202D1A3
:1044A0004FF0004105E002D24FF0010101E06FF052
:1044B000010103EBC450284430BC00F063BB2DE97C
:1044C000FE4F804681EA0300C00F0C46009021F0A9
:1044D000004123F00045B8EB0200A94105D2404657
:1044E000214690461C460B46024623F000401043EE
:1044F00047D0270DC7F30A00C3F30A510290401AB0
:10450000019040286BDAC3F3130040F4801B00983D
:10451000924620B10023D2EB030A63EB0B0B019808
:104520005946C0F140025046FFF71EFE06460D46B2
:1045300050465946019A00F08EFA10EB080061418E
:10454000002487EA115284EAE7731A4340D0009AA4
:1045500062B3019A012A4FEA075215DC001B61EB96
:1045600002014FF0004202EA0752CDE90042001C6E
:1045700041F5801132462B4600F04AFB03B0BDE8FE
:10458000F08F40462146F9E7001B61EB0201001C59
:1045900041F5801300185B412018A2F5001747EB86
:1045A000030140EAD570B6196D4111E06D084FEA7C
:1045B000360645EAC0754FEA0752001B61EB02015F
:1045C000001C41F5801149084FEA300000195141A3
:1045D00032462B4603B0BDE8F04F00F00ABB00980E
:1045E000012240000023D0EB020263EBE07300984D
:1045F00021464FEAE074B8EB000061EB0401E9E703
:1046000083F000435BE781F0004158E72DE9FE4F5E
:1046100081EA030404F0004421F0004100944FF0CB
:10462000000B23F0004350EA01045ED052EA030479
:104630005BD0C3F30A54C1F30A552C44A4F2F334FB
:104640000194A0FB0254C1F3130141F48011C3F3A0
:10465000130343F4801301FB024400FB034E840A5E
:10466000970A44EA815447EA8357A4FB07680295F6
:104670008D0A05FB07854FEA932C04FB0C54270594
:10468000029D4FEA065847EA1637B5EB08056EEB70
:10469000070C870E920E47EA811742EA8312A7FBA6
:1046A0000201B6EB0B0164EB00042B0D43EA0C3363
:1046B0005E1844EB1C50DA465146E7FB0201C5F395
:1046C00013044FEA0B3343EA14534FEA0432019CBC
:1046D00043EA0603A4F10C040294009CCDE900B463
:1046E00000F096FA03B0BDE8F08F00200146F9E72C
:1046F0002DE9F04D81EA030404F0004B21F0004560
:1047000014464FF0000A23F0004150EA050220D081
:1047100054EA01021DD0C5F30A570246C5F313033C
:10472000C1F31300C1F30A5640F4801543F480131B
:10473000A7EB0608101BD64608F2FD3873EB050000
:1047400002D308F1010801E092185B41B8F1000FB3
:1047500003DA00200146BDE8F08D00204FF48011FF
:10476000064684460EE0171B73EB050705D3121BA4
:1047700063EB050306434CEA010C49084FEA30009D
:1047800092185B4150EA0107EDD152EA030012D0C2
:1047900082EA040083EA0501084305D0101BAB41FF
:1047A00006D20122002306E000224FF0004302E07F
:1047B0006FF0010253101AEB06004CEB085110EB9E
:1047C0000A0041EB0B01BDE8F04D00F012BAC10F39
:1047D00080EAE0700844CA079623002100F0DBB9A4
:1047E00096230022114600F0D6B90EB5C10F80EA1B
:1047F000E0700844CA07002140F233438DE80E0000
:104800000A460B4600F004FA03B000BD0EB540F2B4
:10481000334102910021CDE900110A460B4600F018
:10482000F7F903B000BD00F0004220F00040C10DD8
:10483000C0F3160040F400007F2901DA0020704721
:10484000962903DCC1F19601C84001E09639884001
:10485000002AF4D04042704720F00040C10DC0F360
:10486000160040F400007F2901DA002070479629E5
:1048700003DCC1F19601C840704796398840704703
:10488000C1F30A5210B5C1F3130140F2FF3341F4F2
:1048900080119A4201DA002010BD40F233439A425F
:1048A000A2F2334203DC5242FFF76DFC10BD904090
:1048B00010BDC1F30A52C1F3130140F2FF3341F4BA
:1048C00080119A4202DA00200146704740F23343D9
:1048D0009A42A2F2334202DC5242FFF754BCFFF785
:1048E00043BC00F0004230F000400AD0C10D01F599
:1048F0006071C0F3160042EA0151C208400711433B
:10490000704700200146704730B5041E71F1000465
:1049100004DB4FF00044404264EB0101141E73F1CC
:10492000000405DB1C464FF00043524263EB0403D6
:104930008B4208BF824230BD30B5041E71F10004C5
:1049400004DB4FF00044404264EB0101141E73F19C
:10495000000405DB1C464FF00043524263EB0403A6
:10496000994208BF904230BD01F0004330B421F0BD
:10497000004150EA010206D00A0DA2F56072C1F3AF
:104980001301002A02DC30BC00207047440F44EAC7
:10499000C104C100E01830BC00EBC25000F0F2B816
:1049A000002801DBC0F10040002901DBC1F100411A
:1049B00081427047002801DBC0F10040002901DB83
:1049C000C1F100418842704730B50B4601460020D6
:1049D0002022012409E021FA02F59D4205D303FAC1
:1049E00002F5491B04FA02F52844151EA2F1010242
:1049F000F1DC30BD2DE9F05F0546002092469B4674
:104A000088460646814640241BE0284641464746E4
:104A10002246FFF7B8FB53465A46C01A914110D3BD
:104A2000114618462246FFF79FFB2D1A67EB010837
:104A30004F46224601200021FFF796FB17EB0009A5
:104A40004E41201EA4F10104DFDC484631462A46CF
:104A50004346BDE8F09F202A06DBCB17203A41FAF7
:104A600002F043EAE07306E041FA02F3D040C2F1FB
:104A7000200291400843194670470000014900F0A8
:104A800003B80000DC82002010B500683C22B0FBB7
:104A9000F2F302FB1303B0FBF2F00B60B0FBF2F396
:104AA00002FB1303B0FBF2F018224B60B0FBF2F3F1
:104AB00002FB1303B0FBF2F0021D8B600723B2FB75
:104AC000F3F403FB1422800040F2B55300F66C307F
:104AD0008A61B0FBF3F2B0FBF3F403FB1400443241
:104AE00080084A61C8613B2802D3920700D0401C6D
:104AF0000022074C13460A61E25C824203D8801A06
:104B00005B1C0B61F8E7401CC860084610BD000044
:104B1000209402082DE9F04791460F46804604464E
:104B2000002614F8015B2DB100F02EF90068405DFD
:104B3000C007F6D12B2D02D02D2D18D0641E4A4669
:104B40003946204600F024F927B13968A14201D145
:104B5000C7F8008071054FF002040BD540420028D1
:104B600003DD02F06DF90460A007BDE8F08746F4AC
:104B70008066E4E70028F8DA02F062F904606FF07A
:104B80000040F2E70029A8BF7047401C490008BF59
:104B900020F00100704710B4B0FA80FC00FA0CF06D
:104BA00050EA010404BF10BC704749B1CCF12004A5
:104BB00021FA04F411FA0CF118BF01212143084332
:104BC000A3EB0C01CB1D4FEA00614FEA102042BF5E
:104BD000002010BC704700EBC35010440029A4BF54
:104BE00010BC7047401C490008BF20F0010010BCF9
:104BF000704710B5141E73F1000408DA401C41F12F
:104C0000000192185B411A4301D120F0010010BD50
:104C10002DE9F04D92469B4611B1B1FA81F202E0C6
:104C2000B0FA80F220329046FFF79EFA04460F4613
:104C300040EA0A0041EA0B0153465A46084313D0A2
:104C4000114653EA010019D0C8F140025046FFF75F
:104C50009AFA05460E46504659464246FFF784FAF0
:104C6000084305D0012004E020463946BDE8F08D18
:104C70000020054346EAE0762C4337430A98630553
:104C8000E40AA0EB08000022FD0A44EA47540A3077
:104C900002D500200146E9E7010510196941DDE967
:104CA000084500196941BDE8F04DA2E770B521F053
:104CB000004303430CD0C1F30A550024D5EB04058F
:104CC00064EB0403D617AD1AB34102DB00200146A2
:104CD00070BD201841EB025170BD00002DE9F0417C
:104CE000054621F000400C46284309D0C4F30A5081
:104CF00040F23341884205DD28462146BDE8F08177
:104D00002846FBE740F2FE31884210DC0CDB4FEA1C
:104D1000043040EA155050EA053105D0104804F03F
:104D2000004101430020E9E700200146E6E7A0F248
:104D300033404642C6F1400228462146FFF714FAA6
:104D400007468846284621463246FFF71CFA434666
:104D50003A46FFF74EFF3246BDE8F041FFF704BA8E
:104D60000000F03F064C074D06E0E06840F001030C
:104D700094E8070098471034AC42F6D3FFF7DCF90B
:104D8000B4940208D494020800487047B094020812
:104D90002DE9F05F82460078002715468B460AF120
:104DA0000104B946302801D09DB113E014F8010B7D
:104DB0000127782803D0582801D045B10AE00DB169
:104DC000102D07D10027102514F8010B02E008254B
:104DD00000E00A250026B0460EE005FB080005FBB2
:104DE00006F1012701EB10461FFA80F8B6F5803F67
:104DF00000D3B94614F8010B294600F069F80028E1
:104E0000EBDABBF1000F05D00FB1641E00E0544691
:104E1000CBF80040B9F1000F06D002F011F80221E2
:104E20000160C81EBDE8F09F48EA0640FAE72DE998
:104E3000F04D00231A461B1A8A4103DB002001466D
:104E4000BDE8F08DC1F30A52C1F3130141F480159E
:104E50004FF0000BD10702D100186D41521E002700
:104E6000044640F2FF11384601EB620A3E46804696
:104E7000024600204FF48011FFF785F9C2197141F5
:104E8000BB1846EB0100B4EB030C75EB000C04D32C
:104E9000E41A65EB000517460E46241908F10100D7
:104EA0006D4180463428E3DDF91946EB0600091B05
:104EB000A84103D24FF0FF32134601E0002213460F
:104EC0001BEB070046EB0A51BDE8F04DFFF791BE22
:104ED0003A2800D2303820F02002412A01D3A2F132
:104EE0003700884201D34FF0FF30704770B58C18FF
:104EF00010F8015B15F0070301D110F8013B2A11EE
:104F000006D110F8012B03E010F8016B01F8016BDA
:104F10005B1EF9D12B0705D40023521E0DD401F8D6
:104F2000013BFAE710F8013BCB1A921C03E013F89F
:104F3000015B01F8015B521EF9D5A142D8D30020D4
:104F400070BD00002DE9F04F97B00446DFF80C91DA
:104F5000434815904348149043481390C4F30B04FE
:104F60002046FFF73DFC83464FF08B41FFF769FA7F
:104F70008246FFF7B6FC07464FF066323B4BFFF721
:104F800045FB0546FFF7F0FC10904846FFF7A9FCEB
:104F9000CDE90A011098FFF7A4FC07464FF06632EE
:104FA000324BFFF730FB0546DDE90A23FFF7A0FB94
:104FB000CDE90E011098FFF794FCCDE90C01DDE975
:104FC0000E23FFF795FB8246FFF7CEFC1290139855
:104FD000FFF787FCCDE90A011498FFF782FC07462A
:104FE000884649461298FFF72CFA0190FFF779FCA2
:104FF000054618F0A3FE82463A464346FFF778FB83
:10500000CDE904014FF07E501599FFF71AFA0546D5
:10501000FFF767FCCDE90201DDE90423FFF74FFA52
:1050200002460B46CDE9060100201149FFF760FB5F
:10503000CDE90801DDE90A23FFF7E2FA00220D4B72
:10504000CDE90C01FFF7DCFACDE90E01FFF78CFC8E
:105050001190119817B0BDE8F08F000000401C4679
:105060003313954300B056453393884366660A4030
:105070000000F03F0000E03F10B501F0B1F801F092
:10508000C9F801F063F810BD10B5002400BF0BE0B3
:105090004FF4807129480DF099FE00B106E00A2016
:1050A00000F0FBFC601CC4B2642CF1DB00BF642C7C
:1050B00016DB2348006842F21071884205D220486E
:1050C000006800F57A701E4908604FF480611D4841
:1050D0000DF024FE08211C480DF020FE00BF00BF8B
:1050E0001748006842F22831884221D84FF4807175
:1050F00012480DF06BFE48B914480078642808DAAD
:1051000012480078401C1149087002E000200F4945
:1051100008700E48007864280FDB4FF4806109485E
:105120000DF0FAFD082108480DF0F6FD00BF04E07F
:1051300003480068401E0249086010BD001001408D
:105140001000002000080140000C01401400002065
:1051500010B507480068074908604FF480610648A9
:105160000DF0DAFD082105480DF0D6FD10BD000058
:10517000980E00202400002000080140000C01408F
:1051800010B5002021F0C2F921F0C6FC00231A4618
:1051900019464FF4E13001F005FD01F053FDFA200E
:1051A00000F01AFAFFF768FF01F0CCFC01F0FBF900
:1051B00000F048FE002405E000F092F800B905E098
:1051C000601C84B241F288308442F5DB00BFFFF7F7
:1051D000BFFF4FF0804021F03BFD01F051FA10BDC0
:1051E00008B540210F480DF097FD0F4802F05CFB19
:1051F00000210E4808F06AFB002000906A46012159
:10520000C42004F03FF8022109480DF085FD6A46EC
:105210000121C52004F036F8022102480DF07EFD80
:1052200008BD0000000C01400024014000000240C5
:10523000001001407CB505462C0320208DF80000AD
:10524000200C8DF80100200A8DF80200E0B28DF8E4
:10525000030000BF00F028F80028FBD100F062F83E
:10526000102110480DF058FD9DF8000021F098FB2A
:105270009DF8010021F094FB9DF8020021F090FBC5
:105280009DF8030021F08CFB102106480DF046FD2F
:10529000642008F0A1FA00BF00F006F80028FBD156
:1052A0007CBD00000008014038B50BA000680090EC
:1052B00010210A480DF030FD9DF8000021F070FB30
:1052C0000446102105480DF029FD04F0010008B145
:1052D000022038BD0020FCE7050000000008014066
:1052E00010B501F09DFA00F003F8FFF7DDFF10BDE7
:1052F00008B50AA000680090102109480DF00CFDC7
:105300009DF8000021F04CFB9DF8010021F048FBC6
:10531000102103480DF002FD08BD00006699000051
:105320000008014008B50DA00068009000BFFFF71D
:10533000BBFF0028FBD1102109480DF0EDFC9DF8C2
:10534000000021F02DFB102105480DF0E7FC00BF07
:10535000FFF7AAFF0028FBD108BD000006000000EF
:105360000008014010B54FF4C4624D49002000F020
:10537000E9FD00240EE0601CC4B2012008F02CFA04
:10538000322C07DD08204749087003204449A1F862
:10539000000106E04FF4805143480DF017FD01284D
:1053A000E9D000BF00240BE0601CC4B2322C07DD42
:1053B00007203C49087003203949A1F8000106E0A4
:1053C0004FF4004139480DF001FD0128ECD000BF39
:1053D00007E006203349087003203149A1F8000195
:1053E00009E0012131480DF0F1FC0128F1D03048ED
:1053F00000780128EDD000BF00240EE0601CC4B28C
:10540000012008F0E9F9322C07DD01202549087058
:1054100003202349A1F8000105E0042122480DF0F2
:10542000D5FC0028EAD000BF04211F480DF0CEFCB7
:10543000012805D1002C03DD02201949A1F8000143
:105440001748B0F8000120B11548B0F80001022853
:105450000ED107F0EBFE00BF00BF4FF47A7008F0EA
:10546000BBF901F0BFFA4FF47A7008F0B5F910BD3E
:105470000B48B0F8000101280BD103200849A1F81E
:10548000000107F0D3FE4FF4005107480DF046FC31
:10549000EDE74FF4005104480DF040FC00BFE6E793
:1054A0009D0F00200C00002000100140000801406A
:1054B000C004002010B50446102C69D2DFE804F0C7
:1054C000080E141A20262C32383E444A50565C628C
:1054D00001214FF4047006F0AFFF5AE0012140F2C1
:1054E000112006F0A9FF54E0012140F2122006F03D
:1054F000A3FF4EE0012140F2132006F09DFF48E09B
:1055000001214FF4057006F097FF42E0012140F2BF
:10551000152006F091FF3CE0012140F2162006F034
:105520008BFF36E0012140F2172006F085FF30E0C6
:1055300001214FF4027006F07FFF2AE0012140F2C2
:10554000092006F079FF24E0012140F20A2006F04C
:1055500073FF1EE0012140F20B2006F06DFF18E002
:1055600001214FF4037006F067FF12E0012140F2C1
:105570000D2006F061FF0CE0012140F20E2006F044
:105580005BFF06E0012140F20F2006F055FF00E02E
:1055900000BF00BF10BD00BFFEE7000010B540F225
:1055A000197021F0F7F840F2026021F0F3F84FF49F
:1055B000C06021F0EFF84FF4006303224821054852
:1055C0000DF0AEFB4FF480530322182101480DF07B
:1055D000A7FB10BD0008014010B504464FF48271CE
:1055E000084807F003FAFFF7D9FF00F075F82046E6
:1055F00000F00AF81021034807F0A7FA07F060F955
:1056000010BD00000064004010B588B0044605A934
:10561000002007F0B9FB6946012007F0B5FB2D48D3
:1056200007F03EF900208DF8180001208DF81900D0
:105630008DF81A008DF81B0000208DF81C008DF8E5
:105640001D008DF814008DF8150005208DF816004A
:1056500000208DF817007D2C03D13020ADF81E00FE
:1056600018E0FA2C03D11B20ADF81E0012E0B4F5AF
:10567000FA7F09D106208DF8160000208DF817005A
:105680000C20ADF81E0005E0B4F57A7F02D10620AB
:10569000ADF81E0005A90F4807F0C2F90020ADF8CB
:1056A0000A00ADF80C000120ADF80E000020ADF8A6
:1056B0000000ADF80200ADF80400ADF806000120CE
:1056C000ADF808008DF81000684607F007F908B03B
:1056D00010BD00000064004010B5002211461520E6
:1056E00018F040FE10BD0000F0B597B001207C49D5
:1056F00008704C2104A8FEF7C4FD04AA01217948D2
:1057000007F027FA059810B90498009001E0059871
:1057100000909DF81A008DF804009DF804200DF10A
:105720001B010DF10500FEF793FD0098C0F3140076
:10573000B0F5606F19D06C48B0F800046A4901EB0D
:1057400000109DE88E008EC06748B0F80004401C31
:105750006549A1F800040846B0F80004402802DBBF
:105760000020A1F8000417B0F0BD012039E00DF1D0
:105770000501095C30290DDB0DF10501095C3929B2
:1057800008DC0DF10501095C3039CAB20DF10501E3
:105790000A5424E00DF10501095C61290DDB0DF1CE
:1057A0000501095C662908DC0DF10501095C573922
:1057B000CAB20DF105010A5411E00DF10501095CB1
:1057C00041290CDB0DF10501095C462907DC0DF1CF
:1057D0000501095C3739CAB20DF105010A54411CB3
:1057E000C8B20828C3DB9DF8060004069DF8070030
:1057F00004EB00549DF8080004EB00449DF80900F8
:1058000004EB00349DF80A0004EB00249DF80B0023
:1058100004EB00149DF80C000444002011E033490F
:1058200051F82010A14200D10DE0304951F820106C
:1058300029B92E4941F820402D49087003E0411C48
:10584000C8B20428EBDB00BF00250126002024E0BD
:1058500084B92749097888420CD12649D1F8051026
:10586000224A52F82020914215D9691CCDB2711CF0
:10587000CEB210E01D4951F8201001B90FE01D49CA
:10588000D1F80510194A52F82020914201D9691C1B
:10589000CDB2711CCEB2411CC8B20428D8DB00BF07
:1058A00014484078A84210D0124A527840F2A3130C
:1058B0005A43114BD11840F2A3126A43D01840F258
:1058C000A312FEF7C5FC0B484570022E04DD012033
:1058D000094981F8E10646E70648067000BF42E73D
:1058E000C004002000640040C4090020D86C0020DF
:1058F000C1040020CC6C0020F85300202DE9F041B9
:10590000054688461646002400201D494872B5F514
:10591000006F03D208720846056004E004201849AD
:1059200008720846456016488672002406E018F89A
:10593000041013480B300155601C84B2B442F6DBEE
:105940000F49104807F078F90746002401E0601C71
:1059500084B239460B4807F067FA18B940F6FF7071
:105960008442F4DB40F6FF70844205D100BF00BFE3
:1059700000BF0020BDE8F08100BF0120FAE7000071
:10598000C80D00200064004010B50246002006E06B
:1059900013784340034CE05C521C4B1ED9B20029E3
:1059A000F6DC10BD3400002010B5A2B002220021A8
:1059B000214808F083F800283BD0842101A8FEF795
:1059C00060FC00201BE000EB40011C4A52F8211053
:1059D00001AA42F8201000EB4001184A02EB8101B5
:1059E0004A680CA941F8202000EB4001134A02EB61
:1059F00081018A6817A941F82020411CC8B20B28F0
:105A0000E1DB00240DE004EB440101EBC40101AA39
:105A100002EB81000DF024F9094941F82400601CD3
:105A2000C4B2032CEFDB02220021034808F03EF849
:105A300000BF22B010BD000000000240140E002084
:105A4000980E002000B58BB01248808840F26C712F
:105A5000884203DA40F2E4700E4988800D4880885D
:105A6000A0F26C7005900B488079401E04900948A4
:105A7000C07903900748007802900648407801906A
:105A80000448807800906846FEF78EFBA0F5E14060
:105A90000BB000BDBC030020704705E01A2100E0F8
:105AA000491E0029FCD1401E0028F7D1704705E0AF
:105AB0001E2100E0491E0029FCD1401E0028F7D11C
:105AC0007047000070B50025002413E001210C4848
:105AD0000DF07CF901280BD1681C85B2022D07DD81
:105AE000002506200749087001200749A1F8000198
:105AF000601C84B2642CE9DB01200DF0ABF870BDB2
:105B0000000801400C0000209D0F00207CB5002003
:105B10000090019001208DF800000122694640F2BA
:105B20000310FFF7EBFE0025002414E04FF40041C2
:105B30000C480DF04BF901280BD1681C85B2022DE1
:105B400007DD002507200849087003200749A1F850
:105B50000001601C84B2012CE8DB4FF400400DF022
:105B600079F87CBD000801400C0000209D0F00204A
:105B700070B50025002411E004210B480DF026F932
:105B800050B9681C85B2022D06DD002501200749A9
:105B900008700749A1F80001601C84B2642CEBDB9B
:105BA00004200DF057F870BD001001400C000020DB
:105BB0009D0F002010B54FF480600DF04BF810BD24
:105BC000F8B506460C461746B4F5800F01D3012000
:105BD000F8BD00BFFFF768FB0028FBD1FFF7A2FB71
:105BE00002208DF80000200C8DF80100200A8DF8AD
:105BF0000200E0B28DF8030010210F480DF08CF880
:105C0000002504E01DF8050000F003FE6D1C042DC6
:105C1000F8DB002503E0705D00F0FBFD6D1CBD426C
:105C2000F9DB102104480DF079F800BFFFF73CFBC9
:105C30000028FBD100BFCBE7000801402DE9F0416F
:105C400007460E461446F0B2C0F58075AC4200D847
:105C5000A5B214E02A4631463846FFF7B1FF0220CC
:105C600007F0BAFDAC4200D10AE02F442E44641B79
:105C7000B4F5807F02D94FF4807500E0A5B2E9E762
:105C800000BFBDE8F08100BFFEE72DE9F0438FB013
:105C900005460E4617461C4637B900BF00BF00BF79
:105CA00000200FB0BDE8F083332C04DD00BF00BF3F
:105CB00000BF0020F5E7002C70DD0DF06BFD6906DC
:105CC000080E0DF009FD30B90DF086FD00BF00BFD4
:105CD00000BF0020E5E730460DF0FEFC30B90DF0C6
:105CE0007BFD00BF00BF00BF0020DAE720460DF0BB
:105CF000F3FC30B90DF070FD00BF00BF00BF002005
:105D0000CFE70DF047FD012101EB4501C8B20DF0D1
:105D1000E3FC30B90DF060FD00BF00BF00BF002004
:105D2000BFE76806000E8DF804008DF805608DF859
:105D30000640012000EB4500C0B28DF807004FF08F
:105D400000080BE00DF098FC08F1040101AA505482
:105D50000DF05CFC08F1010000F0FF08A045F1DB4C
:105D60000DF08AFC81460DF06BFC0DF035FD201D19
:105D7000C1B201A8FFF708FE484504D000BF00BF2C
:105D800000BF00208DE7002005E0011D01AA515C45
:105D90003954411CC8B2A042F7DB00BF00BF01204C
:105DA0007FE7F8B505460C4616460DF0F3FC69068C
:105DB000080E0DF091FC30B90DF00EFD00BF00BFD4
:105DC00000BF0020F8BD20460DF086FC30B90DF074
:105DD00003FD00BF00BF00BF0020F3E730460DF019
:105DE0007BFC30B90DF0F8FC00BF00BF00BF002005
:105DF000E8E76806000E8DF800008DF801408DF888
:105E0000026003216846FFF7BFFD8DF803009DF88F
:105E100003000DF061FC30B90DF0DEFC00BF00BFE7
:105E200000BF0020CEE70DF0D7FC182C03DD0120C9
:105E300001F0A6FF02E0232001F0A2FF00BF012035
:105E4000C0E7000010B540F2036020F0A3FC4FF45F
:105E50008073032210210A480CF062FF4FF4007394
:105E60000322142106480CF05BFF4FF40071044834
:105E70000CF054FF4FF4807101480CF04FFF10BD3F
:105E8000000C014010B540F2026020F083FC40F2AB
:105E9000036020F07FFC40F2046020F07BFC40F2C5
:105EA000056020F077FC4FF6FF73032200211248B3
:105EB0000CF036FF4FF6FF73032200210F480CF061
:105EC0002FFF4FF6FF73032200210D480CF028FF2F
:105ED0004FF6FF73032200210A480CF021FF40F225
:105EE0001C7020F057FC18F0EFFA002020F08EFC18
:105EF00018F0B8FA10BD000000080140000C014085
:105F000000100140001401400146CA1701EB9272D3
:105F10009210A1EB820292B9642091FBF0F200FB97
:105F2000121050B94FF4C87091FBF0F200FB121040
:105F300008B9012070470020FCE70120FAE70020A3
:105F4000F8E70000F8B504460E46174603208DF822
:105F50000000200C8DF80100200A8DF80200E0B24C
:105F60008DF8030000BFFFF79FF90028FBD1102137
:105F70000C480CF0D1FE002504E01DF8050000F0EF
:105F800048FC6D1C042DF8DB002503E000F03CFC10
:105F900070556D1CBD42F9DB102102480CF0BEFEAD
:105FA000F8BD0000000801402DE9F04F81B0ADF5CB
:105FB000805D8046894614464FEA18304FEA003A21
:105FC0004FEA183BC8F30B07C7F58055AC4200D821
:105FD00025464FF4805101A8FEF753F941E04FF4F4
:105FE000805201A95046FFF7ADFF00260CE0B8191A
:105FF00001A9085CFF2806D0B819085C19F806103A
:10600000884200D002E0761CAE42F0D300BFAE4220
:1060100010D21FFA8BF0FFF70DF901A9C8192A4613
:106020004946FEF715F94FF48052514601A8FFF793
:1060300005FE05E00AEB07012A464846FFF7FEFD8C
:10604000AC4200D10EE00AF5805A0BF1010B00279B
:10605000A944601B84B24FF48055B4F5805F00DA28
:106060002546BCE700BF01B00DF5805DBDE8F08FAF
:106070002DE9F04104460D4616461F46DDF818800E
:106080000DE03B46324629462046FFF7FEFD18B19B
:1060900000BF0120BDE8F081012001F071FEB8F1E0
:1060A0000000A8F1010101F0FF08EAD100BF00BF24
:1060B00000BF00BFEEE700001CB50446B4B94021A4
:1060C0000F480CF029FEC0200190FA2001F058FE84
:1060D0000520012301AAEA2100901A2000F012F8FD
:1060E000FA2001F04DFE00BF01201CBD40210448F4
:1060F0000CF014FE0F2001F043FE00BF0120F4E776
:10610000000C01402DE9F0478046894615461E46A1
:10611000089F002415E02A5D49464046FFF741FEEE
:1061200060B9781EC7B22FB900BF00BF00BF002002
:10613000BDE8F087012001F023FE00E000BF601CF5
:10614000C4B2B442E7DB00BF0120F1E710B5234839
:1061500001F0AAFB002001F019FC012202211F48D6
:1061600001F087FC012211021C4801F082FC002191
:106170001A4801F08DFB03220121184801F065FB4C
:10618000072301220021154801F00EFC07230222FB
:106190000121124801F008FC0723032202210F48C5
:1061A00001F002FC4FF4602201210C4801F0D5FB04
:1061B00001221146094801F0B1FB084801F0A5FB96
:1061C000012007F009FB054801F02AFB034801F014
:1061D00097FB0121014801F03DFC10BD0024014066
:1061E00010B540F2026020F0D5FA0E230322002100
:1061F00007480CF095FD40F2096020F0CBFA4FF40F
:10620000A06020F0C7FA032020F05CF910BD000068
:106210000008014000B587B00021194807F056FB7F
:106220001848009000208DF81800174802900120AF
:106230008DF81900400201908000039000208DF835
:106240001A00212004904FF4005005906A46002166
:106250000B4807F07BFB0021094807F01EFB0021DB
:10626000074807F0E8FA02220021054807F005FC7C
:10627000012211460B2018F075F807B000BD000090
:10628000000002404C240140140E002010B540F2E2
:10629000026020F07FFA40F2036020F07BFA40F2C7
:1062A000046020F077FA40F2056020F073FA4FF4B2
:1062B000C06020F06FFA012146480CF08FFD48F2D3
:1062C00001030322282144480CF02AFD4FF4E06327
:1062D0000322102140480CF023FD10230322482103
:1062E0003E480CF01DFD4FF48053032228213B480B
:1062F0000CF016FD4AF2EB030322102137480CF094
:106300000FFD4FF492730322482135480CF008FD2D
:106310004FF480530322282131480CF001FD42F64E
:106320000B03032210212E480CF0FAFC0423032255
:1063300010212C480CF0F4FC4FF4006128480CF0BC
:10634000EDFC802125480CF0E9FC402123480CF0AD
:10635000E3FC4FF4004121480CF0DEFC20211F48F3
:106360000CF0DCFC01211E480CF0D8FC4FF48071CD
:1063700019480CF0D3FC012118480CF0CDFC4FF467
:10638000005116480CF0C8FC082115480CF0C6FC5A
:106390004FF4806110480CF0C1FC08210F480CF04C
:1063A000BDFC4FF4C46210490020FFF7CBFD0E483E
:1063B000B0F8000120B10C48B0F80001022804D167
:1063C000022106480CF0AAFC03E0022103480CF06D
:1063D000A3FC10BD0002300000080140000C014089
:1063E00000100140001401409D0F002000BFFEE797
:1063F0007047000010B5002807DA0A07140E054A96
:1064000000F00F031B1FD45403E00A07130E024AC7
:10641000135410BD18ED00E000E400E0BFF34F8F0F
:106420000648006800F4E06005490843001D034980
:106430000860BFF34F8F00BFFEE700000CED00E0E7
:106440000000FA05704710B540F21B7020F0A2F969
:1064500040F21C7020F09EF917F0FAFF012006F0C0
:10646000E3F94AF2A551884201D006F013FA4FF43D
:10647000006020F00FF94FF4006020F01BF94FF49A
:10648000807020F0B7F940F60F0020F083F920F07B
:1064900077FA20F05BFA012020F050FA20F056FA4B
:1064A00047F6FF7020F05CFA20F050FA10BD0000B3
:1064B0002DE9F04120F014FA3149086008460068DF
:1064C0003049B0FBF1F440F2B277002C32D00EE04C
:1064D0003846FFF719FD30B1B4F5B77F02D3A4F504
:1064E000B77402E006E0A4F26D14781C87B2B4F52C
:1064F000B67FEDD800BF24488780012517E02249E8
:106500008888FFF701FD30B1022D04D11D2C01D385
:106510001D3C0AE00DE0681E1C49085CA04203D83F
:10652000681E085C241A00E003E0681C85B21C2C7D
:10653000E5D200BF14498D71601CC8711048006815
:106540001049B0FBF1F201FB12064FF46160B6FB9B
:10655000F0F00D4908704FF46160B6FBF0F100FBFC
:1065600011603C21B0FBF1F0074948703C20B6FBBC
:10657000F0F100FB116004498870BDE8F081000073
:10658000C403002080510100BC0300207C6F02087E
:1065900010B5012020F0C6F920B1012020F0BAF991
:1065A000FFF786FF10BD10B5FFF74DFF00F002F8B2
:1065B000002010BD10B500220121032017F0D2FEEB
:1065C00010BD00002DE9F05F06460F4691469A4641
:1065D000DDF828B0002440F2B2784046864203DB62
:1065E00040F63300864202DD0120BDE8F09F0CE05A
:1065F0004046FFF789FC10B11D48044401E01D48E6
:10660000044408F101001FFA80F8B045F0DB781E61
:10661000C7B2002510E01848405D40F2A32148436E
:1066200004EBC0143046FFF76FFC18B1012D01D107
:1066300012480444681CC5B2BD42ECDBA9F101005C
:1066400040F2A321484304EBC014CAEB4A10C0EB4C
:106650000A2004EB0014CBEB0B1004EB80040B9826
:10666000044420F073F9204620F044F90020BCE7F0
:106670000085E2018033E1017C6F02088051010056
:106680001CB5012006F0D0F84AF2A55188421ED070
:1066900001200F4908700090034602460146019010
:1066A00040F2E770FFF78EFF17F0D2FE4AF2A551D5
:1066B000012006F0D5F817F0C1FE00BF05A000F0DC
:1066C00087FBA2220C490DA000F082FB00BF1CBD7D
:1066D000C80300200D0A2054696D6520696E697435
:1066E00069616C697A6174696F6E20636F6D706C3B
:1066F00065746564200D0A00886F02085B25735D70
:106700005B25645D0D0A00001CB5C0200190244982
:10671000D1F8A3002349FEF743F90DD02049D1F861
:10672000A7002049FEF73CF906D01D49D1F8AB007F
:106730001C49FEF735F90DD10520012301AAEA21F4
:1067400000901A20FFF7DEFC012080F3108800BFC4
:10675000FFF764FE00241EE01149D1F8F30012494E
:10676000FEF728F906D30E49D1F8F3000F49FEF7DA
:1067700017F90DD20520012301AAEA2100901A2061
:10678000FFF7C0FCFA2007F027F801F00BFB00E050
:1067900003E0601CC4B20A2CDEDB00BF1CBD00009D
:1067A000A40E00200000DC420050C3470050C3C7C5
:1067B0001CB5C02001901249D1F8A3001149FEF781
:1067C000EFF80DD00E49D1F8A7000E49FEF7E8F812
:1067D00006D00B49D1F8AB000A49FEF7E1F80DD11C
:1067E0000520012301AAEA2100901A20FFF78AFC64
:1067F000012080F3108800BFFFF710FE1CBD0000D1
:10680000A40E00200000DC4210B5FF2020F0C8F8E4
:1068100010BD10B50446204620F0C2F810BD00009F
:1068200010B540F202601FF0B5FF40F204601FF0A7
:10683000B1FFB0230322102112480CF071FA40235B
:10684000032204210F480CF06BFA4FF40473032267
:1068500010210D480CF064FA10210B480CF05EFA80
:106860004FF4007108480CF059FA102105480CF05B
:1068700055FA202103480CF051FA802101480CF010
:106880004DFA10BD0008014000100140704710B5DE
:1068900006F0ACFF10BD000008B53048006840F0BD
:1068A00001002E49086000BF2C48006800F002007B
:1068B0000028F9D000BF2948406840F080002749EF
:1068C00048600020009002E00098401C0090009872
:1068D0005028F9D32148406840F090001F49486093
:1068E0000020009002E00098401C00900098502882
:1068F000F9D300BF1948406820F0030017494860E9
:10690000084600681649084014490860084640686F
:106910001449084011494860084600681049084079
:106920000E4908600846006820F480200860084688
:1069300040680D4908400949486008460068084910
:106940000840064908604FF41F00886020F0E0F816
:1069500000214FF0006017F065FD08BD00100240F7
:10696000FFFFF6FE0C00FFE8FFFF00F70EB500206A
:106970000290022116480CF0CFF902AA0121C4208E
:1069800002F080FC02AA0121C52002F07BFC11A1CB
:1069900003C9CDE900010621684600F095F94FF4DE
:1069A000FA7006F019FF012080F3108800BF00BFC5
:1069B000BFF34F8F0948006800F4E06008490843BE
:1069C000001D06490860BFF34F8F00BF00BFFEE700
:1069D000001001400A0B0C0D0E0F00000CED00E042
:1069E0000000FA0510B54FF4006104480CF094F96A
:1069F0000348FFF752F8FFF745FA10BD00100140B9
:106A0000A086010010B50121880720F026F9012099
:106A100044490870444890F8E10606287DD143486F
:106A20000088434908800221424807F0CBF8C0F5AE
:106A300096603E4908803E4800880988884212D105
:106A40003A48008800280EDD3B480088401C3A493F
:106A5000088008460088642808DD0020088001209E
:106A60003649087002E00020334908802F4800882A
:106A7000AA2828DA30484088401C2F494880084618
:106A80004088C82822DD00204880888003202649CD
:106A900081F8E10600202A4908702849087002217F
:106AA000244806F0AFFE02221146224806F046FFB7
:106AB0004FF4966202211F4807F071F802211D4829
:106AC00006F0B9FE02E000201B4948801A48808881
:106AD000401C1949888008468088B0F5166F1FDD74
:106AE000002088800320104981F8E1060020144925
:106AF00008701249087002210E4806F083FE022237
:106B000011460C4806F01AFF4FF49662022109481C
:106B100007F045F80221074800E001E006F08BFE8F
:106B200010BD000016000020F853002020000020B7
:106B30001E0000200000024018000020BC040020BD
:106B4000BD0400201FB54FF4E0601FF023FE4FF09E
:106B5000804020F00FF86B20ADF800000020ADF869
:106B60000200ADF804004CF24F3002900020ADF866
:106B70000C008DF80E0069464FF0804020F070F850
:106B80004FF4C06017F044FC012200211C2017F0D4
:106B9000E9FB0121880720F0D3F84FF080401FF077
:106BA000E3FF1FBD2DE9F04104460F4615461E4682
:106BB000224820F01BF940F203601FF0EBFD4FF478
:106BC0008063032218211E480CF0AAF84FF40063DA
:106BD000032204211A480CF0A3F840F212701FF0AF
:106BE000D9FD00221146272017F0BCFB40F20531E9
:106BF000124820F061F94FF44171104820F05CF91F
:106C000021460E4820F0A0F831460C4820F086F9C5
:106C100039460A4820F0A2F92946084820F08EF9A2
:106C20000821064820F092F90421044820F07EF95A
:106C3000024820F02DF9BDE8F08100000048004036
:106C4000000C014000B587B04FF4A0601FF0A2FD1A
:106C500002211A4806F03AFE684606F095FF002029
:106C60008DF81A001648029001208DF819000020B6
:106C700003904FF4966004901248009000208DF825
:106C8000180003904FF4405005906A4602210B48CB
:106C900006F05CFE0221094806F0E6FD02210748E5
:106CA00006F04DFF40210748001F20F0E7F80221C1
:106CB000024806F0C0FD07B000BD00000000024021
:106CC000120500200448004070B505460E46002419
:106CD00004E0285D00F006F8601C84B2B442F8DBE2
:106CE00070BD000010B504462146054820F079F833
:106CF00000BF0721024820F0D0F80028F9D010BDCD
:106D00000048004010B52949294820F0EBF818B197
:106D10002649274820F0DDF82649254820F0E2F8EA
:106D2000B8B32449224820F0D4F8214820F054F880
:106D30002148007818B901202049087029E0002076
:106D40001E49087002211E4806F03CFFC0F59660FF
:106D50001C49088008460088B0F57F7F07DD08469B
:106D60000088B0F5966F02DA0120144908701548C2
:106D7000807804280DD11348C078012809D1114822
:106D8000007930B90F484079FF2802D101200B4922
:106D900008700D49064820F0A5F830B10A490448AA
:106DA00020F097F8024820F017F810BD0503050001
:106DB0000048004004030400BD040020BC0400207F
:106DC00000000240100500200503030000BFFEE79D
:106DD0000FB4054B10B503A9044A029800F084F9DA
:106DE00010BC5DF814FB0000A92C01080805002068
:106DF0000FB4084B10B504A902AA039800F074F967
:106E0000044602A9002000F006FD204610BC5DF8F3
:106E100014FB000017780008490050EAC12018BF91
:106E200004204A0D18BF40F0010040F2FF72B2EB9F
:106E3000515F08BF40F00200012808BF05207047DD
:106E4000004870470C0500202DE9F0414F1E00EB73
:106E5000C7010446D1E9000115461E4637F0060277
:106E60000DD02A463346FDF7D1FB7F1E04EBC70346
:106E7000D3E90023FDF723FB37F00602F1D1022FFF
:106E800025D0042F13D0062F18BFBDE8F0812A4665
:106E90003346FDF7BBFBD4E90A23FDF710FB2A4676
:106EA0003346FDF7B3FBD4E90823FDF708FB2A4678
:106EB0003346FDF7ABFBD4E90623FDF700FB2A467A
:106EC0003346FDF7A3FBD4E90423FDF7F8FA2A467D
:106ED0003346FDF79BFBD4E90223FDF7F0FA2A467F
:106EE0003346FDF793FBD4E90023BDE8F041FDF7FD
:106EF000E6BA00000022134610460149FDF7F8BB30
:106F00000000F03F0122FDF7D1BEFDF7D8BA002204
:106F1000134610461146FDF7EBBB40F2013200204C
:106F20004FF0E041FDF7C2BE024A00201107FDF715
:106F3000BDBE000001FDFFFF02E008C8121F08C12E
:106F4000002AFAD170477047002001E001C1121FEA
:106F5000002AFBD17047000001490860704700001B
:106F60000C0500202DE9FF5F82B00021DDE904302F
:106F7000020DDDF840B0034318D044F61050A2F2E1
:106F8000FF3242431514119801281FD0A5EB0B00C6
:106F9000401C5FEA000A4FF000064E4FDFF83891C0
:106FA000B046504615D5CAF1000413E011980124EB
:106FB0004AA3012801D16FEA0B010298119AC0E996
:106FC0000031C0E9024206B0BDE8F09FCBF10000FD
:106FD000DFE704460021404A491842EB0450CDE95E
:106FE000001012E0E00707D032463B4640464946D3
:106FF000FDF70CFB8046894632463B461046194653
:10700000FDF704FB06460F466410002CEAD1DDE9CB
:107010000401DDE90023BAF1000F06DAFDF7F6FA04
:1070200042464B46FDF7F2FA05E0FDF761FB4246AA
:107030004B46FDF75DFB04460E460022284BFDF74C
:107040007BFC03D84FF0FF30014607E00022254BC0
:1070500020463146FDF733FAFDF72BFC102409E0FA
:10706000002C0ADB0A220023FDF7C4FC039B30320C
:107070001A55641E50EA0102F2D1641C039AC4F14D
:1070800011031444119A012A03D0012208430DD19F
:107090000AE0084304D000204FF0110B119072E772
:1070A000A3EB0B056D1E0DE05B4504DD4FF0000208
:1070B00005F1010504E003DA4FF00002A5F1010536
:1070C000002AECD002981199C0E90231C0E90045CC
:1070D00079E70000000014400000F03F300000009D
:1070E0000000F0430000E03F2DE9FF4F95B09B46C4
:1070F0008946064600250FE2252877D10024274639
:10710000F84A0121059400E0044316F8013F203BB2
:1071100001FA03F01042F7D130782A2811D06FF02D
:107120002F033078A0F13002092A16D8059A44F0CE
:10713000020402EB820203EB42021044761C05902B
:10714000EFE759F8042B0592002A03DA504244F481
:107150000054059044F00204761C30782E2816D195
:1071600016F8010F44F004042A280DD06FF02F0206
:107170003078A0F13003092B09D807EB870302EB25
:107180004303C718761CF3E759F8047B761C307864
:107190006C280FD006DC4C2817D068280DD06A2840
:1071A00014D104E0742810D07A280FD10DE044F4F3
:1071B00000140AE044F4801401E044F440147278AE
:1071C000824202D104F58014761C761C3078662841
:1071D0000BD013DC582877D009DC002875D045285F
:1071E000F6D04628F4D047281AD19DE118E063284C
:1071F00035D0642879D0652812D195E1702873D0F4
:1072000008DC6728F1D069286FD06E280DD06F2870
:1072100006D1B5E073282CD0752875D0782874D0A5
:107220005A46179990476D1C75E1C4F30250022825
:1072300009D003280DD0D9F8001004280DD00D6016
:1072400009F1040967E1D9F80010EA17C1E9005211
:10725000F6E7D9F800100D80F2E70D70F0E719F8A5
:10726000041B8DF8001000208DF80100EA46012073
:1072700003E059F804AB4FF0FF3061074FF0000115
:1072800002D40DE008F101018846B9420FDA8045C9
:10729000F8DB1AF808100029F4D108E008F1010120
:1072A00088468142FADB1AF808100029F6D10598C1
:1072B0005B46A0EB080721463846179A00F094FA7F
:1072C000284400EB080507E04DE029E10DE01AF83D
:1072D000010B5A4617999047B8F10108F7D25B465F
:1072E00021463846179A13E142E00A220092C4F37D
:1072F00002524FF0000A022A08D059F804CB032AA0
:107300004FEAEC710AD00DE029E02AE009F107010B
:1073100021F00702F2E802C1914609E00FFA8CFC65
:107320004FEAEC71042A03D14FFA8CFC4FEAEC715E
:10733000002907DA0A460021DCF1000C61EB0201AA
:107340002D2202E0220504D52B228DF804200122F3
:1073500003E0E20701D02022F7E7904659E00A2136
:1073600002E010220DE010214FF0000A00910BE026
:1073700010224FF0000A44F004040827009203E0B2
:1073800008224FF0000A0092C4F30252022A05D0EC
:1073900059F804CB0021032A08D009E009F10701BC
:1073A00021F00702F2E802C1914605E01FFA8CFCC9
:1073B000042A01D10CF0FF0C4FF00008220728D559
:1073C000702806D0009B83F0100353EA0A0305D00F
:1073D0000EE040228DF80420012208E05CEA010260
:1073E00006D030228DF804208DF805000222904648
:1073F000009B83F0080353EA0A030AD15CEA010206
:1074000001D1620705D530228DF804204FF0010824
:107410007F1E582804D034A003900EA802900DE0DF
:1074200036A0F9E753466046009AFDF7E3FA844632
:107430000398825C0298401E029002705CEA010090
:10744000F0D1029806A9081A00F1200A600702D5B7
:1074500024F4803400E00127574502DDA7EB0A0041
:1074600000E0002000EB0A01009005984144401A1A
:107470000590E00306D45B462146179A059800F074
:10748000B3F90544002706E001A85A46C05D1799E4
:1074900090476D1C7F1C4745F6DBE0030CD55B462F
:1074A0002146179A059800F09FF9054404E0302022
:1074B0005A46179990476D1C0099481E0090002964
:1074C000F5DC08E0029802995A460078491C0291BE
:1074D000179990476D1CBAF10001AAF1010AF1DC7D
:1074E00065E1000009280100303132333435363788
:1074F0003839616263646566000000003031323300
:10750000343536373839414243444546000000009F
:1075100000F058F90544761C307800287FF4ECAD73
:1075200019B02846BDE8F08F620700D4062709F19C
:10753000070222F0070CFCE80223E14603F00048B2
:107540005FEA080C02D00FF2702C0DE05FEA045CD9
:1075500002D50FF2682C07E05FEAC47C02D00FF27C
:10756000602C01E0AFF2700C4FF0FF3823F00043C5
:10757000CDF850C065280CD006DC452809D0462837
:107580001DD047283DD13DE0662818D067287ED120
:1075900038E00021112F01DB112000E0781CCDE93B
:1075A000000106A90EA8FFF7DDFCDDE90F010E9A28
:1075B00003910021009207F1010A04914DE04FF080
:1075C00000400097CDE9011006A90EA8FFF7CAFCFC
:1075D000DDE90F0203920E9B11990022DDF80CA049
:1075E0000093049211B9791C00EB010AB7EB0A0071
:1075F00004D4C0F1FF3007F1010A0490AAEB0700A0
:10760000019044E0012F00DA01270021112F01DD54
:10761000112000E03846CDE9000106A90EA8FFF7C9
:10762000A1FCDDE90F010E9A039100210491009263
:10763000BA4621070CD40399514500DA8A46BAF1BB
:10764000010F05DD009AAAF10101515C302908D033
:10765000B84202DA10F1040F06DA0121CDE9011077
:1076600015E0AAF10101E9E7002805DC04990144CD
:107670000491AAEB000102E0411C514500DD8A465D
:107680000499401A401C01904FF0004002902007DE
:1076900004D40198504501DBCDF8048000208DF81A
:1076A0004F0002980DF14F07B0F1004F25D02B206D
:1076B0000E9002984FF0020800280CDA4042029027
:1076C0002D200E9007E00A210298FDF77DF9303158
:1076D000029007F8011DB8F10001A8F10108F2DCE1
:1076E00002980028EFD1791E0E980870307800F0CB
:1076F000200040F0450007F8020D12A8C01B00F161
:1077000007081498007800B1012000EB0A010198E5
:1077100001EBE07105984144401A401E0590E003DA
:1077200006D45B462146179A059800F05DF805449B
:107730001498007818B15A46179990476D1CE003C9
:1077400024D55B462146179A059800F04DF805446C
:107750001CE00498002807DBDDE90301884203DD13
:107760000098405C179901E0179930205A469047DD
:10777000049805F10105401C04900198401E0190F9
:1077800004D12E205A46179990476D1CBAF100017A
:10779000AAF1010ADDDC05E017F8010B5A4617993A
:1077A00090476D1CB8F10001A8F10108F4DC5B46BC
:1077B0002146179A0598ABE62D0000002B0000002B
:1077C000200000002DE9F041044600251E46174622
:1077D000880404D405E039462020B0476D1C641E9F
:1077E000F9D52846BDE8F0812DE9F0410446002591
:1077F0001E469046C80301D5302700E020278804A4
:1078000004D505E041463846B0476D1C641EF9D5E5
:107810002846BDE8F0810A68531C0B601070704761
:10782000816841F00801816000BF816801F00801B2
:107830000029FAD1816841F00401816000BF8168AC
:1078400001F004010029FAD1704730B5012902D0B6
:1078500002291AD10CE0C36A23F47003C362C36A1D
:10786000541E4FF4700505EA04542343C3620DE02F
:10787000836B23F440138363836B541E4FF44015D2
:1078800005EA04542343836300E000BF00BF30BD1A
:1078900021B1826842F40062826003E0826822F4CF
:1078A000006282607047000010B50446134820440F
:1078B00030B1B0F5806F0CD0B0F5C05F1BD111E0D6
:1078C00040F209301EF086FF40F209301EF072FFD0
:1078D00012E040F20A301EF07DFF40F20A301EF046
:1078E00069FF09E040F20F301EF074FF40F20F30E4
:1078F0001EF060FF00E000BF00BF10BD00DCFEBF57
:10790000816841F4807181607047816801F00101F4
:1079100019B9816841F001018160704772B101F0CD
:1079200001031BB1836843F48013836001F00203F9
:1079300093B1836843F4004383600DE001F00103D9
:107940001BB1836823F48013836001F002031BB131
:10795000836823F4004383607047012902D0022921
:1079600010D107E0836823F46023836083681343A6
:10797000836008E0836823F4E043836083681343F3
:10798000836000E000BF00BF704700000549096840
:1079900021F47021034A1160114609680143116006
:1079A0007047000004240140F0B51D4606290CDA9A
:1079B000436B01EB81071F26BE40B34301EB8106F9
:1079C00002FA06F63343436322E00C290EDA036B16
:1079D0008E1F06EB86071F26BE40B3438E1F06EBA5
:1079E000860602FA06F63343036311E010290FDA24
:1079F000C36AA1F10C0606EB86071F26BE40B343FF
:107A0000A1F10C0606EB860602FA06F63343C362C2
:107A10000A2A0CDA046902EB42070726BE40B44387
:107A200002EB420605FA06F63443046111E0122A1D
:107A30000FDAC468A2F10A0606EB46070726BE4025
:107A4000B443A2F10A0606EB460605FA06F63443ED
:107A5000C460F0BD01F001021AB1826842F48002F4
:107A6000826001F002021AB1826842F40012826060
:107A70007047AAB101F480731BB1436843F480736B
:107A8000436001F480631BB1436843F48063436047
:107A900001F00203CBB1836843F00203836014E07A
:107AA00001F480731BB1436823F48073436001F4D5
:107AB00080631BB1436823F48063436001F00203D9
:107AC0001BB1836823F00203836070472DE9F04FF8
:107AD0008BB082460AF0010000284AD0002427E03B
:107AE000994901EB840108689849FCF759FF07D3CD
:107AF000954901EB840108689549FCF75BFF00D2CA
:107B000014E0914800EB840001689248FCF761FCA6
:107B10000546914800EB840001682846FCF707FC05
:107B200001468D4800EB8400016000BF601CC4B2B8
:107B3000032CD5DB00218948C0F8261400240DE071
:107B4000854A02EB84021168844AD2F82604FCF7C5
:107B5000EEFB8249C1F82604601CC4B2032CEFDBA3
:107B60007E49D1F826047E49FCF76BFC7B49C1F8BD
:107B700026040AF0020058B1734AA33AD2F8AF10B3
:107B8000764AD2F82E04FCF724FC7449C1F82E047E
:107B90000AF00400002851D07048D0F82A140020C0
:107BA000FCF7FEFE04D14FF07E516C48C0F82A1459
:107BB0006C49497840F2A31251436B4A1144D1F801
:107BC00060016449FCF705FC8346FCF78AFE674ABE
:107BD000674BCDE90001FCF719FD0022654BCDE9AB
:107BE0000201FCF76CFC5D4ACDE90401D2F82E14C9
:107BF000554AA33AD2F8AF00FCF7EBFB8346FCF7FB
:107C000070FE8046DDE90423FCF772FD0646002283
:107C1000594BFCF76DFDCDE908015049D1F82A0414
:107C2000FCF75FFECDE90601DDE90823FCF760FD06
:107C30000446FCF799FE4949C1F82A040AF00800F5
:107C400058B1414AA33AD2F8F310444AD2F8320468
:107C5000FCF7BFFB4149C1F832040AF0200080B3B1
:107C6000002428E03C481C3000EB84000168002020
:107C7000FCF796FE06D14FF07E5137481C3000EBE2
:107C8000840001603049103101EB840108683B49F0
:107C9000FCF7D7FB054630491C3101EB840108682D
:107CA0002946FCF7CEFB01462B481C3000EB840034
:107CB0000160601CC4B22448A338B0F84F00A04251
:107CC000D0DC0AF04000C8B3002500240AE01E48BA
:107CD000103000EB840001682846FCF728FB0546BD
:107CE000601CC4B21848A338B0F84F00A042EEDCC4
:107CF0001A48D0F87E140020FCF752FE04D14FF051
:107D00007E511648C0F87E140F49A339B1F84F00D0
:107D1000FCF766FD064619492846FCF792FB074624
:107D20003146FCF78EFB04460C49D1F87E0421460F
:107D3000FCF787FB0949C1F87E0400BF05F076FA1D
:107D40000BB0BDE8F08F0000470F0020000020417D
:107D5000000020420000C841B71300209D0F002002
:107D600000004040CC6C0020F85300202D431CEB59
:107D7000E2360A3F0000F03F006AF84000806D459F
:107D800041F2883200FB02F106E000BF00BF00BFF5
:107D900000BF00BF00BF00BF0A1EA1F10101F4D166
:107DA000704700002DE9F04F9FB00320332312AA43
:107DB000402100901A20FEF75BF930B900BF00BFE8
:107DC00000BF00201FB0BDE8F08F002011E00121AE
:107DD00001EB400112AA525CFE4901F8102012A9E1
:107DE00011F81020012101EB4003FA49CA54411C4B
:107DF000C8B21928EBDBF74C04F18909DFF8D8A3E6
:107E0000002533E0A11D01EB4501098847F6FF720B
:107E1000501AFCF7DCFCA11D01EB4501109008880D
:107E2000FCF7DEFC0F90EB481A38D0F89F100F9843
:107E3000FCF7D5FA83461099FCF703FB80460AF15C
:107E40001A0000EB850001684046FCF770FA1190BB
:107E500001F09EF90746FCF7E6FC06B23046FCF757
:107E6000B6FC09EB85010860681CC5B2032DC9DBAF
:107E7000DAF82E00FCF735FDCDE90E01D749497837
:107E800040F2A3125143D64A1144D1F86001D549BA
:107E9000FCF79FFA8346FCF724FD0746D24AD34BF2
:107EA000FCF7B4FB05460022D14BFCF708FBCDE9FB
:107EB0000A01DAF82A00FCF714FD05460E46B4F96B
:107EC0000C00FCF784FCCB490490FCF788FACA4903
:107ED0000590FCF7B6FA8346FCF703FDC74AC84B8A
:107EE000CDE90601FCF704FC07462A463346FCF7B9
:107EF0008DFBCDE90801DDE90A23FCF7F9FBCDE9AB
:107F00000C01DDE90E23FCF7DAFACDE91001FCF7EC
:107F10002BFDC9F80C00002757E0AF49363101EBC3
:107F200087010868FCF7DDFC0546B64AB64BFCF74E
:107F3000EBFC11D3A849363101EB87010868B3493E
:107F4000FCF72EFD08D0A449363101EB8701086803
:107F5000AF49FCF72FFD1AD24FF07E519E483630C4
:107F600000EB8700016004F10E0000EB4700B0F960
:107F7000000000EB8005E91705EBD1614811FCF723
:107F800026FC09F1100101EB870108601BE004F1F8
:107F90000E0000EB4700B0F9000000EB8005E91788
:107FA00005EBD1614811FCF712FC06468A483630D1
:107FB00000EB870001683046FCF711FA09F1100167
:107FC00001EB87010860781CC7B2102FA5DB91492F
:107FD000D1F87604FCF785FC05468A4A8A4BFCF703
:107FE00093FC0DD38B49D1F876048849FCF7D8FC73
:107FF00006D08849D1F876048549FCF7DBFC04D229
:108000004FF07E518348C0F876148249D1F87A0443
:10801000FCF767FC05467B4A7B4BFCF775FC0DD3F0
:108020007C49D1F87A047949FCF7BAFC06D0794941
:10803000D1F876047649FCF7BDFC04D24FF07E51AE
:108040007448C0F87A147349D1F87A044FF07E511D
:10805000FCF7A6FC04D16F48D0F87614C0F87A1467
:108060006C49D1F832046C49FCF7A4FC06D3694989
:10807000D1F832046949FCF793FC03D2002165482A
:10808000C0F83214B4F92E00002864DD6149D1F83B
:108090003204FCF726FCCDE90E015049497840F244
:1080A000A31251434E4A1144D1F860014D49FCF7E7
:1080B00090F98346FCF715FC07464B4A4B4BFCF7FF
:1080C000A5FA054600224A4BFCF7F9F9CDE90A0169
:1080D0005049B1F94705FCF788FB05460E46B4F94F
:1080E0002E00FCF774FB43490090FCF778F90190EF
:1080F0004848D0F876140198FCF771F98346FCF7EC
:10810000F0FB3E4A3E4BCDE90201FCF7F1FA07468F
:108110000022434BFCF7ECFA2A463346CDE9040132
:10812000FCF774FA374A384BCDE90601FCF76EFAD2
:10813000CDE90801DDE90A23FCF7DAFACDE90C0103
:10814000DDE90E23FCF7BBF9CDE91001FCF70CFCCF
:10815000C9F850008CE02F49D1F83204FCF7C1FB7C
:10816000CDE90E011D49497840F2A31251431C4A42
:108170001144D1F860011B49FCF72BF98346FCF749
:10818000B0FB0746184A194BFCF740FA0546002297
:10819000174BFCF794F9CDE90A011E49B1F94905DD
:1081A000FCF723FBCDE90601B4F92E00FCF70FFB29
:1081B00010490090FCF713F983461648D0F87A145A
:1081C0005846FCF70CF90190FCF78BFB0B4A0C4B63
:1081D00028E00000BE0E00209D130020CC6C002083
:1081E000F85300200000C8412D431CEBE2360A3F43
:1081F0000000F03F0000484300AAD1461E82BD9C0B
:10820000EC79013F7B14AE47E17A843F00FF7F4762
:1082100000007F439D0F0020007C9248007C92C8A4
:1082200080F7D440CDE90201FCF762FA054600224E
:10823000114BFCF75DFACDE90401DDE90623FCF7FB
:10824000E5F907460D4A0E4BFCF7E0F9CDE90801C8
:10825000DDE90A23FCF74CFACDE90C01DDE90E2338
:10826000FCF72DF9CDE91001FCF77EFBC9F85000B1
:1082700000BF0120A6E5000080F7D4407B14AE4784
:10828000E17A843F00B593B003201A230BAA0021A2
:1082900000901846FDF7ECFE28B900BF00BF00BFF4
:1082A000002013B000BD0020079016E001210798C0
:1082B00001EB40000BA9095CFB4A079802F810107B
:1082C0000BA9079811F81010012202EB4000F64AA2
:1082D00011540798401CC0B2079007980D28E5DBA1
:1082E00000BF00BF00BF00BFEF480A904D300990AB
:1082F000EE4808900A980078C0F38101099801803F
:108300000A98407800F00F00052803DA1021099838
:10831000418005E00A98407800F00F0109984180FB
:108320000A98C078C0F3810030B1012808D0022833
:108330000BD0032813D10DE064210998818013E04C
:108340004FF4FA71099881800EE04FF47A71099820
:10835000818009E04FF4FA610998818004E04FF6CA
:10836000FF710998818000BF00BF09984088039081
:10837000FCF736FA04900898D0F87E000390049930
:10838000FCF75FF806900A984088C0F3090000EBFC
:1083900080000490FCF71BFA05900699FBF7C7FFD5
:1083A0000790FCF759FA81B20998C1800A98C07801
:1083B0000009102857D2DFE800F0080C10151A1F2A
:1083C00024292E33383D42474C51642109980181BC
:1083D0004EE0C821099801814AE04FF4967109984E
:1083E000018145E04FF4C8710998018140E04FF4E4
:1083F0001671099801813BE04FF448710998018199
:1084000036E04FF47A710998018131E04FF4FA6156
:10841000099801812CE040F6B8310998018127E0E4
:108420004FF47A610998018122E041F27071099854
:1084300001811DE04FF4FA510998018118E042F2E0
:1084400010710998018113E044F6206109980181B7
:108450000EE047F230510998018109E049F64041A8
:108460000998018104E04FF6FF710998018100BF6E
:1084700000BF099840880390FCF7B2F9049008986F
:10848000D0F87E0003900499FBF7DBFF06900A9872
:108490008088C0F3090000EB80000490FCF797F996
:1084A00005900699FBF743FF0790FCF7D5F981B2D9
:1084B00009984181099840880390FCF791F904904C
:1084C0000898D0F87E0003900499FBF7BAFF069055
:1084D0000A98C07900EB800080000490FCF777F9DF
:1084E00005900699FBF723FF0790FCF7B5F981B2D9
:1084F000099881810A9840790009102857D2DFE84D
:1085000000F0080C10151A1F24292E33383D42475D
:108510004C5164210998C1814EE0C8210998C1815C
:108520004AE04FF496710998C18145E04FF4C87153
:108530000998C18140E04FF416710998C1813BE070
:108540004FF448710998C18136E04FF47A71099867
:10855000C18131E04FF4FA610998C1812CE040F605
:10856000B8310998C18127E04FF47A610998C18137
:1085700022E041F270710998C1811DE04FF4FA5177
:108580000998C18118E042F210710998C18113E085
:1085900044F620610998C1810EE047F230510998F4
:1085A000C18109E049F640410998C18104E04FF6D4
:1085B000FF710998C18100BF00BF099840880390EE
:1085C000FCF70EF904900898D0F87E000390049907
:1085D000FBF737FF06900A98807900EB8000800057
:1085E0000490FCF7F4F805900699FBF7A0FE0790BD
:1085F000FCF732F981B2099801820A98407A00EBBF
:1086000080008100099841820A98007A00EB80007E
:10861000810009988182099840880390FCF7E0F86E
:1086200004900898D0F87E0003900499FBF709FFA6
:1086300006900A98C07A00F07F0000EB800080006E
:108640000490FCF7C4F805900699FBF770FE0790BC
:10865000FCF702F981B20998C18209984088039019
:10866000FCF7BEF804900898D0F87E0003900499B7
:10867000FBF7E7FE06900A98807A00EB8000800006
:108680000490FCF7A4F805900699FBF750FE0790BC
:10869000FCF7E2F881B2099801830A98407B00F068
:1086A0000F0010285BD203E0A40E00209D130020D1
:1086B000DFE800F0080C1014191E23282D32373C77
:1086C00041464B503221099841834DE0642109987D
:1086D000418349E0C8210998418345E04FF4C871BE
:1086E0000998418340E04FF41671099841833BE0BB
:1086F0004FF448710998418336E04FF47A71099834
:10870000418331E04FF4FA61099841832CE04FF442
:108710007A610998418327E041F270710998418399
:1087200022E04FF4FA51099841831DE042F21071A2
:108730000998418318E043F698210998418313E092
:1087400044F62061099841830EE047F230510998C0
:10875000418309E049F640410998418304E04FF61E
:10876000FF710998418300BF00BF0A98407B000950
:10877000102849D2DFE800F0080C1014181C20243F
:10878000282C3034383C404414210998818340E03F
:108790001E21099881833CE028210998818338E0D3
:1087A00032210998818334E03C210998818330E0AB
:1087B0004621099881832CE050210998818328E083
:1087C0005A210998818324E064210998818320E05B
:1087D0006E21099881831CE078210998818318E033
:1087E00082210998818314E08C210998818310E00B
:1087F000A021099881830CE0B4210998818308E0C5
:10880000C8210998818304E04FF6FF71099881839C
:1088100000BF00BF0A98007B00F00F00102852D262
:10882000DFE800F0080C1014181C2024292E33381F
:108830003D42474C0A210998C18349E01421099817
:10884000C18345E028210998C18341E03C21099872
:10885000C1833DE050210998C18339E06421099822
:10886000C18335E0C8210998C18331E04FF4C87154
:108870000998C1832CE04FF416710998C18327E051
:108880004FF448710998C18322E04FF47A71099836
:10889000C1831DE04FF4FA610998C18318E04FF4D9
:1088A0007A610998C18313E04FF4FA510998C183A2
:1088B0000EE042F210710998C18309E044F620618C
:1088C0000998C18304E04FF6FF710998C18300BF86
:1088D00000BF0A98007B000910284CD2DFE800F0A6
:1088E000080C1014181C2024282C3034383C414625
:1088F0001E210998018443E02821099801843FE062
:108900003221099801843BE03C210998018437E039
:1089100046210998018433E05021099801842FE011
:108920005A21099801842BE064210998018427E0E9
:1089300078210998018423E08C21099801841FE0A3
:10894000A021099801841BE0B4210998018417E053
:10895000C8210998018413E04FF4967109980184A5
:108960000EE04FF4C8710998018409E04FF4FA71E0
:108970000998018404E04FF6FF710998018400BF53
:1089800000BF0A98C07B00F00F00102855D2DFE826
:1089900000F0080C1014181D22272C31363B4045DE
:1089A0004A4F0021099841844CE0402109984184B4
:1089B00048E080210998418444E0C021099841841D
:1089C00040E04FF48071099841843BE04FF4A0717E
:1089D0000998418436E04FF4C0710998418431E030
:1089E0004FF4E071099841842CE04FF4007109982C
:1089F000418427E04FF410710998418422E04FF43C
:108A00002071099841841DE04FF430710998418428
:108A100018E04FF440710998418413E04FF450710D
:108A2000099841840EE04FF460710998418409E08F
:108A30004FF470710998418404E04FF6FF71099872
:108A4000418400BF00BF0A98C07B0009102852D2A1
:108A5000DFE800F0080C1014181C2024292E3338ED
:108A60003D42474C32210998818449E050210998C0
:108A7000818445E06E210998818441E08C21099828
:108A800081843DE0AA210998818439E0C8210998B0
:108A9000818435E0E6210998818431E04FF48271C8
:108AA000099881842CE04FF491710998818427E022
:108AB0004FF4A0710998818422E04FF4AF710998B6
:108AC00081841DE04FF4C8710998818418E04FF447
:108AD000FA710998818413E04FF416710998818422
:108AE0000EE04FF448710998818409E04FF47A71DF
:108AF0000998818404E04FF6FF710998818400BFD2
:108B000000BF0A98807B00F00F00102852D2DFE8E7
:108B100000F0080C1014181C2024292E33383D4274
:108B2000474C0A210998C18449E014210998C1845D
:108B300045E028210998C18441E03C210998C1847D
:108B40003DE050210998C18439E064210998C1842D
:108B500035E0C8210998C18431E04FF4C871099803
:108B6000C1842CE04FF416710998C18427E04FF4BA
:108B700048710998C18422E04FF47A710998C18440
:108B80001DE04FF4FA610998C18418E04FF47A614E
:108B90000998C18413E04FF4FA510998C1840EE09A
:108BA00042F210710998C18409E044F620610998E5
:108BB000C18404E04FF6FF710998C18400BF00BF73
:108BC0000A98807B0009102849D2DFE800F0080CE1
:108BD0001014181C2024282C3034383C4044142114
:108BE0000998018540E01E21099801853CE0282173
:108BF0000998018538E032210998018534E03C214B
:108C00000998018530E04621099801852CE0502122
:108C10000998018528E05A210998018524E06421FA
:108C20000998018520E06E21099801851CE07821D2
:108C30000998018518E082210998018514E08C21AA
:108C40000998018510E0A021099801850CE0B42164
:108C50000998018508E0C8210998018504E04FF6CC
:108C6000FF710998018500BF00BF0A98407C00F0A1
:108C7000030030B1012808D002280AD0032810D1FF
:108C80000BE008210998418510E0102109984185E1
:108C90000CE020210998418508E040210998418590
:108CA00004E04FF6FF710998418500BF00BF0A98A4
:108CB000407CC0F3810030B1012808D002280AD0DE
:108CC000032810D10BE008210998818510E01021BC
:108CD000099881850CE020210998818508E04021D0
:108CE0000998818504E04FF6FF710998818500BFDE
:108CF00000BF0A98407CC0F3011030B1012808D0B1
:108D000002280AD0032812D10CE040210998C1851D
:108D100012E080210998C1850EE04FF48071099816
:108D2000C18509E04FF400710998C18504E04FF650
:108D3000FF710998C18500BF00BF0A98407C800977
:108D400030B1012808D002280BD0032813D10DE040
:108D5000C8210998018613E04FF4FA710998018639
:108D60000EE04FF47A710998018609E04FF4FA6138
:108D70000998018604E04FF6FF710998018600BF4B
:108D800000BF0A98007E00F07F000190FBF73EFDD7
:108D9000B34AB44BCDE90201FBF738FC4FF0333254
:108DA000B14BCDE90401FBF78AFBCDE90601FBF7E6
:108DB000DBFD0999C1F852000A98007CC0F50070EB
:108DC0000390FBF704FD05900A98007C0290FBF7E6
:108DD00007FD03900998D0F85200014602900398CD
:108DE000FBF7FDFA04900599FBF72BFB069000F0CA
:108DF000CFF907900898D0F826000146069007980A
:108E0000FBF795FA0999C1F832000A98C07CC0F5C1
:108E100000700390FBF7DBFC05900A98C07C029081
:108E2000FBF7DEFC03900998D0F85200014602904F
:108E30000398FBF7D4FA04900599FBF702FB069020
:108E400000F0A6F907900898D0F826000146069091
:108E50000798FBF76CFA0999C1F836000A98807CEC
:108E6000C0F580700390FBF7B2FC05900A98807CF7
:108E700000F580700290FBF7AAFC03900998D0F8E7
:108E80005200014602900398FBF7A9FA0490059955
:108E9000FBF7D7FA069000F07BF907900898D0F816
:108EA0002600014606900798FBF741FA0999C1F898
:108EB0003A000A98407DC0F580700390FBF787FC6C
:108EC00005900A98407D00F580700290FBF77FFCCA
:108ED00003900998D0F85200014602900398FBF7DE
:108EE0007EFA04900599FBF7ACFA069000F050F971
:108EF00007900898D0F82600014606900798FBF7DF
:108F000016FA0999C1F83E000A98007DC0F5007074
:108F10000390FBF75CFC05900A98007D0290FBF73C
:108F20005FFC03900998D0F8520001460290039824
:108F3000FBF755FA04900599FBF783FA069000F0C9
:108F400027F907900898D0F8260001460690079860
:108F5000FBF7EDF90999C1F842000A98C07DC0F508
:108F600000700390FBF733FC05900A98C07D0290D7
:108F7000FBF736FC03900998D0F8520001460290A6
:108F80000398FBF72CFA04900599FBF75AFA069020
:108F900000F0FEF807900898D0F8260001460690E9
:108FA0000798FBF7C4F90999C1F846000A98807D33
:108FB000C0F580700390FBF70AFC05900A98807D4D
:108FC00000F580700290FBF702FC03900998D0F83E
:108FD0005200014602900398FBF701FA04900599AC
:108FE000FBF72FFA069000F0D3F807900898D0F816
:108FF0002600014606900798FBF799F90999C1F8F0
:109000004A000A98407EC0F580700390FBF7DFFBB2
:1090100005900A98407E00F580700290FBF7D7FB20
:1090200003900998D0F85200014602900398FBF78C
:10903000D6F904900599FBF704FA069000F0A8F819
:1090400007900898D0F82600014606900798FBF78D
:109050006EF90999C1F84E0000BF0120FFF721B950
:109060009A9999999999A93F33331B4008B54021A2
:10907000454880F801140E20434981F800046B2113
:10908000414880F80314702180F80214632180F8AD
:109090000514482180F80414322180F807143C217B
:1090A00080F80614A52180F809147D2180F80814A1
:1090B000642180F80B14E12180F80A14F22180F871
:1090C0000D14C22180F80C14BF2180F80F14422126
:1090D00080F80E14002180F8111480F8101480F824
:1090E0001314EC2180F8121480F81514002180F874
:1090F000141480F81714EC2180F8161480F8191451
:10910000002180F818141A2200F580611F48FBF72F
:109110009FF803F0BDFA20B900BF00BF00BF0020D8
:1091200008BD4FF07E5000906A460121C32000F038
:10913000A9F8FA2004F050FB002000906A460121B3
:10914000C62000F09FF86A460121C42000F09AF87A
:109150006A460121C52000F095F8FFF793F820B981
:1091600000BF00BF00BF0020DAE7FEF71BFE20B9FA
:1091700000BF00BF00BF0020D2E7FDF7C5FA04F032
:1091800055F800BF0120CBE79D0F0020A40E002062
:109190002DE9F0470546254801682846FBF70AFCFB
:1091A00002D82348BDE8F0872048D0F8801228462E
:1091B000FBF7F6FB01D81F48F4E7002431E01B4819
:1091C00050F824102846FBF7EBFB28D8174A601C00
:1091D00052F820102846FBF7EDFB20D8134B621CF9
:1091E00053F822101A4652F82400FBF7F2F8814691
:1091F0000E4850F824102846FBF7EEF88246494600
:10920000FBF71FF907462046FBF7EAFA8046394686
:10921000FBF78DF806460849FBF7DBF8C2E7601C50
:10922000C4B2A02CCBDB0548BCE700003401002011
:10923000000048C20000DC4200004842008088C3B1
:1092400010B50E480068401C0C4908600C48B0F886
:109250003D0509684843FA2802D200BF012010BD2D
:10926000002006490860FEF79DFD20B900BF00BF41
:1092700000BF0020F3E700BF0120F0E7B8030020A3
:109280009D0F002007B590B0129828B900BF00BF0D
:1092900000BF002013B000BD10980E9003F0B2B8CC
:1092A0000E98182819DC10990E98411A129850F847
:1092B00021000C90FBF7D0FAC2B20E980D9000EB93
:1092C000D07041100D98A0EB41010E98401CA0EB0E
:1092D0004100FA490A5403F091B80E9840281CDB6B
:1092E0000E98722819DC10990E98411A129850F8AD
:1092F00021000C90FBF7B0FAC2B20E980D9000EB73
:10930000D07041100D98A0EB41010E983F38A0EBB2
:109310004101EA481A304254DDE70E9880287DDB8F
:109320000E98AA287ADC0E9880382A2877D2DFE8AF
:1093300000F0152535455565778797A7B7C7F5F32D
:10934000F2F1F0EFEEEDECEBEAE9E8E7E6E5E4E375
:10935000E2E1E0DFDEDDDCDBDAD9D8D710990E9868
:10936000411A129850F821000D90FBF775FAD34975
:10937000497860F30301D1484170B6E210990E9824
:10938000411A129850F821000D90FBF765FACB496D
:10939000497860F30411C9484170A6E210990E980B
:1093A000411A129850F821000D90FBF755FAC34965
:1093B000497860F30411C148417096E210990E9803
:1093C000411A129850F821000D90FBF745FABB495D
:1093D000497860F30411B948417086E210990E98FB
:1093E000411A129850F821000D90FBF735FAB34955
:1093F000497860F30411B148417076E210990E98F3
:10940000411A129850F821000D90FBF725FAAB494C
:10941000497860F30411A948417066E266E25FE2B0
:1094200010990E98411A129850F821000D90FBF7F0
:1094300013FAA249497860F30411A048417054E23C
:1094400010990E98411A129850F821000D90FBF7D0
:1094500003FA9A49497860F304119848417044E24C
:1094600010990E98411A129850F821000D90FBF7B0
:10947000F3F99249497860F304119048417034E25D
:1094800010990E98411A129850F821000D90FBF790
:10949000E3F98A49497860F304118848417024E26D
:1094A00010990E98411A129850F821000D90FBF770
:1094B000D3F98249497860F304118048417014E27D
:1094C00010990E98411A129850F821000D90FBF750
:1094D000C3F97A49497860F304117848417004E28D
:1094E000EEE1DDE1CCE1BBE1AAE199E188E177E1E0
:1094F00066E155E144E133E122E111E100E1EFE011
:10950000DEE0CBE0BAE0A9E098E087E076E065E055
:1095100054E043E032E021E010E0FFE710990E98BC
:10952000411A129850F821000D90FBF795F9634904
:10953000497860F3041161484170D6E110990E98A2
:10954000411A129850F821000D90FBF785F95B49FC
:10955000497860F3041159484170C6E110990E989A
:10956000411A129850F821000D90FBF775F95349F4
:10957000497860F3041151484170B6E110990E9892
:10958000411A129850F821000D90FBF765F94B49EC
:10959000497860F3041149484170A6E110990E988A
:1095A000411A129850F821000D90FBF755F94349E4
:1095B000497860F304114148417096E110990E9882
:1095C000411A129850F821000D90FBF745F93B49DC
:1095D000497860F304113948417086E110990E987A
:1095E000411A129850F821000D90FBF735F93349D4
:1095F000497860F304113148417076E110990E9872
:10960000411A129850F821000D90FBF725F92B49CB
:10961000497860F304112948417066E110990E9869
:10962000411A129850F821000D90FBF715F92349C3
:10963000497860F304112148417056E110990E9861
:10964000411A129850F821000D90FBF705F91B49BB
:10965000497860F304111948417046E110990E9859
:10966000411A129850F821000D90FBF7F5F81349B4
:10967000497860F304111148417036E110990E9851
:10968000411A129850F821000D90FBF7E5F80B49AC
:10969000497860F304110948417026E110990E9849
:1096A000411A129850F821000D90FBF7D5F80349A4
:1096B000497860F304110148417016E1A40E0020BE
:1096C00010990E98411A129850F821000D90FBF74E
:1096D000C3F8F849497860F30411F648417004E191
:1096E00010990E98411A129850F821000D90FBF72E
:1096F000B3F8F049497860F30411EE484170F4E0A2
:1097000010990E98411A129850F821000D90FBF70D
:10971000A3F8E849497860F30411E6484170E4E0B1
:1097200010990E98411A129850F821000D90FBF7ED
:1097300093F8E049497860F30411DE484170D4E0C1
:1097400010990E98411A129850F821000D90FBF7CD
:1097500083F8D849497860F30411D6484170C4E0D1
:1097600010990E98411A129850F821000D90FBF7AD
:1097700073F8D049497860F30411CE484170B4E0E1
:1097800010990E98411A129850F821000D90FBF78D
:1097900063F8C849497860F30411C6484170A4E0F1
:1097A00010990E98411A129850F821000D90FBF76D
:1097B00053F8C049497860F30411BE48417094E001
:1097C00010990E98411A129850F821000D90FBF74D
:1097D00043F8B849497860F30411B648417084E011
:1097E00010990E98411A129850F821000D90FBF72D
:1097F00033F8B049497860F30411AE48417074E021
:1098000010990E98411A129850F821000D90FBF70C
:1098100023F8A849497860F30411A648417064E030
:1098200010990E98411A129850F821000D90FBF7EC
:1098300013F8A049497860F304119E48417054E040
:1098400010990E98411A129850F821000D90FBF7CC
:1098500003F89849497860F304119648417044E050
:1098600010990E98411A129850F821000D90FAF7AD
:10987000F3FF9049497860F304118E48417034E059
:1098800010990E98411A129850F821000D90FAF78D
:10989000E3FF8849497860F304118648417024E069
:1098A00010990E98411A129850F821000D90FAF76D
:1098B000D3FF8049497860F304117E48417014E079
:1098C00010990E98411A129850F821000D90FAF74D
:1098D000C3FF7849497860F304117648417004E089
:1098E00000BF00BF00BF0020D4E4F4E40E98C028FD
:1098F0007ADB0E98B0F5817F76DA0E98C038412871
:1099000073D2DFE800F02131415161738393A37278
:109910007272727272727272727272727272727227
:109920007272BCC9F9F7F6F5F4F3F2F1F0EFEEED6F
:10993000ECEBEAE9E8E7E6E5E4E3E2E1E0DFDEDDDF
:10994000DCDBDA7272D9D60010990E98411A12989F
:1099500050F821000D90FAF77FFF5649C97E60F359
:1099600000015448C176C7E210990E98411A129826
:1099700050F821000D90FAF76FFF4E49C97E60F351
:1099800041014C48C176B7E210990E98411A1298DD
:1099900050F821000D90FAF75FFF4649C97E60F349
:1099A00082014448C176A7E210990E98411A129894
:1099B00050F821000D90FAF74FFF3E49C97E60F341
:1099C000C3013C48C17697E210990E98411A12984B
:1099D00050F821000D90FAF73FFF3649C97E60F339
:1099E00004113448C17687E287E27DE210990E982F
:1099F000411A129850F821000D90FAF72DFF2D49C9
:109A0000C97E60F345112B48C17675E210990E9816
:109A1000411A129850F821000D90FAF71DFF2549C0
:109A2000C97E60F386112348C17665E210990E98CD
:109A3000411A129850F821000D90FAF70DFF1D49B8
:109A4000C97E60F3C7111B48C17655E210990E9884
:109A5000411A129850F821000D90FAF7FDFE000A05
:109A60001449887610990E98411A129850F82100DE
:109A70000D90FAF7F1FEC1B20E4841773CE2109921
:109A80000E98411A129850F821000D90FAF7E4FE52
:109A900081B2084801842FE210990E98411A129859
:109AA00050F821000D90FAF7D7FE81B201484184A9
:109AB00022E207E2A40E0020F2E1DFE1CCE1B9E10D
:109AC000A6E193E180E16DE15AE147E134E121E172
:109AD0000EE1FFE0F0E0E1E0D2E0C3E0B5E0A7E0B6
